{
	"src/GenesisBoomerNFT.sol": {
		"GenesisBoomerNFT": {
			"abi": [
				{
					"inputs": [
						{
							"internalType": "uint256",
							"name": "_mintPrice",
							"type": "uint256"
						}
					],
					"stateMutability": "nonpayable",
					"type": "constructor"
				},
				{
					"inputs": [
						{
							"internalType": "address",
							"name": "sender",
							"type": "address"
						},
						{
							"internalType": "uint256",
							"name": "tokenId",
							"type": "uint256"
						},
						{
							"internalType": "address",
							"name": "owner",
							"type": "address"
						}
					],
					"name": "ERC721IncorrectOwner",
					"type": "error"
				},
				{
					"inputs": [
						{
							"internalType": "address",
							"name": "operator",
							"type": "address"
						},
						{
							"internalType": "uint256",
							"name": "tokenId",
							"type": "uint256"
						}
					],
					"name": "ERC721InsufficientApproval",
					"type": "error"
				},
				{
					"inputs": [
						{
							"internalType": "address",
							"name": "approver",
							"type": "address"
						}
					],
					"name": "ERC721InvalidApprover",
					"type": "error"
				},
				{
					"inputs": [
						{
							"internalType": "address",
							"name": "operator",
							"type": "address"
						}
					],
					"name": "ERC721InvalidOperator",
					"type": "error"
				},
				{
					"inputs": [
						{
							"internalType": "address",
							"name": "owner",
							"type": "address"
						}
					],
					"name": "ERC721InvalidOwner",
					"type": "error"
				},
				{
					"inputs": [
						{
							"internalType": "address",
							"name": "receiver",
							"type": "address"
						}
					],
					"name": "ERC721InvalidReceiver",
					"type": "error"
				},
				{
					"inputs": [
						{
							"internalType": "address",
							"name": "sender",
							"type": "address"
						}
					],
					"name": "ERC721InvalidSender",
					"type": "error"
				},
				{
					"inputs": [
						{
							"internalType": "uint256",
							"name": "tokenId",
							"type": "uint256"
						}
					],
					"name": "ERC721NonexistentToken",
					"type": "error"
				},
				{
					"inputs": [
						{
							"internalType": "address",
							"name": "owner",
							"type": "address"
						}
					],
					"name": "OwnableInvalidOwner",
					"type": "error"
				},
				{
					"inputs": [
						{
							"internalType": "address",
							"name": "account",
							"type": "address"
						}
					],
					"name": "OwnableUnauthorizedAccount",
					"type": "error"
				},
				{
					"inputs": [],
					"name": "ReentrancyGuardReentrantCall",
					"type": "error"
				},
				{
					"anonymous": false,
					"inputs": [
						{
							"indexed": true,
							"internalType": "address",
							"name": "owner",
							"type": "address"
						},
						{
							"indexed": true,
							"internalType": "address",
							"name": "approved",
							"type": "address"
						},
						{
							"indexed": true,
							"internalType": "uint256",
							"name": "tokenId",
							"type": "uint256"
						}
					],
					"name": "Approval",
					"type": "event"
				},
				{
					"anonymous": false,
					"inputs": [
						{
							"indexed": true,
							"internalType": "address",
							"name": "owner",
							"type": "address"
						},
						{
							"indexed": true,
							"internalType": "address",
							"name": "operator",
							"type": "address"
						},
						{
							"indexed": false,
							"internalType": "bool",
							"name": "approved",
							"type": "bool"
						}
					],
					"name": "ApprovalForAll",
					"type": "event"
				},
				{
					"anonymous": false,
					"inputs": [
						{
							"indexed": true,
							"internalType": "address",
							"name": "user",
							"type": "address"
						},
						{
							"indexed": false,
							"internalType": "string",
							"name": "message",
							"type": "string"
						}
					],
					"name": "GenesisBoomerProof",
					"type": "event"
				},
				{
					"anonymous": false,
					"inputs": [
						{
							"indexed": false,
							"internalType": "uint256",
							"name": "newPrice",
							"type": "uint256"
						}
					],
					"name": "MintPriceChanged",
					"type": "event"
				},
				{
					"anonymous": false,
					"inputs": [
						{
							"indexed": false,
							"internalType": "address",
							"name": "to",
							"type": "address"
						},
						{
							"indexed": false,
							"internalType": "uint256",
							"name": "tokenId",
							"type": "uint256"
						}
					],
					"name": "Minted",
					"type": "event"
				},
				{
					"anonymous": false,
					"inputs": [],
					"name": "MintingDisabled",
					"type": "event"
				},
				{
					"anonymous": false,
					"inputs": [
						{
							"indexed": false,
							"internalType": "uint256",
							"name": "mintCap",
							"type": "uint256"
						}
					],
					"name": "MintingEnabled",
					"type": "event"
				},
				{
					"anonymous": false,
					"inputs": [
						{
							"indexed": true,
							"internalType": "address",
							"name": "previousOwner",
							"type": "address"
						},
						{
							"indexed": true,
							"internalType": "address",
							"name": "newOwner",
							"type": "address"
						}
					],
					"name": "OwnershipTransferred",
					"type": "event"
				},
				{
					"anonymous": false,
					"inputs": [
						{
							"indexed": true,
							"internalType": "address",
							"name": "from",
							"type": "address"
						},
						{
							"indexed": true,
							"internalType": "address",
							"name": "to",
							"type": "address"
						},
						{
							"indexed": true,
							"internalType": "uint256",
							"name": "tokenId",
							"type": "uint256"
						}
					],
					"name": "Transfer",
					"type": "event"
				},
				{
					"inputs": [],
					"name": "MAX_SUPPLY",
					"outputs": [
						{
							"internalType": "uint256",
							"name": "",
							"type": "uint256"
						}
					],
					"stateMutability": "view",
					"type": "function"
				},
				{
					"inputs": [],
					"name": "TOKEN_URI",
					"outputs": [
						{
							"internalType": "string",
							"name": "",
							"type": "string"
						}
					],
					"stateMutability": "view",
					"type": "function"
				},
				{
					"inputs": [
						{
							"internalType": "address",
							"name": "to",
							"type": "address"
						},
						{
							"internalType": "uint256",
							"name": "tokenId",
							"type": "uint256"
						}
					],
					"name": "approve",
					"outputs": [],
					"stateMutability": "nonpayable",
					"type": "function"
				},
				{
					"inputs": [
						{
							"internalType": "address",
							"name": "owner",
							"type": "address"
						}
					],
					"name": "balanceOf",
					"outputs": [
						{
							"internalType": "uint256",
							"name": "",
							"type": "uint256"
						}
					],
					"stateMutability": "view",
					"type": "function"
				},
				{
					"inputs": [],
					"name": "disableMinting",
					"outputs": [],
					"stateMutability": "nonpayable",
					"type": "function"
				},
				{
					"inputs": [
						{
							"internalType": "uint256",
							"name": "_mintCap",
							"type": "uint256"
						}
					],
					"name": "enableMinting",
					"outputs": [],
					"stateMutability": "nonpayable",
					"type": "function"
				},
				{
					"inputs": [
						{
							"internalType": "uint256",
							"name": "tokenId",
							"type": "uint256"
						}
					],
					"name": "getApproved",
					"outputs": [
						{
							"internalType": "address",
							"name": "",
							"type": "address"
						}
					],
					"stateMutability": "view",
					"type": "function"
				},
				{
					"inputs": [
						{
							"internalType": "address",
							"name": "",
							"type": "address"
						}
					],
					"name": "hasMinted",
					"outputs": [
						{
							"internalType": "bool",
							"name": "",
							"type": "bool"
						}
					],
					"stateMutability": "view",
					"type": "function"
				},
				{
					"inputs": [
						{
							"internalType": "address",
							"name": "owner",
							"type": "address"
						},
						{
							"internalType": "address",
							"name": "operator",
							"type": "address"
						}
					],
					"name": "isApprovedForAll",
					"outputs": [
						{
							"internalType": "bool",
							"name": "",
							"type": "bool"
						}
					],
					"stateMutability": "view",
					"type": "function"
				},
				{
					"inputs": [],
					"name": "mint",
					"outputs": [],
					"stateMutability": "payable",
					"type": "function"
				},
				{
					"inputs": [],
					"name": "mintCap",
					"outputs": [
						{
							"internalType": "uint256",
							"name": "",
							"type": "uint256"
						}
					],
					"stateMutability": "view",
					"type": "function"
				},
				{
					"inputs": [],
					"name": "mintPrice",
					"outputs": [
						{
							"internalType": "uint256",
							"name": "",
							"type": "uint256"
						}
					],
					"stateMutability": "view",
					"type": "function"
				},
				{
					"inputs": [],
					"name": "mintedSum",
					"outputs": [
						{
							"internalType": "uint256",
							"name": "",
							"type": "uint256"
						}
					],
					"stateMutability": "view",
					"type": "function"
				},
				{
					"inputs": [],
					"name": "mintingEnabled",
					"outputs": [
						{
							"internalType": "bool",
							"name": "",
							"type": "bool"
						}
					],
					"stateMutability": "view",
					"type": "function"
				},
				{
					"inputs": [],
					"name": "name",
					"outputs": [
						{
							"internalType": "string",
							"name": "",
							"type": "string"
						}
					],
					"stateMutability": "view",
					"type": "function"
				},
				{
					"inputs": [],
					"name": "owner",
					"outputs": [
						{
							"internalType": "address",
							"name": "",
							"type": "address"
						}
					],
					"stateMutability": "view",
					"type": "function"
				},
				{
					"inputs": [
						{
							"internalType": "uint256",
							"name": "tokenId",
							"type": "uint256"
						}
					],
					"name": "ownerOf",
					"outputs": [
						{
							"internalType": "address",
							"name": "",
							"type": "address"
						}
					],
					"stateMutability": "view",
					"type": "function"
				},
				{
					"inputs": [],
					"name": "renounceOwnership",
					"outputs": [],
					"stateMutability": "nonpayable",
					"type": "function"
				},
				{
					"inputs": [
						{
							"internalType": "address",
							"name": "from",
							"type": "address"
						},
						{
							"internalType": "address",
							"name": "to",
							"type": "address"
						},
						{
							"internalType": "uint256",
							"name": "tokenId",
							"type": "uint256"
						}
					],
					"name": "safeTransferFrom",
					"outputs": [],
					"stateMutability": "nonpayable",
					"type": "function"
				},
				{
					"inputs": [
						{
							"internalType": "address",
							"name": "from",
							"type": "address"
						},
						{
							"internalType": "address",
							"name": "to",
							"type": "address"
						},
						{
							"internalType": "uint256",
							"name": "tokenId",
							"type": "uint256"
						},
						{
							"internalType": "bytes",
							"name": "data",
							"type": "bytes"
						}
					],
					"name": "safeTransferFrom",
					"outputs": [],
					"stateMutability": "nonpayable",
					"type": "function"
				},
				{
					"inputs": [
						{
							"internalType": "address",
							"name": "operator",
							"type": "address"
						},
						{
							"internalType": "bool",
							"name": "approved",
							"type": "bool"
						}
					],
					"name": "setApprovalForAll",
					"outputs": [],
					"stateMutability": "nonpayable",
					"type": "function"
				},
				{
					"inputs": [
						{
							"internalType": "uint256",
							"name": "_newPrice",
							"type": "uint256"
						}
					],
					"name": "setMintPrice",
					"outputs": [],
					"stateMutability": "nonpayable",
					"type": "function"
				},
				{
					"inputs": [],
					"name": "signGenesisProof",
					"outputs": [],
					"stateMutability": "nonpayable",
					"type": "function"
				},
				{
					"inputs": [
						{
							"internalType": "bytes4",
							"name": "interfaceId",
							"type": "bytes4"
						}
					],
					"name": "supportsInterface",
					"outputs": [
						{
							"internalType": "bool",
							"name": "",
							"type": "bool"
						}
					],
					"stateMutability": "view",
					"type": "function"
				},
				{
					"inputs": [],
					"name": "symbol",
					"outputs": [
						{
							"internalType": "string",
							"name": "",
							"type": "string"
						}
					],
					"stateMutability": "view",
					"type": "function"
				},
				{
					"inputs": [
						{
							"internalType": "uint256",
							"name": "tokenId",
							"type": "uint256"
						}
					],
					"name": "tokenURI",
					"outputs": [
						{
							"internalType": "string",
							"name": "",
							"type": "string"
						}
					],
					"stateMutability": "view",
					"type": "function"
				},
				{
					"inputs": [],
					"name": "totalSupply",
					"outputs": [
						{
							"internalType": "uint256",
							"name": "",
							"type": "uint256"
						}
					],
					"stateMutability": "view",
					"type": "function"
				},
				{
					"inputs": [
						{
							"internalType": "address",
							"name": "from",
							"type": "address"
						},
						{
							"internalType": "address",
							"name": "to",
							"type": "address"
						},
						{
							"internalType": "uint256",
							"name": "tokenId",
							"type": "uint256"
						}
					],
					"name": "transferFrom",
					"outputs": [],
					"stateMutability": "nonpayable",
					"type": "function"
				},
				{
					"inputs": [
						{
							"internalType": "address",
							"name": "newOwner",
							"type": "address"
						}
					],
					"name": "transferOwnership",
					"outputs": [],
					"stateMutability": "nonpayable",
					"type": "function"
				},
				{
					"inputs": [],
					"name": "withdraw",
					"outputs": [],
					"stateMutability": "nonpayable",
					"type": "function"
				}
			],
			"devdoc": {
				"errors": {
					"ERC721IncorrectOwner(address,uint256,address)": [
						{
							"details": "Indicates an error related to the ownership over a particular token. Used in transfers.",
							"params": {
								"owner": "Address of the current owner of a token.",
								"sender": "Address whose tokens are being transferred.",
								"tokenId": "Identifier number of a token."
							}
						}
					],
					"ERC721InsufficientApproval(address,uint256)": [
						{
							"details": "Indicates a failure with the `operator`’s approval. Used in transfers.",
							"params": {
								"operator": "Address that may be allowed to operate on tokens without being their owner.",
								"tokenId": "Identifier number of a token."
							}
						}
					],
					"ERC721InvalidApprover(address)": [
						{
							"details": "Indicates a failure with the `approver` of a token to be approved. Used in approvals.",
							"params": {
								"approver": "Address initiating an approval operation."
							}
						}
					],
					"ERC721InvalidOperator(address)": [
						{
							"details": "Indicates a failure with the `operator` to be approved. Used in approvals.",
							"params": {
								"operator": "Address that may be allowed to operate on tokens without being their owner."
							}
						}
					],
					"ERC721InvalidOwner(address)": [
						{
							"details": "Indicates that an address can't be an owner. For example, `address(0)` is a forbidden owner in EIP-20. Used in balance queries.",
							"params": {
								"owner": "Address of the current owner of a token."
							}
						}
					],
					"ERC721InvalidReceiver(address)": [
						{
							"details": "Indicates a failure with the token `receiver`. Used in transfers.",
							"params": {
								"receiver": "Address to which tokens are being transferred."
							}
						}
					],
					"ERC721InvalidSender(address)": [
						{
							"details": "Indicates a failure with the token `sender`. Used in transfers.",
							"params": {
								"sender": "Address whose tokens are being transferred."
							}
						}
					],
					"ERC721NonexistentToken(uint256)": [
						{
							"details": "Indicates a `tokenId` whose `owner` is the zero address.",
							"params": {
								"tokenId": "Identifier number of a token."
							}
						}
					],
					"OwnableInvalidOwner(address)": [
						{
							"details": "The owner is not a valid owner account. (eg. `address(0)`)"
						}
					],
					"OwnableUnauthorizedAccount(address)": [
						{
							"details": "The caller account is not authorized to perform an operation."
						}
					],
					"ReentrancyGuardReentrantCall()": [
						{
							"details": "Unauthorized reentrant call."
						}
					]
				},
				"events": {
					"Approval(address,address,uint256)": {
						"details": "Emitted when `owner` enables `approved` to manage the `tokenId` token."
					},
					"ApprovalForAll(address,address,bool)": {
						"details": "Emitted when `owner` enables or disables (`approved`) `operator` to manage all of its assets."
					},
					"Transfer(address,address,uint256)": {
						"details": "Emitted when `tokenId` token is transferred from `from` to `to`."
					}
				},
				"kind": "dev",
				"methods": {
					"approve(address,uint256)": {
						"details": "See {IERC721-approve}."
					},
					"balanceOf(address)": {
						"details": "See {IERC721-balanceOf}."
					},
					"getApproved(uint256)": {
						"details": "See {IERC721-getApproved}."
					},
					"isApprovedForAll(address,address)": {
						"details": "See {IERC721-isApprovedForAll}."
					},
					"name()": {
						"details": "See {IERC721Metadata-name}."
					},
					"owner()": {
						"details": "Returns the address of the current owner."
					},
					"ownerOf(uint256)": {
						"details": "See {IERC721-ownerOf}."
					},
					"renounceOwnership()": {
						"details": "Leaves the contract without owner. It will not be possible to call `onlyOwner` functions. Can only be called by the current owner. NOTE: Renouncing ownership will leave the contract without an owner, thereby disabling any functionality that is only available to the owner."
					},
					"safeTransferFrom(address,address,uint256)": {
						"details": "See {IERC721-safeTransferFrom}."
					},
					"safeTransferFrom(address,address,uint256,bytes)": {
						"details": "See {IERC721-safeTransferFrom}."
					},
					"setApprovalForAll(address,bool)": {
						"details": "See {IERC721-setApprovalForAll}."
					},
					"supportsInterface(bytes4)": {
						"details": "See {IERC165-supportsInterface}."
					},
					"symbol()": {
						"details": "See {IERC721Metadata-symbol}."
					},
					"tokenURI(uint256)": {
						"details": "See {IERC721Metadata-tokenURI}."
					},
					"transferFrom(address,address,uint256)": {
						"details": "See {IERC721-transferFrom}."
					},
					"transferOwnership(address)": {
						"details": "Transfers ownership of the contract to a new account (`newOwner`). Can only be called by the current owner."
					}
				},
				"version": 1
			},
			"evm": {
				"assembly": "    /* \"src/GenesisBoomerNFT.sol\":229:3247  contract GenesisBoomerNFT is ERC721, ReentrancyGuard, Ownable {... */\n  mstore(0x40, 0x80)\n    /* \"src/GenesisBoomerNFT.sol\":470:475  false */\n  0x00\n    /* \"src/GenesisBoomerNFT.sol\":441:475  bool public mintingEnabled = false */\n  0x07\n  exp(0x0100, 0x14)\n  dup2\n  sload\n  dup2\n  0xff\n  mul\n  not\n  and\n  swap1\n  dup4\n  iszero\n  iszero\n  mul\n  or\n  swap1\n  sstore\n  pop\n    /* \"src/GenesisBoomerNFT.sol\":957:1345  constructor(uint256 _mintPrice) ERC721(\"GenesisBoomerNFT\", \"GBT\") Ownable(msg.sender) {... */\n  callvalue\n  dup1\n  iszero\n  tag_1\n  jumpi\n  0x00\n  dup1\n  revert\ntag_1:\n  pop\n  mload(0x40)\n  sub(codesize, bytecodeSize)\n  dup1\n  bytecodeSize\n  dup4\n  codecopy\n  dup2\n  dup2\n  add\n  0x40\n  mstore\n  dup2\n  add\n  swap1\n  tag_2\n  swap2\n  swap1\n  tag_3\n  jump\t// in\ntag_2:\n    /* \"src/GenesisBoomerNFT.sol\":1031:1041  msg.sender */\n  caller\n    /* \"lib/openzeppelin-contracts/contracts/token/ERC721/ERC721.sol\":1381:1494  constructor(string memory name_, string memory symbol_) {... */\n  mload(0x40)\n  dup1\n  0x40\n  add\n  0x40\n  mstore\n  dup1\n  0x10\n  dup2\n  mstore\n  0x20\n  add\n  0x47656e65736973426f6f6d65724e465400000000000000000000000000000000\n  dup2\n  mstore\n  pop\n  mload(0x40)\n  dup1\n  0x40\n  add\n  0x40\n  mstore\n  dup1\n  0x03\n  dup2\n  mstore\n  0x20\n  add\n  0x4742540000000000000000000000000000000000000000000000000000000000\n  dup2\n  mstore\n  pop\n    /* \"lib/openzeppelin-contracts/contracts/token/ERC721/ERC721.sol\":1455:1460  name_ */\n  dup2\n    /* \"lib/openzeppelin-contracts/contracts/token/ERC721/ERC721.sol\":1447:1452  _name */\n  0x00\n    /* \"lib/openzeppelin-contracts/contracts/token/ERC721/ERC721.sol\":1447:1460  _name = name_ */\n  swap1\n  dup2\n  tag_9\n  swap2\n  swap1\n  tag_10\n  jump\t// in\ntag_9:\n  pop\n    /* \"lib/openzeppelin-contracts/contracts/token/ERC721/ERC721.sol\":1480:1487  symbol_ */\n  dup1\n    /* \"lib/openzeppelin-contracts/contracts/token/ERC721/ERC721.sol\":1470:1477  _symbol */\n  0x01\n    /* \"lib/openzeppelin-contracts/contracts/token/ERC721/ERC721.sol\":1470:1487  _symbol = symbol_ */\n  swap1\n  dup2\n  tag_11\n  swap2\n  swap1\n  tag_10\n  jump\t// in\ntag_11:\n  pop\n    /* \"lib/openzeppelin-contracts/contracts/token/ERC721/ERC721.sol\":1381:1494  constructor(string memory name_, string memory symbol_) {... */\n  pop\n  pop\n    /* \"lib/openzeppelin-contracts/contracts/utils/ReentrancyGuard.sol\":1713:1714  1 */\n  0x01\n    /* \"lib/openzeppelin-contracts/contracts/utils/ReentrancyGuard.sol\":1917:1924  _status */\n  0x06\n    /* \"lib/openzeppelin-contracts/contracts/utils/ReentrancyGuard.sol\":1917:1938  _status = NOT_ENTERED */\n  dup2\n  swap1\n  sstore\n  pop\n    /* \"lib/openzeppelin-contracts/contracts/access/Ownable.sol\":1297:1298  0 */\n  0x00\n    /* \"lib/openzeppelin-contracts/contracts/access/Ownable.sol\":1273:1299  initialOwner == address(0) */\n  0xffffffffffffffffffffffffffffffffffffffff\n  and\n    /* \"lib/openzeppelin-contracts/contracts/access/Ownable.sol\":1273:1285  initialOwner */\n  dup2\n    /* \"lib/openzeppelin-contracts/contracts/access/Ownable.sol\":1273:1299  initialOwner == address(0) */\n  0xffffffffffffffffffffffffffffffffffffffff\n  and\n  sub\n    /* \"lib/openzeppelin-contracts/contracts/access/Ownable.sol\":1269:1364  if (initialOwner == address(0)) {... */\n  tag_14\n  jumpi\n    /* \"lib/openzeppelin-contracts/contracts/access/Ownable.sol\":1350:1351  0 */\n  0x00\n    /* \"lib/openzeppelin-contracts/contracts/access/Ownable.sol\":1322:1353  OwnableInvalidOwner(address(0)) */\n  mload(0x40)\n  0x1e4fbdf700000000000000000000000000000000000000000000000000000000\n  dup2\n  mstore\n  0x04\n  add\n  tag_15\n  swap2\n  swap1\n  tag_16\n  jump\t// in\ntag_15:\n  mload(0x40)\n  dup1\n  swap2\n  sub\n  swap1\n  revert\n    /* \"lib/openzeppelin-contracts/contracts/access/Ownable.sol\":1269:1364  if (initialOwner == address(0)) {... */\ntag_14:\n    /* \"lib/openzeppelin-contracts/contracts/access/Ownable.sol\":1373:1405  _transferOwnership(initialOwner) */\n  tag_17\n    /* \"lib/openzeppelin-contracts/contracts/access/Ownable.sol\":1392:1404  initialOwner */\n  dup2\n    /* \"lib/openzeppelin-contracts/contracts/access/Ownable.sol\":1373:1391  _transferOwnership */\n  shl(0x20, tag_18)\n    /* \"lib/openzeppelin-contracts/contracts/access/Ownable.sol\":1373:1405  _transferOwnership(initialOwner) */\n  0x20\n  shr\n  jump\t// in\ntag_17:\n    /* \"lib/openzeppelin-contracts/contracts/access/Ownable.sol\":1225:1412  constructor(address initialOwner) {... */\n  pop\n    /* \"src/GenesisBoomerNFT.sol\":1065:1075  _mintPrice */\n  dup1\n    /* \"src/GenesisBoomerNFT.sol\":1053:1062  mintPrice */\n  0x08\n    /* \"src/GenesisBoomerNFT.sol\":1053:1075  mintPrice = _mintPrice */\n  dup2\n  swap1\n  sstore\n  pop\n    /* \"src/GenesisBoomerNFT.sol\":1123:1144  uint256 preMintAmount */\n  0x00\n    /* \"src/GenesisBoomerNFT.sol\":1165:1168  100 */\n  0x64\n    /* \"src/GenesisBoomerNFT.sol\":1160:1162  15 */\n  0x0f\n    /* \"src/GenesisBoomerNFT.sol\":334:339  21000 */\n  0x5208\n    /* \"src/GenesisBoomerNFT.sol\":1147:1162  MAX_SUPPLY * 15 */\n  tag_20\n  swap2\n  swap1\n  tag_21\n  jump\t// in\ntag_20:\n    /* \"src/GenesisBoomerNFT.sol\":1147:1168  MAX_SUPPLY * 15 / 100 */\n  tag_22\n  swap2\n  swap1\n  tag_23\n  jump\t// in\ntag_22:\n    /* \"src/GenesisBoomerNFT.sol\":1123:1168  uint256 preMintAmount = MAX_SUPPLY * 15 / 100 */\n  swap1\n  pop\n    /* \"src/GenesisBoomerNFT.sol\":1183:1192  uint256 i */\n  0x00\n    /* \"src/GenesisBoomerNFT.sol\":1195:1196  1 */\n  0x01\n    /* \"src/GenesisBoomerNFT.sol\":1183:1196  uint256 i = 1 */\n  swap1\n  pop\n    /* \"src/GenesisBoomerNFT.sol\":1178:1296  for (uint256 i = 1; i <= preMintAmount; i++) {... */\ntag_24:\n    /* \"src/GenesisBoomerNFT.sol\":1203:1216  preMintAmount */\n  dup2\n    /* \"src/GenesisBoomerNFT.sol\":1198:1199  i */\n  dup2\n    /* \"src/GenesisBoomerNFT.sol\":1198:1216  i <= preMintAmount */\n  gt\n    /* \"src/GenesisBoomerNFT.sol\":1178:1296  for (uint256 i = 1; i <= preMintAmount; i++) {... */\n  tag_25\n  jumpi\n    /* \"src/GenesisBoomerNFT.sol\":1237:1248  totalSupply */\n  0x0b\n  0x00\n    /* \"src/GenesisBoomerNFT.sol\":1237:1250  totalSupply++ */\n  dup2\n  sload\n  dup1\n  swap3\n  swap2\n  swap1\n  tag_27\n  swap1\n  tag_28\n  jump\t// in\ntag_27:\n  swap2\n  swap1\n  pop\n  sstore\n  pop\n    /* \"src/GenesisBoomerNFT.sol\":1264:1285  _safeMint(owner(), i) */\n  tag_29\n    /* \"src/GenesisBoomerNFT.sol\":1274:1281  owner() */\n  tag_30\n    /* \"src/GenesisBoomerNFT.sol\":1274:1279  owner */\n  shl(0x20, tag_31)\n    /* \"src/GenesisBoomerNFT.sol\":1274:1281  owner() */\n  0x20\n  shr\n  jump\t// in\ntag_30:\n    /* \"src/GenesisBoomerNFT.sol\":1283:1284  i */\n  dup3\n    /* \"src/GenesisBoomerNFT.sol\":1264:1273  _safeMint */\n  shl(0x20, tag_32)\n    /* \"src/GenesisBoomerNFT.sol\":1264:1285  _safeMint(owner(), i) */\n  0x20\n  shr\n  jump\t// in\ntag_29:\n    /* \"src/GenesisBoomerNFT.sol\":1218:1221  i++ */\n  dup1\n  dup1\n  tag_33\n  swap1\n  tag_28\n  jump\t// in\ntag_33:\n  swap2\n  pop\n  pop\n    /* \"src/GenesisBoomerNFT.sol\":1178:1296  for (uint256 i = 1; i <= preMintAmount; i++) {... */\n  jump(tag_24)\ntag_25:\n  pop\n    /* \"src/GenesisBoomerNFT.sol\":1310:1338  Minted(owner(), totalSupply) */\n  0x30385c845b448a36257a6a1716e6ad2e1bc2cbe333cde1e69fe849ad6511adfe\n    /* \"src/GenesisBoomerNFT.sol\":1317:1324  owner() */\n  tag_34\n    /* \"src/GenesisBoomerNFT.sol\":1317:1322  owner */\n  shl(0x20, tag_31)\n    /* \"src/GenesisBoomerNFT.sol\":1317:1324  owner() */\n  0x20\n  shr\n  jump\t// in\ntag_34:\n    /* \"src/GenesisBoomerNFT.sol\":1326:1337  totalSupply */\n  sload(0x0b)\n    /* \"src/GenesisBoomerNFT.sol\":1310:1338  Minted(owner(), totalSupply) */\n  mload(0x40)\n  tag_35\n  swap3\n  swap2\n  swap1\n  tag_36\n  jump\t// in\ntag_35:\n  mload(0x40)\n  dup1\n  swap2\n  sub\n  swap1\n  log1\n    /* \"src/GenesisBoomerNFT.sol\":1043:1345  {... */\n  pop\n    /* \"src/GenesisBoomerNFT.sol\":957:1345  constructor(uint256 _mintPrice) ERC721(\"GenesisBoomerNFT\", \"GBT\") Ownable(msg.sender) {... */\n  pop\n    /* \"src/GenesisBoomerNFT.sol\":229:3247  contract GenesisBoomerNFT is ERC721, ReentrancyGuard, Ownable {... */\n  jump(tag_37)\n    /* \"lib/openzeppelin-contracts/contracts/access/Ownable.sol\":2912:3099  function _transferOwnership(address newOwner) internal virtual {... */\ntag_18:\n    /* \"lib/openzeppelin-contracts/contracts/access/Ownable.sol\":2985:3001  address oldOwner */\n  0x00\n    /* \"lib/openzeppelin-contracts/contracts/access/Ownable.sol\":3004:3010  _owner */\n  0x07\n  0x00\n  swap1\n  sload\n  swap1\n  0x0100\n  exp\n  swap1\n  div\n  0xffffffffffffffffffffffffffffffffffffffff\n  and\n    /* \"lib/openzeppelin-contracts/contracts/access/Ownable.sol\":2985:3010  address oldOwner = _owner */\n  swap1\n  pop\n    /* \"lib/openzeppelin-contracts/contracts/access/Ownable.sol\":3029:3037  newOwner */\n  dup2\n    /* \"lib/openzeppelin-contracts/contracts/access/Ownable.sol\":3020:3026  _owner */\n  0x07\n  0x00\n    /* \"lib/openzeppelin-contracts/contracts/access/Ownable.sol\":3020:3037  _owner = newOwner */\n  0x0100\n  exp\n  dup2\n  sload\n  dup2\n  0xffffffffffffffffffffffffffffffffffffffff\n  mul\n  not\n  and\n  swap1\n  dup4\n  0xffffffffffffffffffffffffffffffffffffffff\n  and\n  mul\n  or\n  swap1\n  sstore\n  pop\n    /* \"lib/openzeppelin-contracts/contracts/access/Ownable.sol\":3083:3091  newOwner */\n  dup2\n    /* \"lib/openzeppelin-contracts/contracts/access/Ownable.sol\":3052:3092  OwnershipTransferred(oldOwner, newOwner) */\n  0xffffffffffffffffffffffffffffffffffffffff\n  and\n    /* \"lib/openzeppelin-contracts/contracts/access/Ownable.sol\":3073:3081  oldOwner */\n  dup2\n    /* \"lib/openzeppelin-contracts/contracts/access/Ownable.sol\":3052:3092  OwnershipTransferred(oldOwner, newOwner) */\n  0xffffffffffffffffffffffffffffffffffffffff\n  and\n  0x8be0079c531659141344cd1fd0a4f28419497f9722a3daafe3b4186f6b6457e0\n  mload(0x40)\n  mload(0x40)\n  dup1\n  swap2\n  sub\n  swap1\n  log3\n    /* \"lib/openzeppelin-contracts/contracts/access/Ownable.sol\":2975:3099  {... */\n  pop\n    /* \"lib/openzeppelin-contracts/contracts/access/Ownable.sol\":2912:3099  function _transferOwnership(address newOwner) internal virtual {... */\n  pop\n  jump\t// out\n    /* \"lib/openzeppelin-contracts/contracts/access/Ownable.sol\":1638:1723  function owner() public view virtual returns (address) {... */\ntag_31:\n    /* \"lib/openzeppelin-contracts/contracts/access/Ownable.sol\":1684:1691  address */\n  0x00\n    /* \"lib/openzeppelin-contracts/contracts/access/Ownable.sol\":1710:1716  _owner */\n  0x07\n  0x00\n  swap1\n  sload\n  swap1\n  0x0100\n  exp\n  swap1\n  div\n  0xffffffffffffffffffffffffffffffffffffffff\n  and\n    /* \"lib/openzeppelin-contracts/contracts/access/Ownable.sol\":1703:1716  return _owner */\n  swap1\n  pop\n    /* \"lib/openzeppelin-contracts/contracts/access/Ownable.sol\":1638:1723  function owner() public view virtual returns (address) {... */\n  swap1\n  jump\t// out\n    /* \"lib/openzeppelin-contracts/contracts/token/ERC721/ERC721.sol\":10633:10733  function _safeMint(address to, uint256 tokenId) internal {... */\ntag_32:\n    /* \"lib/openzeppelin-contracts/contracts/token/ERC721/ERC721.sol\":10700:10726  _safeMint(to, tokenId, \"\") */\n  tag_41\n    /* \"lib/openzeppelin-contracts/contracts/token/ERC721/ERC721.sol\":10710:10712  to */\n  dup3\n    /* \"lib/openzeppelin-contracts/contracts/token/ERC721/ERC721.sol\":10714:10721  tokenId */\n  dup3\n    /* \"lib/openzeppelin-contracts/contracts/token/ERC721/ERC721.sol\":10700:10726  _safeMint(to, tokenId, \"\") */\n  mload(0x40)\n  dup1\n  0x20\n  add\n  0x40\n  mstore\n  dup1\n  0x00\n  dup2\n  mstore\n  pop\n    /* \"lib/openzeppelin-contracts/contracts/token/ERC721/ERC721.sol\":10700:10709  _safeMint */\n  shl(0x20, tag_42)\n    /* \"lib/openzeppelin-contracts/contracts/token/ERC721/ERC721.sol\":10700:10726  _safeMint(to, tokenId, \"\") */\n  0x20\n  shr\n  jump\t// in\ntag_41:\n    /* \"lib/openzeppelin-contracts/contracts/token/ERC721/ERC721.sol\":10633:10733  function _safeMint(address to, uint256 tokenId) internal {... */\n  pop\n  pop\n  jump\t// out\n    /* \"lib/openzeppelin-contracts/contracts/token/ERC721/ERC721.sol\":10954:11136  function _safeMint(address to, uint256 tokenId, bytes memory data) internal virtual {... */\ntag_42:\n    /* \"lib/openzeppelin-contracts/contracts/token/ERC721/ERC721.sol\":11048:11066  _mint(to, tokenId) */\n  tag_44\n    /* \"lib/openzeppelin-contracts/contracts/token/ERC721/ERC721.sol\":11054:11056  to */\n  dup4\n    /* \"lib/openzeppelin-contracts/contracts/token/ERC721/ERC721.sol\":11058:11065  tokenId */\n  dup4\n    /* \"lib/openzeppelin-contracts/contracts/token/ERC721/ERC721.sol\":11048:11053  _mint */\n  shl(0x20, tag_45)\n    /* \"lib/openzeppelin-contracts/contracts/token/ERC721/ERC721.sol\":11048:11066  _mint(to, tokenId) */\n  0x20\n  shr\n  jump\t// in\ntag_44:\n    /* \"lib/openzeppelin-contracts/contracts/token/ERC721/ERC721.sol\":11076:11129  _checkOnERC721Received(address(0), to, tokenId, data) */\n  tag_46\n    /* \"lib/openzeppelin-contracts/contracts/token/ERC721/ERC721.sol\":11107:11108  0 */\n  0x00\n    /* \"lib/openzeppelin-contracts/contracts/token/ERC721/ERC721.sol\":11111:11113  to */\n  dup5\n    /* \"lib/openzeppelin-contracts/contracts/token/ERC721/ERC721.sol\":11115:11122  tokenId */\n  dup5\n    /* \"lib/openzeppelin-contracts/contracts/token/ERC721/ERC721.sol\":11124:11128  data */\n  dup5\n    /* \"lib/openzeppelin-contracts/contracts/token/ERC721/ERC721.sol\":11076:11098  _checkOnERC721Received */\n  shl(0x20, tag_47)\n    /* \"lib/openzeppelin-contracts/contracts/token/ERC721/ERC721.sol\":11076:11129  _checkOnERC721Received(address(0), to, tokenId, data) */\n  0x20\n  shr\n  jump\t// in\ntag_46:\n    /* \"lib/openzeppelin-contracts/contracts/token/ERC721/ERC721.sol\":10954:11136  function _safeMint(address to, uint256 tokenId, bytes memory data) internal virtual {... */\n  pop\n  pop\n  pop\n  jump\t// out\n    /* \"lib/openzeppelin-contracts/contracts/token/ERC721/ERC721.sol\":9955:10282  function _mint(address to, uint256 tokenId) internal {... */\ntag_45:\n    /* \"lib/openzeppelin-contracts/contracts/token/ERC721/ERC721.sol\":10036:10037  0 */\n  0x00\n    /* \"lib/openzeppelin-contracts/contracts/token/ERC721/ERC721.sol\":10022:10038  to == address(0) */\n  0xffffffffffffffffffffffffffffffffffffffff\n  and\n    /* \"lib/openzeppelin-contracts/contracts/token/ERC721/ERC721.sol\":10022:10024  to */\n  dup3\n    /* \"lib/openzeppelin-contracts/contracts/token/ERC721/ERC721.sol\":10022:10038  to == address(0) */\n  0xffffffffffffffffffffffffffffffffffffffff\n  and\n  sub\n    /* \"lib/openzeppelin-contracts/contracts/token/ERC721/ERC721.sol\":10018:10105  if (to == address(0)) {... */\n  tag_49\n  jumpi\n    /* \"lib/openzeppelin-contracts/contracts/token/ERC721/ERC721.sol\":10091:10092  0 */\n  0x00\n    /* \"lib/openzeppelin-contracts/contracts/token/ERC721/ERC721.sol\":10061:10094  ERC721InvalidReceiver(address(0)) */\n  mload(0x40)\n  0x64a0ae9200000000000000000000000000000000000000000000000000000000\n  dup2\n  mstore\n  0x04\n  add\n  tag_50\n  swap2\n  swap1\n  tag_16\n  jump\t// in\ntag_50:\n  mload(0x40)\n  dup1\n  swap2\n  sub\n  swap1\n  revert\n    /* \"lib/openzeppelin-contracts/contracts/token/ERC721/ERC721.sol\":10018:10105  if (to == address(0)) {... */\ntag_49:\n    /* \"lib/openzeppelin-contracts/contracts/token/ERC721/ERC721.sol\":10114:10135  address previousOwner */\n  0x00\n    /* \"lib/openzeppelin-contracts/contracts/token/ERC721/ERC721.sol\":10138:10170  _update(to, tokenId, address(0)) */\n  tag_51\n    /* \"lib/openzeppelin-contracts/contracts/token/ERC721/ERC721.sol\":10146:10148  to */\n  dup4\n    /* \"lib/openzeppelin-contracts/contracts/token/ERC721/ERC721.sol\":10150:10157  tokenId */\n  dup4\n    /* \"lib/openzeppelin-contracts/contracts/token/ERC721/ERC721.sol\":10167:10168  0 */\n  0x00\n    /* \"lib/openzeppelin-contracts/contracts/token/ERC721/ERC721.sol\":10138:10145  _update */\n  shl(0x20, tag_52)\n    /* \"lib/openzeppelin-contracts/contracts/token/ERC721/ERC721.sol\":10138:10170  _update(to, tokenId, address(0)) */\n  0x20\n  shr\n  jump\t// in\ntag_51:\n    /* \"lib/openzeppelin-contracts/contracts/token/ERC721/ERC721.sol\":10114:10170  address previousOwner = _update(to, tokenId, address(0)) */\n  swap1\n  pop\n    /* \"lib/openzeppelin-contracts/contracts/token/ERC721/ERC721.sol\":10209:10210  0 */\n  0x00\n    /* \"lib/openzeppelin-contracts/contracts/token/ERC721/ERC721.sol\":10184:10211  previousOwner != address(0) */\n  0xffffffffffffffffffffffffffffffffffffffff\n  and\n    /* \"lib/openzeppelin-contracts/contracts/token/ERC721/ERC721.sol\":10184:10197  previousOwner */\n  dup2\n    /* \"lib/openzeppelin-contracts/contracts/token/ERC721/ERC721.sol\":10184:10211  previousOwner != address(0) */\n  0xffffffffffffffffffffffffffffffffffffffff\n  and\n  eq\n    /* \"lib/openzeppelin-contracts/contracts/token/ERC721/ERC721.sol\":10180:10276  if (previousOwner != address(0)) {... */\n  tag_53\n  jumpi\n    /* \"lib/openzeppelin-contracts/contracts/token/ERC721/ERC721.sol\":10262:10263  0 */\n  0x00\n    /* \"lib/openzeppelin-contracts/contracts/token/ERC721/ERC721.sol\":10234:10265  ERC721InvalidSender(address(0)) */\n  mload(0x40)\n  0x73c6ac6e00000000000000000000000000000000000000000000000000000000\n  dup2\n  mstore\n  0x04\n  add\n  tag_54\n  swap2\n  swap1\n  tag_16\n  jump\t// in\ntag_54:\n  mload(0x40)\n  dup1\n  swap2\n  sub\n  swap1\n  revert\n    /* \"lib/openzeppelin-contracts/contracts/token/ERC721/ERC721.sol\":10180:10276  if (previousOwner != address(0)) {... */\ntag_53:\n    /* \"lib/openzeppelin-contracts/contracts/token/ERC721/ERC721.sol\":10008:10282  {... */\n  pop\n    /* \"lib/openzeppelin-contracts/contracts/token/ERC721/ERC721.sol\":9955:10282  function _mint(address to, uint256 tokenId) internal {... */\n  pop\n  pop\n  jump\t// out\n    /* \"lib/openzeppelin-contracts/contracts/token/ERC721/ERC721.sol\":16918:17700  function _checkOnERC721Received(address from, address to, uint256 tokenId, bytes memory data) private {... */\ntag_47:\n    /* \"lib/openzeppelin-contracts/contracts/token/ERC721/ERC721.sol\":17051:17052  0 */\n  0x00\n    /* \"lib/openzeppelin-contracts/contracts/token/ERC721/ERC721.sol\":17034:17036  to */\n  dup4\n    /* \"lib/openzeppelin-contracts/contracts/token/ERC721/ERC721.sol\":17034:17048  to.code.length */\n  0xffffffffffffffffffffffffffffffffffffffff\n  and\n  extcodesize\n    /* \"lib/openzeppelin-contracts/contracts/token/ERC721/ERC721.sol\":17034:17052  to.code.length > 0 */\n  gt\n    /* \"lib/openzeppelin-contracts/contracts/token/ERC721/ERC721.sol\":17030:17694  if (to.code.length > 0) {... */\n  iszero\n  tag_56\n  jumpi\n    /* \"lib/openzeppelin-contracts/contracts/token/ERC721/ERC721.sol\":17088:17090  to */\n  dup3\n    /* \"lib/openzeppelin-contracts/contracts/token/ERC721/ERC721.sol\":17072:17108  IERC721Receiver(to).onERC721Received */\n  0xffffffffffffffffffffffffffffffffffffffff\n  and\n  0x150b7a02\n    /* \"lib/openzeppelin-contracts/contracts/token/ERC721/ERC721.sol\":17109:17121  _msgSender() */\n  tag_57\n    /* \"lib/openzeppelin-contracts/contracts/token/ERC721/ERC721.sol\":17109:17119  _msgSender */\n  shl(0x20, tag_58)\n    /* \"lib/openzeppelin-contracts/contracts/token/ERC721/ERC721.sol\":17109:17121  _msgSender() */\n  0x20\n  shr\n  jump\t// in\ntag_57:\n    /* \"lib/openzeppelin-contracts/contracts/token/ERC721/ERC721.sol\":17123:17127  from */\n  dup7\n    /* \"lib/openzeppelin-contracts/contracts/token/ERC721/ERC721.sol\":17129:17136  tokenId */\n  dup6\n    /* \"lib/openzeppelin-contracts/contracts/token/ERC721/ERC721.sol\":17138:17142  data */\n  dup6\n    /* \"lib/openzeppelin-contracts/contracts/token/ERC721/ERC721.sol\":17072:17143  IERC721Receiver(to).onERC721Received(_msgSender(), from, tokenId, data) */\n  mload(0x40)\n  dup6\n  0xffffffff\n  and\n  0xe0\n  shl\n  dup2\n  mstore\n  0x04\n  add\n  tag_59\n  swap5\n  swap4\n  swap3\n  swap2\n  swap1\n  tag_60\n  jump\t// in\ntag_59:\n  0x20\n  mload(0x40)\n  dup1\n  dup4\n  sub\n  dup2\n  0x00\n  dup8\n  gas\n  call\n  swap3\n  pop\n  pop\n  pop\n  dup1\n  iszero\n  tag_61\n  jumpi\n  pop\n  mload(0x40)\n  returndatasize\n  not(0x1f)\n  0x1f\n  dup3\n  add\n  and\n  dup3\n  add\n  dup1\n  0x40\n  mstore\n  pop\n  dup2\n  add\n  swap1\n  tag_62\n  swap2\n  swap1\n  tag_63\n  jump\t// in\ntag_62:\n  0x01\ntag_61:\n    /* \"lib/openzeppelin-contracts/contracts/token/ERC721/ERC721.sol\":17068:17684  try IERC721Receiver(to).onERC721Received(_msgSender(), from, tokenId, data) returns (bytes4 retval) {... */\n  tag_64\n  jumpi\n  returndatasize\n  dup1\n  0x00\n  dup2\n  eq\n  tag_69\n  jumpi\n  mload(0x40)\n  swap2\n  pop\n  and(add(returndatasize, 0x3f), not(0x1f))\n  dup3\n  add\n  0x40\n  mstore\n  returndatasize\n  dup3\n  mstore\n  returndatasize\n  0x00\n  0x20\n  dup5\n  add\n  returndatacopy\n  jump(tag_68)\ntag_69:\n  0x60\n  swap2\n  pop\ntag_68:\n  pop\n    /* \"lib/openzeppelin-contracts/contracts/token/ERC721/ERC721.sol\":17398:17399  0 */\n  0x00\n    /* \"lib/openzeppelin-contracts/contracts/token/ERC721/ERC721.sol\":17381:17387  reason */\n  dup2\n    /* \"lib/openzeppelin-contracts/contracts/token/ERC721/ERC721.sol\":17381:17394  reason.length */\n  mload\n    /* \"lib/openzeppelin-contracts/contracts/token/ERC721/ERC721.sol\":17381:17399  reason.length == 0 */\n  sub\n    /* \"lib/openzeppelin-contracts/contracts/token/ERC721/ERC721.sol\":17377:17670  if (reason.length == 0) {... */\n  tag_70\n  jumpi\n    /* \"lib/openzeppelin-contracts/contracts/token/ERC721/ERC721.sol\":17452:17454  to */\n  dup4\n    /* \"lib/openzeppelin-contracts/contracts/token/ERC721/ERC721.sol\":17430:17455  ERC721InvalidReceiver(to) */\n  mload(0x40)\n  0x64a0ae9200000000000000000000000000000000000000000000000000000000\n  dup2\n  mstore\n  0x04\n  add\n  tag_71\n  swap2\n  swap1\n  tag_16\n  jump\t// in\ntag_71:\n  mload(0x40)\n  dup1\n  swap2\n  sub\n  swap1\n  revert\n    /* \"lib/openzeppelin-contracts/contracts/token/ERC721/ERC721.sol\":17377:17670  if (reason.length == 0) {... */\ntag_70:\n    /* \"lib/openzeppelin-contracts/contracts/token/ERC721/ERC721.sol\":17622:17628  reason */\n  dup1\n    /* \"lib/openzeppelin-contracts/contracts/token/ERC721/ERC721.sol\":17616:17629  mload(reason) */\n  mload\n    /* \"lib/openzeppelin-contracts/contracts/token/ERC721/ERC721.sol\":17607:17613  reason */\n  dup2\n    /* \"lib/openzeppelin-contracts/contracts/token/ERC721/ERC721.sol\":17603:17605  32 */\n  0x20\n    /* \"lib/openzeppelin-contracts/contracts/token/ERC721/ERC721.sol\":17599:17614  add(32, reason) */\n  add\n    /* \"lib/openzeppelin-contracts/contracts/token/ERC721/ERC721.sol\":17592:17630  revert(add(32, reason), mload(reason)) */\n  revert\n    /* \"lib/openzeppelin-contracts/contracts/token/ERC721/ERC721.sol\":17068:17684  try IERC721Receiver(to).onERC721Received(_msgSender(), from, tokenId, data) returns (bytes4 retval) {... */\ntag_64:\n    /* \"lib/openzeppelin-contracts/contracts/token/ERC721/ERC721.sol\":17200:17241  IERC721Receiver.onERC721Received.selector */\n  shl(0xe0, 0x150b7a02)\n    /* \"lib/openzeppelin-contracts/contracts/token/ERC721/ERC721.sol\":17190:17241  retval != IERC721Receiver.onERC721Received.selector */\n  not(0xffffffffffffffffffffffffffffffffffffffffffffffffffffffff)\n  and\n    /* \"lib/openzeppelin-contracts/contracts/token/ERC721/ERC721.sol\":17190:17196  retval */\n  dup2\n    /* \"lib/openzeppelin-contracts/contracts/token/ERC721/ERC721.sol\":17190:17241  retval != IERC721Receiver.onERC721Received.selector */\n  not(0xffffffffffffffffffffffffffffffffffffffffffffffffffffffff)\n  and\n  eq\n    /* \"lib/openzeppelin-contracts/contracts/token/ERC721/ERC721.sol\":17186:17316  if (retval != IERC721Receiver.onERC721Received.selector) {... */\n  tag_74\n  jumpi\n    /* \"lib/openzeppelin-contracts/contracts/token/ERC721/ERC721.sol\":17294:17296  to */\n  dup4\n    /* \"lib/openzeppelin-contracts/contracts/token/ERC721/ERC721.sol\":17272:17297  ERC721InvalidReceiver(to) */\n  mload(0x40)\n  0x64a0ae9200000000000000000000000000000000000000000000000000000000\n  dup2\n  mstore\n  0x04\n  add\n  tag_75\n  swap2\n  swap1\n  tag_16\n  jump\t// in\ntag_75:\n  mload(0x40)\n  dup1\n  swap2\n  sub\n  swap1\n  revert\n    /* \"lib/openzeppelin-contracts/contracts/token/ERC721/ERC721.sol\":17186:17316  if (retval != IERC721Receiver.onERC721Received.selector) {... */\ntag_74:\n    /* \"lib/openzeppelin-contracts/contracts/token/ERC721/ERC721.sol\":17144:17330  returns (bytes4 retval) {... */\n  pop\n    /* \"lib/openzeppelin-contracts/contracts/token/ERC721/ERC721.sol\":17030:17694  if (to.code.length > 0) {... */\ntag_56:\n    /* \"lib/openzeppelin-contracts/contracts/token/ERC721/ERC721.sol\":16918:17700  function _checkOnERC721Received(address from, address to, uint256 tokenId, bytes memory data) private {... */\n  pop\n  pop\n  pop\n  pop\n  jump\t// out\n    /* \"lib/openzeppelin-contracts/contracts/token/ERC721/ERC721.sol\":8838:9633  function _update(address to, uint256 tokenId, address auth) internal virtual returns (address) {... */\ntag_52:\n    /* \"lib/openzeppelin-contracts/contracts/token/ERC721/ERC721.sol\":8924:8931  address */\n  0x00\n    /* \"lib/openzeppelin-contracts/contracts/token/ERC721/ERC721.sol\":8943:8955  address from */\n  dup1\n    /* \"lib/openzeppelin-contracts/contracts/token/ERC721/ERC721.sol\":8958:8975  _ownerOf(tokenId) */\n  tag_77\n    /* \"lib/openzeppelin-contracts/contracts/token/ERC721/ERC721.sol\":8967:8974  tokenId */\n  dup5\n    /* \"lib/openzeppelin-contracts/contracts/token/ERC721/ERC721.sol\":8958:8966  _ownerOf */\n  shl(0x20, tag_78)\n    /* \"lib/openzeppelin-contracts/contracts/token/ERC721/ERC721.sol\":8958:8975  _ownerOf(tokenId) */\n  0x20\n  shr\n  jump\t// in\ntag_77:\n    /* \"lib/openzeppelin-contracts/contracts/token/ERC721/ERC721.sol\":8943:8975  address from = _ownerOf(tokenId) */\n  swap1\n  pop\n    /* \"lib/openzeppelin-contracts/contracts/token/ERC721/ERC721.sol\":9051:9052  0 */\n  0x00\n    /* \"lib/openzeppelin-contracts/contracts/token/ERC721/ERC721.sol\":9035:9053  auth != address(0) */\n  0xffffffffffffffffffffffffffffffffffffffff\n  and\n    /* \"lib/openzeppelin-contracts/contracts/token/ERC721/ERC721.sol\":9035:9039  auth */\n  dup4\n    /* \"lib/openzeppelin-contracts/contracts/token/ERC721/ERC721.sol\":9035:9053  auth != address(0) */\n  0xffffffffffffffffffffffffffffffffffffffff\n  and\n  eq\n    /* \"lib/openzeppelin-contracts/contracts/token/ERC721/ERC721.sol\":9031:9117  if (auth != address(0)) {... */\n  tag_79\n  jumpi\n    /* \"lib/openzeppelin-contracts/contracts/token/ERC721/ERC721.sol\":9069:9106  _checkAuthorized(from, auth, tokenId) */\n  tag_80\n    /* \"lib/openzeppelin-contracts/contracts/token/ERC721/ERC721.sol\":9086:9090  from */\n  dup2\n    /* \"lib/openzeppelin-contracts/contracts/token/ERC721/ERC721.sol\":9092:9096  auth */\n  dup5\n    /* \"lib/openzeppelin-contracts/contracts/token/ERC721/ERC721.sol\":9098:9105  tokenId */\n  dup7\n    /* \"lib/openzeppelin-contracts/contracts/token/ERC721/ERC721.sol\":9069:9085  _checkAuthorized */\n  shl(0x20, tag_81)\n    /* \"lib/openzeppelin-contracts/contracts/token/ERC721/ERC721.sol\":9069:9106  _checkAuthorized(from, auth, tokenId) */\n  0x20\n  shr\n  jump\t// in\ntag_80:\n    /* \"lib/openzeppelin-contracts/contracts/token/ERC721/ERC721.sol\":9031:9117  if (auth != address(0)) {... */\ntag_79:\n    /* \"lib/openzeppelin-contracts/contracts/token/ERC721/ERC721.sol\":9177:9178  0 */\n  0x00\n    /* \"lib/openzeppelin-contracts/contracts/token/ERC721/ERC721.sol\":9161:9179  from != address(0) */\n  0xffffffffffffffffffffffffffffffffffffffff\n  and\n    /* \"lib/openzeppelin-contracts/contracts/token/ERC721/ERC721.sol\":9161:9165  from */\n  dup2\n    /* \"lib/openzeppelin-contracts/contracts/token/ERC721/ERC721.sol\":9161:9179  from != address(0) */\n  0xffffffffffffffffffffffffffffffffffffffff\n  and\n  eq\n    /* \"lib/openzeppelin-contracts/contracts/token/ERC721/ERC721.sol\":9157:9413  if (from != address(0)) {... */\n  tag_82\n  jumpi\n    /* \"lib/openzeppelin-contracts/contracts/token/ERC721/ERC721.sol\":9277:9325  _approve(address(0), tokenId, address(0), false) */\n  tag_83\n    /* \"lib/openzeppelin-contracts/contracts/token/ERC721/ERC721.sol\":9294:9295  0 */\n  0x00\n    /* \"lib/openzeppelin-contracts/contracts/token/ERC721/ERC721.sol\":9298:9305  tokenId */\n  dup6\n    /* \"lib/openzeppelin-contracts/contracts/token/ERC721/ERC721.sol\":9315:9316  0 */\n  0x00\n    /* \"lib/openzeppelin-contracts/contracts/token/ERC721/ERC721.sol\":9319:9324  false */\n  dup1\n    /* \"lib/openzeppelin-contracts/contracts/token/ERC721/ERC721.sol\":9277:9285  _approve */\n  shl(0x20, tag_84)\n    /* \"lib/openzeppelin-contracts/contracts/token/ERC721/ERC721.sol\":9277:9325  _approve(address(0), tokenId, address(0), false) */\n  0x20\n  shr\n  jump\t// in\ntag_83:\n    /* \"lib/openzeppelin-contracts/contracts/token/ERC721/ERC721.sol\":9387:9388  1 */\n  0x01\n    /* \"lib/openzeppelin-contracts/contracts/token/ERC721/ERC721.sol\":9368:9377  _balances */\n  0x03\n    /* \"lib/openzeppelin-contracts/contracts/token/ERC721/ERC721.sol\":9368:9383  _balances[from] */\n  0x00\n    /* \"lib/openzeppelin-contracts/contracts/token/ERC721/ERC721.sol\":9378:9382  from */\n  dup4\n    /* \"lib/openzeppelin-contracts/contracts/token/ERC721/ERC721.sol\":9368:9383  _balances[from] */\n  0xffffffffffffffffffffffffffffffffffffffff\n  and\n  0xffffffffffffffffffffffffffffffffffffffff\n  and\n  dup2\n  mstore\n  0x20\n  add\n  swap1\n  dup2\n  mstore\n  0x20\n  add\n  0x00\n  keccak256\n  0x00\n    /* \"lib/openzeppelin-contracts/contracts/token/ERC721/ERC721.sol\":9368:9388  _balances[from] -= 1 */\n  dup3\n  dup3\n  sload\n  sub\n  swap3\n  pop\n  pop\n  dup2\n  swap1\n  sstore\n  pop\n    /* \"lib/openzeppelin-contracts/contracts/token/ERC721/ERC721.sol\":9157:9413  if (from != address(0)) {... */\ntag_82:\n    /* \"lib/openzeppelin-contracts/contracts/token/ERC721/ERC721.sol\":9441:9442  0 */\n  0x00\n    /* \"lib/openzeppelin-contracts/contracts/token/ERC721/ERC721.sol\":9427:9443  to != address(0) */\n  0xffffffffffffffffffffffffffffffffffffffff\n  and\n    /* \"lib/openzeppelin-contracts/contracts/token/ERC721/ERC721.sol\":9427:9429  to */\n  dup6\n    /* \"lib/openzeppelin-contracts/contracts/token/ERC721/ERC721.sol\":9427:9443  to != address(0) */\n  0xffffffffffffffffffffffffffffffffffffffff\n  and\n  eq\n    /* \"lib/openzeppelin-contracts/contracts/token/ERC721/ERC721.sol\":9423:9530  if (to != address(0)) {... */\n  tag_85\n  jumpi\n    /* \"lib/openzeppelin-contracts/contracts/token/ERC721/ERC721.sol\":9504:9505  1 */\n  0x01\n    /* \"lib/openzeppelin-contracts/contracts/token/ERC721/ERC721.sol\":9487:9496  _balances */\n  0x03\n    /* \"lib/openzeppelin-contracts/contracts/token/ERC721/ERC721.sol\":9487:9500  _balances[to] */\n  0x00\n    /* \"lib/openzeppelin-contracts/contracts/token/ERC721/ERC721.sol\":9497:9499  to */\n  dup8\n    /* \"lib/openzeppelin-contracts/contracts/token/ERC721/ERC721.sol\":9487:9500  _balances[to] */\n  0xffffffffffffffffffffffffffffffffffffffff\n  and\n  0xffffffffffffffffffffffffffffffffffffffff\n  and\n  dup2\n  mstore\n  0x20\n  add\n  swap1\n  dup2\n  mstore\n  0x20\n  add\n  0x00\n  keccak256\n  0x00\n    /* \"lib/openzeppelin-contracts/contracts/token/ERC721/ERC721.sol\":9487:9505  _balances[to] += 1 */\n  dup3\n  dup3\n  sload\n  add\n  swap3\n  pop\n  pop\n  dup2\n  swap1\n  sstore\n  pop\n    /* \"lib/openzeppelin-contracts/contracts/token/ERC721/ERC721.sol\":9423:9530  if (to != address(0)) {... */\ntag_85:\n    /* \"lib/openzeppelin-contracts/contracts/token/ERC721/ERC721.sol\":9559:9561  to */\n  dup5\n    /* \"lib/openzeppelin-contracts/contracts/token/ERC721/ERC721.sol\":9540:9547  _owners */\n  0x02\n    /* \"lib/openzeppelin-contracts/contracts/token/ERC721/ERC721.sol\":9540:9556  _owners[tokenId] */\n  0x00\n    /* \"lib/openzeppelin-contracts/contracts/token/ERC721/ERC721.sol\":9548:9555  tokenId */\n  dup7\n    /* \"lib/openzeppelin-contracts/contracts/token/ERC721/ERC721.sol\":9540:9556  _owners[tokenId] */\n  dup2\n  mstore\n  0x20\n  add\n  swap1\n  dup2\n  mstore\n  0x20\n  add\n  0x00\n  keccak256\n  0x00\n    /* \"lib/openzeppelin-contracts/contracts/token/ERC721/ERC721.sol\":9540:9561  _owners[tokenId] = to */\n  0x0100\n  exp\n  dup2\n  sload\n  dup2\n  0xffffffffffffffffffffffffffffffffffffffff\n  mul\n  not\n  and\n  swap1\n  dup4\n  0xffffffffffffffffffffffffffffffffffffffff\n  and\n  mul\n  or\n  swap1\n  sstore\n  pop\n    /* \"lib/openzeppelin-contracts/contracts/token/ERC721/ERC721.sol\":9596:9603  tokenId */\n  dup4\n    /* \"lib/openzeppelin-contracts/contracts/token/ERC721/ERC721.sol\":9592:9594  to */\n  dup6\n    /* \"lib/openzeppelin-contracts/contracts/token/ERC721/ERC721.sol\":9577:9604  Transfer(from, to, tokenId) */\n  0xffffffffffffffffffffffffffffffffffffffff\n  and\n    /* \"lib/openzeppelin-contracts/contracts/token/ERC721/ERC721.sol\":9586:9590  from */\n  dup3\n    /* \"lib/openzeppelin-contracts/contracts/token/ERC721/ERC721.sol\":9577:9604  Transfer(from, to, tokenId) */\n  0xffffffffffffffffffffffffffffffffffffffff\n  and\n  0xddf252ad1be2c89b69c2b068fc378daa952ba7f163c4a11628f55a4df523b3ef\n  mload(0x40)\n  mload(0x40)\n  dup1\n  swap2\n  sub\n  swap1\n  log4\n    /* \"lib/openzeppelin-contracts/contracts/token/ERC721/ERC721.sol\":9622:9626  from */\n  dup1\n    /* \"lib/openzeppelin-contracts/contracts/token/ERC721/ERC721.sol\":9615:9626  return from */\n  swap2\n  pop\n  pop\n    /* \"lib/openzeppelin-contracts/contracts/token/ERC721/ERC721.sol\":8838:9633  function _update(address to, uint256 tokenId, address auth) internal virtual returns (address) {... */\n  swap4\n  swap3\n  pop\n  pop\n  pop\n  jump\t// out\n    /* \"lib/openzeppelin-contracts/contracts/utils/Context.sol\":656:752  function _msgSender() internal view virtual returns (address) {... */\ntag_58:\n    /* \"lib/openzeppelin-contracts/contracts/utils/Context.sol\":709:716  address */\n  0x00\n    /* \"lib/openzeppelin-contracts/contracts/utils/Context.sol\":735:745  msg.sender */\n  caller\n    /* \"lib/openzeppelin-contracts/contracts/utils/Context.sol\":728:745  return msg.sender */\n  swap1\n  pop\n    /* \"lib/openzeppelin-contracts/contracts/utils/Context.sol\":656:752  function _msgSender() internal view virtual returns (address) {... */\n  swap1\n  jump\t// out\n    /* \"lib/openzeppelin-contracts/contracts/token/ERC721/ERC721.sol\":5707:5822  function _ownerOf(uint256 tokenId) internal view virtual returns (address) {... */\ntag_78:\n    /* \"lib/openzeppelin-contracts/contracts/token/ERC721/ERC721.sol\":5773:5780  address */\n  0x00\n    /* \"lib/openzeppelin-contracts/contracts/token/ERC721/ERC721.sol\":5799:5806  _owners */\n  0x02\n    /* \"lib/openzeppelin-contracts/contracts/token/ERC721/ERC721.sol\":5799:5815  _owners[tokenId] */\n  0x00\n    /* \"lib/openzeppelin-contracts/contracts/token/ERC721/ERC721.sol\":5807:5814  tokenId */\n  dup4\n    /* \"lib/openzeppelin-contracts/contracts/token/ERC721/ERC721.sol\":5799:5815  _owners[tokenId] */\n  dup2\n  mstore\n  0x20\n  add\n  swap1\n  dup2\n  mstore\n  0x20\n  add\n  0x00\n  keccak256\n  0x00\n  swap1\n  sload\n  swap1\n  0x0100\n  exp\n  swap1\n  div\n  0xffffffffffffffffffffffffffffffffffffffff\n  and\n    /* \"lib/openzeppelin-contracts/contracts/token/ERC721/ERC721.sol\":5792:5815  return _owners[tokenId] */\n  swap1\n  pop\n    /* \"lib/openzeppelin-contracts/contracts/token/ERC721/ERC721.sol\":5707:5822  function _ownerOf(uint256 tokenId) internal view virtual returns (address) {... */\n  swap2\n  swap1\n  pop\n  jump\t// out\n    /* \"lib/openzeppelin-contracts/contracts/token/ERC721/ERC721.sol\":7082:7450  function _checkAuthorized(address owner, address spender, uint256 tokenId) internal view virtual {... */\ntag_81:\n    /* \"lib/openzeppelin-contracts/contracts/token/ERC721/ERC721.sol\":7194:7232  _isAuthorized(owner, spender, tokenId) */\n  tag_89\n    /* \"lib/openzeppelin-contracts/contracts/token/ERC721/ERC721.sol\":7208:7213  owner */\n  dup4\n    /* \"lib/openzeppelin-contracts/contracts/token/ERC721/ERC721.sol\":7215:7222  spender */\n  dup4\n    /* \"lib/openzeppelin-contracts/contracts/token/ERC721/ERC721.sol\":7224:7231  tokenId */\n  dup4\n    /* \"lib/openzeppelin-contracts/contracts/token/ERC721/ERC721.sol\":7194:7207  _isAuthorized */\n  shl(0x20, tag_90)\n    /* \"lib/openzeppelin-contracts/contracts/token/ERC721/ERC721.sol\":7194:7232  _isAuthorized(owner, spender, tokenId) */\n  0x20\n  shr\n  jump\t// in\ntag_89:\n    /* \"lib/openzeppelin-contracts/contracts/token/ERC721/ERC721.sol\":7189:7444  if (!_isAuthorized(owner, spender, tokenId)) {... */\n  tag_91\n  jumpi\n    /* \"lib/openzeppelin-contracts/contracts/token/ERC721/ERC721.sol\":7269:7270  0 */\n  0x00\n    /* \"lib/openzeppelin-contracts/contracts/token/ERC721/ERC721.sol\":7252:7271  owner == address(0) */\n  0xffffffffffffffffffffffffffffffffffffffff\n  and\n    /* \"lib/openzeppelin-contracts/contracts/token/ERC721/ERC721.sol\":7252:7257  owner */\n  dup4\n    /* \"lib/openzeppelin-contracts/contracts/token/ERC721/ERC721.sol\":7252:7271  owner == address(0) */\n  0xffffffffffffffffffffffffffffffffffffffff\n  and\n  sub\n    /* \"lib/openzeppelin-contracts/contracts/token/ERC721/ERC721.sol\":7248:7434  if (owner == address(0)) {... */\n  tag_92\n  jumpi\n    /* \"lib/openzeppelin-contracts/contracts/token/ERC721/ERC721.sol\":7321:7328  tokenId */\n  dup1\n    /* \"lib/openzeppelin-contracts/contracts/token/ERC721/ERC721.sol\":7298:7329  ERC721NonexistentToken(tokenId) */\n  mload(0x40)\n  0x7e27328900000000000000000000000000000000000000000000000000000000\n  dup2\n  mstore\n  0x04\n  add\n  tag_93\n  swap2\n  swap1\n  tag_94\n  jump\t// in\ntag_93:\n  mload(0x40)\n  dup1\n  swap2\n  sub\n  swap1\n  revert\n    /* \"lib/openzeppelin-contracts/contracts/token/ERC721/ERC721.sol\":7248:7434  if (owner == address(0)) {... */\ntag_92:\n    /* \"lib/openzeppelin-contracts/contracts/token/ERC721/ERC721.sol\":7402:7409  spender */\n  dup2\n    /* \"lib/openzeppelin-contracts/contracts/token/ERC721/ERC721.sol\":7411:7418  tokenId */\n  dup2\n    /* \"lib/openzeppelin-contracts/contracts/token/ERC721/ERC721.sol\":7375:7419  ERC721InsufficientApproval(spender, tokenId) */\n  mload(0x40)\n  0x177e802f00000000000000000000000000000000000000000000000000000000\n  dup2\n  mstore\n  0x04\n  add\n  tag_96\n  swap3\n  swap2\n  swap1\n  tag_36\n  jump\t// in\ntag_96:\n  mload(0x40)\n  dup1\n  swap2\n  sub\n  swap1\n  revert\n    /* \"lib/openzeppelin-contracts/contracts/token/ERC721/ERC721.sol\":7189:7444  if (!_isAuthorized(owner, spender, tokenId)) {... */\ntag_91:\n    /* \"lib/openzeppelin-contracts/contracts/token/ERC721/ERC721.sol\":7082:7450  function _checkAuthorized(address owner, address spender, uint256 tokenId) internal view virtual {... */\n  pop\n  pop\n  pop\n  jump\t// out\n    /* \"lib/openzeppelin-contracts/contracts/token/ERC721/ERC721.sol\":14720:15382  function _approve(address to, uint256 tokenId, address auth, bool emitEvent) internal virtual {... */\ntag_84:\n    /* \"lib/openzeppelin-contracts/contracts/token/ERC721/ERC721.sol\":14880:14889  emitEvent */\n  dup1\n    /* \"lib/openzeppelin-contracts/contracts/token/ERC721/ERC721.sol\":14880:14911  emitEvent || auth != address(0) */\n  dup1\n  tag_98\n  jumpi\n  pop\n    /* \"lib/openzeppelin-contracts/contracts/token/ERC721/ERC721.sol\":14909:14910  0 */\n  0x00\n    /* \"lib/openzeppelin-contracts/contracts/token/ERC721/ERC721.sol\":14893:14911  auth != address(0) */\n  0xffffffffffffffffffffffffffffffffffffffff\n  and\n    /* \"lib/openzeppelin-contracts/contracts/token/ERC721/ERC721.sol\":14893:14897  auth */\n  dup3\n    /* \"lib/openzeppelin-contracts/contracts/token/ERC721/ERC721.sol\":14893:14911  auth != address(0) */\n  0xffffffffffffffffffffffffffffffffffffffff\n  and\n  eq\n  iszero\n    /* \"lib/openzeppelin-contracts/contracts/token/ERC721/ERC721.sol\":14880:14911  emitEvent || auth != address(0) */\ntag_98:\n    /* \"lib/openzeppelin-contracts/contracts/token/ERC721/ERC721.sol\":14876:15336  if (emitEvent || auth != address(0)) {... */\n  iszero\n  tag_99\n  jumpi\n    /* \"lib/openzeppelin-contracts/contracts/token/ERC721/ERC721.sol\":14927:14940  address owner */\n  0x00\n    /* \"lib/openzeppelin-contracts/contracts/token/ERC721/ERC721.sol\":14943:14965  _requireOwned(tokenId) */\n  tag_100\n    /* \"lib/openzeppelin-contracts/contracts/token/ERC721/ERC721.sol\":14957:14964  tokenId */\n  dup5\n    /* \"lib/openzeppelin-contracts/contracts/token/ERC721/ERC721.sol\":14943:14956  _requireOwned */\n  shl(0x20, tag_101)\n    /* \"lib/openzeppelin-contracts/contracts/token/ERC721/ERC721.sol\":14943:14965  _requireOwned(tokenId) */\n  0x20\n  shr\n  jump\t// in\ntag_100:\n    /* \"lib/openzeppelin-contracts/contracts/token/ERC721/ERC721.sol\":14927:14965  address owner = _requireOwned(tokenId) */\n  swap1\n  pop\n    /* \"lib/openzeppelin-contracts/contracts/token/ERC721/ERC721.sol\":15109:15110  0 */\n  0x00\n    /* \"lib/openzeppelin-contracts/contracts/token/ERC721/ERC721.sol\":15093:15111  auth != address(0) */\n  0xffffffffffffffffffffffffffffffffffffffff\n  and\n    /* \"lib/openzeppelin-contracts/contracts/token/ERC721/ERC721.sol\":15093:15097  auth */\n  dup4\n    /* \"lib/openzeppelin-contracts/contracts/token/ERC721/ERC721.sol\":15093:15111  auth != address(0) */\n  0xffffffffffffffffffffffffffffffffffffffff\n  and\n  eq\n  iszero\n    /* \"lib/openzeppelin-contracts/contracts/token/ERC721/ERC721.sol\":15093:15128  auth != address(0) && owner != auth */\n  dup1\n  iszero\n  tag_102\n  jumpi\n  pop\n    /* \"lib/openzeppelin-contracts/contracts/token/ERC721/ERC721.sol\":15124:15128  auth */\n  dup3\n    /* \"lib/openzeppelin-contracts/contracts/token/ERC721/ERC721.sol\":15115:15128  owner != auth */\n  0xffffffffffffffffffffffffffffffffffffffff\n  and\n    /* \"lib/openzeppelin-contracts/contracts/token/ERC721/ERC721.sol\":15115:15120  owner */\n  dup2\n    /* \"lib/openzeppelin-contracts/contracts/token/ERC721/ERC721.sol\":15115:15128  owner != auth */\n  0xffffffffffffffffffffffffffffffffffffffff\n  and\n  eq\n  iszero\n    /* \"lib/openzeppelin-contracts/contracts/token/ERC721/ERC721.sol\":15093:15128  auth != address(0) && owner != auth */\ntag_102:\n    /* \"lib/openzeppelin-contracts/contracts/token/ERC721/ERC721.sol\":15093:15162  auth != address(0) && owner != auth && !isApprovedForAll(owner, auth) */\n  dup1\n  iszero\n  tag_103\n  jumpi\n  pop\n    /* \"lib/openzeppelin-contracts/contracts/token/ERC721/ERC721.sol\":15133:15162  isApprovedForAll(owner, auth) */\n  tag_104\n    /* \"lib/openzeppelin-contracts/contracts/token/ERC721/ERC721.sol\":15150:15155  owner */\n  dup2\n    /* \"lib/openzeppelin-contracts/contracts/token/ERC721/ERC721.sol\":15157:15161  auth */\n  dup5\n    /* \"lib/openzeppelin-contracts/contracts/token/ERC721/ERC721.sol\":15133:15149  isApprovedForAll */\n  shl(0x20, tag_105)\n    /* \"lib/openzeppelin-contracts/contracts/token/ERC721/ERC721.sol\":15133:15162  isApprovedForAll(owner, auth) */\n  0x20\n  shr\n  jump\t// in\ntag_104:\n    /* \"lib/openzeppelin-contracts/contracts/token/ERC721/ERC721.sol\":15132:15162  !isApprovedForAll(owner, auth) */\n  iszero\n    /* \"lib/openzeppelin-contracts/contracts/token/ERC721/ERC721.sol\":15093:15162  auth != address(0) && owner != auth && !isApprovedForAll(owner, auth) */\ntag_103:\n    /* \"lib/openzeppelin-contracts/contracts/token/ERC721/ERC721.sol\":15089:15231  if (auth != address(0) && owner != auth && !isApprovedForAll(owner, auth)) {... */\n  iszero\n  tag_106\n  jumpi\n    /* \"lib/openzeppelin-contracts/contracts/token/ERC721/ERC721.sol\":15211:15215  auth */\n  dup3\n    /* \"lib/openzeppelin-contracts/contracts/token/ERC721/ERC721.sol\":15189:15216  ERC721InvalidApprover(auth) */\n  mload(0x40)\n  0xa9fbf51f00000000000000000000000000000000000000000000000000000000\n  dup2\n  mstore\n  0x04\n  add\n  tag_107\n  swap2\n  swap1\n  tag_16\n  jump\t// in\ntag_107:\n  mload(0x40)\n  dup1\n  swap2\n  sub\n  swap1\n  revert\n    /* \"lib/openzeppelin-contracts/contracts/token/ERC721/ERC721.sol\":15089:15231  if (auth != address(0) && owner != auth && !isApprovedForAll(owner, auth)) {... */\ntag_106:\n    /* \"lib/openzeppelin-contracts/contracts/token/ERC721/ERC721.sol\":15249:15258  emitEvent */\n  dup2\n    /* \"lib/openzeppelin-contracts/contracts/token/ERC721/ERC721.sol\":15245:15326  if (emitEvent) {... */\n  iszero\n  tag_108\n  jumpi\n    /* \"lib/openzeppelin-contracts/contracts/token/ERC721/ERC721.sol\":15303:15310  tokenId */\n  dup4\n    /* \"lib/openzeppelin-contracts/contracts/token/ERC721/ERC721.sol\":15299:15301  to */\n  dup6\n    /* \"lib/openzeppelin-contracts/contracts/token/ERC721/ERC721.sol\":15283:15311  Approval(owner, to, tokenId) */\n  0xffffffffffffffffffffffffffffffffffffffff\n  and\n    /* \"lib/openzeppelin-contracts/contracts/token/ERC721/ERC721.sol\":15292:15297  owner */\n  dup3\n    /* \"lib/openzeppelin-contracts/contracts/token/ERC721/ERC721.sol\":15283:15311  Approval(owner, to, tokenId) */\n  0xffffffffffffffffffffffffffffffffffffffff\n  and\n  0x8c5be1e5ebec7d5bd14f71427d1e84f3dd0314c0f7b2291e5b200ac8c7c3b925\n  mload(0x40)\n  mload(0x40)\n  dup1\n  swap2\n  sub\n  swap1\n  log4\n    /* \"lib/openzeppelin-contracts/contracts/token/ERC721/ERC721.sol\":15245:15326  if (emitEvent) {... */\ntag_108:\n    /* \"lib/openzeppelin-contracts/contracts/token/ERC721/ERC721.sol\":14913:15336  {... */\n  pop\n    /* \"lib/openzeppelin-contracts/contracts/token/ERC721/ERC721.sol\":14876:15336  if (emitEvent || auth != address(0)) {... */\ntag_99:\n    /* \"lib/openzeppelin-contracts/contracts/token/ERC721/ERC721.sol\":15373:15375  to */\n  dup4\n    /* \"lib/openzeppelin-contracts/contracts/token/ERC721/ERC721.sol\":15346:15361  _tokenApprovals */\n  0x04\n    /* \"lib/openzeppelin-contracts/contracts/token/ERC721/ERC721.sol\":15346:15370  _tokenApprovals[tokenId] */\n  0x00\n    /* \"lib/openzeppelin-contracts/contracts/token/ERC721/ERC721.sol\":15362:15369  tokenId */\n  dup6\n    /* \"lib/openzeppelin-contracts/contracts/token/ERC721/ERC721.sol\":15346:15370  _tokenApprovals[tokenId] */\n  dup2\n  mstore\n  0x20\n  add\n  swap1\n  dup2\n  mstore\n  0x20\n  add\n  0x00\n  keccak256\n  0x00\n    /* \"lib/openzeppelin-contracts/contracts/token/ERC721/ERC721.sol\":15346:15375  _tokenApprovals[tokenId] = to */\n  0x0100\n  exp\n  dup2\n  sload\n  dup2\n  0xffffffffffffffffffffffffffffffffffffffff\n  mul\n  not\n  and\n  swap1\n  dup4\n  0xffffffffffffffffffffffffffffffffffffffff\n  and\n  mul\n  or\n  swap1\n  sstore\n  pop\n    /* \"lib/openzeppelin-contracts/contracts/token/ERC721/ERC721.sol\":14720:15382  function _approve(address to, uint256 tokenId, address auth, bool emitEvent) internal virtual {... */\n  pop\n  pop\n  pop\n  pop\n  jump\t// out\n    /* \"lib/openzeppelin-contracts/contracts/token/ERC721/ERC721.sol\":6376:6648  function _isAuthorized(address owner, address spender, uint256 tokenId) internal view virtual returns (bool) {... */\ntag_90:\n    /* \"lib/openzeppelin-contracts/contracts/token/ERC721/ERC721.sol\":6479:6483  bool */\n  0x00\n    /* \"lib/openzeppelin-contracts/contracts/token/ERC721/ERC721.sol\":6533:6534  0 */\n  dup1\n    /* \"lib/openzeppelin-contracts/contracts/token/ERC721/ERC721.sol\":6514:6535  spender != address(0) */\n  0xffffffffffffffffffffffffffffffffffffffff\n  and\n    /* \"lib/openzeppelin-contracts/contracts/token/ERC721/ERC721.sol\":6514:6521  spender */\n  dup4\n    /* \"lib/openzeppelin-contracts/contracts/token/ERC721/ERC721.sol\":6514:6535  spender != address(0) */\n  0xffffffffffffffffffffffffffffffffffffffff\n  and\n  eq\n  iszero\n    /* \"lib/openzeppelin-contracts/contracts/token/ERC721/ERC721.sol\":6514:6641  spender != address(0) &&... */\n  dup1\n  iszero\n  tag_110\n  jumpi\n  pop\n    /* \"lib/openzeppelin-contracts/contracts/token/ERC721/ERC721.sol\":6561:6568  spender */\n  dup3\n    /* \"lib/openzeppelin-contracts/contracts/token/ERC721/ERC721.sol\":6552:6568  owner == spender */\n  0xffffffffffffffffffffffffffffffffffffffff\n  and\n    /* \"lib/openzeppelin-contracts/contracts/token/ERC721/ERC721.sol\":6552:6557  owner */\n  dup5\n    /* \"lib/openzeppelin-contracts/contracts/token/ERC721/ERC721.sol\":6552:6568  owner == spender */\n  0xffffffffffffffffffffffffffffffffffffffff\n  and\n  eq\n    /* \"lib/openzeppelin-contracts/contracts/token/ERC721/ERC721.sol\":6552:6604  owner == spender || isApprovedForAll(owner, spender) */\n  dup1\n  tag_111\n  jumpi\n  pop\n    /* \"lib/openzeppelin-contracts/contracts/token/ERC721/ERC721.sol\":6572:6604  isApprovedForAll(owner, spender) */\n  tag_112\n    /* \"lib/openzeppelin-contracts/contracts/token/ERC721/ERC721.sol\":6589:6594  owner */\n  dup5\n    /* \"lib/openzeppelin-contracts/contracts/token/ERC721/ERC721.sol\":6596:6603  spender */\n  dup5\n    /* \"lib/openzeppelin-contracts/contracts/token/ERC721/ERC721.sol\":6572:6588  isApprovedForAll */\n  shl(0x20, tag_105)\n    /* \"lib/openzeppelin-contracts/contracts/token/ERC721/ERC721.sol\":6572:6604  isApprovedForAll(owner, spender) */\n  0x20\n  shr\n  jump\t// in\ntag_112:\n    /* \"lib/openzeppelin-contracts/contracts/token/ERC721/ERC721.sol\":6552:6604  owner == spender || isApprovedForAll(owner, spender) */\ntag_111:\n    /* \"lib/openzeppelin-contracts/contracts/token/ERC721/ERC721.sol\":6552:6640  owner == spender || isApprovedForAll(owner, spender) || _getApproved(tokenId) == spender */\n  dup1\n  tag_113\n  jumpi\n  pop\n    /* \"lib/openzeppelin-contracts/contracts/token/ERC721/ERC721.sol\":6633:6640  spender */\n  dup3\n    /* \"lib/openzeppelin-contracts/contracts/token/ERC721/ERC721.sol\":6608:6640  _getApproved(tokenId) == spender */\n  0xffffffffffffffffffffffffffffffffffffffff\n  and\n    /* \"lib/openzeppelin-contracts/contracts/token/ERC721/ERC721.sol\":6608:6629  _getApproved(tokenId) */\n  tag_114\n    /* \"lib/openzeppelin-contracts/contracts/token/ERC721/ERC721.sol\":6621:6628  tokenId */\n  dup4\n    /* \"lib/openzeppelin-contracts/contracts/token/ERC721/ERC721.sol\":6608:6620  _getApproved */\n  shl(0x20, tag_115)\n    /* \"lib/openzeppelin-contracts/contracts/token/ERC721/ERC721.sol\":6608:6629  _getApproved(tokenId) */\n  0x20\n  shr\n  jump\t// in\ntag_114:\n    /* \"lib/openzeppelin-contracts/contracts/token/ERC721/ERC721.sol\":6608:6640  _getApproved(tokenId) == spender */\n  0xffffffffffffffffffffffffffffffffffffffff\n  and\n  eq\n    /* \"lib/openzeppelin-contracts/contracts/token/ERC721/ERC721.sol\":6552:6640  owner == spender || isApprovedForAll(owner, spender) || _getApproved(tokenId) == spender */\ntag_113:\n    /* \"lib/openzeppelin-contracts/contracts/token/ERC721/ERC721.sol\":6514:6641  spender != address(0) &&... */\ntag_110:\n    /* \"lib/openzeppelin-contracts/contracts/token/ERC721/ERC721.sol\":6495:6641  return... */\n  swap1\n  pop\n    /* \"lib/openzeppelin-contracts/contracts/token/ERC721/ERC721.sol\":6376:6648  function _isAuthorized(address owner, address spender, uint256 tokenId) internal view virtual returns (bool) {... */\n  swap4\n  swap3\n  pop\n  pop\n  pop\n  jump\t// out\n    /* \"lib/openzeppelin-contracts/contracts/token/ERC721/ERC721.sol\":16138:16379  function _requireOwned(uint256 tokenId) internal view returns (address) {... */\ntag_101:\n    /* \"lib/openzeppelin-contracts/contracts/token/ERC721/ERC721.sol\":16201:16208  address */\n  0x00\n    /* \"lib/openzeppelin-contracts/contracts/token/ERC721/ERC721.sol\":16220:16233  address owner */\n  dup1\n    /* \"lib/openzeppelin-contracts/contracts/token/ERC721/ERC721.sol\":16236:16253  _ownerOf(tokenId) */\n  tag_117\n    /* \"lib/openzeppelin-contracts/contracts/token/ERC721/ERC721.sol\":16245:16252  tokenId */\n  dup4\n    /* \"lib/openzeppelin-contracts/contracts/token/ERC721/ERC721.sol\":16236:16244  _ownerOf */\n  shl(0x20, tag_78)\n    /* \"lib/openzeppelin-contracts/contracts/token/ERC721/ERC721.sol\":16236:16253  _ownerOf(tokenId) */\n  0x20\n  shr\n  jump\t// in\ntag_117:\n    /* \"lib/openzeppelin-contracts/contracts/token/ERC721/ERC721.sol\":16220:16253  address owner = _ownerOf(tokenId) */\n  swap1\n  pop\n    /* \"lib/openzeppelin-contracts/contracts/token/ERC721/ERC721.sol\":16284:16285  0 */\n  0x00\n    /* \"lib/openzeppelin-contracts/contracts/token/ERC721/ERC721.sol\":16267:16286  owner == address(0) */\n  0xffffffffffffffffffffffffffffffffffffffff\n  and\n    /* \"lib/openzeppelin-contracts/contracts/token/ERC721/ERC721.sol\":16267:16272  owner */\n  dup2\n    /* \"lib/openzeppelin-contracts/contracts/token/ERC721/ERC721.sol\":16267:16286  owner == address(0) */\n  0xffffffffffffffffffffffffffffffffffffffff\n  and\n  sub\n    /* \"lib/openzeppelin-contracts/contracts/token/ERC721/ERC721.sol\":16263:16351  if (owner == address(0)) {... */\n  tag_118\n  jumpi\n    /* \"lib/openzeppelin-contracts/contracts/token/ERC721/ERC721.sol\":16332:16339  tokenId */\n  dup3\n    /* \"lib/openzeppelin-contracts/contracts/token/ERC721/ERC721.sol\":16309:16340  ERC721NonexistentToken(tokenId) */\n  mload(0x40)\n  0x7e27328900000000000000000000000000000000000000000000000000000000\n  dup2\n  mstore\n  0x04\n  add\n  tag_119\n  swap2\n  swap1\n  tag_94\n  jump\t// in\ntag_119:\n  mload(0x40)\n  dup1\n  swap2\n  sub\n  swap1\n  revert\n    /* \"lib/openzeppelin-contracts/contracts/token/ERC721/ERC721.sol\":16263:16351  if (owner == address(0)) {... */\ntag_118:\n    /* \"lib/openzeppelin-contracts/contracts/token/ERC721/ERC721.sol\":16367:16372  owner */\n  dup1\n    /* \"lib/openzeppelin-contracts/contracts/token/ERC721/ERC721.sol\":16360:16372  return owner */\n  swap2\n  pop\n  pop\n    /* \"lib/openzeppelin-contracts/contracts/token/ERC721/ERC721.sol\":16138:16379  function _requireOwned(uint256 tokenId) internal view returns (address) {... */\n  swap2\n  swap1\n  pop\n  jump\t// out\n    /* \"lib/openzeppelin-contracts/contracts/token/ERC721/ERC721.sol\":3928:4081  function isApprovedForAll(address owner, address operator) public view virtual returns (bool) {... */\ntag_105:\n    /* \"lib/openzeppelin-contracts/contracts/token/ERC721/ERC721.sol\":4016:4020  bool */\n  0x00\n    /* \"lib/openzeppelin-contracts/contracts/token/ERC721/ERC721.sol\":4039:4057  _operatorApprovals */\n  0x05\n    /* \"lib/openzeppelin-contracts/contracts/token/ERC721/ERC721.sol\":4039:4064  _operatorApprovals[owner] */\n  0x00\n    /* \"lib/openzeppelin-contracts/contracts/token/ERC721/ERC721.sol\":4058:4063  owner */\n  dup5\n    /* \"lib/openzeppelin-contracts/contracts/token/ERC721/ERC721.sol\":4039:4064  _operatorApprovals[owner] */\n  0xffffffffffffffffffffffffffffffffffffffff\n  and\n  0xffffffffffffffffffffffffffffffffffffffff\n  and\n  dup2\n  mstore\n  0x20\n  add\n  swap1\n  dup2\n  mstore\n  0x20\n  add\n  0x00\n  keccak256\n    /* \"lib/openzeppelin-contracts/contracts/token/ERC721/ERC721.sol\":4039:4074  _operatorApprovals[owner][operator] */\n  0x00\n    /* \"lib/openzeppelin-contracts/contracts/token/ERC721/ERC721.sol\":4065:4073  operator */\n  dup4\n    /* \"lib/openzeppelin-contracts/contracts/token/ERC721/ERC721.sol\":4039:4074  _operatorApprovals[owner][operator] */\n  0xffffffffffffffffffffffffffffffffffffffff\n  and\n  0xffffffffffffffffffffffffffffffffffffffff\n  and\n  dup2\n  mstore\n  0x20\n  add\n  swap1\n  dup2\n  mstore\n  0x20\n  add\n  0x00\n  keccak256\n  0x00\n  swap1\n  sload\n  swap1\n  0x0100\n  exp\n  swap1\n  div\n  0xff\n  and\n    /* \"lib/openzeppelin-contracts/contracts/token/ERC721/ERC721.sol\":4032:4074  return _operatorApprovals[owner][operator] */\n  swap1\n  pop\n    /* \"lib/openzeppelin-contracts/contracts/token/ERC721/ERC721.sol\":3928:4081  function isApprovedForAll(address owner, address operator) public view virtual returns (bool) {... */\n  swap3\n  swap2\n  pop\n  pop\n  jump\t// out\n    /* \"lib/openzeppelin-contracts/contracts/token/ERC721/ERC721.sol\":5938:6065  function _getApproved(uint256 tokenId) internal view virtual returns (address) {... */\ntag_115:\n    /* \"lib/openzeppelin-contracts/contracts/token/ERC721/ERC721.sol\":6008:6015  address */\n  0x00\n    /* \"lib/openzeppelin-contracts/contracts/token/ERC721/ERC721.sol\":6034:6049  _tokenApprovals */\n  0x04\n    /* \"lib/openzeppelin-contracts/contracts/token/ERC721/ERC721.sol\":6034:6058  _tokenApprovals[tokenId] */\n  0x00\n    /* \"lib/openzeppelin-contracts/contracts/token/ERC721/ERC721.sol\":6050:6057  tokenId */\n  dup4\n    /* \"lib/openzeppelin-contracts/contracts/token/ERC721/ERC721.sol\":6034:6058  _tokenApprovals[tokenId] */\n  dup2\n  mstore\n  0x20\n  add\n  swap1\n  dup2\n  mstore\n  0x20\n  add\n  0x00\n  keccak256\n  0x00\n  swap1\n  sload\n  swap1\n  0x0100\n  exp\n  swap1\n  div\n  0xffffffffffffffffffffffffffffffffffffffff\n  and\n    /* \"lib/openzeppelin-contracts/contracts/token/ERC721/ERC721.sol\":6027:6058  return _tokenApprovals[tokenId] */\n  swap1\n  pop\n    /* \"lib/openzeppelin-contracts/contracts/token/ERC721/ERC721.sol\":5938:6065  function _getApproved(uint256 tokenId) internal view virtual returns (address) {... */\n  swap2\n  swap1\n  pop\n  jump\t// out\n    /* \"#utility.yul\":88:205   */\ntag_123:\n    /* \"#utility.yul\":197:198   */\n  0x00\n    /* \"#utility.yul\":194:195   */\n  dup1\n    /* \"#utility.yul\":187:199   */\n  revert\n    /* \"#utility.yul\":334:411   */\ntag_125:\n    /* \"#utility.yul\":371:378   */\n  0x00\n    /* \"#utility.yul\":400:405   */\n  dup2\n    /* \"#utility.yul\":389:405   */\n  swap1\n  pop\n    /* \"#utility.yul\":334:411   */\n  swap2\n  swap1\n  pop\n  jump\t// out\n    /* \"#utility.yul\":417:539   */\ntag_126:\n    /* \"#utility.yul\":490:514   */\n  tag_167\n    /* \"#utility.yul\":508:513   */\n  dup2\n    /* \"#utility.yul\":490:514   */\n  tag_125\n  jump\t// in\ntag_167:\n    /* \"#utility.yul\":483:488   */\n  dup2\n    /* \"#utility.yul\":480:515   */\n  eq\n    /* \"#utility.yul\":470:533   */\n  tag_168\n  jumpi\n    /* \"#utility.yul\":529:530   */\n  0x00\n    /* \"#utility.yul\":526:527   */\n  dup1\n    /* \"#utility.yul\":519:531   */\n  revert\n    /* \"#utility.yul\":470:533   */\ntag_168:\n    /* \"#utility.yul\":417:539   */\n  pop\n  jump\t// out\n    /* \"#utility.yul\":545:688   */\ntag_127:\n    /* \"#utility.yul\":602:607   */\n  0x00\n    /* \"#utility.yul\":633:639   */\n  dup2\n    /* \"#utility.yul\":627:640   */\n  mload\n    /* \"#utility.yul\":618:640   */\n  swap1\n  pop\n    /* \"#utility.yul\":649:682   */\n  tag_170\n    /* \"#utility.yul\":676:681   */\n  dup2\n    /* \"#utility.yul\":649:682   */\n  tag_126\n  jump\t// in\ntag_170:\n    /* \"#utility.yul\":545:688   */\n  swap3\n  swap2\n  pop\n  pop\n  jump\t// out\n    /* \"#utility.yul\":694:1045   */\ntag_3:\n    /* \"#utility.yul\":764:770   */\n  0x00\n    /* \"#utility.yul\":813:815   */\n  0x20\n    /* \"#utility.yul\":801:810   */\n  dup3\n    /* \"#utility.yul\":792:799   */\n  dup5\n    /* \"#utility.yul\":788:811   */\n  sub\n    /* \"#utility.yul\":784:816   */\n  slt\n    /* \"#utility.yul\":781:900   */\n  iszero\n  tag_172\n  jumpi\n    /* \"#utility.yul\":819:898   */\n  tag_173\n  tag_123\n  jump\t// in\ntag_173:\n    /* \"#utility.yul\":781:900   */\ntag_172:\n    /* \"#utility.yul\":939:940   */\n  0x00\n    /* \"#utility.yul\":964:1028   */\n  tag_174\n    /* \"#utility.yul\":1020:1027   */\n  dup5\n    /* \"#utility.yul\":1011:1017   */\n  dup3\n    /* \"#utility.yul\":1000:1009   */\n  dup6\n    /* \"#utility.yul\":996:1018   */\n  add\n    /* \"#utility.yul\":964:1028   */\n  tag_127\n  jump\t// in\ntag_174:\n    /* \"#utility.yul\":954:1028   */\n  swap2\n  pop\n    /* \"#utility.yul\":910:1038   */\n  pop\n    /* \"#utility.yul\":694:1045   */\n  swap3\n  swap2\n  pop\n  pop\n  jump\t// out\n    /* \"#utility.yul\":1051:1150   */\ntag_128:\n    /* \"#utility.yul\":1103:1109   */\n  0x00\n    /* \"#utility.yul\":1137:1142   */\n  dup2\n    /* \"#utility.yul\":1131:1143   */\n  mload\n    /* \"#utility.yul\":1121:1143   */\n  swap1\n  pop\n    /* \"#utility.yul\":1051:1150   */\n  swap2\n  swap1\n  pop\n  jump\t// out\n    /* \"#utility.yul\":1156:1336   */\ntag_129:\n    /* \"#utility.yul\":1204:1281   */\n  0x4e487b7100000000000000000000000000000000000000000000000000000000\n    /* \"#utility.yul\":1201:1202   */\n  0x00\n    /* \"#utility.yul\":1194:1282   */\n  mstore\n    /* \"#utility.yul\":1301:1305   */\n  0x41\n    /* \"#utility.yul\":1298:1299   */\n  0x04\n    /* \"#utility.yul\":1291:1306   */\n  mstore\n    /* \"#utility.yul\":1325:1329   */\n  0x24\n    /* \"#utility.yul\":1322:1323   */\n  0x00\n    /* \"#utility.yul\":1315:1330   */\n  revert\n    /* \"#utility.yul\":1342:1522   */\ntag_130:\n    /* \"#utility.yul\":1390:1467   */\n  0x4e487b7100000000000000000000000000000000000000000000000000000000\n    /* \"#utility.yul\":1387:1388   */\n  0x00\n    /* \"#utility.yul\":1380:1468   */\n  mstore\n    /* \"#utility.yul\":1487:1491   */\n  0x22\n    /* \"#utility.yul\":1484:1485   */\n  0x04\n    /* \"#utility.yul\":1477:1492   */\n  mstore\n    /* \"#utility.yul\":1511:1515   */\n  0x24\n    /* \"#utility.yul\":1508:1509   */\n  0x00\n    /* \"#utility.yul\":1501:1516   */\n  revert\n    /* \"#utility.yul\":1528:1848   */\ntag_131:\n    /* \"#utility.yul\":1572:1578   */\n  0x00\n    /* \"#utility.yul\":1609:1610   */\n  0x02\n    /* \"#utility.yul\":1603:1607   */\n  dup3\n    /* \"#utility.yul\":1599:1611   */\n  div\n    /* \"#utility.yul\":1589:1611   */\n  swap1\n  pop\n    /* \"#utility.yul\":1656:1657   */\n  0x01\n    /* \"#utility.yul\":1650:1654   */\n  dup3\n    /* \"#utility.yul\":1646:1658   */\n  and\n    /* \"#utility.yul\":1677:1695   */\n  dup1\n    /* \"#utility.yul\":1667:1748   */\n  tag_179\n  jumpi\n    /* \"#utility.yul\":1733:1737   */\n  0x7f\n    /* \"#utility.yul\":1725:1731   */\n  dup3\n    /* \"#utility.yul\":1721:1738   */\n  and\n    /* \"#utility.yul\":1711:1738   */\n  swap2\n  pop\n    /* \"#utility.yul\":1667:1748   */\ntag_179:\n    /* \"#utility.yul\":1795:1797   */\n  0x20\n    /* \"#utility.yul\":1787:1793   */\n  dup3\n    /* \"#utility.yul\":1784:1798   */\n  lt\n    /* \"#utility.yul\":1764:1782   */\n  dup2\n    /* \"#utility.yul\":1761:1799   */\n  sub\n    /* \"#utility.yul\":1758:1842   */\n  tag_180\n  jumpi\n    /* \"#utility.yul\":1814:1832   */\n  tag_181\n  tag_130\n  jump\t// in\ntag_181:\n    /* \"#utility.yul\":1758:1842   */\ntag_180:\n    /* \"#utility.yul\":1579:1848   */\n  pop\n    /* \"#utility.yul\":1528:1848   */\n  swap2\n  swap1\n  pop\n  jump\t// out\n    /* \"#utility.yul\":1854:1995   */\ntag_132:\n    /* \"#utility.yul\":1903:1907   */\n  0x00\n    /* \"#utility.yul\":1926:1929   */\n  dup2\n    /* \"#utility.yul\":1918:1929   */\n  swap1\n  pop\n    /* \"#utility.yul\":1949:1952   */\n  dup2\n    /* \"#utility.yul\":1946:1947   */\n  0x00\n    /* \"#utility.yul\":1939:1953   */\n  mstore\n    /* \"#utility.yul\":1983:1987   */\n  0x20\n    /* \"#utility.yul\":1980:1981   */\n  0x00\n    /* \"#utility.yul\":1970:1988   */\n  keccak256\n    /* \"#utility.yul\":1962:1988   */\n  swap1\n  pop\n    /* \"#utility.yul\":1854:1995   */\n  swap2\n  swap1\n  pop\n  jump\t// out\n    /* \"#utility.yul\":2001:2094   */\ntag_133:\n    /* \"#utility.yul\":2038:2044   */\n  0x00\n    /* \"#utility.yul\":2085:2087   */\n  0x20\n    /* \"#utility.yul\":2080:2082   */\n  0x1f\n    /* \"#utility.yul\":2073:2078   */\n  dup4\n    /* \"#utility.yul\":2069:2083   */\n  add\n    /* \"#utility.yul\":2065:2088   */\n  div\n    /* \"#utility.yul\":2055:2088   */\n  swap1\n  pop\n    /* \"#utility.yul\":2001:2094   */\n  swap2\n  swap1\n  pop\n  jump\t// out\n    /* \"#utility.yul\":2100:2207   */\ntag_134:\n    /* \"#utility.yul\":2144:2152   */\n  0x00\n    /* \"#utility.yul\":2194:2199   */\n  dup3\n    /* \"#utility.yul\":2188:2192   */\n  dup3\n    /* \"#utility.yul\":2184:2200   */\n  shl\n    /* \"#utility.yul\":2163:2200   */\n  swap1\n  pop\n    /* \"#utility.yul\":2100:2207   */\n  swap3\n  swap2\n  pop\n  pop\n  jump\t// out\n    /* \"#utility.yul\":2213:2606   */\ntag_135:\n    /* \"#utility.yul\":2282:2288   */\n  0x00\n    /* \"#utility.yul\":2332:2333   */\n  0x08\n    /* \"#utility.yul\":2320:2330   */\n  dup4\n    /* \"#utility.yul\":2316:2334   */\n  mul\n    /* \"#utility.yul\":2355:2452   */\n  tag_186\n    /* \"#utility.yul\":2385:2451   */\n  0xffffffffffffffffffffffffffffffffffffffffffffffffffffffffffffffff\n    /* \"#utility.yul\":2374:2383   */\n  dup3\n    /* \"#utility.yul\":2355:2452   */\n  tag_134\n  jump\t// in\ntag_186:\n    /* \"#utility.yul\":2473:2512   */\n  tag_187\n    /* \"#utility.yul\":2503:2511   */\n  dup7\n    /* \"#utility.yul\":2492:2501   */\n  dup4\n    /* \"#utility.yul\":2473:2512   */\n  tag_134\n  jump\t// in\ntag_187:\n    /* \"#utility.yul\":2461:2512   */\n  swap6\n  pop\n    /* \"#utility.yul\":2545:2549   */\n  dup1\n    /* \"#utility.yul\":2541:2550   */\n  not\n    /* \"#utility.yul\":2534:2539   */\n  dup5\n    /* \"#utility.yul\":2530:2551   */\n  and\n    /* \"#utility.yul\":2521:2551   */\n  swap4\n  pop\n    /* \"#utility.yul\":2594:2598   */\n  dup1\n    /* \"#utility.yul\":2584:2592   */\n  dup7\n    /* \"#utility.yul\":2580:2599   */\n  and\n    /* \"#utility.yul\":2573:2578   */\n  dup5\n    /* \"#utility.yul\":2570:2600   */\n  or\n    /* \"#utility.yul\":2560:2600   */\n  swap3\n  pop\n    /* \"#utility.yul\":2289:2606   */\n  pop\n  pop\n    /* \"#utility.yul\":2213:2606   */\n  swap4\n  swap3\n  pop\n  pop\n  pop\n  jump\t// out\n    /* \"#utility.yul\":2612:2672   */\ntag_136:\n    /* \"#utility.yul\":2640:2643   */\n  0x00\n    /* \"#utility.yul\":2661:2666   */\n  dup2\n    /* \"#utility.yul\":2654:2666   */\n  swap1\n  pop\n    /* \"#utility.yul\":2612:2672   */\n  swap2\n  swap1\n  pop\n  jump\t// out\n    /* \"#utility.yul\":2678:2820   */\ntag_137:\n    /* \"#utility.yul\":2728:2737   */\n  0x00\n    /* \"#utility.yul\":2761:2814   */\n  tag_190\n    /* \"#utility.yul\":2779:2813   */\n  tag_191\n    /* \"#utility.yul\":2788:2812   */\n  tag_192\n    /* \"#utility.yul\":2806:2811   */\n  dup5\n    /* \"#utility.yul\":2788:2812   */\n  tag_125\n  jump\t// in\ntag_192:\n    /* \"#utility.yul\":2779:2813   */\n  tag_136\n  jump\t// in\ntag_191:\n    /* \"#utility.yul\":2761:2814   */\n  tag_125\n  jump\t// in\ntag_190:\n    /* \"#utility.yul\":2748:2814   */\n  swap1\n  pop\n    /* \"#utility.yul\":2678:2820   */\n  swap2\n  swap1\n  pop\n  jump\t// out\n    /* \"#utility.yul\":2826:2901   */\ntag_138:\n    /* \"#utility.yul\":2869:2872   */\n  0x00\n    /* \"#utility.yul\":2890:2895   */\n  dup2\n    /* \"#utility.yul\":2883:2895   */\n  swap1\n  pop\n    /* \"#utility.yul\":2826:2901   */\n  swap2\n  swap1\n  pop\n  jump\t// out\n    /* \"#utility.yul\":2907:3176   */\ntag_139:\n    /* \"#utility.yul\":3017:3056   */\n  tag_195\n    /* \"#utility.yul\":3048:3055   */\n  dup4\n    /* \"#utility.yul\":3017:3056   */\n  tag_137\n  jump\t// in\ntag_195:\n    /* \"#utility.yul\":3078:3169   */\n  tag_196\n    /* \"#utility.yul\":3127:3168   */\n  tag_197\n    /* \"#utility.yul\":3151:3167   */\n  dup3\n    /* \"#utility.yul\":3127:3168   */\n  tag_138\n  jump\t// in\ntag_197:\n    /* \"#utility.yul\":3119:3125   */\n  dup5\n    /* \"#utility.yul\":3112:3116   */\n  dup5\n    /* \"#utility.yul\":3106:3117   */\n  sload\n    /* \"#utility.yul\":3078:3169   */\n  tag_135\n  jump\t// in\ntag_196:\n    /* \"#utility.yul\":3072:3076   */\n  dup3\n    /* \"#utility.yul\":3065:3170   */\n  sstore\n    /* \"#utility.yul\":2983:3176   */\n  pop\n    /* \"#utility.yul\":2907:3176   */\n  pop\n  pop\n  pop\n  jump\t// out\n    /* \"#utility.yul\":3182:3255   */\ntag_140:\n    /* \"#utility.yul\":3227:3230   */\n  0x00\n    /* \"#utility.yul\":3182:3255   */\n  swap1\n  jump\t// out\n    /* \"#utility.yul\":3261:3450   */\ntag_141:\n    /* \"#utility.yul\":3338:3370   */\n  tag_200\n  tag_140\n  jump\t// in\ntag_200:\n    /* \"#utility.yul\":3379:3444   */\n  tag_201\n    /* \"#utility.yul\":3437:3443   */\n  dup2\n    /* \"#utility.yul\":3429:3435   */\n  dup5\n    /* \"#utility.yul\":3423:3427   */\n  dup5\n    /* \"#utility.yul\":3379:3444   */\n  tag_139\n  jump\t// in\ntag_201:\n    /* \"#utility.yul\":3314:3450   */\n  pop\n    /* \"#utility.yul\":3261:3450   */\n  pop\n  pop\n  jump\t// out\n    /* \"#utility.yul\":3456:3642   */\ntag_142:\n    /* \"#utility.yul\":3516:3636   */\ntag_203:\n    /* \"#utility.yul\":3533:3536   */\n  dup2\n    /* \"#utility.yul\":3526:3531   */\n  dup2\n    /* \"#utility.yul\":3523:3537   */\n  lt\n    /* \"#utility.yul\":3516:3636   */\n  iszero\n  tag_205\n  jumpi\n    /* \"#utility.yul\":3587:3626   */\n  tag_206\n    /* \"#utility.yul\":3624:3625   */\n  0x00\n    /* \"#utility.yul\":3617:3622   */\n  dup3\n    /* \"#utility.yul\":3587:3626   */\n  tag_141\n  jump\t// in\ntag_206:\n    /* \"#utility.yul\":3560:3561   */\n  0x01\n    /* \"#utility.yul\":3553:3558   */\n  dup2\n    /* \"#utility.yul\":3549:3562   */\n  add\n    /* \"#utility.yul\":3540:3562   */\n  swap1\n  pop\n    /* \"#utility.yul\":3516:3636   */\n  jump(tag_203)\ntag_205:\n    /* \"#utility.yul\":3456:3642   */\n  pop\n  pop\n  jump\t// out\n    /* \"#utility.yul\":3648:4191   */\ntag_143:\n    /* \"#utility.yul\":3749:3751   */\n  0x1f\n    /* \"#utility.yul\":3744:3747   */\n  dup3\n    /* \"#utility.yul\":3741:3752   */\n  gt\n    /* \"#utility.yul\":3738:4184   */\n  iszero\n  tag_208\n  jumpi\n    /* \"#utility.yul\":3783:3821   */\n  tag_209\n    /* \"#utility.yul\":3815:3820   */\n  dup2\n    /* \"#utility.yul\":3783:3821   */\n  tag_132\n  jump\t// in\ntag_209:\n    /* \"#utility.yul\":3867:3896   */\n  tag_210\n    /* \"#utility.yul\":3885:3895   */\n  dup5\n    /* \"#utility.yul\":3867:3896   */\n  tag_133\n  jump\t// in\ntag_210:\n    /* \"#utility.yul\":3857:3865   */\n  dup2\n    /* \"#utility.yul\":3853:3897   */\n  add\n    /* \"#utility.yul\":4050:4052   */\n  0x20\n    /* \"#utility.yul\":4038:4048   */\n  dup6\n    /* \"#utility.yul\":4035:4053   */\n  lt\n    /* \"#utility.yul\":4032:4081   */\n  iszero\n  tag_211\n  jumpi\n    /* \"#utility.yul\":4071:4079   */\n  dup2\n    /* \"#utility.yul\":4056:4079   */\n  swap1\n  pop\n    /* \"#utility.yul\":4032:4081   */\ntag_211:\n    /* \"#utility.yul\":4094:4174   */\n  tag_212\n    /* \"#utility.yul\":4150:4172   */\n  tag_213\n    /* \"#utility.yul\":4168:4171   */\n  dup6\n    /* \"#utility.yul\":4150:4172   */\n  tag_133\n  jump\t// in\ntag_213:\n    /* \"#utility.yul\":4140:4148   */\n  dup4\n    /* \"#utility.yul\":4136:4173   */\n  add\n    /* \"#utility.yul\":4123:4134   */\n  dup3\n    /* \"#utility.yul\":4094:4174   */\n  tag_142\n  jump\t// in\ntag_212:\n    /* \"#utility.yul\":3753:4184   */\n  pop\n  pop\n    /* \"#utility.yul\":3738:4184   */\ntag_208:\n    /* \"#utility.yul\":3648:4191   */\n  pop\n  pop\n  pop\n  jump\t// out\n    /* \"#utility.yul\":4197:4314   */\ntag_144:\n    /* \"#utility.yul\":4251:4259   */\n  0x00\n    /* \"#utility.yul\":4301:4306   */\n  dup3\n    /* \"#utility.yul\":4295:4299   */\n  dup3\n    /* \"#utility.yul\":4291:4307   */\n  shr\n    /* \"#utility.yul\":4270:4307   */\n  swap1\n  pop\n    /* \"#utility.yul\":4197:4314   */\n  swap3\n  swap2\n  pop\n  pop\n  jump\t// out\n    /* \"#utility.yul\":4320:4489   */\ntag_145:\n    /* \"#utility.yul\":4364:4370   */\n  0x00\n    /* \"#utility.yul\":4397:4448   */\n  tag_216\n    /* \"#utility.yul\":4445:4446   */\n  0x00\n    /* \"#utility.yul\":4441:4447   */\n  not\n    /* \"#utility.yul\":4433:4438   */\n  dup5\n    /* \"#utility.yul\":4430:4431   */\n  0x08\n    /* \"#utility.yul\":4426:4439   */\n  mul\n    /* \"#utility.yul\":4397:4448   */\n  tag_144\n  jump\t// in\ntag_216:\n    /* \"#utility.yul\":4393:4449   */\n  not\n    /* \"#utility.yul\":4478:4482   */\n  dup1\n    /* \"#utility.yul\":4472:4476   */\n  dup4\n    /* \"#utility.yul\":4468:4483   */\n  and\n    /* \"#utility.yul\":4458:4483   */\n  swap2\n  pop\n    /* \"#utility.yul\":4371:4489   */\n  pop\n    /* \"#utility.yul\":4320:4489   */\n  swap3\n  swap2\n  pop\n  pop\n  jump\t// out\n    /* \"#utility.yul\":4494:4789   */\ntag_146:\n    /* \"#utility.yul\":4570:4574   */\n  0x00\n    /* \"#utility.yul\":4716:4745   */\n  tag_218\n    /* \"#utility.yul\":4741:4744   */\n  dup4\n    /* \"#utility.yul\":4735:4739   */\n  dup4\n    /* \"#utility.yul\":4716:4745   */\n  tag_145\n  jump\t// in\ntag_218:\n    /* \"#utility.yul\":4708:4745   */\n  swap2\n  pop\n    /* \"#utility.yul\":4778:4781   */\n  dup3\n    /* \"#utility.yul\":4775:4776   */\n  0x02\n    /* \"#utility.yul\":4771:4782   */\n  mul\n    /* \"#utility.yul\":4765:4769   */\n  dup3\n    /* \"#utility.yul\":4762:4783   */\n  or\n    /* \"#utility.yul\":4754:4783   */\n  swap1\n  pop\n    /* \"#utility.yul\":4494:4789   */\n  swap3\n  swap2\n  pop\n  pop\n  jump\t// out\n    /* \"#utility.yul\":4794:6189   */\ntag_10:\n    /* \"#utility.yul\":4911:4948   */\n  tag_220\n    /* \"#utility.yul\":4944:4947   */\n  dup3\n    /* \"#utility.yul\":4911:4948   */\n  tag_128\n  jump\t// in\ntag_220:\n    /* \"#utility.yul\":5013:5031   */\n  0xffffffffffffffff\n    /* \"#utility.yul\":5005:5011   */\n  dup2\n    /* \"#utility.yul\":5002:5032   */\n  gt\n    /* \"#utility.yul\":4999:5055   */\n  iszero\n  tag_221\n  jumpi\n    /* \"#utility.yul\":5035:5053   */\n  tag_222\n  tag_129\n  jump\t// in\ntag_222:\n    /* \"#utility.yul\":4999:5055   */\ntag_221:\n    /* \"#utility.yul\":5079:5117   */\n  tag_223\n    /* \"#utility.yul\":5111:5115   */\n  dup3\n    /* \"#utility.yul\":5105:5116   */\n  sload\n    /* \"#utility.yul\":5079:5117   */\n  tag_131\n  jump\t// in\ntag_223:\n    /* \"#utility.yul\":5164:5231   */\n  tag_224\n    /* \"#utility.yul\":5224:5230   */\n  dup3\n    /* \"#utility.yul\":5216:5222   */\n  dup3\n    /* \"#utility.yul\":5210:5214   */\n  dup6\n    /* \"#utility.yul\":5164:5231   */\n  tag_143\n  jump\t// in\ntag_224:\n    /* \"#utility.yul\":5258:5259   */\n  0x00\n    /* \"#utility.yul\":5282:5286   */\n  0x20\n    /* \"#utility.yul\":5269:5286   */\n  swap1\n  pop\n    /* \"#utility.yul\":5314:5316   */\n  0x1f\n    /* \"#utility.yul\":5306:5312   */\n  dup4\n    /* \"#utility.yul\":5303:5317   */\n  gt\n    /* \"#utility.yul\":5331:5332   */\n  0x01\n    /* \"#utility.yul\":5326:5944   */\n  dup2\n  eq\n  tag_226\n  jumpi\n    /* \"#utility.yul\":5988:5989   */\n  0x00\n    /* \"#utility.yul\":6005:6011   */\n  dup5\n    /* \"#utility.yul\":6002:6079   */\n  iszero\n  tag_227\n  jumpi\n    /* \"#utility.yul\":6054:6063   */\n  dup3\n    /* \"#utility.yul\":6049:6052   */\n  dup8\n    /* \"#utility.yul\":6045:6064   */\n  add\n    /* \"#utility.yul\":6039:6065   */\n  mload\n    /* \"#utility.yul\":6030:6065   */\n  swap1\n  pop\n    /* \"#utility.yul\":6002:6079   */\ntag_227:\n    /* \"#utility.yul\":6105:6172   */\n  tag_228\n    /* \"#utility.yul\":6165:6171   */\n  dup6\n    /* \"#utility.yul\":6158:6163   */\n  dup3\n    /* \"#utility.yul\":6105:6172   */\n  tag_146\n  jump\t// in\ntag_228:\n    /* \"#utility.yul\":6099:6103   */\n  dup7\n    /* \"#utility.yul\":6092:6173   */\n  sstore\n    /* \"#utility.yul\":5961:6183   */\n  pop\n    /* \"#utility.yul\":5296:6183   */\n  jump(tag_225)\n    /* \"#utility.yul\":5326:5944   */\ntag_226:\n    /* \"#utility.yul\":5378:5382   */\n  0x1f\n    /* \"#utility.yul\":5374:5383   */\n  not\n    /* \"#utility.yul\":5366:5372   */\n  dup5\n    /* \"#utility.yul\":5362:5384   */\n  and\n    /* \"#utility.yul\":5412:5449   */\n  tag_229\n    /* \"#utility.yul\":5444:5448   */\n  dup7\n    /* \"#utility.yul\":5412:5449   */\n  tag_132\n  jump\t// in\ntag_229:\n    /* \"#utility.yul\":5471:5472   */\n  0x00\n    /* \"#utility.yul\":5485:5693   */\ntag_230:\n    /* \"#utility.yul\":5499:5506   */\n  dup3\n    /* \"#utility.yul\":5496:5497   */\n  dup2\n    /* \"#utility.yul\":5493:5507   */\n  lt\n    /* \"#utility.yul\":5485:5693   */\n  iszero\n  tag_232\n  jumpi\n    /* \"#utility.yul\":5578:5587   */\n  dup5\n    /* \"#utility.yul\":5573:5576   */\n  dup10\n    /* \"#utility.yul\":5569:5588   */\n  add\n    /* \"#utility.yul\":5563:5589   */\n  mload\n    /* \"#utility.yul\":5555:5561   */\n  dup3\n    /* \"#utility.yul\":5548:5590   */\n  sstore\n    /* \"#utility.yul\":5629:5630   */\n  0x01\n    /* \"#utility.yul\":5621:5627   */\n  dup3\n    /* \"#utility.yul\":5617:5631   */\n  add\n    /* \"#utility.yul\":5607:5631   */\n  swap2\n  pop\n    /* \"#utility.yul\":5676:5678   */\n  0x20\n    /* \"#utility.yul\":5665:5674   */\n  dup6\n    /* \"#utility.yul\":5661:5679   */\n  add\n    /* \"#utility.yul\":5648:5679   */\n  swap5\n  pop\n    /* \"#utility.yul\":5522:5526   */\n  0x20\n    /* \"#utility.yul\":5519:5520   */\n  dup2\n    /* \"#utility.yul\":5515:5527   */\n  add\n    /* \"#utility.yul\":5510:5527   */\n  swap1\n  pop\n    /* \"#utility.yul\":5485:5693   */\n  jump(tag_230)\ntag_232:\n    /* \"#utility.yul\":5721:5727   */\n  dup7\n    /* \"#utility.yul\":5712:5719   */\n  dup4\n    /* \"#utility.yul\":5709:5728   */\n  lt\n    /* \"#utility.yul\":5706:5885   */\n  iszero\n  tag_233\n  jumpi\n    /* \"#utility.yul\":5779:5788   */\n  dup5\n    /* \"#utility.yul\":5774:5777   */\n  dup10\n    /* \"#utility.yul\":5770:5789   */\n  add\n    /* \"#utility.yul\":5764:5790   */\n  mload\n    /* \"#utility.yul\":5822:5870   */\n  tag_234\n    /* \"#utility.yul\":5864:5868   */\n  0x1f\n    /* \"#utility.yul\":5856:5862   */\n  dup10\n    /* \"#utility.yul\":5852:5869   */\n  and\n    /* \"#utility.yul\":5841:5850   */\n  dup3\n    /* \"#utility.yul\":5822:5870   */\n  tag_145\n  jump\t// in\ntag_234:\n    /* \"#utility.yul\":5814:5820   */\n  dup4\n    /* \"#utility.yul\":5807:5871   */\n  sstore\n    /* \"#utility.yul\":5729:5885   */\n  pop\n    /* \"#utility.yul\":5706:5885   */\ntag_233:\n    /* \"#utility.yul\":5931:5932   */\n  0x01\n    /* \"#utility.yul\":5927:5928   */\n  0x02\n    /* \"#utility.yul\":5919:5925   */\n  dup9\n    /* \"#utility.yul\":5915:5929   */\n  mul\n    /* \"#utility.yul\":5911:5933   */\n  add\n    /* \"#utility.yul\":5905:5909   */\n  dup9\n    /* \"#utility.yul\":5898:5934   */\n  sstore\n    /* \"#utility.yul\":5333:5944   */\n  pop\n  pop\n  pop\n    /* \"#utility.yul\":5296:6183   */\ntag_225:\n  pop\n    /* \"#utility.yul\":4886:6189   */\n  pop\n  pop\n  pop\n    /* \"#utility.yul\":4794:6189   */\n  pop\n  pop\n  jump\t// out\n    /* \"#utility.yul\":6195:6321   */\ntag_147:\n    /* \"#utility.yul\":6232:6239   */\n  0x00\n    /* \"#utility.yul\":6272:6314   */\n  0xffffffffffffffffffffffffffffffffffffffff\n    /* \"#utility.yul\":6265:6270   */\n  dup3\n    /* \"#utility.yul\":6261:6315   */\n  and\n    /* \"#utility.yul\":6250:6315   */\n  swap1\n  pop\n    /* \"#utility.yul\":6195:6321   */\n  swap2\n  swap1\n  pop\n  jump\t// out\n    /* \"#utility.yul\":6327:6423   */\ntag_148:\n    /* \"#utility.yul\":6364:6371   */\n  0x00\n    /* \"#utility.yul\":6393:6417   */\n  tag_237\n    /* \"#utility.yul\":6411:6416   */\n  dup3\n    /* \"#utility.yul\":6393:6417   */\n  tag_147\n  jump\t// in\ntag_237:\n    /* \"#utility.yul\":6382:6417   */\n  swap1\n  pop\n    /* \"#utility.yul\":6327:6423   */\n  swap2\n  swap1\n  pop\n  jump\t// out\n    /* \"#utility.yul\":6429:6547   */\ntag_149:\n    /* \"#utility.yul\":6516:6540   */\n  tag_239\n    /* \"#utility.yul\":6534:6539   */\n  dup2\n    /* \"#utility.yul\":6516:6540   */\n  tag_148\n  jump\t// in\ntag_239:\n    /* \"#utility.yul\":6511:6514   */\n  dup3\n    /* \"#utility.yul\":6504:6541   */\n  mstore\n    /* \"#utility.yul\":6429:6547   */\n  pop\n  pop\n  jump\t// out\n    /* \"#utility.yul\":6553:6775   */\ntag_16:\n    /* \"#utility.yul\":6646:6650   */\n  0x00\n    /* \"#utility.yul\":6684:6686   */\n  0x20\n    /* \"#utility.yul\":6673:6682   */\n  dup3\n    /* \"#utility.yul\":6669:6687   */\n  add\n    /* \"#utility.yul\":6661:6687   */\n  swap1\n  pop\n    /* \"#utility.yul\":6697:6768   */\n  tag_241\n    /* \"#utility.yul\":6765:6766   */\n  0x00\n    /* \"#utility.yul\":6754:6763   */\n  dup4\n    /* \"#utility.yul\":6750:6767   */\n  add\n    /* \"#utility.yul\":6741:6747   */\n  dup5\n    /* \"#utility.yul\":6697:6768   */\n  tag_149\n  jump\t// in\ntag_241:\n    /* \"#utility.yul\":6553:6775   */\n  swap3\n  swap2\n  pop\n  pop\n  jump\t// out\n    /* \"#utility.yul\":6781:6961   */\ntag_150:\n    /* \"#utility.yul\":6829:6906   */\n  0x4e487b7100000000000000000000000000000000000000000000000000000000\n    /* \"#utility.yul\":6826:6827   */\n  0x00\n    /* \"#utility.yul\":6819:6907   */\n  mstore\n    /* \"#utility.yul\":6926:6930   */\n  0x11\n    /* \"#utility.yul\":6923:6924   */\n  0x04\n    /* \"#utility.yul\":6916:6931   */\n  mstore\n    /* \"#utility.yul\":6950:6954   */\n  0x24\n    /* \"#utility.yul\":6947:6948   */\n  0x00\n    /* \"#utility.yul\":6940:6955   */\n  revert\n    /* \"#utility.yul\":6967:7377   */\ntag_21:\n    /* \"#utility.yul\":7007:7014   */\n  0x00\n    /* \"#utility.yul\":7030:7050   */\n  tag_244\n    /* \"#utility.yul\":7048:7049   */\n  dup3\n    /* \"#utility.yul\":7030:7050   */\n  tag_125\n  jump\t// in\ntag_244:\n    /* \"#utility.yul\":7025:7050   */\n  swap2\n  pop\n    /* \"#utility.yul\":7064:7084   */\n  tag_245\n    /* \"#utility.yul\":7082:7083   */\n  dup4\n    /* \"#utility.yul\":7064:7084   */\n  tag_125\n  jump\t// in\ntag_245:\n    /* \"#utility.yul\":7059:7084   */\n  swap3\n  pop\n    /* \"#utility.yul\":7119:7120   */\n  dup3\n    /* \"#utility.yul\":7116:7117   */\n  dup3\n    /* \"#utility.yul\":7112:7121   */\n  mul\n    /* \"#utility.yul\":7141:7171   */\n  tag_246\n    /* \"#utility.yul\":7159:7170   */\n  dup2\n    /* \"#utility.yul\":7141:7171   */\n  tag_125\n  jump\t// in\ntag_246:\n    /* \"#utility.yul\":7130:7171   */\n  swap2\n  pop\n    /* \"#utility.yul\":7320:7321   */\n  dup3\n    /* \"#utility.yul\":7311:7318   */\n  dup3\n    /* \"#utility.yul\":7307:7322   */\n  div\n    /* \"#utility.yul\":7304:7305   */\n  dup5\n    /* \"#utility.yul\":7301:7323   */\n  eq\n    /* \"#utility.yul\":7281:7282   */\n  dup4\n    /* \"#utility.yul\":7274:7283   */\n  iszero\n    /* \"#utility.yul\":7254:7337   */\n  or\n    /* \"#utility.yul\":7231:7370   */\n  tag_247\n  jumpi\n    /* \"#utility.yul\":7350:7368   */\n  tag_248\n  tag_150\n  jump\t// in\ntag_248:\n    /* \"#utility.yul\":7231:7370   */\ntag_247:\n    /* \"#utility.yul\":7015:7377   */\n  pop\n    /* \"#utility.yul\":6967:7377   */\n  swap3\n  swap2\n  pop\n  pop\n  jump\t// out\n    /* \"#utility.yul\":7383:7563   */\ntag_151:\n    /* \"#utility.yul\":7431:7508   */\n  0x4e487b7100000000000000000000000000000000000000000000000000000000\n    /* \"#utility.yul\":7428:7429   */\n  0x00\n    /* \"#utility.yul\":7421:7509   */\n  mstore\n    /* \"#utility.yul\":7528:7532   */\n  0x12\n    /* \"#utility.yul\":7525:7526   */\n  0x04\n    /* \"#utility.yul\":7518:7533   */\n  mstore\n    /* \"#utility.yul\":7552:7556   */\n  0x24\n    /* \"#utility.yul\":7549:7550   */\n  0x00\n    /* \"#utility.yul\":7542:7557   */\n  revert\n    /* \"#utility.yul\":7569:7754   */\ntag_23:\n    /* \"#utility.yul\":7609:7610   */\n  0x00\n    /* \"#utility.yul\":7626:7646   */\n  tag_251\n    /* \"#utility.yul\":7644:7645   */\n  dup3\n    /* \"#utility.yul\":7626:7646   */\n  tag_125\n  jump\t// in\ntag_251:\n    /* \"#utility.yul\":7621:7646   */\n  swap2\n  pop\n    /* \"#utility.yul\":7660:7680   */\n  tag_252\n    /* \"#utility.yul\":7678:7679   */\n  dup4\n    /* \"#utility.yul\":7660:7680   */\n  tag_125\n  jump\t// in\ntag_252:\n    /* \"#utility.yul\":7655:7680   */\n  swap3\n  pop\n    /* \"#utility.yul\":7699:7700   */\n  dup3\n    /* \"#utility.yul\":7689:7724   */\n  tag_253\n  jumpi\n    /* \"#utility.yul\":7704:7722   */\n  tag_254\n  tag_151\n  jump\t// in\ntag_254:\n    /* \"#utility.yul\":7689:7724   */\ntag_253:\n    /* \"#utility.yul\":7746:7747   */\n  dup3\n    /* \"#utility.yul\":7743:7744   */\n  dup3\n    /* \"#utility.yul\":7739:7748   */\n  div\n    /* \"#utility.yul\":7734:7748   */\n  swap1\n  pop\n    /* \"#utility.yul\":7569:7754   */\n  swap3\n  swap2\n  pop\n  pop\n  jump\t// out\n    /* \"#utility.yul\":7760:7993   */\ntag_28:\n    /* \"#utility.yul\":7799:7802   */\n  0x00\n    /* \"#utility.yul\":7822:7846   */\n  tag_256\n    /* \"#utility.yul\":7840:7845   */\n  dup3\n    /* \"#utility.yul\":7822:7846   */\n  tag_125\n  jump\t// in\ntag_256:\n    /* \"#utility.yul\":7813:7846   */\n  swap2\n  pop\n    /* \"#utility.yul\":7868:7934   */\n  0xffffffffffffffffffffffffffffffffffffffffffffffffffffffffffffffff\n    /* \"#utility.yul\":7861:7866   */\n  dup3\n    /* \"#utility.yul\":7858:7935   */\n  sub\n    /* \"#utility.yul\":7855:7958   */\n  tag_257\n  jumpi\n    /* \"#utility.yul\":7938:7956   */\n  tag_258\n  tag_150\n  jump\t// in\ntag_258:\n    /* \"#utility.yul\":7855:7958   */\ntag_257:\n    /* \"#utility.yul\":7985:7986   */\n  0x01\n    /* \"#utility.yul\":7978:7983   */\n  dup3\n    /* \"#utility.yul\":7974:7987   */\n  add\n    /* \"#utility.yul\":7967:7987   */\n  swap1\n  pop\n    /* \"#utility.yul\":7760:7993   */\n  swap2\n  swap1\n  pop\n  jump\t// out\n    /* \"#utility.yul\":7999:8117   */\ntag_152:\n    /* \"#utility.yul\":8086:8110   */\n  tag_260\n    /* \"#utility.yul\":8104:8109   */\n  dup2\n    /* \"#utility.yul\":8086:8110   */\n  tag_125\n  jump\t// in\ntag_260:\n    /* \"#utility.yul\":8081:8084   */\n  dup3\n    /* \"#utility.yul\":8074:8111   */\n  mstore\n    /* \"#utility.yul\":7999:8117   */\n  pop\n  pop\n  jump\t// out\n    /* \"#utility.yul\":8123:8455   */\ntag_36:\n    /* \"#utility.yul\":8244:8248   */\n  0x00\n    /* \"#utility.yul\":8282:8284   */\n  0x40\n    /* \"#utility.yul\":8271:8280   */\n  dup3\n    /* \"#utility.yul\":8267:8285   */\n  add\n    /* \"#utility.yul\":8259:8285   */\n  swap1\n  pop\n    /* \"#utility.yul\":8295:8366   */\n  tag_262\n    /* \"#utility.yul\":8363:8364   */\n  0x00\n    /* \"#utility.yul\":8352:8361   */\n  dup4\n    /* \"#utility.yul\":8348:8365   */\n  add\n    /* \"#utility.yul\":8339:8345   */\n  dup6\n    /* \"#utility.yul\":8295:8366   */\n  tag_149\n  jump\t// in\ntag_262:\n    /* \"#utility.yul\":8376:8448   */\n  tag_263\n    /* \"#utility.yul\":8444:8446   */\n  0x20\n    /* \"#utility.yul\":8433:8442   */\n  dup4\n    /* \"#utility.yul\":8429:8447   */\n  add\n    /* \"#utility.yul\":8420:8426   */\n  dup5\n    /* \"#utility.yul\":8376:8448   */\n  tag_152\n  jump\t// in\ntag_263:\n    /* \"#utility.yul\":8123:8455   */\n  swap4\n  swap3\n  pop\n  pop\n  pop\n  jump\t// out\n    /* \"#utility.yul\":8461:8559   */\ntag_153:\n    /* \"#utility.yul\":8512:8518   */\n  0x00\n    /* \"#utility.yul\":8546:8551   */\n  dup2\n    /* \"#utility.yul\":8540:8552   */\n  mload\n    /* \"#utility.yul\":8530:8552   */\n  swap1\n  pop\n    /* \"#utility.yul\":8461:8559   */\n  swap2\n  swap1\n  pop\n  jump\t// out\n    /* \"#utility.yul\":8565:8733   */\ntag_154:\n    /* \"#utility.yul\":8648:8659   */\n  0x00\n    /* \"#utility.yul\":8682:8688   */\n  dup3\n    /* \"#utility.yul\":8677:8680   */\n  dup3\n    /* \"#utility.yul\":8670:8689   */\n  mstore\n    /* \"#utility.yul\":8722:8726   */\n  0x20\n    /* \"#utility.yul\":8717:8720   */\n  dup3\n    /* \"#utility.yul\":8713:8727   */\n  add\n    /* \"#utility.yul\":8698:8727   */\n  swap1\n  pop\n    /* \"#utility.yul\":8565:8733   */\n  swap3\n  swap2\n  pop\n  pop\n  jump\t// out\n    /* \"#utility.yul\":8739:8985   */\ntag_155:\n    /* \"#utility.yul\":8820:8821   */\n  0x00\n    /* \"#utility.yul\":8830:8943   */\ntag_267:\n    /* \"#utility.yul\":8844:8850   */\n  dup4\n    /* \"#utility.yul\":8841:8842   */\n  dup2\n    /* \"#utility.yul\":8838:8851   */\n  lt\n    /* \"#utility.yul\":8830:8943   */\n  iszero\n  tag_269\n  jumpi\n    /* \"#utility.yul\":8929:8930   */\n  dup1\n    /* \"#utility.yul\":8924:8927   */\n  dup3\n    /* \"#utility.yul\":8920:8931   */\n  add\n    /* \"#utility.yul\":8914:8932   */\n  mload\n    /* \"#utility.yul\":8910:8911   */\n  dup2\n    /* \"#utility.yul\":8905:8908   */\n  dup5\n    /* \"#utility.yul\":8901:8912   */\n  add\n    /* \"#utility.yul\":8894:8933   */\n  mstore\n    /* \"#utility.yul\":8866:8868   */\n  0x20\n    /* \"#utility.yul\":8863:8864   */\n  dup2\n    /* \"#utility.yul\":8859:8869   */\n  add\n    /* \"#utility.yul\":8854:8869   */\n  swap1\n  pop\n    /* \"#utility.yul\":8830:8943   */\n  jump(tag_267)\ntag_269:\n    /* \"#utility.yul\":8977:8978   */\n  0x00\n    /* \"#utility.yul\":8968:8974   */\n  dup5\n    /* \"#utility.yul\":8963:8966   */\n  dup5\n    /* \"#utility.yul\":8959:8975   */\n  add\n    /* \"#utility.yul\":8952:8979   */\n  mstore\n    /* \"#utility.yul\":8801:8985   */\n  pop\n    /* \"#utility.yul\":8739:8985   */\n  pop\n  pop\n  pop\n  jump\t// out\n    /* \"#utility.yul\":8991:9093   */\ntag_156:\n    /* \"#utility.yul\":9032:9038   */\n  0x00\n    /* \"#utility.yul\":9083:9085   */\n  0x1f\n    /* \"#utility.yul\":9079:9086   */\n  not\n    /* \"#utility.yul\":9074:9076   */\n  0x1f\n    /* \"#utility.yul\":9067:9072   */\n  dup4\n    /* \"#utility.yul\":9063:9077   */\n  add\n    /* \"#utility.yul\":9059:9087   */\n  and\n    /* \"#utility.yul\":9049:9087   */\n  swap1\n  pop\n    /* \"#utility.yul\":8991:9093   */\n  swap2\n  swap1\n  pop\n  jump\t// out\n    /* \"#utility.yul\":9099:9472   */\ntag_157:\n    /* \"#utility.yul\":9185:9188   */\n  0x00\n    /* \"#utility.yul\":9213:9251   */\n  tag_272\n    /* \"#utility.yul\":9245:9250   */\n  dup3\n    /* \"#utility.yul\":9213:9251   */\n  tag_153\n  jump\t// in\ntag_272:\n    /* \"#utility.yul\":9267:9337   */\n  tag_273\n    /* \"#utility.yul\":9330:9336   */\n  dup2\n    /* \"#utility.yul\":9325:9328   */\n  dup6\n    /* \"#utility.yul\":9267:9337   */\n  tag_154\n  jump\t// in\ntag_273:\n    /* \"#utility.yul\":9260:9337   */\n  swap4\n  pop\n    /* \"#utility.yul\":9346:9411   */\n  tag_274\n    /* \"#utility.yul\":9404:9410   */\n  dup2\n    /* \"#utility.yul\":9399:9402   */\n  dup6\n    /* \"#utility.yul\":9392:9396   */\n  0x20\n    /* \"#utility.yul\":9385:9390   */\n  dup7\n    /* \"#utility.yul\":9381:9397   */\n  add\n    /* \"#utility.yul\":9346:9411   */\n  tag_155\n  jump\t// in\ntag_274:\n    /* \"#utility.yul\":9436:9465   */\n  tag_275\n    /* \"#utility.yul\":9458:9464   */\n  dup2\n    /* \"#utility.yul\":9436:9465   */\n  tag_156\n  jump\t// in\ntag_275:\n    /* \"#utility.yul\":9431:9434   */\n  dup5\n    /* \"#utility.yul\":9427:9466   */\n  add\n    /* \"#utility.yul\":9420:9466   */\n  swap2\n  pop\n    /* \"#utility.yul\":9189:9472   */\n  pop\n    /* \"#utility.yul\":9099:9472   */\n  swap3\n  swap2\n  pop\n  pop\n  jump\t// out\n    /* \"#utility.yul\":9478:10118   */\ntag_60:\n    /* \"#utility.yul\":9673:9677   */\n  0x00\n    /* \"#utility.yul\":9711:9714   */\n  0x80\n    /* \"#utility.yul\":9700:9709   */\n  dup3\n    /* \"#utility.yul\":9696:9715   */\n  add\n    /* \"#utility.yul\":9688:9715   */\n  swap1\n  pop\n    /* \"#utility.yul\":9725:9796   */\n  tag_277\n    /* \"#utility.yul\":9793:9794   */\n  0x00\n    /* \"#utility.yul\":9782:9791   */\n  dup4\n    /* \"#utility.yul\":9778:9795   */\n  add\n    /* \"#utility.yul\":9769:9775   */\n  dup8\n    /* \"#utility.yul\":9725:9796   */\n  tag_149\n  jump\t// in\ntag_277:\n    /* \"#utility.yul\":9806:9878   */\n  tag_278\n    /* \"#utility.yul\":9874:9876   */\n  0x20\n    /* \"#utility.yul\":9863:9872   */\n  dup4\n    /* \"#utility.yul\":9859:9877   */\n  add\n    /* \"#utility.yul\":9850:9856   */\n  dup7\n    /* \"#utility.yul\":9806:9878   */\n  tag_149\n  jump\t// in\ntag_278:\n    /* \"#utility.yul\":9888:9960   */\n  tag_279\n    /* \"#utility.yul\":9956:9958   */\n  0x40\n    /* \"#utility.yul\":9945:9954   */\n  dup4\n    /* \"#utility.yul\":9941:9959   */\n  add\n    /* \"#utility.yul\":9932:9938   */\n  dup6\n    /* \"#utility.yul\":9888:9960   */\n  tag_152\n  jump\t// in\ntag_279:\n    /* \"#utility.yul\":10007:10016   */\n  dup2\n    /* \"#utility.yul\":10001:10005   */\n  dup2\n    /* \"#utility.yul\":9997:10017   */\n  sub\n    /* \"#utility.yul\":9992:9994   */\n  0x60\n    /* \"#utility.yul\":9981:9990   */\n  dup4\n    /* \"#utility.yul\":9977:9995   */\n  add\n    /* \"#utility.yul\":9970:10018   */\n  mstore\n    /* \"#utility.yul\":10035:10111   */\n  tag_280\n    /* \"#utility.yul\":10106:10110   */\n  dup2\n    /* \"#utility.yul\":10097:10103   */\n  dup5\n    /* \"#utility.yul\":10035:10111   */\n  tag_157\n  jump\t// in\ntag_280:\n    /* \"#utility.yul\":10027:10111   */\n  swap1\n  pop\n    /* \"#utility.yul\":9478:10118   */\n  swap6\n  swap5\n  pop\n  pop\n  pop\n  pop\n  pop\n  jump\t// out\n    /* \"#utility.yul\":10124:10273   */\ntag_158:\n    /* \"#utility.yul\":10160:10167   */\n  0x00\n    /* \"#utility.yul\":10200:10266   */\n  0xffffffff00000000000000000000000000000000000000000000000000000000\n    /* \"#utility.yul\":10193:10198   */\n  dup3\n    /* \"#utility.yul\":10189:10267   */\n  and\n    /* \"#utility.yul\":10178:10267   */\n  swap1\n  pop\n    /* \"#utility.yul\":10124:10273   */\n  swap2\n  swap1\n  pop\n  jump\t// out\n    /* \"#utility.yul\":10279:10399   */\ntag_159:\n    /* \"#utility.yul\":10351:10374   */\n  tag_283\n    /* \"#utility.yul\":10368:10373   */\n  dup2\n    /* \"#utility.yul\":10351:10374   */\n  tag_158\n  jump\t// in\ntag_283:\n    /* \"#utility.yul\":10344:10349   */\n  dup2\n    /* \"#utility.yul\":10341:10375   */\n  eq\n    /* \"#utility.yul\":10331:10393   */\n  tag_284\n  jumpi\n    /* \"#utility.yul\":10389:10390   */\n  0x00\n    /* \"#utility.yul\":10386:10387   */\n  dup1\n    /* \"#utility.yul\":10379:10391   */\n  revert\n    /* \"#utility.yul\":10331:10393   */\ntag_284:\n    /* \"#utility.yul\":10279:10399   */\n  pop\n  jump\t// out\n    /* \"#utility.yul\":10405:10546   */\ntag_160:\n    /* \"#utility.yul\":10461:10466   */\n  0x00\n    /* \"#utility.yul\":10492:10498   */\n  dup2\n    /* \"#utility.yul\":10486:10499   */\n  mload\n    /* \"#utility.yul\":10477:10499   */\n  swap1\n  pop\n    /* \"#utility.yul\":10508:10540   */\n  tag_286\n    /* \"#utility.yul\":10534:10539   */\n  dup2\n    /* \"#utility.yul\":10508:10540   */\n  tag_159\n  jump\t// in\ntag_286:\n    /* \"#utility.yul\":10405:10546   */\n  swap3\n  swap2\n  pop\n  pop\n  jump\t// out\n    /* \"#utility.yul\":10552:10901   */\ntag_63:\n    /* \"#utility.yul\":10621:10627   */\n  0x00\n    /* \"#utility.yul\":10670:10672   */\n  0x20\n    /* \"#utility.yul\":10658:10667   */\n  dup3\n    /* \"#utility.yul\":10649:10656   */\n  dup5\n    /* \"#utility.yul\":10645:10668   */\n  sub\n    /* \"#utility.yul\":10641:10673   */\n  slt\n    /* \"#utility.yul\":10638:10757   */\n  iszero\n  tag_288\n  jumpi\n    /* \"#utility.yul\":10676:10755   */\n  tag_289\n  tag_123\n  jump\t// in\ntag_289:\n    /* \"#utility.yul\":10638:10757   */\ntag_288:\n    /* \"#utility.yul\":10796:10797   */\n  0x00\n    /* \"#utility.yul\":10821:10884   */\n  tag_290\n    /* \"#utility.yul\":10876:10883   */\n  dup5\n    /* \"#utility.yul\":10867:10873   */\n  dup3\n    /* \"#utility.yul\":10856:10865   */\n  dup6\n    /* \"#utility.yul\":10852:10874   */\n  add\n    /* \"#utility.yul\":10821:10884   */\n  tag_160\n  jump\t// in\ntag_290:\n    /* \"#utility.yul\":10811:10884   */\n  swap2\n  pop\n    /* \"#utility.yul\":10767:10894   */\n  pop\n    /* \"#utility.yul\":10552:10901   */\n  swap3\n  swap2\n  pop\n  pop\n  jump\t// out\n    /* \"#utility.yul\":10907:11129   */\ntag_94:\n    /* \"#utility.yul\":11000:11004   */\n  0x00\n    /* \"#utility.yul\":11038:11040   */\n  0x20\n    /* \"#utility.yul\":11027:11036   */\n  dup3\n    /* \"#utility.yul\":11023:11041   */\n  add\n    /* \"#utility.yul\":11015:11041   */\n  swap1\n  pop\n    /* \"#utility.yul\":11051:11122   */\n  tag_292\n    /* \"#utility.yul\":11119:11120   */\n  0x00\n    /* \"#utility.yul\":11108:11117   */\n  dup4\n    /* \"#utility.yul\":11104:11121   */\n  add\n    /* \"#utility.yul\":11095:11101   */\n  dup5\n    /* \"#utility.yul\":11051:11122   */\n  tag_152\n  jump\t// in\ntag_292:\n    /* \"#utility.yul\":10907:11129   */\n  swap3\n  swap2\n  pop\n  pop\n  jump\t// out\n    /* \"src/GenesisBoomerNFT.sol\":229:3247  contract GenesisBoomerNFT is ERC721, ReentrancyGuard, Ownable {... */\ntag_37:\n  dataSize(sub_0)\n  dup1\n  dataOffset(sub_0)\n  0x00\n  codecopy\n  0x00\n  return\nstop\n\nsub_0: assembly {\n        /* \"src/GenesisBoomerNFT.sol\":229:3247  contract GenesisBoomerNFT is ERC721, ReentrancyGuard, Ownable {... */\n      mstore(0x40, 0x80)\n      jumpi(tag_1, lt(calldatasize, 0x04))\n      shr(0xe0, calldataload(0x00))\n      dup1\n      0x76c71ca1\n      gt\n      tag_32\n      jumpi\n      dup1\n      0xab632857\n      gt\n      tag_33\n      jumpi\n      dup1\n      0xe985e9c5\n      gt\n      tag_34\n      jumpi\n      dup1\n      0xe985e9c5\n      eq\n      tag_28\n      jumpi\n      dup1\n      0xf173f78e\n      eq\n      tag_29\n      jumpi\n      dup1\n      0xf2fde38b\n      eq\n      tag_30\n      jumpi\n      dup1\n      0xf4a0a528\n      eq\n      tag_31\n      jumpi\n      jump(tag_1)\n    tag_34:\n      dup1\n      0xab632857\n      eq\n      tag_24\n      jumpi\n      dup1\n      0xb88d4fde\n      eq\n      tag_25\n      jumpi\n      dup1\n      0xb9a2092d\n      eq\n      tag_26\n      jumpi\n      dup1\n      0xc87b56dd\n      eq\n      tag_27\n      jumpi\n      jump(tag_1)\n    tag_33:\n      dup1\n      0x8da5cb5b\n      gt\n      tag_35\n      jumpi\n      dup1\n      0x8da5cb5b\n      eq\n      tag_20\n      jumpi\n      dup1\n      0x95d89b41\n      eq\n      tag_21\n      jumpi\n      dup1\n      0x9fd6db12\n      eq\n      tag_22\n      jumpi\n      dup1\n      0xa22cb465\n      eq\n      tag_23\n      jumpi\n      jump(tag_1)\n    tag_35:\n      dup1\n      0x76c71ca1\n      eq\n      tag_17\n      jumpi\n      dup1\n      0x78ce9035\n      eq\n      tag_18\n      jumpi\n      dup1\n      0x7e5cd5c1\n      eq\n      tag_19\n      jumpi\n      jump(tag_1)\n    tag_32:\n      dup1\n      0x32cb6b0c\n      gt\n      tag_36\n      jumpi\n      dup1\n      0x6352211e\n      gt\n      tag_37\n      jumpi\n      dup1\n      0x6352211e\n      eq\n      tag_13\n      jumpi\n      dup1\n      0x6817c76c\n      eq\n      tag_14\n      jumpi\n      dup1\n      0x70a08231\n      eq\n      tag_15\n      jumpi\n      dup1\n      0x715018a6\n      eq\n      tag_16\n      jumpi\n      jump(tag_1)\n    tag_37:\n      dup1\n      0x32cb6b0c\n      eq\n      tag_9\n      jumpi\n      dup1\n      0x38e21cce\n      eq\n      tag_10\n      jumpi\n      dup1\n      0x3ccfd60b\n      eq\n      tag_11\n      jumpi\n      dup1\n      0x42842e0e\n      eq\n      tag_12\n      jumpi\n      jump(tag_1)\n    tag_36:\n      dup1\n      0x095ea7b3\n      gt\n      tag_38\n      jumpi\n      dup1\n      0x095ea7b3\n      eq\n      tag_5\n      jumpi\n      dup1\n      0x1249c58b\n      eq\n      tag_6\n      jumpi\n      dup1\n      0x18160ddd\n      eq\n      tag_7\n      jumpi\n      dup1\n      0x23b872dd\n      eq\n      tag_8\n      jumpi\n      jump(tag_1)\n    tag_38:\n      dup1\n      0x01ffc9a7\n      eq\n      tag_2\n      jumpi\n      dup1\n      0x06fdde03\n      eq\n      tag_3\n      jumpi\n      dup1\n      0x081812fc\n      eq\n      tag_4\n      jumpi\n    tag_1:\n      0x00\n      dup1\n      revert\n        /* \"lib/openzeppelin-contracts/contracts/token/ERC721/ERC721.sol\":1561:1861  function supportsInterface(bytes4 interfaceId) public view virtual override(ERC165, IERC165) returns (bool) {... */\n    tag_2:\n      callvalue\n      dup1\n      iszero\n      tag_39\n      jumpi\n      0x00\n      dup1\n      revert\n    tag_39:\n      pop\n      tag_40\n      0x04\n      dup1\n      calldatasize\n      sub\n      dup2\n      add\n      swap1\n      tag_41\n      swap2\n      swap1\n      tag_42\n      jump\t// in\n    tag_41:\n      tag_43\n      jump\t// in\n    tag_40:\n      mload(0x40)\n      tag_44\n      swap2\n      swap1\n      tag_45\n      jump\t// in\n    tag_44:\n      mload(0x40)\n      dup1\n      swap2\n      sub\n      swap1\n      return\n        /* \"lib/openzeppelin-contracts/contracts/token/ERC721/ERC721.sol\":2365:2454  function name() public view virtual returns (string memory) {... */\n    tag_3:\n      callvalue\n      dup1\n      iszero\n      tag_46\n      jumpi\n      0x00\n      dup1\n      revert\n    tag_46:\n      pop\n      tag_47\n      tag_48\n      jump\t// in\n    tag_47:\n      mload(0x40)\n      tag_49\n      swap2\n      swap1\n      tag_50\n      jump\t// in\n    tag_49:\n      mload(0x40)\n      dup1\n      swap2\n      sub\n      swap1\n      return\n        /* \"lib/openzeppelin-contracts/contracts/token/ERC721/ERC721.sol\":3497:3651  function getApproved(uint256 tokenId) public view virtual returns (address) {... */\n    tag_4:\n      callvalue\n      dup1\n      iszero\n      tag_51\n      jumpi\n      0x00\n      dup1\n      revert\n    tag_51:\n      pop\n      tag_52\n      0x04\n      dup1\n      calldatasize\n      sub\n      dup2\n      add\n      swap1\n      tag_53\n      swap2\n      swap1\n      tag_54\n      jump\t// in\n    tag_53:\n      tag_55\n      jump\t// in\n    tag_52:\n      mload(0x40)\n      tag_56\n      swap2\n      swap1\n      tag_57\n      jump\t// in\n    tag_56:\n      mload(0x40)\n      dup1\n      swap2\n      sub\n      swap1\n      return\n        /* \"lib/openzeppelin-contracts/contracts/token/ERC721/ERC721.sol\":3323:3436  function approve(address to, uint256 tokenId) public virtual {... */\n    tag_5:\n      callvalue\n      dup1\n      iszero\n      tag_58\n      jumpi\n      0x00\n      dup1\n      revert\n    tag_58:\n      pop\n      tag_59\n      0x04\n      dup1\n      calldatasize\n      sub\n      dup2\n      add\n      swap1\n      tag_60\n      swap2\n      swap1\n      tag_61\n      jump\t// in\n    tag_60:\n      tag_62\n      jump\t// in\n    tag_59:\n      stop\n        /* \"src/GenesisBoomerNFT.sol\":1959:2595  function mint() public payable nonReentrant {... */\n    tag_6:\n      tag_63\n      tag_64\n      jump\t// in\n    tag_63:\n      stop\n        /* \"src/GenesisBoomerNFT.sol\":569:595  uint256 public totalSupply */\n    tag_7:\n      callvalue\n      dup1\n      iszero\n      tag_65\n      jumpi\n      0x00\n      dup1\n      revert\n    tag_65:\n      pop\n      tag_66\n      tag_67\n      jump\t// in\n    tag_66:\n      mload(0x40)\n      tag_68\n      swap2\n      swap1\n      tag_69\n      jump\t// in\n    tag_68:\n      mload(0x40)\n      dup1\n      swap2\n      sub\n      swap1\n      return\n        /* \"lib/openzeppelin-contracts/contracts/token/ERC721/ERC721.sol\":4143:4721  function transferFrom(address from, address to, uint256 tokenId) public virtual {... */\n    tag_8:\n      callvalue\n      dup1\n      iszero\n      tag_70\n      jumpi\n      0x00\n      dup1\n      revert\n    tag_70:\n      pop\n      tag_71\n      0x04\n      dup1\n      calldatasize\n      sub\n      dup2\n      add\n      swap1\n      tag_72\n      swap2\n      swap1\n      tag_73\n      jump\t// in\n    tag_72:\n      tag_74\n      jump\t// in\n    tag_71:\n      stop\n        /* \"src/GenesisBoomerNFT.sol\":297:339  uint256 public constant MAX_SUPPLY = 21000 */\n    tag_9:\n      callvalue\n      dup1\n      iszero\n      tag_75\n      jumpi\n      0x00\n      dup1\n      revert\n    tag_75:\n      pop\n      tag_76\n      tag_77\n      jump\t// in\n    tag_76:\n      mload(0x40)\n      tag_78\n      swap2\n      swap1\n      tag_69\n      jump\t// in\n    tag_78:\n      mload(0x40)\n      dup1\n      swap2\n      sub\n      swap1\n      return\n        /* \"src/GenesisBoomerNFT.sol\":661:702  mapping(address => bool) public hasMinted */\n    tag_10:\n      callvalue\n      dup1\n      iszero\n      tag_79\n      jumpi\n      0x00\n      dup1\n      revert\n    tag_79:\n      pop\n      tag_80\n      0x04\n      dup1\n      calldatasize\n      sub\n      dup2\n      add\n      swap1\n      tag_81\n      swap2\n      swap1\n      tag_82\n      jump\t// in\n    tag_81:\n      tag_83\n      jump\t// in\n    tag_80:\n      mload(0x40)\n      tag_84\n      swap2\n      swap1\n      tag_45\n      jump\t// in\n    tag_84:\n      mload(0x40)\n      dup1\n      swap2\n      sub\n      swap1\n      return\n        /* \"src/GenesisBoomerNFT.sol\":2659:2926  function withdraw() public onlyOwner nonReentrant {... */\n    tag_11:\n      callvalue\n      dup1\n      iszero\n      tag_85\n      jumpi\n      0x00\n      dup1\n      revert\n    tag_85:\n      pop\n      tag_86\n      tag_87\n      jump\t// in\n    tag_86:\n      stop\n        /* \"lib/openzeppelin-contracts/contracts/token/ERC721/ERC721.sol\":4787:4919  function safeTransferFrom(address from, address to, uint256 tokenId) public {... */\n    tag_12:\n      callvalue\n      dup1\n      iszero\n      tag_88\n      jumpi\n      0x00\n      dup1\n      revert\n    tag_88:\n      pop\n      tag_89\n      0x04\n      dup1\n      calldatasize\n      sub\n      dup2\n      add\n      swap1\n      tag_90\n      swap2\n      swap1\n      tag_73\n      jump\t// in\n    tag_90:\n      tag_91\n      jump\t// in\n    tag_89:\n      stop\n        /* \"lib/openzeppelin-contracts/contracts/token/ERC721/ERC721.sol\":2185:2303  function ownerOf(uint256 tokenId) public view virtual returns (address) {... */\n    tag_13:\n      callvalue\n      dup1\n      iszero\n      tag_92\n      jumpi\n      0x00\n      dup1\n      revert\n    tag_92:\n      pop\n      tag_93\n      0x04\n      dup1\n      calldatasize\n      sub\n      dup2\n      add\n      swap1\n      tag_94\n      swap2\n      swap1\n      tag_54\n      jump\t// in\n    tag_94:\n      tag_95\n      jump\t// in\n    tag_93:\n      mload(0x40)\n      tag_96\n      swap2\n      swap1\n      tag_57\n      jump\t// in\n    tag_96:\n      mload(0x40)\n      dup1\n      swap2\n      sub\n      swap1\n      return\n        /* \"src/GenesisBoomerNFT.sol\":481:505  uint256 public mintPrice */\n    tag_14:\n      callvalue\n      dup1\n      iszero\n      tag_97\n      jumpi\n      0x00\n      dup1\n      revert\n    tag_97:\n      pop\n      tag_98\n      tag_99\n      jump\t// in\n    tag_98:\n      mload(0x40)\n      tag_100\n      swap2\n      swap1\n      tag_69\n      jump\t// in\n    tag_100:\n      mload(0x40)\n      dup1\n      swap2\n      sub\n      swap1\n      return\n        /* \"lib/openzeppelin-contracts/contracts/token/ERC721/ERC721.sol\":1920:2128  function balanceOf(address owner) public view virtual returns (uint256) {... */\n    tag_15:\n      callvalue\n      dup1\n      iszero\n      tag_101\n      jumpi\n      0x00\n      dup1\n      revert\n    tag_101:\n      pop\n      tag_102\n      0x04\n      dup1\n      calldatasize\n      sub\n      dup2\n      add\n      swap1\n      tag_103\n      swap2\n      swap1\n      tag_82\n      jump\t// in\n    tag_103:\n      tag_104\n      jump\t// in\n    tag_102:\n      mload(0x40)\n      tag_105\n      swap2\n      swap1\n      tag_69\n      jump\t// in\n    tag_105:\n      mload(0x40)\n      dup1\n      swap2\n      sub\n      swap1\n      return\n        /* \"lib/openzeppelin-contracts/contracts/access/Ownable.sol\":2293:2394  function renounceOwnership() public virtual onlyOwner {... */\n    tag_16:\n      callvalue\n      dup1\n      iszero\n      tag_106\n      jumpi\n      0x00\n      dup1\n      revert\n    tag_106:\n      pop\n      tag_107\n      tag_108\n      jump\t// in\n    tag_107:\n      stop\n        /* \"src/GenesisBoomerNFT.sol\":511:533  uint256 public mintCap */\n    tag_17:\n      callvalue\n      dup1\n      iszero\n      tag_109\n      jumpi\n      0x00\n      dup1\n      revert\n    tag_109:\n      pop\n      tag_110\n      tag_111\n      jump\t// in\n    tag_110:\n      mload(0x40)\n      tag_112\n      swap2\n      swap1\n      tag_69\n      jump\t// in\n    tag_112:\n      mload(0x40)\n      dup1\n      swap2\n      sub\n      swap1\n      return\n        /* \"src/GenesisBoomerNFT.sol\":345:435  string public constant TOKEN_URI = \"ipfs://Qmbwuk7qyE1XXycoapHVoWqFmg5C7nBry6edVLo8CEbd8d\" */\n    tag_18:\n      callvalue\n      dup1\n      iszero\n      tag_113\n      jumpi\n      0x00\n      dup1\n      revert\n    tag_113:\n      pop\n      tag_114\n      tag_115\n      jump\t// in\n    tag_114:\n      mload(0x40)\n      tag_116\n      swap2\n      swap1\n      tag_50\n      jump\t// in\n    tag_116:\n      mload(0x40)\n      dup1\n      swap2\n      sub\n      swap1\n      return\n        /* \"src/GenesisBoomerNFT.sol\":1839:1953  function disableMinting() public onlyOwner {... */\n    tag_19:\n      callvalue\n      dup1\n      iszero\n      tag_117\n      jumpi\n      0x00\n      dup1\n      revert\n    tag_117:\n      pop\n      tag_118\n      tag_119\n      jump\t// in\n    tag_118:\n      stop\n        /* \"lib/openzeppelin-contracts/contracts/access/Ownable.sol\":1638:1723  function owner() public view virtual returns (address) {... */\n    tag_20:\n      callvalue\n      dup1\n      iszero\n      tag_120\n      jumpi\n      0x00\n      dup1\n      revert\n    tag_120:\n      pop\n      tag_121\n      tag_122\n      jump\t// in\n    tag_121:\n      mload(0x40)\n      tag_123\n      swap2\n      swap1\n      tag_57\n      jump\t// in\n    tag_123:\n      mload(0x40)\n      dup1\n      swap2\n      sub\n      swap1\n      return\n        /* \"lib/openzeppelin-contracts/contracts/token/ERC721/ERC721.sol\":2518:2611  function symbol() public view virtual returns (string memory) {... */\n    tag_21:\n      callvalue\n      dup1\n      iszero\n      tag_124\n      jumpi\n      0x00\n      dup1\n      revert\n    tag_124:\n      pop\n      tag_125\n      tag_126\n      jump\t// in\n    tag_125:\n      mload(0x40)\n      tag_127\n      swap2\n      swap1\n      tag_50\n      jump\t// in\n    tag_127:\n      mload(0x40)\n      dup1\n      swap2\n      sub\n      swap1\n      return\n        /* \"src/GenesisBoomerNFT.sol\":441:475  bool public mintingEnabled = false */\n    tag_22:\n      callvalue\n      dup1\n      iszero\n      tag_128\n      jumpi\n      0x00\n      dup1\n      revert\n    tag_128:\n      pop\n      tag_129\n      tag_130\n      jump\t// in\n    tag_129:\n      mload(0x40)\n      tag_131\n      swap2\n      swap1\n      tag_45\n      jump\t// in\n    tag_131:\n      mload(0x40)\n      dup1\n      swap2\n      sub\n      swap1\n      return\n        /* \"lib/openzeppelin-contracts/contracts/token/ERC721/ERC721.sol\":3718:3862  function setApprovalForAll(address operator, bool approved) public virtual {... */\n    tag_23:\n      callvalue\n      dup1\n      iszero\n      tag_132\n      jumpi\n      0x00\n      dup1\n      revert\n    tag_132:\n      pop\n      tag_133\n      0x04\n      dup1\n      calldatasize\n      sub\n      dup2\n      add\n      swap1\n      tag_134\n      swap2\n      swap1\n      tag_135\n      jump\t// in\n    tag_134:\n      tag_136\n      jump\t// in\n    tag_133:\n      stop\n        /* \"src/GenesisBoomerNFT.sol\":539:563  uint256 public mintedSum */\n    tag_24:\n      callvalue\n      dup1\n      iszero\n      tag_137\n      jumpi\n      0x00\n      dup1\n      revert\n    tag_137:\n      pop\n      tag_138\n      tag_139\n      jump\t// in\n    tag_138:\n      mload(0x40)\n      tag_140\n      swap2\n      swap1\n      tag_69\n      jump\t// in\n    tag_140:\n      mload(0x40)\n      dup1\n      swap2\n      sub\n      swap1\n      return\n        /* \"lib/openzeppelin-contracts/contracts/token/ERC721/ERC721.sol\":4985:5193  function safeTransferFrom(address from, address to, uint256 tokenId, bytes memory data) public virtual {... */\n    tag_25:\n      callvalue\n      dup1\n      iszero\n      tag_141\n      jumpi\n      0x00\n      dup1\n      revert\n    tag_141:\n      pop\n      tag_142\n      0x04\n      dup1\n      calldatasize\n      sub\n      dup2\n      add\n      swap1\n      tag_143\n      swap2\n      swap1\n      tag_144\n      jump\t// in\n    tag_143:\n      tag_145\n      jump\t// in\n    tag_142:\n      stop\n        /* \"src/GenesisBoomerNFT.sol\":2959:3139  function signGenesisProof() public {... */\n    tag_26:\n      callvalue\n      dup1\n      iszero\n      tag_146\n      jumpi\n      0x00\n      dup1\n      revert\n    tag_146:\n      pop\n      tag_147\n      tag_148\n      jump\t// in\n    tag_147:\n      stop\n        /* \"src/GenesisBoomerNFT.sol\":1351:1497  function tokenURI(uint256 tokenId) public view override returns (string memory) {... */\n    tag_27:\n      callvalue\n      dup1\n      iszero\n      tag_149\n      jumpi\n      0x00\n      dup1\n      revert\n    tag_149:\n      pop\n      tag_150\n      0x04\n      dup1\n      calldatasize\n      sub\n      dup2\n      add\n      swap1\n      tag_151\n      swap2\n      swap1\n      tag_54\n      jump\t// in\n    tag_151:\n      tag_152\n      jump\t// in\n    tag_150:\n      mload(0x40)\n      tag_153\n      swap2\n      swap1\n      tag_50\n      jump\t// in\n    tag_153:\n      mload(0x40)\n      dup1\n      swap2\n      sub\n      swap1\n      return\n        /* \"lib/openzeppelin-contracts/contracts/token/ERC721/ERC721.sol\":3928:4081  function isApprovedForAll(address owner, address operator) public view virtual returns (bool) {... */\n    tag_28:\n      callvalue\n      dup1\n      iszero\n      tag_154\n      jumpi\n      0x00\n      dup1\n      revert\n    tag_154:\n      pop\n      tag_155\n      0x04\n      dup1\n      calldatasize\n      sub\n      dup2\n      add\n      swap1\n      tag_156\n      swap2\n      swap1\n      tag_157\n      jump\t// in\n    tag_156:\n      tag_158\n      jump\t// in\n    tag_155:\n      mload(0x40)\n      tag_159\n      swap2\n      swap1\n      tag_45\n      jump\t// in\n    tag_159:\n      mload(0x40)\n      dup1\n      swap2\n      sub\n      swap1\n      return\n        /* \"src/GenesisBoomerNFT.sol\":1647:1833  function enableMinting(uint256 _mintCap) public onlyOwner {... */\n    tag_29:\n      callvalue\n      dup1\n      iszero\n      tag_160\n      jumpi\n      0x00\n      dup1\n      revert\n    tag_160:\n      pop\n      tag_161\n      0x04\n      dup1\n      calldatasize\n      sub\n      dup2\n      add\n      swap1\n      tag_162\n      swap2\n      swap1\n      tag_54\n      jump\t// in\n    tag_162:\n      tag_163\n      jump\t// in\n    tag_161:\n      stop\n        /* \"lib/openzeppelin-contracts/contracts/access/Ownable.sol\":2543:2758  function transferOwnership(address newOwner) public virtual onlyOwner {... */\n    tag_30:\n      callvalue\n      dup1\n      iszero\n      tag_164\n      jumpi\n      0x00\n      dup1\n      revert\n    tag_164:\n      pop\n      tag_165\n      0x04\n      dup1\n      calldatasize\n      sub\n      dup2\n      add\n      swap1\n      tag_166\n      swap2\n      swap1\n      tag_82\n      jump\t// in\n    tag_166:\n      tag_167\n      jump\t// in\n    tag_165:\n      stop\n        /* \"src/GenesisBoomerNFT.sol\":1503:1641  function setMintPrice(uint256 _newPrice) public onlyOwner {... */\n    tag_31:\n      callvalue\n      dup1\n      iszero\n      tag_168\n      jumpi\n      0x00\n      dup1\n      revert\n    tag_168:\n      pop\n      tag_169\n      0x04\n      dup1\n      calldatasize\n      sub\n      dup2\n      add\n      swap1\n      tag_170\n      swap2\n      swap1\n      tag_54\n      jump\t// in\n    tag_170:\n      tag_171\n      jump\t// in\n    tag_169:\n      stop\n        /* \"lib/openzeppelin-contracts/contracts/token/ERC721/ERC721.sol\":1561:1861  function supportsInterface(bytes4 interfaceId) public view virtual override(ERC165, IERC165) returns (bool) {... */\n    tag_43:\n        /* \"lib/openzeppelin-contracts/contracts/token/ERC721/ERC721.sol\":1663:1667  bool */\n      0x00\n        /* \"lib/openzeppelin-contracts/contracts/token/ERC721/ERC721.sol\":1713:1738  type(IERC721).interfaceId */\n      0x80ac58cd00000000000000000000000000000000000000000000000000000000\n        /* \"lib/openzeppelin-contracts/contracts/token/ERC721/ERC721.sol\":1698:1738  interfaceId == type(IERC721).interfaceId */\n      not(0xffffffffffffffffffffffffffffffffffffffffffffffffffffffff)\n      and\n        /* \"lib/openzeppelin-contracts/contracts/token/ERC721/ERC721.sol\":1698:1709  interfaceId */\n      dup3\n        /* \"lib/openzeppelin-contracts/contracts/token/ERC721/ERC721.sol\":1698:1738  interfaceId == type(IERC721).interfaceId */\n      not(0xffffffffffffffffffffffffffffffffffffffffffffffffffffffff)\n      and\n      eq\n        /* \"lib/openzeppelin-contracts/contracts/token/ERC721/ERC721.sol\":1698:1802  interfaceId == type(IERC721).interfaceId ||... */\n      dup1\n      tag_173\n      jumpi\n      pop\n        /* \"lib/openzeppelin-contracts/contracts/token/ERC721/ERC721.sol\":1769:1802  type(IERC721Metadata).interfaceId */\n      0x5b5e139f00000000000000000000000000000000000000000000000000000000\n        /* \"lib/openzeppelin-contracts/contracts/token/ERC721/ERC721.sol\":1754:1802  interfaceId == type(IERC721Metadata).interfaceId */\n      not(0xffffffffffffffffffffffffffffffffffffffffffffffffffffffff)\n      and\n        /* \"lib/openzeppelin-contracts/contracts/token/ERC721/ERC721.sol\":1754:1765  interfaceId */\n      dup3\n        /* \"lib/openzeppelin-contracts/contracts/token/ERC721/ERC721.sol\":1754:1802  interfaceId == type(IERC721Metadata).interfaceId */\n      not(0xffffffffffffffffffffffffffffffffffffffffffffffffffffffff)\n      and\n      eq\n        /* \"lib/openzeppelin-contracts/contracts/token/ERC721/ERC721.sol\":1698:1802  interfaceId == type(IERC721).interfaceId ||... */\n    tag_173:\n        /* \"lib/openzeppelin-contracts/contracts/token/ERC721/ERC721.sol\":1698:1854  interfaceId == type(IERC721).interfaceId ||... */\n      dup1\n      tag_174\n      jumpi\n      pop\n        /* \"lib/openzeppelin-contracts/contracts/token/ERC721/ERC721.sol\":1818:1854  super.supportsInterface(interfaceId) */\n      tag_175\n        /* \"lib/openzeppelin-contracts/contracts/token/ERC721/ERC721.sol\":1842:1853  interfaceId */\n      dup3\n        /* \"lib/openzeppelin-contracts/contracts/token/ERC721/ERC721.sol\":1818:1841  super.supportsInterface */\n      tag_176\n        /* \"lib/openzeppelin-contracts/contracts/token/ERC721/ERC721.sol\":1818:1854  super.supportsInterface(interfaceId) */\n      jump\t// in\n    tag_175:\n        /* \"lib/openzeppelin-contracts/contracts/token/ERC721/ERC721.sol\":1698:1854  interfaceId == type(IERC721).interfaceId ||... */\n    tag_174:\n        /* \"lib/openzeppelin-contracts/contracts/token/ERC721/ERC721.sol\":1679:1854  return... */\n      swap1\n      pop\n        /* \"lib/openzeppelin-contracts/contracts/token/ERC721/ERC721.sol\":1561:1861  function supportsInterface(bytes4 interfaceId) public view virtual override(ERC165, IERC165) returns (bool) {... */\n      swap2\n      swap1\n      pop\n      jump\t// out\n        /* \"lib/openzeppelin-contracts/contracts/token/ERC721/ERC721.sol\":2365:2454  function name() public view virtual returns (string memory) {... */\n    tag_48:\n        /* \"lib/openzeppelin-contracts/contracts/token/ERC721/ERC721.sol\":2410:2423  string memory */\n      0x60\n        /* \"lib/openzeppelin-contracts/contracts/token/ERC721/ERC721.sol\":2442:2447  _name */\n      0x00\n        /* \"lib/openzeppelin-contracts/contracts/token/ERC721/ERC721.sol\":2435:2447  return _name */\n      dup1\n      sload\n      tag_178\n      swap1\n      tag_179\n      jump\t// in\n    tag_178:\n      dup1\n      0x1f\n      add\n      0x20\n      dup1\n      swap2\n      div\n      mul\n      0x20\n      add\n      mload(0x40)\n      swap1\n      dup2\n      add\n      0x40\n      mstore\n      dup1\n      swap3\n      swap2\n      swap1\n      dup2\n      dup2\n      mstore\n      0x20\n      add\n      dup3\n      dup1\n      sload\n      tag_180\n      swap1\n      tag_179\n      jump\t// in\n    tag_180:\n      dup1\n      iszero\n      tag_181\n      jumpi\n      dup1\n      0x1f\n      lt\n      tag_182\n      jumpi\n      0x0100\n      dup1\n      dup4\n      sload\n      div\n      mul\n      dup4\n      mstore\n      swap2\n      0x20\n      add\n      swap2\n      jump(tag_181)\n    tag_182:\n      dup3\n      add\n      swap2\n      swap1\n      0x00\n      mstore\n      keccak256(0x00, 0x20)\n      swap1\n    tag_183:\n      dup2\n      sload\n      dup2\n      mstore\n      swap1\n      0x01\n      add\n      swap1\n      0x20\n      add\n      dup1\n      dup4\n      gt\n      tag_183\n      jumpi\n      dup3\n      swap1\n      sub\n      0x1f\n      and\n      dup3\n      add\n      swap2\n    tag_181:\n      pop\n      pop\n      pop\n      pop\n      pop\n      swap1\n      pop\n        /* \"lib/openzeppelin-contracts/contracts/token/ERC721/ERC721.sol\":2365:2454  function name() public view virtual returns (string memory) {... */\n      swap1\n      jump\t// out\n        /* \"lib/openzeppelin-contracts/contracts/token/ERC721/ERC721.sol\":3497:3651  function getApproved(uint256 tokenId) public view virtual returns (address) {... */\n    tag_55:\n        /* \"lib/openzeppelin-contracts/contracts/token/ERC721/ERC721.sol\":3564:3571  address */\n      0x00\n        /* \"lib/openzeppelin-contracts/contracts/token/ERC721/ERC721.sol\":3583:3605  _requireOwned(tokenId) */\n      tag_185\n        /* \"lib/openzeppelin-contracts/contracts/token/ERC721/ERC721.sol\":3597:3604  tokenId */\n      dup3\n        /* \"lib/openzeppelin-contracts/contracts/token/ERC721/ERC721.sol\":3583:3596  _requireOwned */\n      tag_186\n        /* \"lib/openzeppelin-contracts/contracts/token/ERC721/ERC721.sol\":3583:3605  _requireOwned(tokenId) */\n      jump\t// in\n    tag_185:\n      pop\n        /* \"lib/openzeppelin-contracts/contracts/token/ERC721/ERC721.sol\":3623:3644  _getApproved(tokenId) */\n      tag_187\n        /* \"lib/openzeppelin-contracts/contracts/token/ERC721/ERC721.sol\":3636:3643  tokenId */\n      dup3\n        /* \"lib/openzeppelin-contracts/contracts/token/ERC721/ERC721.sol\":3623:3635  _getApproved */\n      tag_188\n        /* \"lib/openzeppelin-contracts/contracts/token/ERC721/ERC721.sol\":3623:3644  _getApproved(tokenId) */\n      jump\t// in\n    tag_187:\n        /* \"lib/openzeppelin-contracts/contracts/token/ERC721/ERC721.sol\":3616:3644  return _getApproved(tokenId) */\n      swap1\n      pop\n        /* \"lib/openzeppelin-contracts/contracts/token/ERC721/ERC721.sol\":3497:3651  function getApproved(uint256 tokenId) public view virtual returns (address) {... */\n      swap2\n      swap1\n      pop\n      jump\t// out\n        /* \"lib/openzeppelin-contracts/contracts/token/ERC721/ERC721.sol\":3323:3436  function approve(address to, uint256 tokenId) public virtual {... */\n    tag_62:\n        /* \"lib/openzeppelin-contracts/contracts/token/ERC721/ERC721.sol\":3394:3429  _approve(to, tokenId, _msgSender()) */\n      tag_190\n        /* \"lib/openzeppelin-contracts/contracts/token/ERC721/ERC721.sol\":3403:3405  to */\n      dup3\n        /* \"lib/openzeppelin-contracts/contracts/token/ERC721/ERC721.sol\":3407:3414  tokenId */\n      dup3\n        /* \"lib/openzeppelin-contracts/contracts/token/ERC721/ERC721.sol\":3416:3428  _msgSender() */\n      tag_191\n        /* \"lib/openzeppelin-contracts/contracts/token/ERC721/ERC721.sol\":3416:3426  _msgSender */\n      tag_192\n        /* \"lib/openzeppelin-contracts/contracts/token/ERC721/ERC721.sol\":3416:3428  _msgSender() */\n      jump\t// in\n    tag_191:\n        /* \"lib/openzeppelin-contracts/contracts/token/ERC721/ERC721.sol\":3394:3402  _approve */\n      tag_193\n        /* \"lib/openzeppelin-contracts/contracts/token/ERC721/ERC721.sol\":3394:3429  _approve(to, tokenId, _msgSender()) */\n      jump\t// in\n    tag_190:\n        /* \"lib/openzeppelin-contracts/contracts/token/ERC721/ERC721.sol\":3323:3436  function approve(address to, uint256 tokenId) public virtual {... */\n      pop\n      pop\n      jump\t// out\n        /* \"src/GenesisBoomerNFT.sol\":1959:2595  function mint() public payable nonReentrant {... */\n    tag_64:\n        /* \"lib/openzeppelin-contracts/contracts/utils/ReentrancyGuard.sol\":2356:2377  _nonReentrantBefore() */\n      tag_195\n        /* \"lib/openzeppelin-contracts/contracts/utils/ReentrancyGuard.sol\":2356:2375  _nonReentrantBefore */\n      tag_196\n        /* \"lib/openzeppelin-contracts/contracts/utils/ReentrancyGuard.sol\":2356:2377  _nonReentrantBefore() */\n      jump\t// in\n    tag_195:\n        /* \"src/GenesisBoomerNFT.sol\":2021:2035  mintingEnabled */\n      0x07\n      0x14\n      swap1\n      sload\n      swap1\n      0x0100\n      exp\n      swap1\n      div\n      0xff\n      and\n        /* \"src/GenesisBoomerNFT.sol\":2013:2062  require(mintingEnabled, \"Minting is not enabled\") */\n      tag_198\n      jumpi\n      mload(0x40)\n      0x08c379a000000000000000000000000000000000000000000000000000000000\n      dup2\n      mstore\n      0x04\n      add\n      tag_199\n      swap1\n      tag_200\n      jump\t// in\n    tag_199:\n      mload(0x40)\n      dup1\n      swap2\n      sub\n      swap1\n      revert\n    tag_198:\n        /* \"src/GenesisBoomerNFT.sol\":2092:2099  mintCap */\n      sload(0x09)\n        /* \"src/GenesisBoomerNFT.sol\":2080:2089  mintedSum */\n      sload(0x0a)\n        /* \"src/GenesisBoomerNFT.sol\":2080:2099  mintedSum < mintCap */\n      lt\n        /* \"src/GenesisBoomerNFT.sol\":2072:2120  require(mintedSum < mintCap, \"Exceeds mint cap\") */\n      tag_201\n      jumpi\n      mload(0x40)\n      0x08c379a000000000000000000000000000000000000000000000000000000000\n      dup2\n      mstore\n      0x04\n      add\n      tag_202\n      swap1\n      tag_203\n      jump\t// in\n    tag_202:\n      mload(0x40)\n      dup1\n      swap2\n      sub\n      swap1\n      revert\n    tag_201:\n        /* \"src/GenesisBoomerNFT.sol\":334:339  21000 */\n      0x5208\n        /* \"src/GenesisBoomerNFT.sol\":2152:2153  1 */\n      0x01\n        /* \"src/GenesisBoomerNFT.sol\":2138:2149  totalSupply */\n      sload(0x0b)\n        /* \"src/GenesisBoomerNFT.sol\":2138:2153  totalSupply + 1 */\n      tag_204\n      swap2\n      swap1\n      tag_205\n      jump\t// in\n    tag_204:\n        /* \"src/GenesisBoomerNFT.sol\":2138:2167  totalSupply + 1 <= MAX_SUPPLY */\n      gt\n      iszero\n        /* \"src/GenesisBoomerNFT.sol\":2130:2190  require(totalSupply + 1 <= MAX_SUPPLY, \"Exceeds max supply\") */\n      tag_206\n      jumpi\n      mload(0x40)\n      0x08c379a000000000000000000000000000000000000000000000000000000000\n      dup2\n      mstore\n      0x04\n      add\n      tag_207\n      swap1\n      tag_208\n      jump\t// in\n    tag_207:\n      mload(0x40)\n      dup1\n      swap2\n      sub\n      swap1\n      revert\n    tag_206:\n        /* \"src/GenesisBoomerNFT.sol\":2221:2230  mintPrice */\n      sload(0x08)\n        /* \"src/GenesisBoomerNFT.sol\":2208:2217  msg.value */\n      callvalue\n        /* \"src/GenesisBoomerNFT.sol\":2208:2230  msg.value >= mintPrice */\n      lt\n      iszero\n        /* \"src/GenesisBoomerNFT.sol\":2200:2256  require(msg.value >= mintPrice, \"Incorrect Ether value\") */\n      tag_209\n      jumpi\n      mload(0x40)\n      0x08c379a000000000000000000000000000000000000000000000000000000000\n      dup2\n      mstore\n      0x04\n      add\n      tag_210\n      swap1\n      tag_211\n      jump\t// in\n    tag_210:\n      mload(0x40)\n      dup1\n      swap2\n      sub\n      swap1\n      revert\n    tag_209:\n        /* \"src/GenesisBoomerNFT.sol\":2275:2284  hasMinted */\n      0x0c\n        /* \"src/GenesisBoomerNFT.sol\":2275:2296  hasMinted[msg.sender] */\n      0x00\n        /* \"src/GenesisBoomerNFT.sol\":2285:2295  msg.sender */\n      caller\n        /* \"src/GenesisBoomerNFT.sol\":2275:2296  hasMinted[msg.sender] */\n      0xffffffffffffffffffffffffffffffffffffffff\n      and\n      0xffffffffffffffffffffffffffffffffffffffff\n      and\n      dup2\n      mstore\n      0x20\n      add\n      swap1\n      dup2\n      mstore\n      0x20\n      add\n      0x00\n      keccak256\n      0x00\n      swap1\n      sload\n      swap1\n      0x0100\n      exp\n      swap1\n      div\n      0xff\n      and\n        /* \"src/GenesisBoomerNFT.sol\":2274:2296  !hasMinted[msg.sender] */\n      iszero\n        /* \"src/GenesisBoomerNFT.sol\":2266:2327  require(!hasMinted[msg.sender], \"Address has already minted\") */\n      tag_212\n      jumpi\n      mload(0x40)\n      0x08c379a000000000000000000000000000000000000000000000000000000000\n      dup2\n      mstore\n      0x04\n      add\n      tag_213\n      swap1\n      tag_214\n      jump\t// in\n    tag_213:\n      mload(0x40)\n      dup1\n      swap2\n      sub\n      swap1\n      revert\n    tag_212:\n        /* \"src/GenesisBoomerNFT.sol\":2406:2410  true */\n      0x01\n        /* \"src/GenesisBoomerNFT.sol\":2382:2391  hasMinted */\n      0x0c\n        /* \"src/GenesisBoomerNFT.sol\":2382:2403  hasMinted[msg.sender] */\n      0x00\n        /* \"src/GenesisBoomerNFT.sol\":2392:2402  msg.sender */\n      caller\n        /* \"src/GenesisBoomerNFT.sol\":2382:2403  hasMinted[msg.sender] */\n      0xffffffffffffffffffffffffffffffffffffffff\n      and\n      0xffffffffffffffffffffffffffffffffffffffff\n      and\n      dup2\n      mstore\n      0x20\n      add\n      swap1\n      dup2\n      mstore\n      0x20\n      add\n      0x00\n      keccak256\n      0x00\n        /* \"src/GenesisBoomerNFT.sol\":2382:2410  hasMinted[msg.sender] = true */\n      0x0100\n      exp\n      dup2\n      sload\n      dup2\n      0xff\n      mul\n      not\n      and\n      swap1\n      dup4\n      iszero\n      iszero\n      mul\n      or\n      swap1\n      sstore\n      pop\n        /* \"src/GenesisBoomerNFT.sol\":2420:2429  mintedSum */\n      0x0a\n      0x00\n        /* \"src/GenesisBoomerNFT.sol\":2420:2431  mintedSum++ */\n      dup2\n      sload\n      dup1\n      swap3\n      swap2\n      swap1\n      tag_215\n      swap1\n      tag_216\n      jump\t// in\n    tag_215:\n      swap2\n      swap1\n      pop\n      sstore\n      pop\n        /* \"src/GenesisBoomerNFT.sol\":2441:2452  totalSupply */\n      0x0b\n      0x00\n        /* \"src/GenesisBoomerNFT.sol\":2441:2454  totalSupply++ */\n      dup2\n      sload\n      dup1\n      swap3\n      swap2\n      swap1\n      tag_217\n      swap1\n      tag_216\n      jump\t// in\n    tag_217:\n      swap2\n      swap1\n      pop\n      sstore\n      pop\n        /* \"src/GenesisBoomerNFT.sol\":2464:2482  uint256 newTokenId */\n      0x00\n        /* \"src/GenesisBoomerNFT.sol\":2499:2500  1 */\n      0x01\n        /* \"src/GenesisBoomerNFT.sol\":2485:2496  totalSupply */\n      sload(0x0b)\n        /* \"src/GenesisBoomerNFT.sol\":2485:2500  totalSupply + 1 */\n      tag_218\n      swap2\n      swap1\n      tag_205\n      jump\t// in\n    tag_218:\n        /* \"src/GenesisBoomerNFT.sol\":2464:2500  uint256 newTokenId = totalSupply + 1 */\n      swap1\n      pop\n        /* \"src/GenesisBoomerNFT.sol\":2510:2543  _safeMint(msg.sender, newTokenId) */\n      tag_219\n        /* \"src/GenesisBoomerNFT.sol\":2520:2530  msg.sender */\n      caller\n        /* \"src/GenesisBoomerNFT.sol\":2532:2542  newTokenId */\n      dup3\n        /* \"src/GenesisBoomerNFT.sol\":2510:2519  _safeMint */\n      tag_220\n        /* \"src/GenesisBoomerNFT.sol\":2510:2543  _safeMint(msg.sender, newTokenId) */\n      jump\t// in\n    tag_219:\n        /* \"src/GenesisBoomerNFT.sol\":2558:2588  Minted(msg.sender, newTokenId) */\n      0x30385c845b448a36257a6a1716e6ad2e1bc2cbe333cde1e69fe849ad6511adfe\n        /* \"src/GenesisBoomerNFT.sol\":2565:2575  msg.sender */\n      caller\n        /* \"src/GenesisBoomerNFT.sol\":2577:2587  newTokenId */\n      dup3\n        /* \"src/GenesisBoomerNFT.sol\":2558:2588  Minted(msg.sender, newTokenId) */\n      mload(0x40)\n      tag_221\n      swap3\n      swap2\n      swap1\n      tag_222\n      jump\t// in\n    tag_221:\n      mload(0x40)\n      dup1\n      swap2\n      sub\n      swap1\n      log1\n        /* \"src/GenesisBoomerNFT.sol\":2003:2595  {... */\n      pop\n        /* \"lib/openzeppelin-contracts/contracts/utils/ReentrancyGuard.sol\":2398:2418  _nonReentrantAfter() */\n      tag_223\n        /* \"lib/openzeppelin-contracts/contracts/utils/ReentrancyGuard.sol\":2398:2416  _nonReentrantAfter */\n      tag_224\n        /* \"lib/openzeppelin-contracts/contracts/utils/ReentrancyGuard.sol\":2398:2418  _nonReentrantAfter() */\n      jump\t// in\n    tag_223:\n        /* \"src/GenesisBoomerNFT.sol\":1959:2595  function mint() public payable nonReentrant {... */\n      jump\t// out\n        /* \"src/GenesisBoomerNFT.sol\":569:595  uint256 public totalSupply */\n    tag_67:\n      sload(0x0b)\n      dup2\n      jump\t// out\n        /* \"lib/openzeppelin-contracts/contracts/token/ERC721/ERC721.sol\":4143:4721  function transferFrom(address from, address to, uint256 tokenId) public virtual {... */\n    tag_74:\n        /* \"lib/openzeppelin-contracts/contracts/token/ERC721/ERC721.sol\":4251:4252  0 */\n      0x00\n        /* \"lib/openzeppelin-contracts/contracts/token/ERC721/ERC721.sol\":4237:4253  to == address(0) */\n      0xffffffffffffffffffffffffffffffffffffffff\n      and\n        /* \"lib/openzeppelin-contracts/contracts/token/ERC721/ERC721.sol\":4237:4239  to */\n      dup3\n        /* \"lib/openzeppelin-contracts/contracts/token/ERC721/ERC721.sol\":4237:4253  to == address(0) */\n      0xffffffffffffffffffffffffffffffffffffffff\n      and\n      sub\n        /* \"lib/openzeppelin-contracts/contracts/token/ERC721/ERC721.sol\":4233:4320  if (to == address(0)) {... */\n      tag_226\n      jumpi\n        /* \"lib/openzeppelin-contracts/contracts/token/ERC721/ERC721.sol\":4306:4307  0 */\n      0x00\n        /* \"lib/openzeppelin-contracts/contracts/token/ERC721/ERC721.sol\":4276:4309  ERC721InvalidReceiver(address(0)) */\n      mload(0x40)\n      0x64a0ae9200000000000000000000000000000000000000000000000000000000\n      dup2\n      mstore\n      0x04\n      add\n      tag_227\n      swap2\n      swap1\n      tag_57\n      jump\t// in\n    tag_227:\n      mload(0x40)\n      dup1\n      swap2\n      sub\n      swap1\n      revert\n        /* \"lib/openzeppelin-contracts/contracts/token/ERC721/ERC721.sol\":4233:4320  if (to == address(0)) {... */\n    tag_226:\n        /* \"lib/openzeppelin-contracts/contracts/token/ERC721/ERC721.sol\":4538:4559  address previousOwner */\n      0x00\n        /* \"lib/openzeppelin-contracts/contracts/token/ERC721/ERC721.sol\":4562:4596  _update(to, tokenId, _msgSender()) */\n      tag_228\n        /* \"lib/openzeppelin-contracts/contracts/token/ERC721/ERC721.sol\":4570:4572  to */\n      dup4\n        /* \"lib/openzeppelin-contracts/contracts/token/ERC721/ERC721.sol\":4574:4581  tokenId */\n      dup4\n        /* \"lib/openzeppelin-contracts/contracts/token/ERC721/ERC721.sol\":4583:4595  _msgSender() */\n      tag_229\n        /* \"lib/openzeppelin-contracts/contracts/token/ERC721/ERC721.sol\":4583:4593  _msgSender */\n      tag_192\n        /* \"lib/openzeppelin-contracts/contracts/token/ERC721/ERC721.sol\":4583:4595  _msgSender() */\n      jump\t// in\n    tag_229:\n        /* \"lib/openzeppelin-contracts/contracts/token/ERC721/ERC721.sol\":4562:4569  _update */\n      tag_230\n        /* \"lib/openzeppelin-contracts/contracts/token/ERC721/ERC721.sol\":4562:4596  _update(to, tokenId, _msgSender()) */\n      jump\t// in\n    tag_228:\n        /* \"lib/openzeppelin-contracts/contracts/token/ERC721/ERC721.sol\":4538:4596  address previousOwner = _update(to, tokenId, _msgSender()) */\n      swap1\n      pop\n        /* \"lib/openzeppelin-contracts/contracts/token/ERC721/ERC721.sol\":4627:4631  from */\n      dup4\n        /* \"lib/openzeppelin-contracts/contracts/token/ERC721/ERC721.sol\":4610:4631  previousOwner != from */\n      0xffffffffffffffffffffffffffffffffffffffff\n      and\n        /* \"lib/openzeppelin-contracts/contracts/token/ERC721/ERC721.sol\":4610:4623  previousOwner */\n      dup2\n        /* \"lib/openzeppelin-contracts/contracts/token/ERC721/ERC721.sol\":4610:4631  previousOwner != from */\n      0xffffffffffffffffffffffffffffffffffffffff\n      and\n      eq\n        /* \"lib/openzeppelin-contracts/contracts/token/ERC721/ERC721.sol\":4606:4715  if (previousOwner != from) {... */\n      tag_231\n      jumpi\n        /* \"lib/openzeppelin-contracts/contracts/token/ERC721/ERC721.sol\":4675:4679  from */\n      dup4\n        /* \"lib/openzeppelin-contracts/contracts/token/ERC721/ERC721.sol\":4681:4688  tokenId */\n      dup3\n        /* \"lib/openzeppelin-contracts/contracts/token/ERC721/ERC721.sol\":4690:4703  previousOwner */\n      dup3\n        /* \"lib/openzeppelin-contracts/contracts/token/ERC721/ERC721.sol\":4654:4704  ERC721IncorrectOwner(from, tokenId, previousOwner) */\n      mload(0x40)\n      0x64283d7b00000000000000000000000000000000000000000000000000000000\n      dup2\n      mstore\n      0x04\n      add\n      tag_232\n      swap4\n      swap3\n      swap2\n      swap1\n      tag_233\n      jump\t// in\n    tag_232:\n      mload(0x40)\n      dup1\n      swap2\n      sub\n      swap1\n      revert\n        /* \"lib/openzeppelin-contracts/contracts/token/ERC721/ERC721.sol\":4606:4715  if (previousOwner != from) {... */\n    tag_231:\n        /* \"lib/openzeppelin-contracts/contracts/token/ERC721/ERC721.sol\":4223:4721  {... */\n      pop\n        /* \"lib/openzeppelin-contracts/contracts/token/ERC721/ERC721.sol\":4143:4721  function transferFrom(address from, address to, uint256 tokenId) public virtual {... */\n      pop\n      pop\n      pop\n      jump\t// out\n        /* \"src/GenesisBoomerNFT.sol\":297:339  uint256 public constant MAX_SUPPLY = 21000 */\n    tag_77:\n        /* \"src/GenesisBoomerNFT.sol\":334:339  21000 */\n      0x5208\n        /* \"src/GenesisBoomerNFT.sol\":297:339  uint256 public constant MAX_SUPPLY = 21000 */\n      dup2\n      jump\t// out\n        /* \"src/GenesisBoomerNFT.sol\":661:702  mapping(address => bool) public hasMinted */\n    tag_83:\n      mstore(0x20, 0x0c)\n      dup1\n      0x00\n      mstore\n      keccak256(0x00, 0x40)\n      0x00\n      swap2\n      pop\n      sload\n      swap1\n      0x0100\n      exp\n      swap1\n      div\n      0xff\n      and\n      dup2\n      jump\t// out\n        /* \"src/GenesisBoomerNFT.sol\":2659:2926  function withdraw() public onlyOwner nonReentrant {... */\n    tag_87:\n        /* \"lib/openzeppelin-contracts/contracts/access/Ownable.sol\":1531:1544  _checkOwner() */\n      tag_235\n        /* \"lib/openzeppelin-contracts/contracts/access/Ownable.sol\":1531:1542  _checkOwner */\n      tag_236\n        /* \"lib/openzeppelin-contracts/contracts/access/Ownable.sol\":1531:1544  _checkOwner() */\n      jump\t// in\n    tag_235:\n        /* \"lib/openzeppelin-contracts/contracts/utils/ReentrancyGuard.sol\":2356:2377  _nonReentrantBefore() */\n      tag_238\n        /* \"lib/openzeppelin-contracts/contracts/utils/ReentrancyGuard.sol\":2356:2375  _nonReentrantBefore */\n      tag_196\n        /* \"lib/openzeppelin-contracts/contracts/utils/ReentrancyGuard.sol\":2356:2377  _nonReentrantBefore() */\n      jump\t// in\n    tag_238:\n        /* \"src/GenesisBoomerNFT.sol\":2719:2734  uint256 balance */\n      0x00\n        /* \"src/GenesisBoomerNFT.sol\":2737:2758  address(this).balance */\n      selfbalance\n        /* \"src/GenesisBoomerNFT.sol\":2719:2758  uint256 balance = address(this).balance */\n      swap1\n      pop\n        /* \"src/GenesisBoomerNFT.sol\":2786:2787  0 */\n      0x00\n        /* \"src/GenesisBoomerNFT.sol\":2776:2783  balance */\n      dup2\n        /* \"src/GenesisBoomerNFT.sol\":2776:2787  balance > 0 */\n      gt\n        /* \"src/GenesisBoomerNFT.sol\":2768:2812  require(balance > 0, \"No funds to withdraw\") */\n      tag_240\n      jumpi\n      mload(0x40)\n      0x08c379a000000000000000000000000000000000000000000000000000000000\n      dup2\n      mstore\n      0x04\n      add\n      tag_241\n      swap1\n      tag_242\n      jump\t// in\n    tag_241:\n      mload(0x40)\n      dup1\n      swap2\n      sub\n      swap1\n      revert\n    tag_240:\n        /* \"src/GenesisBoomerNFT.sol\":2823:2835  bool success */\n      0x00\n        /* \"src/GenesisBoomerNFT.sol\":2840:2847  owner() */\n      tag_243\n        /* \"src/GenesisBoomerNFT.sol\":2840:2845  owner */\n      tag_122\n        /* \"src/GenesisBoomerNFT.sol\":2840:2847  owner() */\n      jump\t// in\n    tag_243:\n        /* \"src/GenesisBoomerNFT.sol\":2840:2852  owner().call */\n      0xffffffffffffffffffffffffffffffffffffffff\n      and\n        /* \"src/GenesisBoomerNFT.sol\":2860:2867  balance */\n      dup3\n        /* \"src/GenesisBoomerNFT.sol\":2840:2872  owner().call{value: balance}(\"\") */\n      mload(0x40)\n      tag_244\n      swap1\n      tag_245\n      jump\t// in\n    tag_244:\n      0x00\n      mload(0x40)\n      dup1\n      dup4\n      sub\n      dup2\n      dup6\n      dup8\n      gas\n      call\n      swap3\n      pop\n      pop\n      pop\n      returndatasize\n      dup1\n      0x00\n      dup2\n      eq\n      tag_248\n      jumpi\n      mload(0x40)\n      swap2\n      pop\n      and(add(returndatasize, 0x3f), not(0x1f))\n      dup3\n      add\n      0x40\n      mstore\n      returndatasize\n      dup3\n      mstore\n      returndatasize\n      0x00\n      0x20\n      dup5\n      add\n      returndatacopy\n      jump(tag_247)\n    tag_248:\n      0x60\n      swap2\n      pop\n    tag_247:\n      pop\n        /* \"src/GenesisBoomerNFT.sol\":2822:2872  (bool success,) = owner().call{value: balance}(\"\") */\n      pop\n      swap1\n      pop\n        /* \"src/GenesisBoomerNFT.sol\":2890:2897  success */\n      dup1\n        /* \"src/GenesisBoomerNFT.sol\":2882:2919  require(success, \"Withdrawal failed\") */\n      tag_249\n      jumpi\n      mload(0x40)\n      0x08c379a000000000000000000000000000000000000000000000000000000000\n      dup2\n      mstore\n      0x04\n      add\n      tag_250\n      swap1\n      tag_251\n      jump\t// in\n    tag_250:\n      mload(0x40)\n      dup1\n      swap2\n      sub\n      swap1\n      revert\n    tag_249:\n        /* \"src/GenesisBoomerNFT.sol\":2709:2926  {... */\n      pop\n      pop\n        /* \"lib/openzeppelin-contracts/contracts/utils/ReentrancyGuard.sol\":2398:2418  _nonReentrantAfter() */\n      tag_252\n        /* \"lib/openzeppelin-contracts/contracts/utils/ReentrancyGuard.sol\":2398:2416  _nonReentrantAfter */\n      tag_224\n        /* \"lib/openzeppelin-contracts/contracts/utils/ReentrancyGuard.sol\":2398:2418  _nonReentrantAfter() */\n      jump\t// in\n    tag_252:\n        /* \"src/GenesisBoomerNFT.sol\":2659:2926  function withdraw() public onlyOwner nonReentrant {... */\n      jump\t// out\n        /* \"lib/openzeppelin-contracts/contracts/token/ERC721/ERC721.sol\":4787:4919  function safeTransferFrom(address from, address to, uint256 tokenId) public {... */\n    tag_91:\n        /* \"lib/openzeppelin-contracts/contracts/token/ERC721/ERC721.sol\":4873:4912  safeTransferFrom(from, to, tokenId, \"\") */\n      tag_254\n        /* \"lib/openzeppelin-contracts/contracts/token/ERC721/ERC721.sol\":4890:4894  from */\n      dup4\n        /* \"lib/openzeppelin-contracts/contracts/token/ERC721/ERC721.sol\":4896:4898  to */\n      dup4\n        /* \"lib/openzeppelin-contracts/contracts/token/ERC721/ERC721.sol\":4900:4907  tokenId */\n      dup4\n        /* \"lib/openzeppelin-contracts/contracts/token/ERC721/ERC721.sol\":4873:4912  safeTransferFrom(from, to, tokenId, \"\") */\n      mload(0x40)\n      dup1\n      0x20\n      add\n      0x40\n      mstore\n      dup1\n      0x00\n      dup2\n      mstore\n      pop\n        /* \"lib/openzeppelin-contracts/contracts/token/ERC721/ERC721.sol\":4873:4889  safeTransferFrom */\n      tag_145\n        /* \"lib/openzeppelin-contracts/contracts/token/ERC721/ERC721.sol\":4873:4912  safeTransferFrom(from, to, tokenId, \"\") */\n      jump\t// in\n    tag_254:\n        /* \"lib/openzeppelin-contracts/contracts/token/ERC721/ERC721.sol\":4787:4919  function safeTransferFrom(address from, address to, uint256 tokenId) public {... */\n      pop\n      pop\n      pop\n      jump\t// out\n        /* \"lib/openzeppelin-contracts/contracts/token/ERC721/ERC721.sol\":2185:2303  function ownerOf(uint256 tokenId) public view virtual returns (address) {... */\n    tag_95:\n        /* \"lib/openzeppelin-contracts/contracts/token/ERC721/ERC721.sol\":2248:2255  address */\n      0x00\n        /* \"lib/openzeppelin-contracts/contracts/token/ERC721/ERC721.sol\":2274:2296  _requireOwned(tokenId) */\n      tag_256\n        /* \"lib/openzeppelin-contracts/contracts/token/ERC721/ERC721.sol\":2288:2295  tokenId */\n      dup3\n        /* \"lib/openzeppelin-contracts/contracts/token/ERC721/ERC721.sol\":2274:2287  _requireOwned */\n      tag_186\n        /* \"lib/openzeppelin-contracts/contracts/token/ERC721/ERC721.sol\":2274:2296  _requireOwned(tokenId) */\n      jump\t// in\n    tag_256:\n        /* \"lib/openzeppelin-contracts/contracts/token/ERC721/ERC721.sol\":2267:2296  return _requireOwned(tokenId) */\n      swap1\n      pop\n        /* \"lib/openzeppelin-contracts/contracts/token/ERC721/ERC721.sol\":2185:2303  function ownerOf(uint256 tokenId) public view virtual returns (address) {... */\n      swap2\n      swap1\n      pop\n      jump\t// out\n        /* \"src/GenesisBoomerNFT.sol\":481:505  uint256 public mintPrice */\n    tag_99:\n      sload(0x08)\n      dup2\n      jump\t// out\n        /* \"lib/openzeppelin-contracts/contracts/token/ERC721/ERC721.sol\":1920:2128  function balanceOf(address owner) public view virtual returns (uint256) {... */\n    tag_104:\n        /* \"lib/openzeppelin-contracts/contracts/token/ERC721/ERC721.sol\":1983:1990  uint256 */\n      0x00\n        /* \"lib/openzeppelin-contracts/contracts/token/ERC721/ERC721.sol\":2023:2024  0 */\n      dup1\n        /* \"lib/openzeppelin-contracts/contracts/token/ERC721/ERC721.sol\":2006:2025  owner == address(0) */\n      0xffffffffffffffffffffffffffffffffffffffff\n      and\n        /* \"lib/openzeppelin-contracts/contracts/token/ERC721/ERC721.sol\":2006:2011  owner */\n      dup3\n        /* \"lib/openzeppelin-contracts/contracts/token/ERC721/ERC721.sol\":2006:2025  owner == address(0) */\n      0xffffffffffffffffffffffffffffffffffffffff\n      and\n      sub\n        /* \"lib/openzeppelin-contracts/contracts/token/ERC721/ERC721.sol\":2002:2089  if (owner == address(0)) {... */\n      tag_258\n      jumpi\n        /* \"lib/openzeppelin-contracts/contracts/token/ERC721/ERC721.sol\":2075:2076  0 */\n      0x00\n        /* \"lib/openzeppelin-contracts/contracts/token/ERC721/ERC721.sol\":2048:2078  ERC721InvalidOwner(address(0)) */\n      mload(0x40)\n      0x89c62b6400000000000000000000000000000000000000000000000000000000\n      dup2\n      mstore\n      0x04\n      add\n      tag_259\n      swap2\n      swap1\n      tag_57\n      jump\t// in\n    tag_259:\n      mload(0x40)\n      dup1\n      swap2\n      sub\n      swap1\n      revert\n        /* \"lib/openzeppelin-contracts/contracts/token/ERC721/ERC721.sol\":2002:2089  if (owner == address(0)) {... */\n    tag_258:\n        /* \"lib/openzeppelin-contracts/contracts/token/ERC721/ERC721.sol\":2105:2114  _balances */\n      0x03\n        /* \"lib/openzeppelin-contracts/contracts/token/ERC721/ERC721.sol\":2105:2121  _balances[owner] */\n      0x00\n        /* \"lib/openzeppelin-contracts/contracts/token/ERC721/ERC721.sol\":2115:2120  owner */\n      dup4\n        /* \"lib/openzeppelin-contracts/contracts/token/ERC721/ERC721.sol\":2105:2121  _balances[owner] */\n      0xffffffffffffffffffffffffffffffffffffffff\n      and\n      0xffffffffffffffffffffffffffffffffffffffff\n      and\n      dup2\n      mstore\n      0x20\n      add\n      swap1\n      dup2\n      mstore\n      0x20\n      add\n      0x00\n      keccak256\n      sload\n        /* \"lib/openzeppelin-contracts/contracts/token/ERC721/ERC721.sol\":2098:2121  return _balances[owner] */\n      swap1\n      pop\n        /* \"lib/openzeppelin-contracts/contracts/token/ERC721/ERC721.sol\":1920:2128  function balanceOf(address owner) public view virtual returns (uint256) {... */\n      swap2\n      swap1\n      pop\n      jump\t// out\n        /* \"lib/openzeppelin-contracts/contracts/access/Ownable.sol\":2293:2394  function renounceOwnership() public virtual onlyOwner {... */\n    tag_108:\n        /* \"lib/openzeppelin-contracts/contracts/access/Ownable.sol\":1531:1544  _checkOwner() */\n      tag_261\n        /* \"lib/openzeppelin-contracts/contracts/access/Ownable.sol\":1531:1542  _checkOwner */\n      tag_236\n        /* \"lib/openzeppelin-contracts/contracts/access/Ownable.sol\":1531:1544  _checkOwner() */\n      jump\t// in\n    tag_261:\n        /* \"lib/openzeppelin-contracts/contracts/access/Ownable.sol\":2357:2387  _transferOwnership(address(0)) */\n      tag_263\n        /* \"lib/openzeppelin-contracts/contracts/access/Ownable.sol\":2384:2385  0 */\n      0x00\n        /* \"lib/openzeppelin-contracts/contracts/access/Ownable.sol\":2357:2375  _transferOwnership */\n      tag_264\n        /* \"lib/openzeppelin-contracts/contracts/access/Ownable.sol\":2357:2387  _transferOwnership(address(0)) */\n      jump\t// in\n    tag_263:\n        /* \"lib/openzeppelin-contracts/contracts/access/Ownable.sol\":2293:2394  function renounceOwnership() public virtual onlyOwner {... */\n      jump\t// out\n        /* \"src/GenesisBoomerNFT.sol\":511:533  uint256 public mintCap */\n    tag_111:\n      sload(0x09)\n      dup2\n      jump\t// out\n        /* \"src/GenesisBoomerNFT.sol\":345:435  string public constant TOKEN_URI = \"ipfs://Qmbwuk7qyE1XXycoapHVoWqFmg5C7nBry6edVLo8CEbd8d\" */\n    tag_115:\n      mload(0x40)\n      dup1\n      0x60\n      add\n      0x40\n      mstore\n      dup1\n      0x35\n      dup2\n      mstore\n      0x20\n      add\n      data_551ea6234a6fde87733602af99d017339fb8e5f47e1e7b73196d3204b49c32c2\n      0x35\n      swap2\n      codecopy\n      dup2\n      jump\t// out\n        /* \"src/GenesisBoomerNFT.sol\":1839:1953  function disableMinting() public onlyOwner {... */\n    tag_119:\n        /* \"lib/openzeppelin-contracts/contracts/access/Ownable.sol\":1531:1544  _checkOwner() */\n      tag_266\n        /* \"lib/openzeppelin-contracts/contracts/access/Ownable.sol\":1531:1542  _checkOwner */\n      tag_236\n        /* \"lib/openzeppelin-contracts/contracts/access/Ownable.sol\":1531:1544  _checkOwner() */\n      jump\t// in\n    tag_266:\n        /* \"src/GenesisBoomerNFT.sol\":1909:1914  false */\n      0x00\n        /* \"src/GenesisBoomerNFT.sol\":1892:1906  mintingEnabled */\n      0x07\n      0x14\n        /* \"src/GenesisBoomerNFT.sol\":1892:1914  mintingEnabled = false */\n      0x0100\n      exp\n      dup2\n      sload\n      dup2\n      0xff\n      mul\n      not\n      and\n      swap1\n      dup4\n      iszero\n      iszero\n      mul\n      or\n      swap1\n      sstore\n      pop\n        /* \"src/GenesisBoomerNFT.sol\":1929:1946  MintingDisabled() */\n      0xaf79b4370f6af9d950564bbe6b81f7f0834c003c455db9248f4e55e6bf865eb7\n      mload(0x40)\n      mload(0x40)\n      dup1\n      swap2\n      sub\n      swap1\n      log1\n        /* \"src/GenesisBoomerNFT.sol\":1839:1953  function disableMinting() public onlyOwner {... */\n      jump\t// out\n        /* \"lib/openzeppelin-contracts/contracts/access/Ownable.sol\":1638:1723  function owner() public view virtual returns (address) {... */\n    tag_122:\n        /* \"lib/openzeppelin-contracts/contracts/access/Ownable.sol\":1684:1691  address */\n      0x00\n        /* \"lib/openzeppelin-contracts/contracts/access/Ownable.sol\":1710:1716  _owner */\n      0x07\n      0x00\n      swap1\n      sload\n      swap1\n      0x0100\n      exp\n      swap1\n      div\n      0xffffffffffffffffffffffffffffffffffffffff\n      and\n        /* \"lib/openzeppelin-contracts/contracts/access/Ownable.sol\":1703:1716  return _owner */\n      swap1\n      pop\n        /* \"lib/openzeppelin-contracts/contracts/access/Ownable.sol\":1638:1723  function owner() public view virtual returns (address) {... */\n      swap1\n      jump\t// out\n        /* \"lib/openzeppelin-contracts/contracts/token/ERC721/ERC721.sol\":2518:2611  function symbol() public view virtual returns (string memory) {... */\n    tag_126:\n        /* \"lib/openzeppelin-contracts/contracts/token/ERC721/ERC721.sol\":2565:2578  string memory */\n      0x60\n        /* \"lib/openzeppelin-contracts/contracts/token/ERC721/ERC721.sol\":2597:2604  _symbol */\n      0x01\n        /* \"lib/openzeppelin-contracts/contracts/token/ERC721/ERC721.sol\":2590:2604  return _symbol */\n      dup1\n      sload\n      tag_270\n      swap1\n      tag_179\n      jump\t// in\n    tag_270:\n      dup1\n      0x1f\n      add\n      0x20\n      dup1\n      swap2\n      div\n      mul\n      0x20\n      add\n      mload(0x40)\n      swap1\n      dup2\n      add\n      0x40\n      mstore\n      dup1\n      swap3\n      swap2\n      swap1\n      dup2\n      dup2\n      mstore\n      0x20\n      add\n      dup3\n      dup1\n      sload\n      tag_271\n      swap1\n      tag_179\n      jump\t// in\n    tag_271:\n      dup1\n      iszero\n      tag_272\n      jumpi\n      dup1\n      0x1f\n      lt\n      tag_273\n      jumpi\n      0x0100\n      dup1\n      dup4\n      sload\n      div\n      mul\n      dup4\n      mstore\n      swap2\n      0x20\n      add\n      swap2\n      jump(tag_272)\n    tag_273:\n      dup3\n      add\n      swap2\n      swap1\n      0x00\n      mstore\n      keccak256(0x00, 0x20)\n      swap1\n    tag_274:\n      dup2\n      sload\n      dup2\n      mstore\n      swap1\n      0x01\n      add\n      swap1\n      0x20\n      add\n      dup1\n      dup4\n      gt\n      tag_274\n      jumpi\n      dup3\n      swap1\n      sub\n      0x1f\n      and\n      dup3\n      add\n      swap2\n    tag_272:\n      pop\n      pop\n      pop\n      pop\n      pop\n      swap1\n      pop\n        /* \"lib/openzeppelin-contracts/contracts/token/ERC721/ERC721.sol\":2518:2611  function symbol() public view virtual returns (string memory) {... */\n      swap1\n      jump\t// out\n        /* \"src/GenesisBoomerNFT.sol\":441:475  bool public mintingEnabled = false */\n    tag_130:\n      0x07\n      0x14\n      swap1\n      sload\n      swap1\n      0x0100\n      exp\n      swap1\n      div\n      0xff\n      and\n      dup2\n      jump\t// out\n        /* \"lib/openzeppelin-contracts/contracts/token/ERC721/ERC721.sol\":3718:3862  function setApprovalForAll(address operator, bool approved) public virtual {... */\n    tag_136:\n        /* \"lib/openzeppelin-contracts/contracts/token/ERC721/ERC721.sol\":3803:3855  _setApprovalForAll(_msgSender(), operator, approved) */\n      tag_276\n        /* \"lib/openzeppelin-contracts/contracts/token/ERC721/ERC721.sol\":3822:3834  _msgSender() */\n      tag_277\n        /* \"lib/openzeppelin-contracts/contracts/token/ERC721/ERC721.sol\":3822:3832  _msgSender */\n      tag_192\n        /* \"lib/openzeppelin-contracts/contracts/token/ERC721/ERC721.sol\":3822:3834  _msgSender() */\n      jump\t// in\n    tag_277:\n        /* \"lib/openzeppelin-contracts/contracts/token/ERC721/ERC721.sol\":3836:3844  operator */\n      dup4\n        /* \"lib/openzeppelin-contracts/contracts/token/ERC721/ERC721.sol\":3846:3854  approved */\n      dup4\n        /* \"lib/openzeppelin-contracts/contracts/token/ERC721/ERC721.sol\":3803:3821  _setApprovalForAll */\n      tag_278\n        /* \"lib/openzeppelin-contracts/contracts/token/ERC721/ERC721.sol\":3803:3855  _setApprovalForAll(_msgSender(), operator, approved) */\n      jump\t// in\n    tag_276:\n        /* \"lib/openzeppelin-contracts/contracts/token/ERC721/ERC721.sol\":3718:3862  function setApprovalForAll(address operator, bool approved) public virtual {... */\n      pop\n      pop\n      jump\t// out\n        /* \"src/GenesisBoomerNFT.sol\":539:563  uint256 public mintedSum */\n    tag_139:\n      sload(0x0a)\n      dup2\n      jump\t// out\n        /* \"lib/openzeppelin-contracts/contracts/token/ERC721/ERC721.sol\":4985:5193  function safeTransferFrom(address from, address to, uint256 tokenId, bytes memory data) public virtual {... */\n    tag_145:\n        /* \"lib/openzeppelin-contracts/contracts/token/ERC721/ERC721.sol\":5098:5129  transferFrom(from, to, tokenId) */\n      tag_280\n        /* \"lib/openzeppelin-contracts/contracts/token/ERC721/ERC721.sol\":5111:5115  from */\n      dup5\n        /* \"lib/openzeppelin-contracts/contracts/token/ERC721/ERC721.sol\":5117:5119  to */\n      dup5\n        /* \"lib/openzeppelin-contracts/contracts/token/ERC721/ERC721.sol\":5121:5128  tokenId */\n      dup5\n        /* \"lib/openzeppelin-contracts/contracts/token/ERC721/ERC721.sol\":5098:5110  transferFrom */\n      tag_74\n        /* \"lib/openzeppelin-contracts/contracts/token/ERC721/ERC721.sol\":5098:5129  transferFrom(from, to, tokenId) */\n      jump\t// in\n    tag_280:\n        /* \"lib/openzeppelin-contracts/contracts/token/ERC721/ERC721.sol\":5139:5186  _checkOnERC721Received(from, to, tokenId, data) */\n      tag_281\n        /* \"lib/openzeppelin-contracts/contracts/token/ERC721/ERC721.sol\":5162:5166  from */\n      dup5\n        /* \"lib/openzeppelin-contracts/contracts/token/ERC721/ERC721.sol\":5168:5170  to */\n      dup5\n        /* \"lib/openzeppelin-contracts/contracts/token/ERC721/ERC721.sol\":5172:5179  tokenId */\n      dup5\n        /* \"lib/openzeppelin-contracts/contracts/token/ERC721/ERC721.sol\":5181:5185  data */\n      dup5\n        /* \"lib/openzeppelin-contracts/contracts/token/ERC721/ERC721.sol\":5139:5161  _checkOnERC721Received */\n      tag_282\n        /* \"lib/openzeppelin-contracts/contracts/token/ERC721/ERC721.sol\":5139:5186  _checkOnERC721Received(from, to, tokenId, data) */\n      jump\t// in\n    tag_281:\n        /* \"lib/openzeppelin-contracts/contracts/token/ERC721/ERC721.sol\":4985:5193  function safeTransferFrom(address from, address to, uint256 tokenId, bytes memory data) public virtual {... */\n      pop\n      pop\n      pop\n      pop\n      jump\t// out\n        /* \"src/GenesisBoomerNFT.sol\":2959:3139  function signGenesisProof() public {... */\n    tag_148:\n        /* \"src/GenesisBoomerNFT.sol\":3012:3021  hasMinted */\n      0x0c\n        /* \"src/GenesisBoomerNFT.sol\":3012:3033  hasMinted[msg.sender] */\n      0x00\n        /* \"src/GenesisBoomerNFT.sol\":3022:3032  msg.sender */\n      caller\n        /* \"src/GenesisBoomerNFT.sol\":3012:3033  hasMinted[msg.sender] */\n      0xffffffffffffffffffffffffffffffffffffffff\n      and\n      0xffffffffffffffffffffffffffffffffffffffff\n      and\n      dup2\n      mstore\n      0x20\n      add\n      swap1\n      dup2\n      mstore\n      0x20\n      add\n      0x00\n      keccak256\n      0x00\n      swap1\n      sload\n      swap1\n      0x0100\n      exp\n      swap1\n      div\n      0xff\n      and\n        /* \"src/GenesisBoomerNFT.sol\":3004:3067  require(hasMinted[msg.sender], \"Mint Genesis Boomer NFT first\") */\n      tag_284\n      jumpi\n      mload(0x40)\n      0x08c379a000000000000000000000000000000000000000000000000000000000\n      dup2\n      mstore\n      0x04\n      add\n      tag_285\n      swap1\n      tag_286\n      jump\t// in\n    tag_285:\n      mload(0x40)\n      dup1\n      swap2\n      sub\n      swap1\n      revert\n    tag_284:\n        /* \"src/GenesisBoomerNFT.sol\":3101:3111  msg.sender */\n      caller\n        /* \"src/GenesisBoomerNFT.sol\":3082:3132  GenesisBoomerProof(msg.sender, \"Me Brave Boomer!\") */\n      0xffffffffffffffffffffffffffffffffffffffff\n      and\n      0x845f38efe8bd2a3a720f0571099a52e2258548daffe38bd3c857ebb1c9cf2fb1\n      mload(0x40)\n      tag_287\n      swap1\n      tag_288\n      jump\t// in\n    tag_287:\n      mload(0x40)\n      dup1\n      swap2\n      sub\n      swap1\n      log2\n        /* \"src/GenesisBoomerNFT.sol\":2959:3139  function signGenesisProof() public {... */\n      jump\t// out\n        /* \"src/GenesisBoomerNFT.sol\":1351:1497  function tokenURI(uint256 tokenId) public view override returns (string memory) {... */\n    tag_152:\n        /* \"src/GenesisBoomerNFT.sol\":1416:1429  string memory */\n      0x60\n        /* \"src/GenesisBoomerNFT.sol\":1441:1463  _requireOwned(tokenId) */\n      tag_290\n        /* \"src/GenesisBoomerNFT.sol\":1455:1462  tokenId */\n      dup3\n        /* \"src/GenesisBoomerNFT.sol\":1441:1454  _requireOwned */\n      tag_186\n        /* \"src/GenesisBoomerNFT.sol\":1441:1463  _requireOwned(tokenId) */\n      jump\t// in\n    tag_290:\n      pop\n        /* \"src/GenesisBoomerNFT.sol\":1480:1490  _baseURI() */\n      tag_291\n        /* \"src/GenesisBoomerNFT.sol\":1480:1488  _baseURI */\n      tag_292\n        /* \"src/GenesisBoomerNFT.sol\":1480:1490  _baseURI() */\n      jump\t// in\n    tag_291:\n        /* \"src/GenesisBoomerNFT.sol\":1473:1490  return _baseURI() */\n      swap1\n      pop\n        /* \"src/GenesisBoomerNFT.sol\":1351:1497  function tokenURI(uint256 tokenId) public view override returns (string memory) {... */\n      swap2\n      swap1\n      pop\n      jump\t// out\n        /* \"lib/openzeppelin-contracts/contracts/token/ERC721/ERC721.sol\":3928:4081  function isApprovedForAll(address owner, address operator) public view virtual returns (bool) {... */\n    tag_158:\n        /* \"lib/openzeppelin-contracts/contracts/token/ERC721/ERC721.sol\":4016:4020  bool */\n      0x00\n        /* \"lib/openzeppelin-contracts/contracts/token/ERC721/ERC721.sol\":4039:4057  _operatorApprovals */\n      0x05\n        /* \"lib/openzeppelin-contracts/contracts/token/ERC721/ERC721.sol\":4039:4064  _operatorApprovals[owner] */\n      0x00\n        /* \"lib/openzeppelin-contracts/contracts/token/ERC721/ERC721.sol\":4058:4063  owner */\n      dup5\n        /* \"lib/openzeppelin-contracts/contracts/token/ERC721/ERC721.sol\":4039:4064  _operatorApprovals[owner] */\n      0xffffffffffffffffffffffffffffffffffffffff\n      and\n      0xffffffffffffffffffffffffffffffffffffffff\n      and\n      dup2\n      mstore\n      0x20\n      add\n      swap1\n      dup2\n      mstore\n      0x20\n      add\n      0x00\n      keccak256\n        /* \"lib/openzeppelin-contracts/contracts/token/ERC721/ERC721.sol\":4039:4074  _operatorApprovals[owner][operator] */\n      0x00\n        /* \"lib/openzeppelin-contracts/contracts/token/ERC721/ERC721.sol\":4065:4073  operator */\n      dup4\n        /* \"lib/openzeppelin-contracts/contracts/token/ERC721/ERC721.sol\":4039:4074  _operatorApprovals[owner][operator] */\n      0xffffffffffffffffffffffffffffffffffffffff\n      and\n      0xffffffffffffffffffffffffffffffffffffffff\n      and\n      dup2\n      mstore\n      0x20\n      add\n      swap1\n      dup2\n      mstore\n      0x20\n      add\n      0x00\n      keccak256\n      0x00\n      swap1\n      sload\n      swap1\n      0x0100\n      exp\n      swap1\n      div\n      0xff\n      and\n        /* \"lib/openzeppelin-contracts/contracts/token/ERC721/ERC721.sol\":4032:4074  return _operatorApprovals[owner][operator] */\n      swap1\n      pop\n        /* \"lib/openzeppelin-contracts/contracts/token/ERC721/ERC721.sol\":3928:4081  function isApprovedForAll(address owner, address operator) public view virtual returns (bool) {... */\n      swap3\n      swap2\n      pop\n      pop\n      jump\t// out\n        /* \"src/GenesisBoomerNFT.sol\":1647:1833  function enableMinting(uint256 _mintCap) public onlyOwner {... */\n    tag_163:\n        /* \"lib/openzeppelin-contracts/contracts/access/Ownable.sol\":1531:1544  _checkOwner() */\n      tag_295\n        /* \"lib/openzeppelin-contracts/contracts/access/Ownable.sol\":1531:1542  _checkOwner */\n      tag_236\n        /* \"lib/openzeppelin-contracts/contracts/access/Ownable.sol\":1531:1544  _checkOwner() */\n      jump\t// in\n    tag_295:\n        /* \"src/GenesisBoomerNFT.sol\":1727:1728  0 */\n      0x00\n        /* \"src/GenesisBoomerNFT.sol\":1715:1724  mintedSum */\n      0x0a\n        /* \"src/GenesisBoomerNFT.sol\":1715:1728  mintedSum = 0 */\n      dup2\n      swap1\n      sstore\n      pop\n        /* \"src/GenesisBoomerNFT.sol\":1748:1756  _mintCap */\n      dup1\n        /* \"src/GenesisBoomerNFT.sol\":1738:1745  mintCap */\n      0x09\n        /* \"src/GenesisBoomerNFT.sol\":1738:1756  mintCap = _mintCap */\n      dup2\n      swap1\n      sstore\n      pop\n        /* \"src/GenesisBoomerNFT.sol\":1783:1787  true */\n      0x01\n        /* \"src/GenesisBoomerNFT.sol\":1766:1780  mintingEnabled */\n      0x07\n      0x14\n        /* \"src/GenesisBoomerNFT.sol\":1766:1787  mintingEnabled = true */\n      0x0100\n      exp\n      dup2\n      sload\n      dup2\n      0xff\n      mul\n      not\n      and\n      swap1\n      dup4\n      iszero\n      iszero\n      mul\n      or\n      swap1\n      sstore\n      pop\n        /* \"src/GenesisBoomerNFT.sol\":1802:1826  MintingEnabled(_mintCap) */\n      0x03efd3ebbc5ed12643b571b325fc9a3eb76c8789615f51b623d8e5bf5116b82f\n        /* \"src/GenesisBoomerNFT.sol\":1817:1825  _mintCap */\n      dup2\n        /* \"src/GenesisBoomerNFT.sol\":1802:1826  MintingEnabled(_mintCap) */\n      mload(0x40)\n      tag_297\n      swap2\n      swap1\n      tag_69\n      jump\t// in\n    tag_297:\n      mload(0x40)\n      dup1\n      swap2\n      sub\n      swap1\n      log1\n        /* \"src/GenesisBoomerNFT.sol\":1647:1833  function enableMinting(uint256 _mintCap) public onlyOwner {... */\n      pop\n      jump\t// out\n        /* \"lib/openzeppelin-contracts/contracts/access/Ownable.sol\":2543:2758  function transferOwnership(address newOwner) public virtual onlyOwner {... */\n    tag_167:\n        /* \"lib/openzeppelin-contracts/contracts/access/Ownable.sol\":1531:1544  _checkOwner() */\n      tag_299\n        /* \"lib/openzeppelin-contracts/contracts/access/Ownable.sol\":1531:1542  _checkOwner */\n      tag_236\n        /* \"lib/openzeppelin-contracts/contracts/access/Ownable.sol\":1531:1544  _checkOwner() */\n      jump\t// in\n    tag_299:\n        /* \"lib/openzeppelin-contracts/contracts/access/Ownable.sol\":2647:2648  0 */\n      0x00\n        /* \"lib/openzeppelin-contracts/contracts/access/Ownable.sol\":2627:2649  newOwner == address(0) */\n      0xffffffffffffffffffffffffffffffffffffffff\n      and\n        /* \"lib/openzeppelin-contracts/contracts/access/Ownable.sol\":2627:2635  newOwner */\n      dup2\n        /* \"lib/openzeppelin-contracts/contracts/access/Ownable.sol\":2627:2649  newOwner == address(0) */\n      0xffffffffffffffffffffffffffffffffffffffff\n      and\n      sub\n        /* \"lib/openzeppelin-contracts/contracts/access/Ownable.sol\":2623:2714  if (newOwner == address(0)) {... */\n      tag_301\n      jumpi\n        /* \"lib/openzeppelin-contracts/contracts/access/Ownable.sol\":2700:2701  0 */\n      0x00\n        /* \"lib/openzeppelin-contracts/contracts/access/Ownable.sol\":2672:2703  OwnableInvalidOwner(address(0)) */\n      mload(0x40)\n      0x1e4fbdf700000000000000000000000000000000000000000000000000000000\n      dup2\n      mstore\n      0x04\n      add\n      tag_302\n      swap2\n      swap1\n      tag_57\n      jump\t// in\n    tag_302:\n      mload(0x40)\n      dup1\n      swap2\n      sub\n      swap1\n      revert\n        /* \"lib/openzeppelin-contracts/contracts/access/Ownable.sol\":2623:2714  if (newOwner == address(0)) {... */\n    tag_301:\n        /* \"lib/openzeppelin-contracts/contracts/access/Ownable.sol\":2723:2751  _transferOwnership(newOwner) */\n      tag_303\n        /* \"lib/openzeppelin-contracts/contracts/access/Ownable.sol\":2742:2750  newOwner */\n      dup2\n        /* \"lib/openzeppelin-contracts/contracts/access/Ownable.sol\":2723:2741  _transferOwnership */\n      tag_264\n        /* \"lib/openzeppelin-contracts/contracts/access/Ownable.sol\":2723:2751  _transferOwnership(newOwner) */\n      jump\t// in\n    tag_303:\n        /* \"lib/openzeppelin-contracts/contracts/access/Ownable.sol\":2543:2758  function transferOwnership(address newOwner) public virtual onlyOwner {... */\n      pop\n      jump\t// out\n        /* \"src/GenesisBoomerNFT.sol\":1503:1641  function setMintPrice(uint256 _newPrice) public onlyOwner {... */\n    tag_171:\n        /* \"lib/openzeppelin-contracts/contracts/access/Ownable.sol\":1531:1544  _checkOwner() */\n      tag_305\n        /* \"lib/openzeppelin-contracts/contracts/access/Ownable.sol\":1531:1542  _checkOwner */\n      tag_236\n        /* \"lib/openzeppelin-contracts/contracts/access/Ownable.sol\":1531:1544  _checkOwner() */\n      jump\t// in\n    tag_305:\n        /* \"src/GenesisBoomerNFT.sol\":1583:1592  _newPrice */\n      dup1\n        /* \"src/GenesisBoomerNFT.sol\":1571:1580  mintPrice */\n      0x08\n        /* \"src/GenesisBoomerNFT.sol\":1571:1592  mintPrice = _newPrice */\n      dup2\n      swap1\n      sstore\n      pop\n        /* \"src/GenesisBoomerNFT.sol\":1607:1634  MintPriceChanged(_newPrice) */\n      0x25b1f9f6b6e61dfca5575239769e4450ed2e49176670837f5d1a82a9a2fc693f\n        /* \"src/GenesisBoomerNFT.sol\":1624:1633  _newPrice */\n      dup2\n        /* \"src/GenesisBoomerNFT.sol\":1607:1634  MintPriceChanged(_newPrice) */\n      mload(0x40)\n      tag_307\n      swap2\n      swap1\n      tag_69\n      jump\t// in\n    tag_307:\n      mload(0x40)\n      dup1\n      swap2\n      sub\n      swap1\n      log1\n        /* \"src/GenesisBoomerNFT.sol\":1503:1641  function setMintPrice(uint256 _newPrice) public onlyOwner {... */\n      pop\n      jump\t// out\n        /* \"lib/openzeppelin-contracts/contracts/utils/introspection/ERC165.sol\":762:908  function supportsInterface(bytes4 interfaceId) public view virtual returns (bool) {... */\n    tag_176:\n        /* \"lib/openzeppelin-contracts/contracts/utils/introspection/ERC165.sol\":838:842  bool */\n      0x00\n        /* \"lib/openzeppelin-contracts/contracts/utils/introspection/ERC165.sol\":876:901  type(IERC165).interfaceId */\n      0x01ffc9a700000000000000000000000000000000000000000000000000000000\n        /* \"lib/openzeppelin-contracts/contracts/utils/introspection/ERC165.sol\":861:901  interfaceId == type(IERC165).interfaceId */\n      not(0xffffffffffffffffffffffffffffffffffffffffffffffffffffffff)\n      and\n        /* \"lib/openzeppelin-contracts/contracts/utils/introspection/ERC165.sol\":861:872  interfaceId */\n      dup3\n        /* \"lib/openzeppelin-contracts/contracts/utils/introspection/ERC165.sol\":861:901  interfaceId == type(IERC165).interfaceId */\n      not(0xffffffffffffffffffffffffffffffffffffffffffffffffffffffff)\n      and\n      eq\n        /* \"lib/openzeppelin-contracts/contracts/utils/introspection/ERC165.sol\":854:901  return interfaceId == type(IERC165).interfaceId */\n      swap1\n      pop\n        /* \"lib/openzeppelin-contracts/contracts/utils/introspection/ERC165.sol\":762:908  function supportsInterface(bytes4 interfaceId) public view virtual returns (bool) {... */\n      swap2\n      swap1\n      pop\n      jump\t// out\n        /* \"lib/openzeppelin-contracts/contracts/token/ERC721/ERC721.sol\":16138:16379  function _requireOwned(uint256 tokenId) internal view returns (address) {... */\n    tag_186:\n        /* \"lib/openzeppelin-contracts/contracts/token/ERC721/ERC721.sol\":16201:16208  address */\n      0x00\n        /* \"lib/openzeppelin-contracts/contracts/token/ERC721/ERC721.sol\":16220:16233  address owner */\n      dup1\n        /* \"lib/openzeppelin-contracts/contracts/token/ERC721/ERC721.sol\":16236:16253  _ownerOf(tokenId) */\n      tag_310\n        /* \"lib/openzeppelin-contracts/contracts/token/ERC721/ERC721.sol\":16245:16252  tokenId */\n      dup4\n        /* \"lib/openzeppelin-contracts/contracts/token/ERC721/ERC721.sol\":16236:16244  _ownerOf */\n      tag_311\n        /* \"lib/openzeppelin-contracts/contracts/token/ERC721/ERC721.sol\":16236:16253  _ownerOf(tokenId) */\n      jump\t// in\n    tag_310:\n        /* \"lib/openzeppelin-contracts/contracts/token/ERC721/ERC721.sol\":16220:16253  address owner = _ownerOf(tokenId) */\n      swap1\n      pop\n        /* \"lib/openzeppelin-contracts/contracts/token/ERC721/ERC721.sol\":16284:16285  0 */\n      0x00\n        /* \"lib/openzeppelin-contracts/contracts/token/ERC721/ERC721.sol\":16267:16286  owner == address(0) */\n      0xffffffffffffffffffffffffffffffffffffffff\n      and\n        /* \"lib/openzeppelin-contracts/contracts/token/ERC721/ERC721.sol\":16267:16272  owner */\n      dup2\n        /* \"lib/openzeppelin-contracts/contracts/token/ERC721/ERC721.sol\":16267:16286  owner == address(0) */\n      0xffffffffffffffffffffffffffffffffffffffff\n      and\n      sub\n        /* \"lib/openzeppelin-contracts/contracts/token/ERC721/ERC721.sol\":16263:16351  if (owner == address(0)) {... */\n      tag_312\n      jumpi\n        /* \"lib/openzeppelin-contracts/contracts/token/ERC721/ERC721.sol\":16332:16339  tokenId */\n      dup3\n        /* \"lib/openzeppelin-contracts/contracts/token/ERC721/ERC721.sol\":16309:16340  ERC721NonexistentToken(tokenId) */\n      mload(0x40)\n      0x7e27328900000000000000000000000000000000000000000000000000000000\n      dup2\n      mstore\n      0x04\n      add\n      tag_313\n      swap2\n      swap1\n      tag_69\n      jump\t// in\n    tag_313:\n      mload(0x40)\n      dup1\n      swap2\n      sub\n      swap1\n      revert\n        /* \"lib/openzeppelin-contracts/contracts/token/ERC721/ERC721.sol\":16263:16351  if (owner == address(0)) {... */\n    tag_312:\n        /* \"lib/openzeppelin-contracts/contracts/token/ERC721/ERC721.sol\":16367:16372  owner */\n      dup1\n        /* \"lib/openzeppelin-contracts/contracts/token/ERC721/ERC721.sol\":16360:16372  return owner */\n      swap2\n      pop\n      pop\n        /* \"lib/openzeppelin-contracts/contracts/token/ERC721/ERC721.sol\":16138:16379  function _requireOwned(uint256 tokenId) internal view returns (address) {... */\n      swap2\n      swap1\n      pop\n      jump\t// out\n        /* \"lib/openzeppelin-contracts/contracts/token/ERC721/ERC721.sol\":5938:6065  function _getApproved(uint256 tokenId) internal view virtual returns (address) {... */\n    tag_188:\n        /* \"lib/openzeppelin-contracts/contracts/token/ERC721/ERC721.sol\":6008:6015  address */\n      0x00\n        /* \"lib/openzeppelin-contracts/contracts/token/ERC721/ERC721.sol\":6034:6049  _tokenApprovals */\n      0x04\n        /* \"lib/openzeppelin-contracts/contracts/token/ERC721/ERC721.sol\":6034:6058  _tokenApprovals[tokenId] */\n      0x00\n        /* \"lib/openzeppelin-contracts/contracts/token/ERC721/ERC721.sol\":6050:6057  tokenId */\n      dup4\n        /* \"lib/openzeppelin-contracts/contracts/token/ERC721/ERC721.sol\":6034:6058  _tokenApprovals[tokenId] */\n      dup2\n      mstore\n      0x20\n      add\n      swap1\n      dup2\n      mstore\n      0x20\n      add\n      0x00\n      keccak256\n      0x00\n      swap1\n      sload\n      swap1\n      0x0100\n      exp\n      swap1\n      div\n      0xffffffffffffffffffffffffffffffffffffffff\n      and\n        /* \"lib/openzeppelin-contracts/contracts/token/ERC721/ERC721.sol\":6027:6058  return _tokenApprovals[tokenId] */\n      swap1\n      pop\n        /* \"lib/openzeppelin-contracts/contracts/token/ERC721/ERC721.sol\":5938:6065  function _getApproved(uint256 tokenId) internal view virtual returns (address) {... */\n      swap2\n      swap1\n      pop\n      jump\t// out\n        /* \"lib/openzeppelin-contracts/contracts/utils/Context.sol\":656:752  function _msgSender() internal view virtual returns (address) {... */\n    tag_192:\n        /* \"lib/openzeppelin-contracts/contracts/utils/Context.sol\":709:716  address */\n      0x00\n        /* \"lib/openzeppelin-contracts/contracts/utils/Context.sol\":735:745  msg.sender */\n      caller\n        /* \"lib/openzeppelin-contracts/contracts/utils/Context.sol\":728:745  return msg.sender */\n      swap1\n      pop\n        /* \"lib/openzeppelin-contracts/contracts/utils/Context.sol\":656:752  function _msgSender() internal view virtual returns (address) {... */\n      swap1\n      jump\t// out\n        /* \"lib/openzeppelin-contracts/contracts/token/ERC721/ERC721.sol\":14418:14538  function _approve(address to, uint256 tokenId, address auth) internal {... */\n    tag_193:\n        /* \"lib/openzeppelin-contracts/contracts/token/ERC721/ERC721.sol\":14498:14531  _approve(to, tokenId, auth, true) */\n      tag_317\n        /* \"lib/openzeppelin-contracts/contracts/token/ERC721/ERC721.sol\":14507:14509  to */\n      dup4\n        /* \"lib/openzeppelin-contracts/contracts/token/ERC721/ERC721.sol\":14511:14518  tokenId */\n      dup4\n        /* \"lib/openzeppelin-contracts/contracts/token/ERC721/ERC721.sol\":14520:14524  auth */\n      dup4\n        /* \"lib/openzeppelin-contracts/contracts/token/ERC721/ERC721.sol\":14526:14530  true */\n      0x01\n        /* \"lib/openzeppelin-contracts/contracts/token/ERC721/ERC721.sol\":14498:14506  _approve */\n      tag_318\n        /* \"lib/openzeppelin-contracts/contracts/token/ERC721/ERC721.sol\":14498:14531  _approve(to, tokenId, auth, true) */\n      jump\t// in\n    tag_317:\n        /* \"lib/openzeppelin-contracts/contracts/token/ERC721/ERC721.sol\":14418:14538  function _approve(address to, uint256 tokenId, address auth) internal {... */\n      pop\n      pop\n      pop\n      jump\t// out\n        /* \"lib/openzeppelin-contracts/contracts/utils/ReentrancyGuard.sol\":2431:2738  function _nonReentrantBefore() private {... */\n    tag_196:\n        /* \"lib/openzeppelin-contracts/contracts/utils/ReentrancyGuard.sol\":1755:1756  2 */\n      0x02\n        /* \"lib/openzeppelin-contracts/contracts/utils/ReentrancyGuard.sol\":2558:2565  _status */\n      sload(0x06)\n        /* \"lib/openzeppelin-contracts/contracts/utils/ReentrancyGuard.sol\":2558:2576  _status == ENTERED */\n      sub\n        /* \"lib/openzeppelin-contracts/contracts/utils/ReentrancyGuard.sol\":2554:2640  if (_status == ENTERED) {... */\n      tag_320\n      jumpi\n        /* \"lib/openzeppelin-contracts/contracts/utils/ReentrancyGuard.sol\":2599:2629  ReentrancyGuardReentrantCall() */\n      mload(0x40)\n      0x3ee5aeb500000000000000000000000000000000000000000000000000000000\n      dup2\n      mstore\n      0x04\n      add\n      mload(0x40)\n      dup1\n      swap2\n      sub\n      swap1\n      revert\n        /* \"lib/openzeppelin-contracts/contracts/utils/ReentrancyGuard.sol\":2554:2640  if (_status == ENTERED) {... */\n    tag_320:\n        /* \"lib/openzeppelin-contracts/contracts/utils/ReentrancyGuard.sol\":1755:1756  2 */\n      0x02\n        /* \"lib/openzeppelin-contracts/contracts/utils/ReentrancyGuard.sol\":2714:2721  _status */\n      0x06\n        /* \"lib/openzeppelin-contracts/contracts/utils/ReentrancyGuard.sol\":2714:2731  _status = ENTERED */\n      dup2\n      swap1\n      sstore\n      pop\n        /* \"lib/openzeppelin-contracts/contracts/utils/ReentrancyGuard.sol\":2431:2738  function _nonReentrantBefore() private {... */\n      jump\t// out\n        /* \"lib/openzeppelin-contracts/contracts/token/ERC721/ERC721.sol\":10633:10733  function _safeMint(address to, uint256 tokenId) internal {... */\n    tag_220:\n        /* \"lib/openzeppelin-contracts/contracts/token/ERC721/ERC721.sol\":10700:10726  _safeMint(to, tokenId, \"\") */\n      tag_322\n        /* \"lib/openzeppelin-contracts/contracts/token/ERC721/ERC721.sol\":10710:10712  to */\n      dup3\n        /* \"lib/openzeppelin-contracts/contracts/token/ERC721/ERC721.sol\":10714:10721  tokenId */\n      dup3\n        /* \"lib/openzeppelin-contracts/contracts/token/ERC721/ERC721.sol\":10700:10726  _safeMint(to, tokenId, \"\") */\n      mload(0x40)\n      dup1\n      0x20\n      add\n      0x40\n      mstore\n      dup1\n      0x00\n      dup2\n      mstore\n      pop\n        /* \"lib/openzeppelin-contracts/contracts/token/ERC721/ERC721.sol\":10700:10709  _safeMint */\n      tag_323\n        /* \"lib/openzeppelin-contracts/contracts/token/ERC721/ERC721.sol\":10700:10726  _safeMint(to, tokenId, \"\") */\n      jump\t// in\n    tag_322:\n        /* \"lib/openzeppelin-contracts/contracts/token/ERC721/ERC721.sol\":10633:10733  function _safeMint(address to, uint256 tokenId) internal {... */\n      pop\n      pop\n      jump\t// out\n        /* \"lib/openzeppelin-contracts/contracts/utils/ReentrancyGuard.sol\":2744:2952  function _nonReentrantAfter() private {... */\n    tag_224:\n        /* \"lib/openzeppelin-contracts/contracts/utils/ReentrancyGuard.sol\":1713:1714  1 */\n      0x01\n        /* \"lib/openzeppelin-contracts/contracts/utils/ReentrancyGuard.sol\":2924:2931  _status */\n      0x06\n        /* \"lib/openzeppelin-contracts/contracts/utils/ReentrancyGuard.sol\":2924:2945  _status = NOT_ENTERED */\n      dup2\n      swap1\n      sstore\n      pop\n        /* \"lib/openzeppelin-contracts/contracts/utils/ReentrancyGuard.sol\":2744:2952  function _nonReentrantAfter() private {... */\n      jump\t// out\n        /* \"lib/openzeppelin-contracts/contracts/token/ERC721/ERC721.sol\":8838:9633  function _update(address to, uint256 tokenId, address auth) internal virtual returns (address) {... */\n    tag_230:\n        /* \"lib/openzeppelin-contracts/contracts/token/ERC721/ERC721.sol\":8924:8931  address */\n      0x00\n        /* \"lib/openzeppelin-contracts/contracts/token/ERC721/ERC721.sol\":8943:8955  address from */\n      dup1\n        /* \"lib/openzeppelin-contracts/contracts/token/ERC721/ERC721.sol\":8958:8975  _ownerOf(tokenId) */\n      tag_326\n        /* \"lib/openzeppelin-contracts/contracts/token/ERC721/ERC721.sol\":8967:8974  tokenId */\n      dup5\n        /* \"lib/openzeppelin-contracts/contracts/token/ERC721/ERC721.sol\":8958:8966  _ownerOf */\n      tag_311\n        /* \"lib/openzeppelin-contracts/contracts/token/ERC721/ERC721.sol\":8958:8975  _ownerOf(tokenId) */\n      jump\t// in\n    tag_326:\n        /* \"lib/openzeppelin-contracts/contracts/token/ERC721/ERC721.sol\":8943:8975  address from = _ownerOf(tokenId) */\n      swap1\n      pop\n        /* \"lib/openzeppelin-contracts/contracts/token/ERC721/ERC721.sol\":9051:9052  0 */\n      0x00\n        /* \"lib/openzeppelin-contracts/contracts/token/ERC721/ERC721.sol\":9035:9053  auth != address(0) */\n      0xffffffffffffffffffffffffffffffffffffffff\n      and\n        /* \"lib/openzeppelin-contracts/contracts/token/ERC721/ERC721.sol\":9035:9039  auth */\n      dup4\n        /* \"lib/openzeppelin-contracts/contracts/token/ERC721/ERC721.sol\":9035:9053  auth != address(0) */\n      0xffffffffffffffffffffffffffffffffffffffff\n      and\n      eq\n        /* \"lib/openzeppelin-contracts/contracts/token/ERC721/ERC721.sol\":9031:9117  if (auth != address(0)) {... */\n      tag_327\n      jumpi\n        /* \"lib/openzeppelin-contracts/contracts/token/ERC721/ERC721.sol\":9069:9106  _checkAuthorized(from, auth, tokenId) */\n      tag_328\n        /* \"lib/openzeppelin-contracts/contracts/token/ERC721/ERC721.sol\":9086:9090  from */\n      dup2\n        /* \"lib/openzeppelin-contracts/contracts/token/ERC721/ERC721.sol\":9092:9096  auth */\n      dup5\n        /* \"lib/openzeppelin-contracts/contracts/token/ERC721/ERC721.sol\":9098:9105  tokenId */\n      dup7\n        /* \"lib/openzeppelin-contracts/contracts/token/ERC721/ERC721.sol\":9069:9085  _checkAuthorized */\n      tag_329\n        /* \"lib/openzeppelin-contracts/contracts/token/ERC721/ERC721.sol\":9069:9106  _checkAuthorized(from, auth, tokenId) */\n      jump\t// in\n    tag_328:\n        /* \"lib/openzeppelin-contracts/contracts/token/ERC721/ERC721.sol\":9031:9117  if (auth != address(0)) {... */\n    tag_327:\n        /* \"lib/openzeppelin-contracts/contracts/token/ERC721/ERC721.sol\":9177:9178  0 */\n      0x00\n        /* \"lib/openzeppelin-contracts/contracts/token/ERC721/ERC721.sol\":9161:9179  from != address(0) */\n      0xffffffffffffffffffffffffffffffffffffffff\n      and\n        /* \"lib/openzeppelin-contracts/contracts/token/ERC721/ERC721.sol\":9161:9165  from */\n      dup2\n        /* \"lib/openzeppelin-contracts/contracts/token/ERC721/ERC721.sol\":9161:9179  from != address(0) */\n      0xffffffffffffffffffffffffffffffffffffffff\n      and\n      eq\n        /* \"lib/openzeppelin-contracts/contracts/token/ERC721/ERC721.sol\":9157:9413  if (from != address(0)) {... */\n      tag_330\n      jumpi\n        /* \"lib/openzeppelin-contracts/contracts/token/ERC721/ERC721.sol\":9277:9325  _approve(address(0), tokenId, address(0), false) */\n      tag_331\n        /* \"lib/openzeppelin-contracts/contracts/token/ERC721/ERC721.sol\":9294:9295  0 */\n      0x00\n        /* \"lib/openzeppelin-contracts/contracts/token/ERC721/ERC721.sol\":9298:9305  tokenId */\n      dup6\n        /* \"lib/openzeppelin-contracts/contracts/token/ERC721/ERC721.sol\":9315:9316  0 */\n      0x00\n        /* \"lib/openzeppelin-contracts/contracts/token/ERC721/ERC721.sol\":9319:9324  false */\n      dup1\n        /* \"lib/openzeppelin-contracts/contracts/token/ERC721/ERC721.sol\":9277:9285  _approve */\n      tag_318\n        /* \"lib/openzeppelin-contracts/contracts/token/ERC721/ERC721.sol\":9277:9325  _approve(address(0), tokenId, address(0), false) */\n      jump\t// in\n    tag_331:\n        /* \"lib/openzeppelin-contracts/contracts/token/ERC721/ERC721.sol\":9387:9388  1 */\n      0x01\n        /* \"lib/openzeppelin-contracts/contracts/token/ERC721/ERC721.sol\":9368:9377  _balances */\n      0x03\n        /* \"lib/openzeppelin-contracts/contracts/token/ERC721/ERC721.sol\":9368:9383  _balances[from] */\n      0x00\n        /* \"lib/openzeppelin-contracts/contracts/token/ERC721/ERC721.sol\":9378:9382  from */\n      dup4\n        /* \"lib/openzeppelin-contracts/contracts/token/ERC721/ERC721.sol\":9368:9383  _balances[from] */\n      0xffffffffffffffffffffffffffffffffffffffff\n      and\n      0xffffffffffffffffffffffffffffffffffffffff\n      and\n      dup2\n      mstore\n      0x20\n      add\n      swap1\n      dup2\n      mstore\n      0x20\n      add\n      0x00\n      keccak256\n      0x00\n        /* \"lib/openzeppelin-contracts/contracts/token/ERC721/ERC721.sol\":9368:9388  _balances[from] -= 1 */\n      dup3\n      dup3\n      sload\n      sub\n      swap3\n      pop\n      pop\n      dup2\n      swap1\n      sstore\n      pop\n        /* \"lib/openzeppelin-contracts/contracts/token/ERC721/ERC721.sol\":9157:9413  if (from != address(0)) {... */\n    tag_330:\n        /* \"lib/openzeppelin-contracts/contracts/token/ERC721/ERC721.sol\":9441:9442  0 */\n      0x00\n        /* \"lib/openzeppelin-contracts/contracts/token/ERC721/ERC721.sol\":9427:9443  to != address(0) */\n      0xffffffffffffffffffffffffffffffffffffffff\n      and\n        /* \"lib/openzeppelin-contracts/contracts/token/ERC721/ERC721.sol\":9427:9429  to */\n      dup6\n        /* \"lib/openzeppelin-contracts/contracts/token/ERC721/ERC721.sol\":9427:9443  to != address(0) */\n      0xffffffffffffffffffffffffffffffffffffffff\n      and\n      eq\n        /* \"lib/openzeppelin-contracts/contracts/token/ERC721/ERC721.sol\":9423:9530  if (to != address(0)) {... */\n      tag_332\n      jumpi\n        /* \"lib/openzeppelin-contracts/contracts/token/ERC721/ERC721.sol\":9504:9505  1 */\n      0x01\n        /* \"lib/openzeppelin-contracts/contracts/token/ERC721/ERC721.sol\":9487:9496  _balances */\n      0x03\n        /* \"lib/openzeppelin-contracts/contracts/token/ERC721/ERC721.sol\":9487:9500  _balances[to] */\n      0x00\n        /* \"lib/openzeppelin-contracts/contracts/token/ERC721/ERC721.sol\":9497:9499  to */\n      dup8\n        /* \"lib/openzeppelin-contracts/contracts/token/ERC721/ERC721.sol\":9487:9500  _balances[to] */\n      0xffffffffffffffffffffffffffffffffffffffff\n      and\n      0xffffffffffffffffffffffffffffffffffffffff\n      and\n      dup2\n      mstore\n      0x20\n      add\n      swap1\n      dup2\n      mstore\n      0x20\n      add\n      0x00\n      keccak256\n      0x00\n        /* \"lib/openzeppelin-contracts/contracts/token/ERC721/ERC721.sol\":9487:9505  _balances[to] += 1 */\n      dup3\n      dup3\n      sload\n      add\n      swap3\n      pop\n      pop\n      dup2\n      swap1\n      sstore\n      pop\n        /* \"lib/openzeppelin-contracts/contracts/token/ERC721/ERC721.sol\":9423:9530  if (to != address(0)) {... */\n    tag_332:\n        /* \"lib/openzeppelin-contracts/contracts/token/ERC721/ERC721.sol\":9559:9561  to */\n      dup5\n        /* \"lib/openzeppelin-contracts/contracts/token/ERC721/ERC721.sol\":9540:9547  _owners */\n      0x02\n        /* \"lib/openzeppelin-contracts/contracts/token/ERC721/ERC721.sol\":9540:9556  _owners[tokenId] */\n      0x00\n        /* \"lib/openzeppelin-contracts/contracts/token/ERC721/ERC721.sol\":9548:9555  tokenId */\n      dup7\n        /* \"lib/openzeppelin-contracts/contracts/token/ERC721/ERC721.sol\":9540:9556  _owners[tokenId] */\n      dup2\n      mstore\n      0x20\n      add\n      swap1\n      dup2\n      mstore\n      0x20\n      add\n      0x00\n      keccak256\n      0x00\n        /* \"lib/openzeppelin-contracts/contracts/token/ERC721/ERC721.sol\":9540:9561  _owners[tokenId] = to */\n      0x0100\n      exp\n      dup2\n      sload\n      dup2\n      0xffffffffffffffffffffffffffffffffffffffff\n      mul\n      not\n      and\n      swap1\n      dup4\n      0xffffffffffffffffffffffffffffffffffffffff\n      and\n      mul\n      or\n      swap1\n      sstore\n      pop\n        /* \"lib/openzeppelin-contracts/contracts/token/ERC721/ERC721.sol\":9596:9603  tokenId */\n      dup4\n        /* \"lib/openzeppelin-contracts/contracts/token/ERC721/ERC721.sol\":9592:9594  to */\n      dup6\n        /* \"lib/openzeppelin-contracts/contracts/token/ERC721/ERC721.sol\":9577:9604  Transfer(from, to, tokenId) */\n      0xffffffffffffffffffffffffffffffffffffffff\n      and\n        /* \"lib/openzeppelin-contracts/contracts/token/ERC721/ERC721.sol\":9586:9590  from */\n      dup3\n        /* \"lib/openzeppelin-contracts/contracts/token/ERC721/ERC721.sol\":9577:9604  Transfer(from, to, tokenId) */\n      0xffffffffffffffffffffffffffffffffffffffff\n      and\n      0xddf252ad1be2c89b69c2b068fc378daa952ba7f163c4a11628f55a4df523b3ef\n      mload(0x40)\n      mload(0x40)\n      dup1\n      swap2\n      sub\n      swap1\n      log4\n        /* \"lib/openzeppelin-contracts/contracts/token/ERC721/ERC721.sol\":9622:9626  from */\n      dup1\n        /* \"lib/openzeppelin-contracts/contracts/token/ERC721/ERC721.sol\":9615:9626  return from */\n      swap2\n      pop\n      pop\n        /* \"lib/openzeppelin-contracts/contracts/token/ERC721/ERC721.sol\":8838:9633  function _update(address to, uint256 tokenId, address auth) internal virtual returns (address) {... */\n      swap4\n      swap3\n      pop\n      pop\n      pop\n      jump\t// out\n        /* \"lib/openzeppelin-contracts/contracts/access/Ownable.sol\":1796:1958  function _checkOwner() internal view virtual {... */\n    tag_236:\n        /* \"lib/openzeppelin-contracts/contracts/access/Ownable.sol\":1866:1878  _msgSender() */\n      tag_334\n        /* \"lib/openzeppelin-contracts/contracts/access/Ownable.sol\":1866:1876  _msgSender */\n      tag_192\n        /* \"lib/openzeppelin-contracts/contracts/access/Ownable.sol\":1866:1878  _msgSender() */\n      jump\t// in\n    tag_334:\n        /* \"lib/openzeppelin-contracts/contracts/access/Ownable.sol\":1855:1878  owner() != _msgSender() */\n      0xffffffffffffffffffffffffffffffffffffffff\n      and\n        /* \"lib/openzeppelin-contracts/contracts/access/Ownable.sol\":1855:1862  owner() */\n      tag_335\n        /* \"lib/openzeppelin-contracts/contracts/access/Ownable.sol\":1855:1860  owner */\n      tag_122\n        /* \"lib/openzeppelin-contracts/contracts/access/Ownable.sol\":1855:1862  owner() */\n      jump\t// in\n    tag_335:\n        /* \"lib/openzeppelin-contracts/contracts/access/Ownable.sol\":1855:1878  owner() != _msgSender() */\n      0xffffffffffffffffffffffffffffffffffffffff\n      and\n      eq\n        /* \"lib/openzeppelin-contracts/contracts/access/Ownable.sol\":1851:1952  if (owner() != _msgSender()) {... */\n      tag_336\n      jumpi\n        /* \"lib/openzeppelin-contracts/contracts/access/Ownable.sol\":1928:1940  _msgSender() */\n      tag_337\n        /* \"lib/openzeppelin-contracts/contracts/access/Ownable.sol\":1928:1938  _msgSender */\n      tag_192\n        /* \"lib/openzeppelin-contracts/contracts/access/Ownable.sol\":1928:1940  _msgSender() */\n      jump\t// in\n    tag_337:\n        /* \"lib/openzeppelin-contracts/contracts/access/Ownable.sol\":1901:1941  OwnableUnauthorizedAccount(_msgSender()) */\n      mload(0x40)\n      0x118cdaa700000000000000000000000000000000000000000000000000000000\n      dup2\n      mstore\n      0x04\n      add\n      tag_338\n      swap2\n      swap1\n      tag_57\n      jump\t// in\n    tag_338:\n      mload(0x40)\n      dup1\n      swap2\n      sub\n      swap1\n      revert\n        /* \"lib/openzeppelin-contracts/contracts/access/Ownable.sol\":1851:1952  if (owner() != _msgSender()) {... */\n    tag_336:\n        /* \"lib/openzeppelin-contracts/contracts/access/Ownable.sol\":1796:1958  function _checkOwner() internal view virtual {... */\n      jump\t// out\n        /* \"lib/openzeppelin-contracts/contracts/access/Ownable.sol\":2912:3099  function _transferOwnership(address newOwner) internal virtual {... */\n    tag_264:\n        /* \"lib/openzeppelin-contracts/contracts/access/Ownable.sol\":2985:3001  address oldOwner */\n      0x00\n        /* \"lib/openzeppelin-contracts/contracts/access/Ownable.sol\":3004:3010  _owner */\n      0x07\n      0x00\n      swap1\n      sload\n      swap1\n      0x0100\n      exp\n      swap1\n      div\n      0xffffffffffffffffffffffffffffffffffffffff\n      and\n        /* \"lib/openzeppelin-contracts/contracts/access/Ownable.sol\":2985:3010  address oldOwner = _owner */\n      swap1\n      pop\n        /* \"lib/openzeppelin-contracts/contracts/access/Ownable.sol\":3029:3037  newOwner */\n      dup2\n        /* \"lib/openzeppelin-contracts/contracts/access/Ownable.sol\":3020:3026  _owner */\n      0x07\n      0x00\n        /* \"lib/openzeppelin-contracts/contracts/access/Ownable.sol\":3020:3037  _owner = newOwner */\n      0x0100\n      exp\n      dup2\n      sload\n      dup2\n      0xffffffffffffffffffffffffffffffffffffffff\n      mul\n      not\n      and\n      swap1\n      dup4\n      0xffffffffffffffffffffffffffffffffffffffff\n      and\n      mul\n      or\n      swap1\n      sstore\n      pop\n        /* \"lib/openzeppelin-contracts/contracts/access/Ownable.sol\":3083:3091  newOwner */\n      dup2\n        /* \"lib/openzeppelin-contracts/contracts/access/Ownable.sol\":3052:3092  OwnershipTransferred(oldOwner, newOwner) */\n      0xffffffffffffffffffffffffffffffffffffffff\n      and\n        /* \"lib/openzeppelin-contracts/contracts/access/Ownable.sol\":3073:3081  oldOwner */\n      dup2\n        /* \"lib/openzeppelin-contracts/contracts/access/Ownable.sol\":3052:3092  OwnershipTransferred(oldOwner, newOwner) */\n      0xffffffffffffffffffffffffffffffffffffffff\n      and\n      0x8be0079c531659141344cd1fd0a4f28419497f9722a3daafe3b4186f6b6457e0\n      mload(0x40)\n      mload(0x40)\n      dup1\n      swap2\n      sub\n      swap1\n      log3\n        /* \"lib/openzeppelin-contracts/contracts/access/Ownable.sol\":2975:3099  {... */\n      pop\n        /* \"lib/openzeppelin-contracts/contracts/access/Ownable.sol\":2912:3099  function _transferOwnership(address newOwner) internal virtual {... */\n      pop\n      jump\t// out\n        /* \"lib/openzeppelin-contracts/contracts/token/ERC721/ERC721.sol\":15591:15903  function _setApprovalForAll(address owner, address operator, bool approved) internal virtual {... */\n    tag_278:\n        /* \"lib/openzeppelin-contracts/contracts/token/ERC721/ERC721.sol\":15718:15719  0 */\n      0x00\n        /* \"lib/openzeppelin-contracts/contracts/token/ERC721/ERC721.sol\":15698:15720  operator == address(0) */\n      0xffffffffffffffffffffffffffffffffffffffff\n      and\n        /* \"lib/openzeppelin-contracts/contracts/token/ERC721/ERC721.sol\":15698:15706  operator */\n      dup3\n        /* \"lib/openzeppelin-contracts/contracts/token/ERC721/ERC721.sol\":15698:15720  operator == address(0) */\n      0xffffffffffffffffffffffffffffffffffffffff\n      and\n      sub\n        /* \"lib/openzeppelin-contracts/contracts/token/ERC721/ERC721.sol\":15694:15785  if (operator == address(0)) {... */\n      tag_341\n      jumpi\n        /* \"lib/openzeppelin-contracts/contracts/token/ERC721/ERC721.sol\":15765:15773  operator */\n      dup2\n        /* \"lib/openzeppelin-contracts/contracts/token/ERC721/ERC721.sol\":15743:15774  ERC721InvalidOperator(operator) */\n      mload(0x40)\n      0x5b08ba1800000000000000000000000000000000000000000000000000000000\n      dup2\n      mstore\n      0x04\n      add\n      tag_342\n      swap2\n      swap1\n      tag_57\n      jump\t// in\n    tag_342:\n      mload(0x40)\n      dup1\n      swap2\n      sub\n      swap1\n      revert\n        /* \"lib/openzeppelin-contracts/contracts/token/ERC721/ERC721.sol\":15694:15785  if (operator == address(0)) {... */\n    tag_341:\n        /* \"lib/openzeppelin-contracts/contracts/token/ERC721/ERC721.sol\":15832:15840  approved */\n      dup1\n        /* \"lib/openzeppelin-contracts/contracts/token/ERC721/ERC721.sol\":15794:15812  _operatorApprovals */\n      0x05\n        /* \"lib/openzeppelin-contracts/contracts/token/ERC721/ERC721.sol\":15794:15819  _operatorApprovals[owner] */\n      0x00\n        /* \"lib/openzeppelin-contracts/contracts/token/ERC721/ERC721.sol\":15813:15818  owner */\n      dup6\n        /* \"lib/openzeppelin-contracts/contracts/token/ERC721/ERC721.sol\":15794:15819  _operatorApprovals[owner] */\n      0xffffffffffffffffffffffffffffffffffffffff\n      and\n      0xffffffffffffffffffffffffffffffffffffffff\n      and\n      dup2\n      mstore\n      0x20\n      add\n      swap1\n      dup2\n      mstore\n      0x20\n      add\n      0x00\n      keccak256\n        /* \"lib/openzeppelin-contracts/contracts/token/ERC721/ERC721.sol\":15794:15829  _operatorApprovals[owner][operator] */\n      0x00\n        /* \"lib/openzeppelin-contracts/contracts/token/ERC721/ERC721.sol\":15820:15828  operator */\n      dup5\n        /* \"lib/openzeppelin-contracts/contracts/token/ERC721/ERC721.sol\":15794:15829  _operatorApprovals[owner][operator] */\n      0xffffffffffffffffffffffffffffffffffffffff\n      and\n      0xffffffffffffffffffffffffffffffffffffffff\n      and\n      dup2\n      mstore\n      0x20\n      add\n      swap1\n      dup2\n      mstore\n      0x20\n      add\n      0x00\n      keccak256\n      0x00\n        /* \"lib/openzeppelin-contracts/contracts/token/ERC721/ERC721.sol\":15794:15840  _operatorApprovals[owner][operator] = approved */\n      0x0100\n      exp\n      dup2\n      sload\n      dup2\n      0xff\n      mul\n      not\n      and\n      swap1\n      dup4\n      iszero\n      iszero\n      mul\n      or\n      swap1\n      sstore\n      pop\n        /* \"lib/openzeppelin-contracts/contracts/token/ERC721/ERC721.sol\":15877:15885  operator */\n      dup2\n        /* \"lib/openzeppelin-contracts/contracts/token/ERC721/ERC721.sol\":15855:15896  ApprovalForAll(owner, operator, approved) */\n      0xffffffffffffffffffffffffffffffffffffffff\n      and\n        /* \"lib/openzeppelin-contracts/contracts/token/ERC721/ERC721.sol\":15870:15875  owner */\n      dup4\n        /* \"lib/openzeppelin-contracts/contracts/token/ERC721/ERC721.sol\":15855:15896  ApprovalForAll(owner, operator, approved) */\n      0xffffffffffffffffffffffffffffffffffffffff\n      and\n      0x17307eab39ab6107e8899845ad3d59bd9653f200f220920489ca2b5937696c31\n        /* \"lib/openzeppelin-contracts/contracts/token/ERC721/ERC721.sol\":15887:15895  approved */\n      dup4\n        /* \"lib/openzeppelin-contracts/contracts/token/ERC721/ERC721.sol\":15855:15896  ApprovalForAll(owner, operator, approved) */\n      mload(0x40)\n      tag_343\n      swap2\n      swap1\n      tag_45\n      jump\t// in\n    tag_343:\n      mload(0x40)\n      dup1\n      swap2\n      sub\n      swap1\n      log3\n        /* \"lib/openzeppelin-contracts/contracts/token/ERC721/ERC721.sol\":15591:15903  function _setApprovalForAll(address owner, address operator, bool approved) internal virtual {... */\n      pop\n      pop\n      pop\n      jump\t// out\n        /* \"lib/openzeppelin-contracts/contracts/token/ERC721/ERC721.sol\":16918:17700  function _checkOnERC721Received(address from, address to, uint256 tokenId, bytes memory data) private {... */\n    tag_282:\n        /* \"lib/openzeppelin-contracts/contracts/token/ERC721/ERC721.sol\":17051:17052  0 */\n      0x00\n        /* \"lib/openzeppelin-contracts/contracts/token/ERC721/ERC721.sol\":17034:17036  to */\n      dup4\n        /* \"lib/openzeppelin-contracts/contracts/token/ERC721/ERC721.sol\":17034:17048  to.code.length */\n      0xffffffffffffffffffffffffffffffffffffffff\n      and\n      extcodesize\n        /* \"lib/openzeppelin-contracts/contracts/token/ERC721/ERC721.sol\":17034:17052  to.code.length > 0 */\n      gt\n        /* \"lib/openzeppelin-contracts/contracts/token/ERC721/ERC721.sol\":17030:17694  if (to.code.length > 0) {... */\n      iszero\n      tag_345\n      jumpi\n        /* \"lib/openzeppelin-contracts/contracts/token/ERC721/ERC721.sol\":17088:17090  to */\n      dup3\n        /* \"lib/openzeppelin-contracts/contracts/token/ERC721/ERC721.sol\":17072:17108  IERC721Receiver(to).onERC721Received */\n      0xffffffffffffffffffffffffffffffffffffffff\n      and\n      0x150b7a02\n        /* \"lib/openzeppelin-contracts/contracts/token/ERC721/ERC721.sol\":17109:17121  _msgSender() */\n      tag_346\n        /* \"lib/openzeppelin-contracts/contracts/token/ERC721/ERC721.sol\":17109:17119  _msgSender */\n      tag_192\n        /* \"lib/openzeppelin-contracts/contracts/token/ERC721/ERC721.sol\":17109:17121  _msgSender() */\n      jump\t// in\n    tag_346:\n        /* \"lib/openzeppelin-contracts/contracts/token/ERC721/ERC721.sol\":17123:17127  from */\n      dup7\n        /* \"lib/openzeppelin-contracts/contracts/token/ERC721/ERC721.sol\":17129:17136  tokenId */\n      dup6\n        /* \"lib/openzeppelin-contracts/contracts/token/ERC721/ERC721.sol\":17138:17142  data */\n      dup6\n        /* \"lib/openzeppelin-contracts/contracts/token/ERC721/ERC721.sol\":17072:17143  IERC721Receiver(to).onERC721Received(_msgSender(), from, tokenId, data) */\n      mload(0x40)\n      dup6\n      0xffffffff\n      and\n      0xe0\n      shl\n      dup2\n      mstore\n      0x04\n      add\n      tag_347\n      swap5\n      swap4\n      swap3\n      swap2\n      swap1\n      tag_348\n      jump\t// in\n    tag_347:\n      0x20\n      mload(0x40)\n      dup1\n      dup4\n      sub\n      dup2\n      0x00\n      dup8\n      gas\n      call\n      swap3\n      pop\n      pop\n      pop\n      dup1\n      iszero\n      tag_349\n      jumpi\n      pop\n      mload(0x40)\n      returndatasize\n      not(0x1f)\n      0x1f\n      dup3\n      add\n      and\n      dup3\n      add\n      dup1\n      0x40\n      mstore\n      pop\n      dup2\n      add\n      swap1\n      tag_350\n      swap2\n      swap1\n      tag_351\n      jump\t// in\n    tag_350:\n      0x01\n    tag_349:\n        /* \"lib/openzeppelin-contracts/contracts/token/ERC721/ERC721.sol\":17068:17684  try IERC721Receiver(to).onERC721Received(_msgSender(), from, tokenId, data) returns (bytes4 retval) {... */\n      tag_352\n      jumpi\n      returndatasize\n      dup1\n      0x00\n      dup2\n      eq\n      tag_357\n      jumpi\n      mload(0x40)\n      swap2\n      pop\n      and(add(returndatasize, 0x3f), not(0x1f))\n      dup3\n      add\n      0x40\n      mstore\n      returndatasize\n      dup3\n      mstore\n      returndatasize\n      0x00\n      0x20\n      dup5\n      add\n      returndatacopy\n      jump(tag_356)\n    tag_357:\n      0x60\n      swap2\n      pop\n    tag_356:\n      pop\n        /* \"lib/openzeppelin-contracts/contracts/token/ERC721/ERC721.sol\":17398:17399  0 */\n      0x00\n        /* \"lib/openzeppelin-contracts/contracts/token/ERC721/ERC721.sol\":17381:17387  reason */\n      dup2\n        /* \"lib/openzeppelin-contracts/contracts/token/ERC721/ERC721.sol\":17381:17394  reason.length */\n      mload\n        /* \"lib/openzeppelin-contracts/contracts/token/ERC721/ERC721.sol\":17381:17399  reason.length == 0 */\n      sub\n        /* \"lib/openzeppelin-contracts/contracts/token/ERC721/ERC721.sol\":17377:17670  if (reason.length == 0) {... */\n      tag_358\n      jumpi\n        /* \"lib/openzeppelin-contracts/contracts/token/ERC721/ERC721.sol\":17452:17454  to */\n      dup4\n        /* \"lib/openzeppelin-contracts/contracts/token/ERC721/ERC721.sol\":17430:17455  ERC721InvalidReceiver(to) */\n      mload(0x40)\n      0x64a0ae9200000000000000000000000000000000000000000000000000000000\n      dup2\n      mstore\n      0x04\n      add\n      tag_359\n      swap2\n      swap1\n      tag_57\n      jump\t// in\n    tag_359:\n      mload(0x40)\n      dup1\n      swap2\n      sub\n      swap1\n      revert\n        /* \"lib/openzeppelin-contracts/contracts/token/ERC721/ERC721.sol\":17377:17670  if (reason.length == 0) {... */\n    tag_358:\n        /* \"lib/openzeppelin-contracts/contracts/token/ERC721/ERC721.sol\":17622:17628  reason */\n      dup1\n        /* \"lib/openzeppelin-contracts/contracts/token/ERC721/ERC721.sol\":17616:17629  mload(reason) */\n      mload\n        /* \"lib/openzeppelin-contracts/contracts/token/ERC721/ERC721.sol\":17607:17613  reason */\n      dup2\n        /* \"lib/openzeppelin-contracts/contracts/token/ERC721/ERC721.sol\":17603:17605  32 */\n      0x20\n        /* \"lib/openzeppelin-contracts/contracts/token/ERC721/ERC721.sol\":17599:17614  add(32, reason) */\n      add\n        /* \"lib/openzeppelin-contracts/contracts/token/ERC721/ERC721.sol\":17592:17630  revert(add(32, reason), mload(reason)) */\n      revert\n        /* \"lib/openzeppelin-contracts/contracts/token/ERC721/ERC721.sol\":17068:17684  try IERC721Receiver(to).onERC721Received(_msgSender(), from, tokenId, data) returns (bytes4 retval) {... */\n    tag_352:\n        /* \"lib/openzeppelin-contracts/contracts/token/ERC721/ERC721.sol\":17200:17241  IERC721Receiver.onERC721Received.selector */\n      shl(0xe0, 0x150b7a02)\n        /* \"lib/openzeppelin-contracts/contracts/token/ERC721/ERC721.sol\":17190:17241  retval != IERC721Receiver.onERC721Received.selector */\n      not(0xffffffffffffffffffffffffffffffffffffffffffffffffffffffff)\n      and\n        /* \"lib/openzeppelin-contracts/contracts/token/ERC721/ERC721.sol\":17190:17196  retval */\n      dup2\n        /* \"lib/openzeppelin-contracts/contracts/token/ERC721/ERC721.sol\":17190:17241  retval != IERC721Receiver.onERC721Received.selector */\n      not(0xffffffffffffffffffffffffffffffffffffffffffffffffffffffff)\n      and\n      eq\n        /* \"lib/openzeppelin-contracts/contracts/token/ERC721/ERC721.sol\":17186:17316  if (retval != IERC721Receiver.onERC721Received.selector) {... */\n      tag_362\n      jumpi\n        /* \"lib/openzeppelin-contracts/contracts/token/ERC721/ERC721.sol\":17294:17296  to */\n      dup4\n        /* \"lib/openzeppelin-contracts/contracts/token/ERC721/ERC721.sol\":17272:17297  ERC721InvalidReceiver(to) */\n      mload(0x40)\n      0x64a0ae9200000000000000000000000000000000000000000000000000000000\n      dup2\n      mstore\n      0x04\n      add\n      tag_363\n      swap2\n      swap1\n      tag_57\n      jump\t// in\n    tag_363:\n      mload(0x40)\n      dup1\n      swap2\n      sub\n      swap1\n      revert\n        /* \"lib/openzeppelin-contracts/contracts/token/ERC721/ERC721.sol\":17186:17316  if (retval != IERC721Receiver.onERC721Received.selector) {... */\n    tag_362:\n        /* \"lib/openzeppelin-contracts/contracts/token/ERC721/ERC721.sol\":17144:17330  returns (bytes4 retval) {... */\n      pop\n        /* \"lib/openzeppelin-contracts/contracts/token/ERC721/ERC721.sol\":17030:17694  if (to.code.length > 0) {... */\n    tag_345:\n        /* \"lib/openzeppelin-contracts/contracts/token/ERC721/ERC721.sol\":16918:17700  function _checkOnERC721Received(address from, address to, uint256 tokenId, bytes memory data) private {... */\n      pop\n      pop\n      pop\n      pop\n      jump\t// out\n        /* \"src/GenesisBoomerNFT.sol\":3145:3245  function _baseURI() internal pure override returns (string memory) {... */\n    tag_292:\n        /* \"src/GenesisBoomerNFT.sol\":3197:3210  string memory */\n      0x60\n        /* \"src/GenesisBoomerNFT.sol\":3229:3238  TOKEN_URI */\n      mload(0x40)\n      dup1\n      0x60\n      add\n      0x40\n      mstore\n      dup1\n      0x35\n      dup2\n      mstore\n      0x20\n      add\n      data_551ea6234a6fde87733602af99d017339fb8e5f47e1e7b73196d3204b49c32c2\n      0x35\n      swap2\n      codecopy\n        /* \"src/GenesisBoomerNFT.sol\":3222:3238  return TOKEN_URI */\n      swap1\n      pop\n        /* \"src/GenesisBoomerNFT.sol\":3145:3245  function _baseURI() internal pure override returns (string memory) {... */\n      swap1\n      jump\t// out\n        /* \"lib/openzeppelin-contracts/contracts/token/ERC721/ERC721.sol\":5707:5822  function _ownerOf(uint256 tokenId) internal view virtual returns (address) {... */\n    tag_311:\n        /* \"lib/openzeppelin-contracts/contracts/token/ERC721/ERC721.sol\":5773:5780  address */\n      0x00\n        /* \"lib/openzeppelin-contracts/contracts/token/ERC721/ERC721.sol\":5799:5806  _owners */\n      0x02\n        /* \"lib/openzeppelin-contracts/contracts/token/ERC721/ERC721.sol\":5799:5815  _owners[tokenId] */\n      0x00\n        /* \"lib/openzeppelin-contracts/contracts/token/ERC721/ERC721.sol\":5807:5814  tokenId */\n      dup4\n        /* \"lib/openzeppelin-contracts/contracts/token/ERC721/ERC721.sol\":5799:5815  _owners[tokenId] */\n      dup2\n      mstore\n      0x20\n      add\n      swap1\n      dup2\n      mstore\n      0x20\n      add\n      0x00\n      keccak256\n      0x00\n      swap1\n      sload\n      swap1\n      0x0100\n      exp\n      swap1\n      div\n      0xffffffffffffffffffffffffffffffffffffffff\n      and\n        /* \"lib/openzeppelin-contracts/contracts/token/ERC721/ERC721.sol\":5792:5815  return _owners[tokenId] */\n      swap1\n      pop\n        /* \"lib/openzeppelin-contracts/contracts/token/ERC721/ERC721.sol\":5707:5822  function _ownerOf(uint256 tokenId) internal view virtual returns (address) {... */\n      swap2\n      swap1\n      pop\n      jump\t// out\n        /* \"lib/openzeppelin-contracts/contracts/token/ERC721/ERC721.sol\":14720:15382  function _approve(address to, uint256 tokenId, address auth, bool emitEvent) internal virtual {... */\n    tag_318:\n        /* \"lib/openzeppelin-contracts/contracts/token/ERC721/ERC721.sol\":14880:14889  emitEvent */\n      dup1\n        /* \"lib/openzeppelin-contracts/contracts/token/ERC721/ERC721.sol\":14880:14911  emitEvent || auth != address(0) */\n      dup1\n      tag_367\n      jumpi\n      pop\n        /* \"lib/openzeppelin-contracts/contracts/token/ERC721/ERC721.sol\":14909:14910  0 */\n      0x00\n        /* \"lib/openzeppelin-contracts/contracts/token/ERC721/ERC721.sol\":14893:14911  auth != address(0) */\n      0xffffffffffffffffffffffffffffffffffffffff\n      and\n        /* \"lib/openzeppelin-contracts/contracts/token/ERC721/ERC721.sol\":14893:14897  auth */\n      dup3\n        /* \"lib/openzeppelin-contracts/contracts/token/ERC721/ERC721.sol\":14893:14911  auth != address(0) */\n      0xffffffffffffffffffffffffffffffffffffffff\n      and\n      eq\n      iszero\n        /* \"lib/openzeppelin-contracts/contracts/token/ERC721/ERC721.sol\":14880:14911  emitEvent || auth != address(0) */\n    tag_367:\n        /* \"lib/openzeppelin-contracts/contracts/token/ERC721/ERC721.sol\":14876:15336  if (emitEvent || auth != address(0)) {... */\n      iszero\n      tag_368\n      jumpi\n        /* \"lib/openzeppelin-contracts/contracts/token/ERC721/ERC721.sol\":14927:14940  address owner */\n      0x00\n        /* \"lib/openzeppelin-contracts/contracts/token/ERC721/ERC721.sol\":14943:14965  _requireOwned(tokenId) */\n      tag_369\n        /* \"lib/openzeppelin-contracts/contracts/token/ERC721/ERC721.sol\":14957:14964  tokenId */\n      dup5\n        /* \"lib/openzeppelin-contracts/contracts/token/ERC721/ERC721.sol\":14943:14956  _requireOwned */\n      tag_186\n        /* \"lib/openzeppelin-contracts/contracts/token/ERC721/ERC721.sol\":14943:14965  _requireOwned(tokenId) */\n      jump\t// in\n    tag_369:\n        /* \"lib/openzeppelin-contracts/contracts/token/ERC721/ERC721.sol\":14927:14965  address owner = _requireOwned(tokenId) */\n      swap1\n      pop\n        /* \"lib/openzeppelin-contracts/contracts/token/ERC721/ERC721.sol\":15109:15110  0 */\n      0x00\n        /* \"lib/openzeppelin-contracts/contracts/token/ERC721/ERC721.sol\":15093:15111  auth != address(0) */\n      0xffffffffffffffffffffffffffffffffffffffff\n      and\n        /* \"lib/openzeppelin-contracts/contracts/token/ERC721/ERC721.sol\":15093:15097  auth */\n      dup4\n        /* \"lib/openzeppelin-contracts/contracts/token/ERC721/ERC721.sol\":15093:15111  auth != address(0) */\n      0xffffffffffffffffffffffffffffffffffffffff\n      and\n      eq\n      iszero\n        /* \"lib/openzeppelin-contracts/contracts/token/ERC721/ERC721.sol\":15093:15128  auth != address(0) && owner != auth */\n      dup1\n      iszero\n      tag_370\n      jumpi\n      pop\n        /* \"lib/openzeppelin-contracts/contracts/token/ERC721/ERC721.sol\":15124:15128  auth */\n      dup3\n        /* \"lib/openzeppelin-contracts/contracts/token/ERC721/ERC721.sol\":15115:15128  owner != auth */\n      0xffffffffffffffffffffffffffffffffffffffff\n      and\n        /* \"lib/openzeppelin-contracts/contracts/token/ERC721/ERC721.sol\":15115:15120  owner */\n      dup2\n        /* \"lib/openzeppelin-contracts/contracts/token/ERC721/ERC721.sol\":15115:15128  owner != auth */\n      0xffffffffffffffffffffffffffffffffffffffff\n      and\n      eq\n      iszero\n        /* \"lib/openzeppelin-contracts/contracts/token/ERC721/ERC721.sol\":15093:15128  auth != address(0) && owner != auth */\n    tag_370:\n        /* \"lib/openzeppelin-contracts/contracts/token/ERC721/ERC721.sol\":15093:15162  auth != address(0) && owner != auth && !isApprovedForAll(owner, auth) */\n      dup1\n      iszero\n      tag_371\n      jumpi\n      pop\n        /* \"lib/openzeppelin-contracts/contracts/token/ERC721/ERC721.sol\":15133:15162  isApprovedForAll(owner, auth) */\n      tag_372\n        /* \"lib/openzeppelin-contracts/contracts/token/ERC721/ERC721.sol\":15150:15155  owner */\n      dup2\n        /* \"lib/openzeppelin-contracts/contracts/token/ERC721/ERC721.sol\":15157:15161  auth */\n      dup5\n        /* \"lib/openzeppelin-contracts/contracts/token/ERC721/ERC721.sol\":15133:15149  isApprovedForAll */\n      tag_158\n        /* \"lib/openzeppelin-contracts/contracts/token/ERC721/ERC721.sol\":15133:15162  isApprovedForAll(owner, auth) */\n      jump\t// in\n    tag_372:\n        /* \"lib/openzeppelin-contracts/contracts/token/ERC721/ERC721.sol\":15132:15162  !isApprovedForAll(owner, auth) */\n      iszero\n        /* \"lib/openzeppelin-contracts/contracts/token/ERC721/ERC721.sol\":15093:15162  auth != address(0) && owner != auth && !isApprovedForAll(owner, auth) */\n    tag_371:\n        /* \"lib/openzeppelin-contracts/contracts/token/ERC721/ERC721.sol\":15089:15231  if (auth != address(0) && owner != auth && !isApprovedForAll(owner, auth)) {... */\n      iszero\n      tag_373\n      jumpi\n        /* \"lib/openzeppelin-contracts/contracts/token/ERC721/ERC721.sol\":15211:15215  auth */\n      dup3\n        /* \"lib/openzeppelin-contracts/contracts/token/ERC721/ERC721.sol\":15189:15216  ERC721InvalidApprover(auth) */\n      mload(0x40)\n      0xa9fbf51f00000000000000000000000000000000000000000000000000000000\n      dup2\n      mstore\n      0x04\n      add\n      tag_374\n      swap2\n      swap1\n      tag_57\n      jump\t// in\n    tag_374:\n      mload(0x40)\n      dup1\n      swap2\n      sub\n      swap1\n      revert\n        /* \"lib/openzeppelin-contracts/contracts/token/ERC721/ERC721.sol\":15089:15231  if (auth != address(0) && owner != auth && !isApprovedForAll(owner, auth)) {... */\n    tag_373:\n        /* \"lib/openzeppelin-contracts/contracts/token/ERC721/ERC721.sol\":15249:15258  emitEvent */\n      dup2\n        /* \"lib/openzeppelin-contracts/contracts/token/ERC721/ERC721.sol\":15245:15326  if (emitEvent) {... */\n      iszero\n      tag_375\n      jumpi\n        /* \"lib/openzeppelin-contracts/contracts/token/ERC721/ERC721.sol\":15303:15310  tokenId */\n      dup4\n        /* \"lib/openzeppelin-contracts/contracts/token/ERC721/ERC721.sol\":15299:15301  to */\n      dup6\n        /* \"lib/openzeppelin-contracts/contracts/token/ERC721/ERC721.sol\":15283:15311  Approval(owner, to, tokenId) */\n      0xffffffffffffffffffffffffffffffffffffffff\n      and\n        /* \"lib/openzeppelin-contracts/contracts/token/ERC721/ERC721.sol\":15292:15297  owner */\n      dup3\n        /* \"lib/openzeppelin-contracts/contracts/token/ERC721/ERC721.sol\":15283:15311  Approval(owner, to, tokenId) */\n      0xffffffffffffffffffffffffffffffffffffffff\n      and\n      0x8c5be1e5ebec7d5bd14f71427d1e84f3dd0314c0f7b2291e5b200ac8c7c3b925\n      mload(0x40)\n      mload(0x40)\n      dup1\n      swap2\n      sub\n      swap1\n      log4\n        /* \"lib/openzeppelin-contracts/contracts/token/ERC721/ERC721.sol\":15245:15326  if (emitEvent) {... */\n    tag_375:\n        /* \"lib/openzeppelin-contracts/contracts/token/ERC721/ERC721.sol\":14913:15336  {... */\n      pop\n        /* \"lib/openzeppelin-contracts/contracts/token/ERC721/ERC721.sol\":14876:15336  if (emitEvent || auth != address(0)) {... */\n    tag_368:\n        /* \"lib/openzeppelin-contracts/contracts/token/ERC721/ERC721.sol\":15373:15375  to */\n      dup4\n        /* \"lib/openzeppelin-contracts/contracts/token/ERC721/ERC721.sol\":15346:15361  _tokenApprovals */\n      0x04\n        /* \"lib/openzeppelin-contracts/contracts/token/ERC721/ERC721.sol\":15346:15370  _tokenApprovals[tokenId] */\n      0x00\n        /* \"lib/openzeppelin-contracts/contracts/token/ERC721/ERC721.sol\":15362:15369  tokenId */\n      dup6\n        /* \"lib/openzeppelin-contracts/contracts/token/ERC721/ERC721.sol\":15346:15370  _tokenApprovals[tokenId] */\n      dup2\n      mstore\n      0x20\n      add\n      swap1\n      dup2\n      mstore\n      0x20\n      add\n      0x00\n      keccak256\n      0x00\n        /* \"lib/openzeppelin-contracts/contracts/token/ERC721/ERC721.sol\":15346:15375  _tokenApprovals[tokenId] = to */\n      0x0100\n      exp\n      dup2\n      sload\n      dup2\n      0xffffffffffffffffffffffffffffffffffffffff\n      mul\n      not\n      and\n      swap1\n      dup4\n      0xffffffffffffffffffffffffffffffffffffffff\n      and\n      mul\n      or\n      swap1\n      sstore\n      pop\n        /* \"lib/openzeppelin-contracts/contracts/token/ERC721/ERC721.sol\":14720:15382  function _approve(address to, uint256 tokenId, address auth, bool emitEvent) internal virtual {... */\n      pop\n      pop\n      pop\n      pop\n      jump\t// out\n        /* \"lib/openzeppelin-contracts/contracts/token/ERC721/ERC721.sol\":10954:11136  function _safeMint(address to, uint256 tokenId, bytes memory data) internal virtual {... */\n    tag_323:\n        /* \"lib/openzeppelin-contracts/contracts/token/ERC721/ERC721.sol\":11048:11066  _mint(to, tokenId) */\n      tag_377\n        /* \"lib/openzeppelin-contracts/contracts/token/ERC721/ERC721.sol\":11054:11056  to */\n      dup4\n        /* \"lib/openzeppelin-contracts/contracts/token/ERC721/ERC721.sol\":11058:11065  tokenId */\n      dup4\n        /* \"lib/openzeppelin-contracts/contracts/token/ERC721/ERC721.sol\":11048:11053  _mint */\n      tag_378\n        /* \"lib/openzeppelin-contracts/contracts/token/ERC721/ERC721.sol\":11048:11066  _mint(to, tokenId) */\n      jump\t// in\n    tag_377:\n        /* \"lib/openzeppelin-contracts/contracts/token/ERC721/ERC721.sol\":11076:11129  _checkOnERC721Received(address(0), to, tokenId, data) */\n      tag_379\n        /* \"lib/openzeppelin-contracts/contracts/token/ERC721/ERC721.sol\":11107:11108  0 */\n      0x00\n        /* \"lib/openzeppelin-contracts/contracts/token/ERC721/ERC721.sol\":11111:11113  to */\n      dup5\n        /* \"lib/openzeppelin-contracts/contracts/token/ERC721/ERC721.sol\":11115:11122  tokenId */\n      dup5\n        /* \"lib/openzeppelin-contracts/contracts/token/ERC721/ERC721.sol\":11124:11128  data */\n      dup5\n        /* \"lib/openzeppelin-contracts/contracts/token/ERC721/ERC721.sol\":11076:11098  _checkOnERC721Received */\n      tag_282\n        /* \"lib/openzeppelin-contracts/contracts/token/ERC721/ERC721.sol\":11076:11129  _checkOnERC721Received(address(0), to, tokenId, data) */\n      jump\t// in\n    tag_379:\n        /* \"lib/openzeppelin-contracts/contracts/token/ERC721/ERC721.sol\":10954:11136  function _safeMint(address to, uint256 tokenId, bytes memory data) internal virtual {... */\n      pop\n      pop\n      pop\n      jump\t// out\n        /* \"lib/openzeppelin-contracts/contracts/token/ERC721/ERC721.sol\":7082:7450  function _checkAuthorized(address owner, address spender, uint256 tokenId) internal view virtual {... */\n    tag_329:\n        /* \"lib/openzeppelin-contracts/contracts/token/ERC721/ERC721.sol\":7194:7232  _isAuthorized(owner, spender, tokenId) */\n      tag_381\n        /* \"lib/openzeppelin-contracts/contracts/token/ERC721/ERC721.sol\":7208:7213  owner */\n      dup4\n        /* \"lib/openzeppelin-contracts/contracts/token/ERC721/ERC721.sol\":7215:7222  spender */\n      dup4\n        /* \"lib/openzeppelin-contracts/contracts/token/ERC721/ERC721.sol\":7224:7231  tokenId */\n      dup4\n        /* \"lib/openzeppelin-contracts/contracts/token/ERC721/ERC721.sol\":7194:7207  _isAuthorized */\n      tag_382\n        /* \"lib/openzeppelin-contracts/contracts/token/ERC721/ERC721.sol\":7194:7232  _isAuthorized(owner, spender, tokenId) */\n      jump\t// in\n    tag_381:\n        /* \"lib/openzeppelin-contracts/contracts/token/ERC721/ERC721.sol\":7189:7444  if (!_isAuthorized(owner, spender, tokenId)) {... */\n      tag_383\n      jumpi\n        /* \"lib/openzeppelin-contracts/contracts/token/ERC721/ERC721.sol\":7269:7270  0 */\n      0x00\n        /* \"lib/openzeppelin-contracts/contracts/token/ERC721/ERC721.sol\":7252:7271  owner == address(0) */\n      0xffffffffffffffffffffffffffffffffffffffff\n      and\n        /* \"lib/openzeppelin-contracts/contracts/token/ERC721/ERC721.sol\":7252:7257  owner */\n      dup4\n        /* \"lib/openzeppelin-contracts/contracts/token/ERC721/ERC721.sol\":7252:7271  owner == address(0) */\n      0xffffffffffffffffffffffffffffffffffffffff\n      and\n      sub\n        /* \"lib/openzeppelin-contracts/contracts/token/ERC721/ERC721.sol\":7248:7434  if (owner == address(0)) {... */\n      tag_384\n      jumpi\n        /* \"lib/openzeppelin-contracts/contracts/token/ERC721/ERC721.sol\":7321:7328  tokenId */\n      dup1\n        /* \"lib/openzeppelin-contracts/contracts/token/ERC721/ERC721.sol\":7298:7329  ERC721NonexistentToken(tokenId) */\n      mload(0x40)\n      0x7e27328900000000000000000000000000000000000000000000000000000000\n      dup2\n      mstore\n      0x04\n      add\n      tag_385\n      swap2\n      swap1\n      tag_69\n      jump\t// in\n    tag_385:\n      mload(0x40)\n      dup1\n      swap2\n      sub\n      swap1\n      revert\n        /* \"lib/openzeppelin-contracts/contracts/token/ERC721/ERC721.sol\":7248:7434  if (owner == address(0)) {... */\n    tag_384:\n        /* \"lib/openzeppelin-contracts/contracts/token/ERC721/ERC721.sol\":7402:7409  spender */\n      dup2\n        /* \"lib/openzeppelin-contracts/contracts/token/ERC721/ERC721.sol\":7411:7418  tokenId */\n      dup2\n        /* \"lib/openzeppelin-contracts/contracts/token/ERC721/ERC721.sol\":7375:7419  ERC721InsufficientApproval(spender, tokenId) */\n      mload(0x40)\n      0x177e802f00000000000000000000000000000000000000000000000000000000\n      dup2\n      mstore\n      0x04\n      add\n      tag_387\n      swap3\n      swap2\n      swap1\n      tag_222\n      jump\t// in\n    tag_387:\n      mload(0x40)\n      dup1\n      swap2\n      sub\n      swap1\n      revert\n        /* \"lib/openzeppelin-contracts/contracts/token/ERC721/ERC721.sol\":7189:7444  if (!_isAuthorized(owner, spender, tokenId)) {... */\n    tag_383:\n        /* \"lib/openzeppelin-contracts/contracts/token/ERC721/ERC721.sol\":7082:7450  function _checkAuthorized(address owner, address spender, uint256 tokenId) internal view virtual {... */\n      pop\n      pop\n      pop\n      jump\t// out\n        /* \"lib/openzeppelin-contracts/contracts/token/ERC721/ERC721.sol\":9955:10282  function _mint(address to, uint256 tokenId) internal {... */\n    tag_378:\n        /* \"lib/openzeppelin-contracts/contracts/token/ERC721/ERC721.sol\":10036:10037  0 */\n      0x00\n        /* \"lib/openzeppelin-contracts/contracts/token/ERC721/ERC721.sol\":10022:10038  to == address(0) */\n      0xffffffffffffffffffffffffffffffffffffffff\n      and\n        /* \"lib/openzeppelin-contracts/contracts/token/ERC721/ERC721.sol\":10022:10024  to */\n      dup3\n        /* \"lib/openzeppelin-contracts/contracts/token/ERC721/ERC721.sol\":10022:10038  to == address(0) */\n      0xffffffffffffffffffffffffffffffffffffffff\n      and\n      sub\n        /* \"lib/openzeppelin-contracts/contracts/token/ERC721/ERC721.sol\":10018:10105  if (to == address(0)) {... */\n      tag_389\n      jumpi\n        /* \"lib/openzeppelin-contracts/contracts/token/ERC721/ERC721.sol\":10091:10092  0 */\n      0x00\n        /* \"lib/openzeppelin-contracts/contracts/token/ERC721/ERC721.sol\":10061:10094  ERC721InvalidReceiver(address(0)) */\n      mload(0x40)\n      0x64a0ae9200000000000000000000000000000000000000000000000000000000\n      dup2\n      mstore\n      0x04\n      add\n      tag_390\n      swap2\n      swap1\n      tag_57\n      jump\t// in\n    tag_390:\n      mload(0x40)\n      dup1\n      swap2\n      sub\n      swap1\n      revert\n        /* \"lib/openzeppelin-contracts/contracts/token/ERC721/ERC721.sol\":10018:10105  if (to == address(0)) {... */\n    tag_389:\n        /* \"lib/openzeppelin-contracts/contracts/token/ERC721/ERC721.sol\":10114:10135  address previousOwner */\n      0x00\n        /* \"lib/openzeppelin-contracts/contracts/token/ERC721/ERC721.sol\":10138:10170  _update(to, tokenId, address(0)) */\n      tag_391\n        /* \"lib/openzeppelin-contracts/contracts/token/ERC721/ERC721.sol\":10146:10148  to */\n      dup4\n        /* \"lib/openzeppelin-contracts/contracts/token/ERC721/ERC721.sol\":10150:10157  tokenId */\n      dup4\n        /* \"lib/openzeppelin-contracts/contracts/token/ERC721/ERC721.sol\":10167:10168  0 */\n      0x00\n        /* \"lib/openzeppelin-contracts/contracts/token/ERC721/ERC721.sol\":10138:10145  _update */\n      tag_230\n        /* \"lib/openzeppelin-contracts/contracts/token/ERC721/ERC721.sol\":10138:10170  _update(to, tokenId, address(0)) */\n      jump\t// in\n    tag_391:\n        /* \"lib/openzeppelin-contracts/contracts/token/ERC721/ERC721.sol\":10114:10170  address previousOwner = _update(to, tokenId, address(0)) */\n      swap1\n      pop\n        /* \"lib/openzeppelin-contracts/contracts/token/ERC721/ERC721.sol\":10209:10210  0 */\n      0x00\n        /* \"lib/openzeppelin-contracts/contracts/token/ERC721/ERC721.sol\":10184:10211  previousOwner != address(0) */\n      0xffffffffffffffffffffffffffffffffffffffff\n      and\n        /* \"lib/openzeppelin-contracts/contracts/token/ERC721/ERC721.sol\":10184:10197  previousOwner */\n      dup2\n        /* \"lib/openzeppelin-contracts/contracts/token/ERC721/ERC721.sol\":10184:10211  previousOwner != address(0) */\n      0xffffffffffffffffffffffffffffffffffffffff\n      and\n      eq\n        /* \"lib/openzeppelin-contracts/contracts/token/ERC721/ERC721.sol\":10180:10276  if (previousOwner != address(0)) {... */\n      tag_392\n      jumpi\n        /* \"lib/openzeppelin-contracts/contracts/token/ERC721/ERC721.sol\":10262:10263  0 */\n      0x00\n        /* \"lib/openzeppelin-contracts/contracts/token/ERC721/ERC721.sol\":10234:10265  ERC721InvalidSender(address(0)) */\n      mload(0x40)\n      0x73c6ac6e00000000000000000000000000000000000000000000000000000000\n      dup2\n      mstore\n      0x04\n      add\n      tag_393\n      swap2\n      swap1\n      tag_57\n      jump\t// in\n    tag_393:\n      mload(0x40)\n      dup1\n      swap2\n      sub\n      swap1\n      revert\n        /* \"lib/openzeppelin-contracts/contracts/token/ERC721/ERC721.sol\":10180:10276  if (previousOwner != address(0)) {... */\n    tag_392:\n        /* \"lib/openzeppelin-contracts/contracts/token/ERC721/ERC721.sol\":10008:10282  {... */\n      pop\n        /* \"lib/openzeppelin-contracts/contracts/token/ERC721/ERC721.sol\":9955:10282  function _mint(address to, uint256 tokenId) internal {... */\n      pop\n      pop\n      jump\t// out\n        /* \"lib/openzeppelin-contracts/contracts/token/ERC721/ERC721.sol\":6376:6648  function _isAuthorized(address owner, address spender, uint256 tokenId) internal view virtual returns (bool) {... */\n    tag_382:\n        /* \"lib/openzeppelin-contracts/contracts/token/ERC721/ERC721.sol\":6479:6483  bool */\n      0x00\n        /* \"lib/openzeppelin-contracts/contracts/token/ERC721/ERC721.sol\":6533:6534  0 */\n      dup1\n        /* \"lib/openzeppelin-contracts/contracts/token/ERC721/ERC721.sol\":6514:6535  spender != address(0) */\n      0xffffffffffffffffffffffffffffffffffffffff\n      and\n        /* \"lib/openzeppelin-contracts/contracts/token/ERC721/ERC721.sol\":6514:6521  spender */\n      dup4\n        /* \"lib/openzeppelin-contracts/contracts/token/ERC721/ERC721.sol\":6514:6535  spender != address(0) */\n      0xffffffffffffffffffffffffffffffffffffffff\n      and\n      eq\n      iszero\n        /* \"lib/openzeppelin-contracts/contracts/token/ERC721/ERC721.sol\":6514:6641  spender != address(0) &&... */\n      dup1\n      iszero\n      tag_395\n      jumpi\n      pop\n        /* \"lib/openzeppelin-contracts/contracts/token/ERC721/ERC721.sol\":6561:6568  spender */\n      dup3\n        /* \"lib/openzeppelin-contracts/contracts/token/ERC721/ERC721.sol\":6552:6568  owner == spender */\n      0xffffffffffffffffffffffffffffffffffffffff\n      and\n        /* \"lib/openzeppelin-contracts/contracts/token/ERC721/ERC721.sol\":6552:6557  owner */\n      dup5\n        /* \"lib/openzeppelin-contracts/contracts/token/ERC721/ERC721.sol\":6552:6568  owner == spender */\n      0xffffffffffffffffffffffffffffffffffffffff\n      and\n      eq\n        /* \"lib/openzeppelin-contracts/contracts/token/ERC721/ERC721.sol\":6552:6604  owner == spender || isApprovedForAll(owner, spender) */\n      dup1\n      tag_396\n      jumpi\n      pop\n        /* \"lib/openzeppelin-contracts/contracts/token/ERC721/ERC721.sol\":6572:6604  isApprovedForAll(owner, spender) */\n      tag_397\n        /* \"lib/openzeppelin-contracts/contracts/token/ERC721/ERC721.sol\":6589:6594  owner */\n      dup5\n        /* \"lib/openzeppelin-contracts/contracts/token/ERC721/ERC721.sol\":6596:6603  spender */\n      dup5\n        /* \"lib/openzeppelin-contracts/contracts/token/ERC721/ERC721.sol\":6572:6588  isApprovedForAll */\n      tag_158\n        /* \"lib/openzeppelin-contracts/contracts/token/ERC721/ERC721.sol\":6572:6604  isApprovedForAll(owner, spender) */\n      jump\t// in\n    tag_397:\n        /* \"lib/openzeppelin-contracts/contracts/token/ERC721/ERC721.sol\":6552:6604  owner == spender || isApprovedForAll(owner, spender) */\n    tag_396:\n        /* \"lib/openzeppelin-contracts/contracts/token/ERC721/ERC721.sol\":6552:6640  owner == spender || isApprovedForAll(owner, spender) || _getApproved(tokenId) == spender */\n      dup1\n      tag_398\n      jumpi\n      pop\n        /* \"lib/openzeppelin-contracts/contracts/token/ERC721/ERC721.sol\":6633:6640  spender */\n      dup3\n        /* \"lib/openzeppelin-contracts/contracts/token/ERC721/ERC721.sol\":6608:6640  _getApproved(tokenId) == spender */\n      0xffffffffffffffffffffffffffffffffffffffff\n      and\n        /* \"lib/openzeppelin-contracts/contracts/token/ERC721/ERC721.sol\":6608:6629  _getApproved(tokenId) */\n      tag_399\n        /* \"lib/openzeppelin-contracts/contracts/token/ERC721/ERC721.sol\":6621:6628  tokenId */\n      dup4\n        /* \"lib/openzeppelin-contracts/contracts/token/ERC721/ERC721.sol\":6608:6620  _getApproved */\n      tag_188\n        /* \"lib/openzeppelin-contracts/contracts/token/ERC721/ERC721.sol\":6608:6629  _getApproved(tokenId) */\n      jump\t// in\n    tag_399:\n        /* \"lib/openzeppelin-contracts/contracts/token/ERC721/ERC721.sol\":6608:6640  _getApproved(tokenId) == spender */\n      0xffffffffffffffffffffffffffffffffffffffff\n      and\n      eq\n        /* \"lib/openzeppelin-contracts/contracts/token/ERC721/ERC721.sol\":6552:6640  owner == spender || isApprovedForAll(owner, spender) || _getApproved(tokenId) == spender */\n    tag_398:\n        /* \"lib/openzeppelin-contracts/contracts/token/ERC721/ERC721.sol\":6514:6641  spender != address(0) &&... */\n    tag_395:\n        /* \"lib/openzeppelin-contracts/contracts/token/ERC721/ERC721.sol\":6495:6641  return... */\n      swap1\n      pop\n        /* \"lib/openzeppelin-contracts/contracts/token/ERC721/ERC721.sol\":6376:6648  function _isAuthorized(address owner, address spender, uint256 tokenId) internal view virtual returns (bool) {... */\n      swap4\n      swap3\n      pop\n      pop\n      pop\n      jump\t// out\n        /* \"#utility.yul\":7:82   */\n    tag_400:\n        /* \"#utility.yul\":40:46   */\n      0x00\n        /* \"#utility.yul\":73:75   */\n      0x40\n        /* \"#utility.yul\":67:76   */\n      mload\n        /* \"#utility.yul\":57:76   */\n      swap1\n      pop\n        /* \"#utility.yul\":7:82   */\n      swap1\n      jump\t// out\n        /* \"#utility.yul\":88:205   */\n    tag_401:\n        /* \"#utility.yul\":197:198   */\n      0x00\n        /* \"#utility.yul\":194:195   */\n      dup1\n        /* \"#utility.yul\":187:199   */\n      revert\n        /* \"#utility.yul\":211:328   */\n    tag_402:\n        /* \"#utility.yul\":320:321   */\n      0x00\n        /* \"#utility.yul\":317:318   */\n      dup1\n        /* \"#utility.yul\":310:322   */\n      revert\n        /* \"#utility.yul\":334:483   */\n    tag_403:\n        /* \"#utility.yul\":370:377   */\n      0x00\n        /* \"#utility.yul\":410:476   */\n      0xffffffff00000000000000000000000000000000000000000000000000000000\n        /* \"#utility.yul\":403:408   */\n      dup3\n        /* \"#utility.yul\":399:477   */\n      and\n        /* \"#utility.yul\":388:477   */\n      swap1\n      pop\n        /* \"#utility.yul\":334:483   */\n      swap2\n      swap1\n      pop\n      jump\t// out\n        /* \"#utility.yul\":489:609   */\n    tag_404:\n        /* \"#utility.yul\":561:584   */\n      tag_466\n        /* \"#utility.yul\":578:583   */\n      dup2\n        /* \"#utility.yul\":561:584   */\n      tag_403\n      jump\t// in\n    tag_466:\n        /* \"#utility.yul\":554:559   */\n      dup2\n        /* \"#utility.yul\":551:585   */\n      eq\n        /* \"#utility.yul\":541:603   */\n      tag_467\n      jumpi\n        /* \"#utility.yul\":599:600   */\n      0x00\n        /* \"#utility.yul\":596:597   */\n      dup1\n        /* \"#utility.yul\":589:601   */\n      revert\n        /* \"#utility.yul\":541:603   */\n    tag_467:\n        /* \"#utility.yul\":489:609   */\n      pop\n      jump\t// out\n        /* \"#utility.yul\":615:752   */\n    tag_405:\n        /* \"#utility.yul\":660:665   */\n      0x00\n        /* \"#utility.yul\":698:704   */\n      dup2\n        /* \"#utility.yul\":685:705   */\n      calldataload\n        /* \"#utility.yul\":676:705   */\n      swap1\n      pop\n        /* \"#utility.yul\":714:746   */\n      tag_469\n        /* \"#utility.yul\":740:745   */\n      dup2\n        /* \"#utility.yul\":714:746   */\n      tag_404\n      jump\t// in\n    tag_469:\n        /* \"#utility.yul\":615:752   */\n      swap3\n      swap2\n      pop\n      pop\n      jump\t// out\n        /* \"#utility.yul\":758:1085   */\n    tag_42:\n        /* \"#utility.yul\":816:822   */\n      0x00\n        /* \"#utility.yul\":865:867   */\n      0x20\n        /* \"#utility.yul\":853:862   */\n      dup3\n        /* \"#utility.yul\":844:851   */\n      dup5\n        /* \"#utility.yul\":840:863   */\n      sub\n        /* \"#utility.yul\":836:868   */\n      slt\n        /* \"#utility.yul\":833:952   */\n      iszero\n      tag_471\n      jumpi\n        /* \"#utility.yul\":871:950   */\n      tag_472\n      tag_401\n      jump\t// in\n    tag_472:\n        /* \"#utility.yul\":833:952   */\n    tag_471:\n        /* \"#utility.yul\":991:992   */\n      0x00\n        /* \"#utility.yul\":1016:1068   */\n      tag_473\n        /* \"#utility.yul\":1060:1067   */\n      dup5\n        /* \"#utility.yul\":1051:1057   */\n      dup3\n        /* \"#utility.yul\":1040:1049   */\n      dup6\n        /* \"#utility.yul\":1036:1058   */\n      add\n        /* \"#utility.yul\":1016:1068   */\n      tag_405\n      jump\t// in\n    tag_473:\n        /* \"#utility.yul\":1006:1068   */\n      swap2\n      pop\n        /* \"#utility.yul\":962:1078   */\n      pop\n        /* \"#utility.yul\":758:1085   */\n      swap3\n      swap2\n      pop\n      pop\n      jump\t// out\n        /* \"#utility.yul\":1091:1181   */\n    tag_406:\n        /* \"#utility.yul\":1125:1132   */\n      0x00\n        /* \"#utility.yul\":1168:1173   */\n      dup2\n        /* \"#utility.yul\":1161:1174   */\n      iszero\n        /* \"#utility.yul\":1154:1175   */\n      iszero\n        /* \"#utility.yul\":1143:1175   */\n      swap1\n      pop\n        /* \"#utility.yul\":1091:1181   */\n      swap2\n      swap1\n      pop\n      jump\t// out\n        /* \"#utility.yul\":1187:1296   */\n    tag_407:\n        /* \"#utility.yul\":1268:1289   */\n      tag_476\n        /* \"#utility.yul\":1283:1288   */\n      dup2\n        /* \"#utility.yul\":1268:1289   */\n      tag_406\n      jump\t// in\n    tag_476:\n        /* \"#utility.yul\":1263:1266   */\n      dup3\n        /* \"#utility.yul\":1256:1290   */\n      mstore\n        /* \"#utility.yul\":1187:1296   */\n      pop\n      pop\n      jump\t// out\n        /* \"#utility.yul\":1302:1512   */\n    tag_45:\n        /* \"#utility.yul\":1389:1393   */\n      0x00\n        /* \"#utility.yul\":1427:1429   */\n      0x20\n        /* \"#utility.yul\":1416:1425   */\n      dup3\n        /* \"#utility.yul\":1412:1430   */\n      add\n        /* \"#utility.yul\":1404:1430   */\n      swap1\n      pop\n        /* \"#utility.yul\":1440:1505   */\n      tag_478\n        /* \"#utility.yul\":1502:1503   */\n      0x00\n        /* \"#utility.yul\":1491:1500   */\n      dup4\n        /* \"#utility.yul\":1487:1504   */\n      add\n        /* \"#utility.yul\":1478:1484   */\n      dup5\n        /* \"#utility.yul\":1440:1505   */\n      tag_407\n      jump\t// in\n    tag_478:\n        /* \"#utility.yul\":1302:1512   */\n      swap3\n      swap2\n      pop\n      pop\n      jump\t// out\n        /* \"#utility.yul\":1518:1617   */\n    tag_408:\n        /* \"#utility.yul\":1570:1576   */\n      0x00\n        /* \"#utility.yul\":1604:1609   */\n      dup2\n        /* \"#utility.yul\":1598:1610   */\n      mload\n        /* \"#utility.yul\":1588:1610   */\n      swap1\n      pop\n        /* \"#utility.yul\":1518:1617   */\n      swap2\n      swap1\n      pop\n      jump\t// out\n        /* \"#utility.yul\":1623:1792   */\n    tag_409:\n        /* \"#utility.yul\":1707:1718   */\n      0x00\n        /* \"#utility.yul\":1741:1747   */\n      dup3\n        /* \"#utility.yul\":1736:1739   */\n      dup3\n        /* \"#utility.yul\":1729:1748   */\n      mstore\n        /* \"#utility.yul\":1781:1785   */\n      0x20\n        /* \"#utility.yul\":1776:1779   */\n      dup3\n        /* \"#utility.yul\":1772:1786   */\n      add\n        /* \"#utility.yul\":1757:1786   */\n      swap1\n      pop\n        /* \"#utility.yul\":1623:1792   */\n      swap3\n      swap2\n      pop\n      pop\n      jump\t// out\n        /* \"#utility.yul\":1798:2044   */\n    tag_410:\n        /* \"#utility.yul\":1879:1880   */\n      0x00\n        /* \"#utility.yul\":1889:2002   */\n    tag_482:\n        /* \"#utility.yul\":1903:1909   */\n      dup4\n        /* \"#utility.yul\":1900:1901   */\n      dup2\n        /* \"#utility.yul\":1897:1910   */\n      lt\n        /* \"#utility.yul\":1889:2002   */\n      iszero\n      tag_484\n      jumpi\n        /* \"#utility.yul\":1988:1989   */\n      dup1\n        /* \"#utility.yul\":1983:1986   */\n      dup3\n        /* \"#utility.yul\":1979:1990   */\n      add\n        /* \"#utility.yul\":1973:1991   */\n      mload\n        /* \"#utility.yul\":1969:1970   */\n      dup2\n        /* \"#utility.yul\":1964:1967   */\n      dup5\n        /* \"#utility.yul\":1960:1971   */\n      add\n        /* \"#utility.yul\":1953:1992   */\n      mstore\n        /* \"#utility.yul\":1925:1927   */\n      0x20\n        /* \"#utility.yul\":1922:1923   */\n      dup2\n        /* \"#utility.yul\":1918:1928   */\n      add\n        /* \"#utility.yul\":1913:1928   */\n      swap1\n      pop\n        /* \"#utility.yul\":1889:2002   */\n      jump(tag_482)\n    tag_484:\n        /* \"#utility.yul\":2036:2037   */\n      0x00\n        /* \"#utility.yul\":2027:2033   */\n      dup5\n        /* \"#utility.yul\":2022:2025   */\n      dup5\n        /* \"#utility.yul\":2018:2034   */\n      add\n        /* \"#utility.yul\":2011:2038   */\n      mstore\n        /* \"#utility.yul\":1860:2044   */\n      pop\n        /* \"#utility.yul\":1798:2044   */\n      pop\n      pop\n      pop\n      jump\t// out\n        /* \"#utility.yul\":2050:2152   */\n    tag_411:\n        /* \"#utility.yul\":2091:2097   */\n      0x00\n        /* \"#utility.yul\":2142:2144   */\n      0x1f\n        /* \"#utility.yul\":2138:2145   */\n      not\n        /* \"#utility.yul\":2133:2135   */\n      0x1f\n        /* \"#utility.yul\":2126:2131   */\n      dup4\n        /* \"#utility.yul\":2122:2136   */\n      add\n        /* \"#utility.yul\":2118:2146   */\n      and\n        /* \"#utility.yul\":2108:2146   */\n      swap1\n      pop\n        /* \"#utility.yul\":2050:2152   */\n      swap2\n      swap1\n      pop\n      jump\t// out\n        /* \"#utility.yul\":2158:2535   */\n    tag_412:\n        /* \"#utility.yul\":2246:2249   */\n      0x00\n        /* \"#utility.yul\":2274:2313   */\n      tag_487\n        /* \"#utility.yul\":2307:2312   */\n      dup3\n        /* \"#utility.yul\":2274:2313   */\n      tag_408\n      jump\t// in\n    tag_487:\n        /* \"#utility.yul\":2329:2400   */\n      tag_488\n        /* \"#utility.yul\":2393:2399   */\n      dup2\n        /* \"#utility.yul\":2388:2391   */\n      dup6\n        /* \"#utility.yul\":2329:2400   */\n      tag_409\n      jump\t// in\n    tag_488:\n        /* \"#utility.yul\":2322:2400   */\n      swap4\n      pop\n        /* \"#utility.yul\":2409:2474   */\n      tag_489\n        /* \"#utility.yul\":2467:2473   */\n      dup2\n        /* \"#utility.yul\":2462:2465   */\n      dup6\n        /* \"#utility.yul\":2455:2459   */\n      0x20\n        /* \"#utility.yul\":2448:2453   */\n      dup7\n        /* \"#utility.yul\":2444:2460   */\n      add\n        /* \"#utility.yul\":2409:2474   */\n      tag_410\n      jump\t// in\n    tag_489:\n        /* \"#utility.yul\":2499:2528   */\n      tag_490\n        /* \"#utility.yul\":2521:2527   */\n      dup2\n        /* \"#utility.yul\":2499:2528   */\n      tag_411\n      jump\t// in\n    tag_490:\n        /* \"#utility.yul\":2494:2497   */\n      dup5\n        /* \"#utility.yul\":2490:2529   */\n      add\n        /* \"#utility.yul\":2483:2529   */\n      swap2\n      pop\n        /* \"#utility.yul\":2250:2535   */\n      pop\n        /* \"#utility.yul\":2158:2535   */\n      swap3\n      swap2\n      pop\n      pop\n      jump\t// out\n        /* \"#utility.yul\":2541:2854   */\n    tag_50:\n        /* \"#utility.yul\":2654:2658   */\n      0x00\n        /* \"#utility.yul\":2692:2694   */\n      0x20\n        /* \"#utility.yul\":2681:2690   */\n      dup3\n        /* \"#utility.yul\":2677:2695   */\n      add\n        /* \"#utility.yul\":2669:2695   */\n      swap1\n      pop\n        /* \"#utility.yul\":2741:2750   */\n      dup2\n        /* \"#utility.yul\":2735:2739   */\n      dup2\n        /* \"#utility.yul\":2731:2751   */\n      sub\n        /* \"#utility.yul\":2727:2728   */\n      0x00\n        /* \"#utility.yul\":2716:2725   */\n      dup4\n        /* \"#utility.yul\":2712:2729   */\n      add\n        /* \"#utility.yul\":2705:2752   */\n      mstore\n        /* \"#utility.yul\":2769:2847   */\n      tag_492\n        /* \"#utility.yul\":2842:2846   */\n      dup2\n        /* \"#utility.yul\":2833:2839   */\n      dup5\n        /* \"#utility.yul\":2769:2847   */\n      tag_412\n      jump\t// in\n    tag_492:\n        /* \"#utility.yul\":2761:2847   */\n      swap1\n      pop\n        /* \"#utility.yul\":2541:2854   */\n      swap3\n      swap2\n      pop\n      pop\n      jump\t// out\n        /* \"#utility.yul\":2860:2937   */\n    tag_413:\n        /* \"#utility.yul\":2897:2904   */\n      0x00\n        /* \"#utility.yul\":2926:2931   */\n      dup2\n        /* \"#utility.yul\":2915:2931   */\n      swap1\n      pop\n        /* \"#utility.yul\":2860:2937   */\n      swap2\n      swap1\n      pop\n      jump\t// out\n        /* \"#utility.yul\":2943:3065   */\n    tag_414:\n        /* \"#utility.yul\":3016:3040   */\n      tag_495\n        /* \"#utility.yul\":3034:3039   */\n      dup2\n        /* \"#utility.yul\":3016:3040   */\n      tag_413\n      jump\t// in\n    tag_495:\n        /* \"#utility.yul\":3009:3014   */\n      dup2\n        /* \"#utility.yul\":3006:3041   */\n      eq\n        /* \"#utility.yul\":2996:3059   */\n      tag_496\n      jumpi\n        /* \"#utility.yul\":3055:3056   */\n      0x00\n        /* \"#utility.yul\":3052:3053   */\n      dup1\n        /* \"#utility.yul\":3045:3057   */\n      revert\n        /* \"#utility.yul\":2996:3059   */\n    tag_496:\n        /* \"#utility.yul\":2943:3065   */\n      pop\n      jump\t// out\n        /* \"#utility.yul\":3071:3210   */\n    tag_415:\n        /* \"#utility.yul\":3117:3122   */\n      0x00\n        /* \"#utility.yul\":3155:3161   */\n      dup2\n        /* \"#utility.yul\":3142:3162   */\n      calldataload\n        /* \"#utility.yul\":3133:3162   */\n      swap1\n      pop\n        /* \"#utility.yul\":3171:3204   */\n      tag_498\n        /* \"#utility.yul\":3198:3203   */\n      dup2\n        /* \"#utility.yul\":3171:3204   */\n      tag_414\n      jump\t// in\n    tag_498:\n        /* \"#utility.yul\":3071:3210   */\n      swap3\n      swap2\n      pop\n      pop\n      jump\t// out\n        /* \"#utility.yul\":3216:3545   */\n    tag_54:\n        /* \"#utility.yul\":3275:3281   */\n      0x00\n        /* \"#utility.yul\":3324:3326   */\n      0x20\n        /* \"#utility.yul\":3312:3321   */\n      dup3\n        /* \"#utility.yul\":3303:3310   */\n      dup5\n        /* \"#utility.yul\":3299:3322   */\n      sub\n        /* \"#utility.yul\":3295:3327   */\n      slt\n        /* \"#utility.yul\":3292:3411   */\n      iszero\n      tag_500\n      jumpi\n        /* \"#utility.yul\":3330:3409   */\n      tag_501\n      tag_401\n      jump\t// in\n    tag_501:\n        /* \"#utility.yul\":3292:3411   */\n    tag_500:\n        /* \"#utility.yul\":3450:3451   */\n      0x00\n        /* \"#utility.yul\":3475:3528   */\n      tag_502\n        /* \"#utility.yul\":3520:3527   */\n      dup5\n        /* \"#utility.yul\":3511:3517   */\n      dup3\n        /* \"#utility.yul\":3500:3509   */\n      dup6\n        /* \"#utility.yul\":3496:3518   */\n      add\n        /* \"#utility.yul\":3475:3528   */\n      tag_415\n      jump\t// in\n    tag_502:\n        /* \"#utility.yul\":3465:3528   */\n      swap2\n      pop\n        /* \"#utility.yul\":3421:3538   */\n      pop\n        /* \"#utility.yul\":3216:3545   */\n      swap3\n      swap2\n      pop\n      pop\n      jump\t// out\n        /* \"#utility.yul\":3551:3677   */\n    tag_416:\n        /* \"#utility.yul\":3588:3595   */\n      0x00\n        /* \"#utility.yul\":3628:3670   */\n      0xffffffffffffffffffffffffffffffffffffffff\n        /* \"#utility.yul\":3621:3626   */\n      dup3\n        /* \"#utility.yul\":3617:3671   */\n      and\n        /* \"#utility.yul\":3606:3671   */\n      swap1\n      pop\n        /* \"#utility.yul\":3551:3677   */\n      swap2\n      swap1\n      pop\n      jump\t// out\n        /* \"#utility.yul\":3683:3779   */\n    tag_417:\n        /* \"#utility.yul\":3720:3727   */\n      0x00\n        /* \"#utility.yul\":3749:3773   */\n      tag_505\n        /* \"#utility.yul\":3767:3772   */\n      dup3\n        /* \"#utility.yul\":3749:3773   */\n      tag_416\n      jump\t// in\n    tag_505:\n        /* \"#utility.yul\":3738:3773   */\n      swap1\n      pop\n        /* \"#utility.yul\":3683:3779   */\n      swap2\n      swap1\n      pop\n      jump\t// out\n        /* \"#utility.yul\":3785:3903   */\n    tag_418:\n        /* \"#utility.yul\":3872:3896   */\n      tag_507\n        /* \"#utility.yul\":3890:3895   */\n      dup2\n        /* \"#utility.yul\":3872:3896   */\n      tag_417\n      jump\t// in\n    tag_507:\n        /* \"#utility.yul\":3867:3870   */\n      dup3\n        /* \"#utility.yul\":3860:3897   */\n      mstore\n        /* \"#utility.yul\":3785:3903   */\n      pop\n      pop\n      jump\t// out\n        /* \"#utility.yul\":3909:4131   */\n    tag_57:\n        /* \"#utility.yul\":4002:4006   */\n      0x00\n        /* \"#utility.yul\":4040:4042   */\n      0x20\n        /* \"#utility.yul\":4029:4038   */\n      dup3\n        /* \"#utility.yul\":4025:4043   */\n      add\n        /* \"#utility.yul\":4017:4043   */\n      swap1\n      pop\n        /* \"#utility.yul\":4053:4124   */\n      tag_509\n        /* \"#utility.yul\":4121:4122   */\n      0x00\n        /* \"#utility.yul\":4110:4119   */\n      dup4\n        /* \"#utility.yul\":4106:4123   */\n      add\n        /* \"#utility.yul\":4097:4103   */\n      dup5\n        /* \"#utility.yul\":4053:4124   */\n      tag_418\n      jump\t// in\n    tag_509:\n        /* \"#utility.yul\":3909:4131   */\n      swap3\n      swap2\n      pop\n      pop\n      jump\t// out\n        /* \"#utility.yul\":4137:4259   */\n    tag_419:\n        /* \"#utility.yul\":4210:4234   */\n      tag_511\n        /* \"#utility.yul\":4228:4233   */\n      dup2\n        /* \"#utility.yul\":4210:4234   */\n      tag_417\n      jump\t// in\n    tag_511:\n        /* \"#utility.yul\":4203:4208   */\n      dup2\n        /* \"#utility.yul\":4200:4235   */\n      eq\n        /* \"#utility.yul\":4190:4253   */\n      tag_512\n      jumpi\n        /* \"#utility.yul\":4249:4250   */\n      0x00\n        /* \"#utility.yul\":4246:4247   */\n      dup1\n        /* \"#utility.yul\":4239:4251   */\n      revert\n        /* \"#utility.yul\":4190:4253   */\n    tag_512:\n        /* \"#utility.yul\":4137:4259   */\n      pop\n      jump\t// out\n        /* \"#utility.yul\":4265:4404   */\n    tag_420:\n        /* \"#utility.yul\":4311:4316   */\n      0x00\n        /* \"#utility.yul\":4349:4355   */\n      dup2\n        /* \"#utility.yul\":4336:4356   */\n      calldataload\n        /* \"#utility.yul\":4327:4356   */\n      swap1\n      pop\n        /* \"#utility.yul\":4365:4398   */\n      tag_514\n        /* \"#utility.yul\":4392:4397   */\n      dup2\n        /* \"#utility.yul\":4365:4398   */\n      tag_419\n      jump\t// in\n    tag_514:\n        /* \"#utility.yul\":4265:4404   */\n      swap3\n      swap2\n      pop\n      pop\n      jump\t// out\n        /* \"#utility.yul\":4410:4884   */\n    tag_61:\n        /* \"#utility.yul\":4478:4484   */\n      0x00\n        /* \"#utility.yul\":4486:4492   */\n      dup1\n        /* \"#utility.yul\":4535:4537   */\n      0x40\n        /* \"#utility.yul\":4523:4532   */\n      dup4\n        /* \"#utility.yul\":4514:4521   */\n      dup6\n        /* \"#utility.yul\":4510:4533   */\n      sub\n        /* \"#utility.yul\":4506:4538   */\n      slt\n        /* \"#utility.yul\":4503:4622   */\n      iszero\n      tag_516\n      jumpi\n        /* \"#utility.yul\":4541:4620   */\n      tag_517\n      tag_401\n      jump\t// in\n    tag_517:\n        /* \"#utility.yul\":4503:4622   */\n    tag_516:\n        /* \"#utility.yul\":4661:4662   */\n      0x00\n        /* \"#utility.yul\":4686:4739   */\n      tag_518\n        /* \"#utility.yul\":4731:4738   */\n      dup6\n        /* \"#utility.yul\":4722:4728   */\n      dup3\n        /* \"#utility.yul\":4711:4720   */\n      dup7\n        /* \"#utility.yul\":4707:4729   */\n      add\n        /* \"#utility.yul\":4686:4739   */\n      tag_420\n      jump\t// in\n    tag_518:\n        /* \"#utility.yul\":4676:4739   */\n      swap3\n      pop\n        /* \"#utility.yul\":4632:4749   */\n      pop\n        /* \"#utility.yul\":4788:4790   */\n      0x20\n        /* \"#utility.yul\":4814:4867   */\n      tag_519\n        /* \"#utility.yul\":4859:4866   */\n      dup6\n        /* \"#utility.yul\":4850:4856   */\n      dup3\n        /* \"#utility.yul\":4839:4848   */\n      dup7\n        /* \"#utility.yul\":4835:4857   */\n      add\n        /* \"#utility.yul\":4814:4867   */\n      tag_415\n      jump\t// in\n    tag_519:\n        /* \"#utility.yul\":4804:4867   */\n      swap2\n      pop\n        /* \"#utility.yul\":4759:4877   */\n      pop\n        /* \"#utility.yul\":4410:4884   */\n      swap3\n      pop\n      swap3\n      swap1\n      pop\n      jump\t// out\n        /* \"#utility.yul\":4890:5008   */\n    tag_421:\n        /* \"#utility.yul\":4977:5001   */\n      tag_521\n        /* \"#utility.yul\":4995:5000   */\n      dup2\n        /* \"#utility.yul\":4977:5001   */\n      tag_413\n      jump\t// in\n    tag_521:\n        /* \"#utility.yul\":4972:4975   */\n      dup3\n        /* \"#utility.yul\":4965:5002   */\n      mstore\n        /* \"#utility.yul\":4890:5008   */\n      pop\n      pop\n      jump\t// out\n        /* \"#utility.yul\":5014:5236   */\n    tag_69:\n        /* \"#utility.yul\":5107:5111   */\n      0x00\n        /* \"#utility.yul\":5145:5147   */\n      0x20\n        /* \"#utility.yul\":5134:5143   */\n      dup3\n        /* \"#utility.yul\":5130:5148   */\n      add\n        /* \"#utility.yul\":5122:5148   */\n      swap1\n      pop\n        /* \"#utility.yul\":5158:5229   */\n      tag_523\n        /* \"#utility.yul\":5226:5227   */\n      0x00\n        /* \"#utility.yul\":5215:5224   */\n      dup4\n        /* \"#utility.yul\":5211:5228   */\n      add\n        /* \"#utility.yul\":5202:5208   */\n      dup5\n        /* \"#utility.yul\":5158:5229   */\n      tag_421\n      jump\t// in\n    tag_523:\n        /* \"#utility.yul\":5014:5236   */\n      swap3\n      swap2\n      pop\n      pop\n      jump\t// out\n        /* \"#utility.yul\":5242:5861   */\n    tag_73:\n        /* \"#utility.yul\":5319:5325   */\n      0x00\n        /* \"#utility.yul\":5327:5333   */\n      dup1\n        /* \"#utility.yul\":5335:5341   */\n      0x00\n        /* \"#utility.yul\":5384:5386   */\n      0x60\n        /* \"#utility.yul\":5372:5381   */\n      dup5\n        /* \"#utility.yul\":5363:5370   */\n      dup7\n        /* \"#utility.yul\":5359:5382   */\n      sub\n        /* \"#utility.yul\":5355:5387   */\n      slt\n        /* \"#utility.yul\":5352:5471   */\n      iszero\n      tag_525\n      jumpi\n        /* \"#utility.yul\":5390:5469   */\n      tag_526\n      tag_401\n      jump\t// in\n    tag_526:\n        /* \"#utility.yul\":5352:5471   */\n    tag_525:\n        /* \"#utility.yul\":5510:5511   */\n      0x00\n        /* \"#utility.yul\":5535:5588   */\n      tag_527\n        /* \"#utility.yul\":5580:5587   */\n      dup7\n        /* \"#utility.yul\":5571:5577   */\n      dup3\n        /* \"#utility.yul\":5560:5569   */\n      dup8\n        /* \"#utility.yul\":5556:5578   */\n      add\n        /* \"#utility.yul\":5535:5588   */\n      tag_420\n      jump\t// in\n    tag_527:\n        /* \"#utility.yul\":5525:5588   */\n      swap4\n      pop\n        /* \"#utility.yul\":5481:5598   */\n      pop\n        /* \"#utility.yul\":5637:5639   */\n      0x20\n        /* \"#utility.yul\":5663:5716   */\n      tag_528\n        /* \"#utility.yul\":5708:5715   */\n      dup7\n        /* \"#utility.yul\":5699:5705   */\n      dup3\n        /* \"#utility.yul\":5688:5697   */\n      dup8\n        /* \"#utility.yul\":5684:5706   */\n      add\n        /* \"#utility.yul\":5663:5716   */\n      tag_420\n      jump\t// in\n    tag_528:\n        /* \"#utility.yul\":5653:5716   */\n      swap3\n      pop\n        /* \"#utility.yul\":5608:5726   */\n      pop\n        /* \"#utility.yul\":5765:5767   */\n      0x40\n        /* \"#utility.yul\":5791:5844   */\n      tag_529\n        /* \"#utility.yul\":5836:5843   */\n      dup7\n        /* \"#utility.yul\":5827:5833   */\n      dup3\n        /* \"#utility.yul\":5816:5825   */\n      dup8\n        /* \"#utility.yul\":5812:5834   */\n      add\n        /* \"#utility.yul\":5791:5844   */\n      tag_415\n      jump\t// in\n    tag_529:\n        /* \"#utility.yul\":5781:5844   */\n      swap2\n      pop\n        /* \"#utility.yul\":5736:5854   */\n      pop\n        /* \"#utility.yul\":5242:5861   */\n      swap3\n      pop\n      swap3\n      pop\n      swap3\n      jump\t// out\n        /* \"#utility.yul\":5867:6196   */\n    tag_82:\n        /* \"#utility.yul\":5926:5932   */\n      0x00\n        /* \"#utility.yul\":5975:5977   */\n      0x20\n        /* \"#utility.yul\":5963:5972   */\n      dup3\n        /* \"#utility.yul\":5954:5961   */\n      dup5\n        /* \"#utility.yul\":5950:5973   */\n      sub\n        /* \"#utility.yul\":5946:5978   */\n      slt\n        /* \"#utility.yul\":5943:6062   */\n      iszero\n      tag_531\n      jumpi\n        /* \"#utility.yul\":5981:6060   */\n      tag_532\n      tag_401\n      jump\t// in\n    tag_532:\n        /* \"#utility.yul\":5943:6062   */\n    tag_531:\n        /* \"#utility.yul\":6101:6102   */\n      0x00\n        /* \"#utility.yul\":6126:6179   */\n      tag_533\n        /* \"#utility.yul\":6171:6178   */\n      dup5\n        /* \"#utility.yul\":6162:6168   */\n      dup3\n        /* \"#utility.yul\":6151:6160   */\n      dup6\n        /* \"#utility.yul\":6147:6169   */\n      add\n        /* \"#utility.yul\":6126:6179   */\n      tag_420\n      jump\t// in\n    tag_533:\n        /* \"#utility.yul\":6116:6179   */\n      swap2\n      pop\n        /* \"#utility.yul\":6072:6189   */\n      pop\n        /* \"#utility.yul\":5867:6196   */\n      swap3\n      swap2\n      pop\n      pop\n      jump\t// out\n        /* \"#utility.yul\":6202:6318   */\n    tag_422:\n        /* \"#utility.yul\":6272:6293   */\n      tag_535\n        /* \"#utility.yul\":6287:6292   */\n      dup2\n        /* \"#utility.yul\":6272:6293   */\n      tag_406\n      jump\t// in\n    tag_535:\n        /* \"#utility.yul\":6265:6270   */\n      dup2\n        /* \"#utility.yul\":6262:6294   */\n      eq\n        /* \"#utility.yul\":6252:6312   */\n      tag_536\n      jumpi\n        /* \"#utility.yul\":6308:6309   */\n      0x00\n        /* \"#utility.yul\":6305:6306   */\n      dup1\n        /* \"#utility.yul\":6298:6310   */\n      revert\n        /* \"#utility.yul\":6252:6312   */\n    tag_536:\n        /* \"#utility.yul\":6202:6318   */\n      pop\n      jump\t// out\n        /* \"#utility.yul\":6324:6457   */\n    tag_423:\n        /* \"#utility.yul\":6367:6372   */\n      0x00\n        /* \"#utility.yul\":6405:6411   */\n      dup2\n        /* \"#utility.yul\":6392:6412   */\n      calldataload\n        /* \"#utility.yul\":6383:6412   */\n      swap1\n      pop\n        /* \"#utility.yul\":6421:6451   */\n      tag_538\n        /* \"#utility.yul\":6445:6450   */\n      dup2\n        /* \"#utility.yul\":6421:6451   */\n      tag_422\n      jump\t// in\n    tag_538:\n        /* \"#utility.yul\":6324:6457   */\n      swap3\n      swap2\n      pop\n      pop\n      jump\t// out\n        /* \"#utility.yul\":6463:6931   */\n    tag_135:\n        /* \"#utility.yul\":6528:6534   */\n      0x00\n        /* \"#utility.yul\":6536:6542   */\n      dup1\n        /* \"#utility.yul\":6585:6587   */\n      0x40\n        /* \"#utility.yul\":6573:6582   */\n      dup4\n        /* \"#utility.yul\":6564:6571   */\n      dup6\n        /* \"#utility.yul\":6560:6583   */\n      sub\n        /* \"#utility.yul\":6556:6588   */\n      slt\n        /* \"#utility.yul\":6553:6672   */\n      iszero\n      tag_540\n      jumpi\n        /* \"#utility.yul\":6591:6670   */\n      tag_541\n      tag_401\n      jump\t// in\n    tag_541:\n        /* \"#utility.yul\":6553:6672   */\n    tag_540:\n        /* \"#utility.yul\":6711:6712   */\n      0x00\n        /* \"#utility.yul\":6736:6789   */\n      tag_542\n        /* \"#utility.yul\":6781:6788   */\n      dup6\n        /* \"#utility.yul\":6772:6778   */\n      dup3\n        /* \"#utility.yul\":6761:6770   */\n      dup7\n        /* \"#utility.yul\":6757:6779   */\n      add\n        /* \"#utility.yul\":6736:6789   */\n      tag_420\n      jump\t// in\n    tag_542:\n        /* \"#utility.yul\":6726:6789   */\n      swap3\n      pop\n        /* \"#utility.yul\":6682:6799   */\n      pop\n        /* \"#utility.yul\":6838:6840   */\n      0x20\n        /* \"#utility.yul\":6864:6914   */\n      tag_543\n        /* \"#utility.yul\":6906:6913   */\n      dup6\n        /* \"#utility.yul\":6897:6903   */\n      dup3\n        /* \"#utility.yul\":6886:6895   */\n      dup7\n        /* \"#utility.yul\":6882:6904   */\n      add\n        /* \"#utility.yul\":6864:6914   */\n      tag_423\n      jump\t// in\n    tag_543:\n        /* \"#utility.yul\":6854:6914   */\n      swap2\n      pop\n        /* \"#utility.yul\":6809:6924   */\n      pop\n        /* \"#utility.yul\":6463:6931   */\n      swap3\n      pop\n      swap3\n      swap1\n      pop\n      jump\t// out\n        /* \"#utility.yul\":6937:7054   */\n    tag_424:\n        /* \"#utility.yul\":7046:7047   */\n      0x00\n        /* \"#utility.yul\":7043:7044   */\n      dup1\n        /* \"#utility.yul\":7036:7048   */\n      revert\n        /* \"#utility.yul\":7060:7177   */\n    tag_425:\n        /* \"#utility.yul\":7169:7170   */\n      0x00\n        /* \"#utility.yul\":7166:7167   */\n      dup1\n        /* \"#utility.yul\":7159:7171   */\n      revert\n        /* \"#utility.yul\":7183:7363   */\n    tag_426:\n        /* \"#utility.yul\":7231:7308   */\n      0x4e487b7100000000000000000000000000000000000000000000000000000000\n        /* \"#utility.yul\":7228:7229   */\n      0x00\n        /* \"#utility.yul\":7221:7309   */\n      mstore\n        /* \"#utility.yul\":7328:7332   */\n      0x41\n        /* \"#utility.yul\":7325:7326   */\n      0x04\n        /* \"#utility.yul\":7318:7333   */\n      mstore\n        /* \"#utility.yul\":7352:7356   */\n      0x24\n        /* \"#utility.yul\":7349:7350   */\n      0x00\n        /* \"#utility.yul\":7342:7357   */\n      revert\n        /* \"#utility.yul\":7369:7650   */\n    tag_427:\n        /* \"#utility.yul\":7452:7479   */\n      tag_548\n        /* \"#utility.yul\":7474:7478   */\n      dup3\n        /* \"#utility.yul\":7452:7479   */\n      tag_411\n      jump\t// in\n    tag_548:\n        /* \"#utility.yul\":7444:7450   */\n      dup2\n        /* \"#utility.yul\":7440:7480   */\n      add\n        /* \"#utility.yul\":7582:7588   */\n      dup2\n        /* \"#utility.yul\":7570:7580   */\n      dup2\n        /* \"#utility.yul\":7567:7589   */\n      lt\n        /* \"#utility.yul\":7546:7564   */\n      0xffffffffffffffff\n        /* \"#utility.yul\":7534:7544   */\n      dup3\n        /* \"#utility.yul\":7531:7565   */\n      gt\n        /* \"#utility.yul\":7528:7590   */\n      or\n        /* \"#utility.yul\":7525:7613   */\n      iszero\n      tag_549\n      jumpi\n        /* \"#utility.yul\":7593:7611   */\n      tag_550\n      tag_426\n      jump\t// in\n    tag_550:\n        /* \"#utility.yul\":7525:7613   */\n    tag_549:\n        /* \"#utility.yul\":7633:7643   */\n      dup1\n        /* \"#utility.yul\":7629:7631   */\n      0x40\n        /* \"#utility.yul\":7622:7644   */\n      mstore\n        /* \"#utility.yul\":7412:7650   */\n      pop\n        /* \"#utility.yul\":7369:7650   */\n      pop\n      pop\n      jump\t// out\n        /* \"#utility.yul\":7656:7785   */\n    tag_428:\n        /* \"#utility.yul\":7690:7696   */\n      0x00\n        /* \"#utility.yul\":7717:7737   */\n      tag_552\n      tag_400\n      jump\t// in\n    tag_552:\n        /* \"#utility.yul\":7707:7737   */\n      swap1\n      pop\n        /* \"#utility.yul\":7746:7779   */\n      tag_553\n        /* \"#utility.yul\":7774:7778   */\n      dup3\n        /* \"#utility.yul\":7766:7772   */\n      dup3\n        /* \"#utility.yul\":7746:7779   */\n      tag_427\n      jump\t// in\n    tag_553:\n        /* \"#utility.yul\":7656:7785   */\n      swap2\n      swap1\n      pop\n      jump\t// out\n        /* \"#utility.yul\":7791:8098   */\n    tag_429:\n        /* \"#utility.yul\":7852:7856   */\n      0x00\n        /* \"#utility.yul\":7942:7960   */\n      0xffffffffffffffff\n        /* \"#utility.yul\":7934:7940   */\n      dup3\n        /* \"#utility.yul\":7931:7961   */\n      gt\n        /* \"#utility.yul\":7928:7984   */\n      iszero\n      tag_555\n      jumpi\n        /* \"#utility.yul\":7964:7982   */\n      tag_556\n      tag_426\n      jump\t// in\n    tag_556:\n        /* \"#utility.yul\":7928:7984   */\n    tag_555:\n        /* \"#utility.yul\":8002:8031   */\n      tag_557\n        /* \"#utility.yul\":8024:8030   */\n      dup3\n        /* \"#utility.yul\":8002:8031   */\n      tag_411\n      jump\t// in\n    tag_557:\n        /* \"#utility.yul\":7994:8031   */\n      swap1\n      pop\n        /* \"#utility.yul\":8086:8090   */\n      0x20\n        /* \"#utility.yul\":8080:8084   */\n      dup2\n        /* \"#utility.yul\":8076:8091   */\n      add\n        /* \"#utility.yul\":8068:8091   */\n      swap1\n      pop\n        /* \"#utility.yul\":7791:8098   */\n      swap2\n      swap1\n      pop\n      jump\t// out\n        /* \"#utility.yul\":8104:8250   */\n    tag_430:\n        /* \"#utility.yul\":8201:8207   */\n      dup3\n        /* \"#utility.yul\":8196:8199   */\n      dup2\n        /* \"#utility.yul\":8191:8194   */\n      dup4\n        /* \"#utility.yul\":8178:8208   */\n      calldatacopy\n        /* \"#utility.yul\":8242:8243   */\n      0x00\n        /* \"#utility.yul\":8233:8239   */\n      dup4\n        /* \"#utility.yul\":8228:8231   */\n      dup4\n        /* \"#utility.yul\":8224:8240   */\n      add\n        /* \"#utility.yul\":8217:8244   */\n      mstore\n        /* \"#utility.yul\":8104:8250   */\n      pop\n      pop\n      pop\n      jump\t// out\n        /* \"#utility.yul\":8256:8679   */\n    tag_431:\n        /* \"#utility.yul\":8333:8338   */\n      0x00\n        /* \"#utility.yul\":8358:8423   */\n      tag_560\n        /* \"#utility.yul\":8374:8422   */\n      tag_561\n        /* \"#utility.yul\":8415:8421   */\n      dup5\n        /* \"#utility.yul\":8374:8422   */\n      tag_429\n      jump\t// in\n    tag_561:\n        /* \"#utility.yul\":8358:8423   */\n      tag_428\n      jump\t// in\n    tag_560:\n        /* \"#utility.yul\":8349:8423   */\n      swap1\n      pop\n        /* \"#utility.yul\":8446:8452   */\n      dup3\n        /* \"#utility.yul\":8439:8444   */\n      dup2\n        /* \"#utility.yul\":8432:8453   */\n      mstore\n        /* \"#utility.yul\":8484:8488   */\n      0x20\n        /* \"#utility.yul\":8477:8482   */\n      dup2\n        /* \"#utility.yul\":8473:8489   */\n      add\n        /* \"#utility.yul\":8522:8525   */\n      dup5\n        /* \"#utility.yul\":8513:8519   */\n      dup5\n        /* \"#utility.yul\":8508:8511   */\n      dup5\n        /* \"#utility.yul\":8504:8520   */\n      add\n        /* \"#utility.yul\":8501:8526   */\n      gt\n        /* \"#utility.yul\":8498:8610   */\n      iszero\n      tag_562\n      jumpi\n        /* \"#utility.yul\":8529:8608   */\n      tag_563\n      tag_425\n      jump\t// in\n    tag_563:\n        /* \"#utility.yul\":8498:8610   */\n    tag_562:\n        /* \"#utility.yul\":8619:8673   */\n      tag_564\n        /* \"#utility.yul\":8666:8672   */\n      dup5\n        /* \"#utility.yul\":8661:8664   */\n      dup3\n        /* \"#utility.yul\":8656:8659   */\n      dup6\n        /* \"#utility.yul\":8619:8673   */\n      tag_430\n      jump\t// in\n    tag_564:\n        /* \"#utility.yul\":8339:8679   */\n      pop\n        /* \"#utility.yul\":8256:8679   */\n      swap4\n      swap3\n      pop\n      pop\n      pop\n      jump\t// out\n        /* \"#utility.yul\":8698:9036   */\n    tag_432:\n        /* \"#utility.yul\":8753:8758   */\n      0x00\n        /* \"#utility.yul\":8802:8805   */\n      dup3\n        /* \"#utility.yul\":8795:8799   */\n      0x1f\n        /* \"#utility.yul\":8787:8793   */\n      dup4\n        /* \"#utility.yul\":8783:8800   */\n      add\n        /* \"#utility.yul\":8779:8806   */\n      slt\n        /* \"#utility.yul\":8769:8891   */\n      tag_566\n      jumpi\n        /* \"#utility.yul\":8810:8889   */\n      tag_567\n      tag_424\n      jump\t// in\n    tag_567:\n        /* \"#utility.yul\":8769:8891   */\n    tag_566:\n        /* \"#utility.yul\":8927:8933   */\n      dup2\n        /* \"#utility.yul\":8914:8934   */\n      calldataload\n        /* \"#utility.yul\":8952:9030   */\n      tag_568\n        /* \"#utility.yul\":9026:9029   */\n      dup5\n        /* \"#utility.yul\":9018:9024   */\n      dup3\n        /* \"#utility.yul\":9011:9015   */\n      0x20\n        /* \"#utility.yul\":9003:9009   */\n      dup7\n        /* \"#utility.yul\":8999:9016   */\n      add\n        /* \"#utility.yul\":8952:9030   */\n      tag_431\n      jump\t// in\n    tag_568:\n        /* \"#utility.yul\":8943:9030   */\n      swap2\n      pop\n        /* \"#utility.yul\":8759:9036   */\n      pop\n        /* \"#utility.yul\":8698:9036   */\n      swap3\n      swap2\n      pop\n      pop\n      jump\t// out\n        /* \"#utility.yul\":9042:9985   */\n    tag_144:\n        /* \"#utility.yul\":9137:9143   */\n      0x00\n        /* \"#utility.yul\":9145:9151   */\n      dup1\n        /* \"#utility.yul\":9153:9159   */\n      0x00\n        /* \"#utility.yul\":9161:9167   */\n      dup1\n        /* \"#utility.yul\":9210:9213   */\n      0x80\n        /* \"#utility.yul\":9198:9207   */\n      dup6\n        /* \"#utility.yul\":9189:9196   */\n      dup8\n        /* \"#utility.yul\":9185:9208   */\n      sub\n        /* \"#utility.yul\":9181:9214   */\n      slt\n        /* \"#utility.yul\":9178:9298   */\n      iszero\n      tag_570\n      jumpi\n        /* \"#utility.yul\":9217:9296   */\n      tag_571\n      tag_401\n      jump\t// in\n    tag_571:\n        /* \"#utility.yul\":9178:9298   */\n    tag_570:\n        /* \"#utility.yul\":9337:9338   */\n      0x00\n        /* \"#utility.yul\":9362:9415   */\n      tag_572\n        /* \"#utility.yul\":9407:9414   */\n      dup8\n        /* \"#utility.yul\":9398:9404   */\n      dup3\n        /* \"#utility.yul\":9387:9396   */\n      dup9\n        /* \"#utility.yul\":9383:9405   */\n      add\n        /* \"#utility.yul\":9362:9415   */\n      tag_420\n      jump\t// in\n    tag_572:\n        /* \"#utility.yul\":9352:9415   */\n      swap5\n      pop\n        /* \"#utility.yul\":9308:9425   */\n      pop\n        /* \"#utility.yul\":9464:9466   */\n      0x20\n        /* \"#utility.yul\":9490:9543   */\n      tag_573\n        /* \"#utility.yul\":9535:9542   */\n      dup8\n        /* \"#utility.yul\":9526:9532   */\n      dup3\n        /* \"#utility.yul\":9515:9524   */\n      dup9\n        /* \"#utility.yul\":9511:9533   */\n      add\n        /* \"#utility.yul\":9490:9543   */\n      tag_420\n      jump\t// in\n    tag_573:\n        /* \"#utility.yul\":9480:9543   */\n      swap4\n      pop\n        /* \"#utility.yul\":9435:9553   */\n      pop\n        /* \"#utility.yul\":9592:9594   */\n      0x40\n        /* \"#utility.yul\":9618:9671   */\n      tag_574\n        /* \"#utility.yul\":9663:9670   */\n      dup8\n        /* \"#utility.yul\":9654:9660   */\n      dup3\n        /* \"#utility.yul\":9643:9652   */\n      dup9\n        /* \"#utility.yul\":9639:9661   */\n      add\n        /* \"#utility.yul\":9618:9671   */\n      tag_415\n      jump\t// in\n    tag_574:\n        /* \"#utility.yul\":9608:9671   */\n      swap3\n      pop\n        /* \"#utility.yul\":9563:9681   */\n      pop\n        /* \"#utility.yul\":9748:9750   */\n      0x60\n        /* \"#utility.yul\":9737:9746   */\n      dup6\n        /* \"#utility.yul\":9733:9751   */\n      add\n        /* \"#utility.yul\":9720:9752   */\n      calldataload\n        /* \"#utility.yul\":9779:9797   */\n      0xffffffffffffffff\n        /* \"#utility.yul\":9771:9777   */\n      dup2\n        /* \"#utility.yul\":9768:9798   */\n      gt\n        /* \"#utility.yul\":9765:9882   */\n      iszero\n      tag_575\n      jumpi\n        /* \"#utility.yul\":9801:9880   */\n      tag_576\n      tag_402\n      jump\t// in\n    tag_576:\n        /* \"#utility.yul\":9765:9882   */\n    tag_575:\n        /* \"#utility.yul\":9906:9968   */\n      tag_577\n        /* \"#utility.yul\":9960:9967   */\n      dup8\n        /* \"#utility.yul\":9951:9957   */\n      dup3\n        /* \"#utility.yul\":9940:9949   */\n      dup9\n        /* \"#utility.yul\":9936:9958   */\n      add\n        /* \"#utility.yul\":9906:9968   */\n      tag_432\n      jump\t// in\n    tag_577:\n        /* \"#utility.yul\":9896:9968   */\n      swap2\n      pop\n        /* \"#utility.yul\":9691:9978   */\n      pop\n        /* \"#utility.yul\":9042:9985   */\n      swap3\n      swap6\n      swap2\n      swap5\n      pop\n      swap3\n      pop\n      jump\t// out\n        /* \"#utility.yul\":9991:10465   */\n    tag_157:\n        /* \"#utility.yul\":10059:10065   */\n      0x00\n        /* \"#utility.yul\":10067:10073   */\n      dup1\n        /* \"#utility.yul\":10116:10118   */\n      0x40\n        /* \"#utility.yul\":10104:10113   */\n      dup4\n        /* \"#utility.yul\":10095:10102   */\n      dup6\n        /* \"#utility.yul\":10091:10114   */\n      sub\n        /* \"#utility.yul\":10087:10119   */\n      slt\n        /* \"#utility.yul\":10084:10203   */\n      iszero\n      tag_579\n      jumpi\n        /* \"#utility.yul\":10122:10201   */\n      tag_580\n      tag_401\n      jump\t// in\n    tag_580:\n        /* \"#utility.yul\":10084:10203   */\n    tag_579:\n        /* \"#utility.yul\":10242:10243   */\n      0x00\n        /* \"#utility.yul\":10267:10320   */\n      tag_581\n        /* \"#utility.yul\":10312:10319   */\n      dup6\n        /* \"#utility.yul\":10303:10309   */\n      dup3\n        /* \"#utility.yul\":10292:10301   */\n      dup7\n        /* \"#utility.yul\":10288:10310   */\n      add\n        /* \"#utility.yul\":10267:10320   */\n      tag_420\n      jump\t// in\n    tag_581:\n        /* \"#utility.yul\":10257:10320   */\n      swap3\n      pop\n        /* \"#utility.yul\":10213:10330   */\n      pop\n        /* \"#utility.yul\":10369:10371   */\n      0x20\n        /* \"#utility.yul\":10395:10448   */\n      tag_582\n        /* \"#utility.yul\":10440:10447   */\n      dup6\n        /* \"#utility.yul\":10431:10437   */\n      dup3\n        /* \"#utility.yul\":10420:10429   */\n      dup7\n        /* \"#utility.yul\":10416:10438   */\n      add\n        /* \"#utility.yul\":10395:10448   */\n      tag_420\n      jump\t// in\n    tag_582:\n        /* \"#utility.yul\":10385:10448   */\n      swap2\n      pop\n        /* \"#utility.yul\":10340:10458   */\n      pop\n        /* \"#utility.yul\":9991:10465   */\n      swap3\n      pop\n      swap3\n      swap1\n      pop\n      jump\t// out\n        /* \"#utility.yul\":10471:10651   */\n    tag_433:\n        /* \"#utility.yul\":10519:10596   */\n      0x4e487b7100000000000000000000000000000000000000000000000000000000\n        /* \"#utility.yul\":10516:10517   */\n      0x00\n        /* \"#utility.yul\":10509:10597   */\n      mstore\n        /* \"#utility.yul\":10616:10620   */\n      0x22\n        /* \"#utility.yul\":10613:10614   */\n      0x04\n        /* \"#utility.yul\":10606:10621   */\n      mstore\n        /* \"#utility.yul\":10640:10644   */\n      0x24\n        /* \"#utility.yul\":10637:10638   */\n      0x00\n        /* \"#utility.yul\":10630:10645   */\n      revert\n        /* \"#utility.yul\":10657:10977   */\n    tag_179:\n        /* \"#utility.yul\":10701:10707   */\n      0x00\n        /* \"#utility.yul\":10738:10739   */\n      0x02\n        /* \"#utility.yul\":10732:10736   */\n      dup3\n        /* \"#utility.yul\":10728:10740   */\n      div\n        /* \"#utility.yul\":10718:10740   */\n      swap1\n      pop\n        /* \"#utility.yul\":10785:10786   */\n      0x01\n        /* \"#utility.yul\":10779:10783   */\n      dup3\n        /* \"#utility.yul\":10775:10787   */\n      and\n        /* \"#utility.yul\":10806:10824   */\n      dup1\n        /* \"#utility.yul\":10796:10877   */\n      tag_585\n      jumpi\n        /* \"#utility.yul\":10862:10866   */\n      0x7f\n        /* \"#utility.yul\":10854:10860   */\n      dup3\n        /* \"#utility.yul\":10850:10867   */\n      and\n        /* \"#utility.yul\":10840:10867   */\n      swap2\n      pop\n        /* \"#utility.yul\":10796:10877   */\n    tag_585:\n        /* \"#utility.yul\":10924:10926   */\n      0x20\n        /* \"#utility.yul\":10916:10922   */\n      dup3\n        /* \"#utility.yul\":10913:10927   */\n      lt\n        /* \"#utility.yul\":10893:10911   */\n      dup2\n        /* \"#utility.yul\":10890:10928   */\n      sub\n        /* \"#utility.yul\":10887:10971   */\n      tag_586\n      jumpi\n        /* \"#utility.yul\":10943:10961   */\n      tag_587\n      tag_433\n      jump\t// in\n    tag_587:\n        /* \"#utility.yul\":10887:10971   */\n    tag_586:\n        /* \"#utility.yul\":10708:10977   */\n      pop\n        /* \"#utility.yul\":10657:10977   */\n      swap2\n      swap1\n      pop\n      jump\t// out\n        /* \"#utility.yul\":10983:11155   */\n    tag_434:\n        /* \"#utility.yul\":11123:11147   */\n      0x4d696e74696e67206973206e6f7420656e61626c656400000000000000000000\n        /* \"#utility.yul\":11119:11120   */\n      0x00\n        /* \"#utility.yul\":11111:11117   */\n      dup3\n        /* \"#utility.yul\":11107:11121   */\n      add\n        /* \"#utility.yul\":11100:11148   */\n      mstore\n        /* \"#utility.yul\":10983:11155   */\n      pop\n      jump\t// out\n        /* \"#utility.yul\":11161:11527   */\n    tag_435:\n        /* \"#utility.yul\":11303:11306   */\n      0x00\n        /* \"#utility.yul\":11324:11391   */\n      tag_590\n        /* \"#utility.yul\":11388:11390   */\n      0x16\n        /* \"#utility.yul\":11383:11386   */\n      dup4\n        /* \"#utility.yul\":11324:11391   */\n      tag_409\n      jump\t// in\n    tag_590:\n        /* \"#utility.yul\":11317:11391   */\n      swap2\n      pop\n        /* \"#utility.yul\":11400:11493   */\n      tag_591\n        /* \"#utility.yul\":11489:11492   */\n      dup3\n        /* \"#utility.yul\":11400:11493   */\n      tag_434\n      jump\t// in\n    tag_591:\n        /* \"#utility.yul\":11518:11520   */\n      0x20\n        /* \"#utility.yul\":11513:11516   */\n      dup3\n        /* \"#utility.yul\":11509:11521   */\n      add\n        /* \"#utility.yul\":11502:11521   */\n      swap1\n      pop\n        /* \"#utility.yul\":11161:11527   */\n      swap2\n      swap1\n      pop\n      jump\t// out\n        /* \"#utility.yul\":11533:11952   */\n    tag_200:\n        /* \"#utility.yul\":11699:11703   */\n      0x00\n        /* \"#utility.yul\":11737:11739   */\n      0x20\n        /* \"#utility.yul\":11726:11735   */\n      dup3\n        /* \"#utility.yul\":11722:11740   */\n      add\n        /* \"#utility.yul\":11714:11740   */\n      swap1\n      pop\n        /* \"#utility.yul\":11786:11795   */\n      dup2\n        /* \"#utility.yul\":11780:11784   */\n      dup2\n        /* \"#utility.yul\":11776:11796   */\n      sub\n        /* \"#utility.yul\":11772:11773   */\n      0x00\n        /* \"#utility.yul\":11761:11770   */\n      dup4\n        /* \"#utility.yul\":11757:11774   */\n      add\n        /* \"#utility.yul\":11750:11797   */\n      mstore\n        /* \"#utility.yul\":11814:11945   */\n      tag_593\n        /* \"#utility.yul\":11940:11944   */\n      dup2\n        /* \"#utility.yul\":11814:11945   */\n      tag_435\n      jump\t// in\n    tag_593:\n        /* \"#utility.yul\":11806:11945   */\n      swap1\n      pop\n        /* \"#utility.yul\":11533:11952   */\n      swap2\n      swap1\n      pop\n      jump\t// out\n        /* \"#utility.yul\":11958:12124   */\n    tag_436:\n        /* \"#utility.yul\":12098:12116   */\n      0x45786365656473206d696e742063617000000000000000000000000000000000\n        /* \"#utility.yul\":12094:12095   */\n      0x00\n        /* \"#utility.yul\":12086:12092   */\n      dup3\n        /* \"#utility.yul\":12082:12096   */\n      add\n        /* \"#utility.yul\":12075:12117   */\n      mstore\n        /* \"#utility.yul\":11958:12124   */\n      pop\n      jump\t// out\n        /* \"#utility.yul\":12130:12496   */\n    tag_437:\n        /* \"#utility.yul\":12272:12275   */\n      0x00\n        /* \"#utility.yul\":12293:12360   */\n      tag_596\n        /* \"#utility.yul\":12357:12359   */\n      0x10\n        /* \"#utility.yul\":12352:12355   */\n      dup4\n        /* \"#utility.yul\":12293:12360   */\n      tag_409\n      jump\t// in\n    tag_596:\n        /* \"#utility.yul\":12286:12360   */\n      swap2\n      pop\n        /* \"#utility.yul\":12369:12462   */\n      tag_597\n        /* \"#utility.yul\":12458:12461   */\n      dup3\n        /* \"#utility.yul\":12369:12462   */\n      tag_436\n      jump\t// in\n    tag_597:\n        /* \"#utility.yul\":12487:12489   */\n      0x20\n        /* \"#utility.yul\":12482:12485   */\n      dup3\n        /* \"#utility.yul\":12478:12490   */\n      add\n        /* \"#utility.yul\":12471:12490   */\n      swap1\n      pop\n        /* \"#utility.yul\":12130:12496   */\n      swap2\n      swap1\n      pop\n      jump\t// out\n        /* \"#utility.yul\":12502:12921   */\n    tag_203:\n        /* \"#utility.yul\":12668:12672   */\n      0x00\n        /* \"#utility.yul\":12706:12708   */\n      0x20\n        /* \"#utility.yul\":12695:12704   */\n      dup3\n        /* \"#utility.yul\":12691:12709   */\n      add\n        /* \"#utility.yul\":12683:12709   */\n      swap1\n      pop\n        /* \"#utility.yul\":12755:12764   */\n      dup2\n        /* \"#utility.yul\":12749:12753   */\n      dup2\n        /* \"#utility.yul\":12745:12765   */\n      sub\n        /* \"#utility.yul\":12741:12742   */\n      0x00\n        /* \"#utility.yul\":12730:12739   */\n      dup4\n        /* \"#utility.yul\":12726:12743   */\n      add\n        /* \"#utility.yul\":12719:12766   */\n      mstore\n        /* \"#utility.yul\":12783:12914   */\n      tag_599\n        /* \"#utility.yul\":12909:12913   */\n      dup2\n        /* \"#utility.yul\":12783:12914   */\n      tag_437\n      jump\t// in\n    tag_599:\n        /* \"#utility.yul\":12775:12914   */\n      swap1\n      pop\n        /* \"#utility.yul\":12502:12921   */\n      swap2\n      swap1\n      pop\n      jump\t// out\n        /* \"#utility.yul\":12927:13107   */\n    tag_438:\n        /* \"#utility.yul\":12975:13052   */\n      0x4e487b7100000000000000000000000000000000000000000000000000000000\n        /* \"#utility.yul\":12972:12973   */\n      0x00\n        /* \"#utility.yul\":12965:13053   */\n      mstore\n        /* \"#utility.yul\":13072:13076   */\n      0x11\n        /* \"#utility.yul\":13069:13070   */\n      0x04\n        /* \"#utility.yul\":13062:13077   */\n      mstore\n        /* \"#utility.yul\":13096:13100   */\n      0x24\n        /* \"#utility.yul\":13093:13094   */\n      0x00\n        /* \"#utility.yul\":13086:13101   */\n      revert\n        /* \"#utility.yul\":13113:13304   */\n    tag_205:\n        /* \"#utility.yul\":13153:13156   */\n      0x00\n        /* \"#utility.yul\":13172:13192   */\n      tag_602\n        /* \"#utility.yul\":13190:13191   */\n      dup3\n        /* \"#utility.yul\":13172:13192   */\n      tag_413\n      jump\t// in\n    tag_602:\n        /* \"#utility.yul\":13167:13192   */\n      swap2\n      pop\n        /* \"#utility.yul\":13206:13226   */\n      tag_603\n        /* \"#utility.yul\":13224:13225   */\n      dup4\n        /* \"#utility.yul\":13206:13226   */\n      tag_413\n      jump\t// in\n    tag_603:\n        /* \"#utility.yul\":13201:13226   */\n      swap3\n      pop\n        /* \"#utility.yul\":13249:13250   */\n      dup3\n        /* \"#utility.yul\":13246:13247   */\n      dup3\n        /* \"#utility.yul\":13242:13251   */\n      add\n        /* \"#utility.yul\":13235:13251   */\n      swap1\n      pop\n        /* \"#utility.yul\":13270:13273   */\n      dup1\n        /* \"#utility.yul\":13267:13268   */\n      dup3\n        /* \"#utility.yul\":13264:13274   */\n      gt\n        /* \"#utility.yul\":13261:13297   */\n      iszero\n      tag_604\n      jumpi\n        /* \"#utility.yul\":13277:13295   */\n      tag_605\n      tag_438\n      jump\t// in\n    tag_605:\n        /* \"#utility.yul\":13261:13297   */\n    tag_604:\n        /* \"#utility.yul\":13113:13304   */\n      swap3\n      swap2\n      pop\n      pop\n      jump\t// out\n        /* \"#utility.yul\":13310:13478   */\n    tag_439:\n        /* \"#utility.yul\":13450:13470   */\n      0x45786365656473206d617820737570706c790000000000000000000000000000\n        /* \"#utility.yul\":13446:13447   */\n      0x00\n        /* \"#utility.yul\":13438:13444   */\n      dup3\n        /* \"#utility.yul\":13434:13448   */\n      add\n        /* \"#utility.yul\":13427:13471   */\n      mstore\n        /* \"#utility.yul\":13310:13478   */\n      pop\n      jump\t// out\n        /* \"#utility.yul\":13484:13850   */\n    tag_440:\n        /* \"#utility.yul\":13626:13629   */\n      0x00\n        /* \"#utility.yul\":13647:13714   */\n      tag_608\n        /* \"#utility.yul\":13711:13713   */\n      0x12\n        /* \"#utility.yul\":13706:13709   */\n      dup4\n        /* \"#utility.yul\":13647:13714   */\n      tag_409\n      jump\t// in\n    tag_608:\n        /* \"#utility.yul\":13640:13714   */\n      swap2\n      pop\n        /* \"#utility.yul\":13723:13816   */\n      tag_609\n        /* \"#utility.yul\":13812:13815   */\n      dup3\n        /* \"#utility.yul\":13723:13816   */\n      tag_439\n      jump\t// in\n    tag_609:\n        /* \"#utility.yul\":13841:13843   */\n      0x20\n        /* \"#utility.yul\":13836:13839   */\n      dup3\n        /* \"#utility.yul\":13832:13844   */\n      add\n        /* \"#utility.yul\":13825:13844   */\n      swap1\n      pop\n        /* \"#utility.yul\":13484:13850   */\n      swap2\n      swap1\n      pop\n      jump\t// out\n        /* \"#utility.yul\":13856:14275   */\n    tag_208:\n        /* \"#utility.yul\":14022:14026   */\n      0x00\n        /* \"#utility.yul\":14060:14062   */\n      0x20\n        /* \"#utility.yul\":14049:14058   */\n      dup3\n        /* \"#utility.yul\":14045:14063   */\n      add\n        /* \"#utility.yul\":14037:14063   */\n      swap1\n      pop\n        /* \"#utility.yul\":14109:14118   */\n      dup2\n        /* \"#utility.yul\":14103:14107   */\n      dup2\n        /* \"#utility.yul\":14099:14119   */\n      sub\n        /* \"#utility.yul\":14095:14096   */\n      0x00\n        /* \"#utility.yul\":14084:14093   */\n      dup4\n        /* \"#utility.yul\":14080:14097   */\n      add\n        /* \"#utility.yul\":14073:14120   */\n      mstore\n        /* \"#utility.yul\":14137:14268   */\n      tag_611\n        /* \"#utility.yul\":14263:14267   */\n      dup2\n        /* \"#utility.yul\":14137:14268   */\n      tag_440\n      jump\t// in\n    tag_611:\n        /* \"#utility.yul\":14129:14268   */\n      swap1\n      pop\n        /* \"#utility.yul\":13856:14275   */\n      swap2\n      swap1\n      pop\n      jump\t// out\n        /* \"#utility.yul\":14281:14452   */\n    tag_441:\n        /* \"#utility.yul\":14421:14444   */\n      0x496e636f72726563742045746865722076616c75650000000000000000000000\n        /* \"#utility.yul\":14417:14418   */\n      0x00\n        /* \"#utility.yul\":14409:14415   */\n      dup3\n        /* \"#utility.yul\":14405:14419   */\n      add\n        /* \"#utility.yul\":14398:14445   */\n      mstore\n        /* \"#utility.yul\":14281:14452   */\n      pop\n      jump\t// out\n        /* \"#utility.yul\":14458:14824   */\n    tag_442:\n        /* \"#utility.yul\":14600:14603   */\n      0x00\n        /* \"#utility.yul\":14621:14688   */\n      tag_614\n        /* \"#utility.yul\":14685:14687   */\n      0x15\n        /* \"#utility.yul\":14680:14683   */\n      dup4\n        /* \"#utility.yul\":14621:14688   */\n      tag_409\n      jump\t// in\n    tag_614:\n        /* \"#utility.yul\":14614:14688   */\n      swap2\n      pop\n        /* \"#utility.yul\":14697:14790   */\n      tag_615\n        /* \"#utility.yul\":14786:14789   */\n      dup3\n        /* \"#utility.yul\":14697:14790   */\n      tag_441\n      jump\t// in\n    tag_615:\n        /* \"#utility.yul\":14815:14817   */\n      0x20\n        /* \"#utility.yul\":14810:14813   */\n      dup3\n        /* \"#utility.yul\":14806:14818   */\n      add\n        /* \"#utility.yul\":14799:14818   */\n      swap1\n      pop\n        /* \"#utility.yul\":14458:14824   */\n      swap2\n      swap1\n      pop\n      jump\t// out\n        /* \"#utility.yul\":14830:15249   */\n    tag_211:\n        /* \"#utility.yul\":14996:15000   */\n      0x00\n        /* \"#utility.yul\":15034:15036   */\n      0x20\n        /* \"#utility.yul\":15023:15032   */\n      dup3\n        /* \"#utility.yul\":15019:15037   */\n      add\n        /* \"#utility.yul\":15011:15037   */\n      swap1\n      pop\n        /* \"#utility.yul\":15083:15092   */\n      dup2\n        /* \"#utility.yul\":15077:15081   */\n      dup2\n        /* \"#utility.yul\":15073:15093   */\n      sub\n        /* \"#utility.yul\":15069:15070   */\n      0x00\n        /* \"#utility.yul\":15058:15067   */\n      dup4\n        /* \"#utility.yul\":15054:15071   */\n      add\n        /* \"#utility.yul\":15047:15094   */\n      mstore\n        /* \"#utility.yul\":15111:15242   */\n      tag_617\n        /* \"#utility.yul\":15237:15241   */\n      dup2\n        /* \"#utility.yul\":15111:15242   */\n      tag_442\n      jump\t// in\n    tag_617:\n        /* \"#utility.yul\":15103:15242   */\n      swap1\n      pop\n        /* \"#utility.yul\":14830:15249   */\n      swap2\n      swap1\n      pop\n      jump\t// out\n        /* \"#utility.yul\":15255:15431   */\n    tag_443:\n        /* \"#utility.yul\":15395:15423   */\n      0x416464726573732068617320616c7265616479206d696e746564000000000000\n        /* \"#utility.yul\":15391:15392   */\n      0x00\n        /* \"#utility.yul\":15383:15389   */\n      dup3\n        /* \"#utility.yul\":15379:15393   */\n      add\n        /* \"#utility.yul\":15372:15424   */\n      mstore\n        /* \"#utility.yul\":15255:15431   */\n      pop\n      jump\t// out\n        /* \"#utility.yul\":15437:15803   */\n    tag_444:\n        /* \"#utility.yul\":15579:15582   */\n      0x00\n        /* \"#utility.yul\":15600:15667   */\n      tag_620\n        /* \"#utility.yul\":15664:15666   */\n      0x1a\n        /* \"#utility.yul\":15659:15662   */\n      dup4\n        /* \"#utility.yul\":15600:15667   */\n      tag_409\n      jump\t// in\n    tag_620:\n        /* \"#utility.yul\":15593:15667   */\n      swap2\n      pop\n        /* \"#utility.yul\":15676:15769   */\n      tag_621\n        /* \"#utility.yul\":15765:15768   */\n      dup3\n        /* \"#utility.yul\":15676:15769   */\n      tag_443\n      jump\t// in\n    tag_621:\n        /* \"#utility.yul\":15794:15796   */\n      0x20\n        /* \"#utility.yul\":15789:15792   */\n      dup3\n        /* \"#utility.yul\":15785:15797   */\n      add\n        /* \"#utility.yul\":15778:15797   */\n      swap1\n      pop\n        /* \"#utility.yul\":15437:15803   */\n      swap2\n      swap1\n      pop\n      jump\t// out\n        /* \"#utility.yul\":15809:16228   */\n    tag_214:\n        /* \"#utility.yul\":15975:15979   */\n      0x00\n        /* \"#utility.yul\":16013:16015   */\n      0x20\n        /* \"#utility.yul\":16002:16011   */\n      dup3\n        /* \"#utility.yul\":15998:16016   */\n      add\n        /* \"#utility.yul\":15990:16016   */\n      swap1\n      pop\n        /* \"#utility.yul\":16062:16071   */\n      dup2\n        /* \"#utility.yul\":16056:16060   */\n      dup2\n        /* \"#utility.yul\":16052:16072   */\n      sub\n        /* \"#utility.yul\":16048:16049   */\n      0x00\n        /* \"#utility.yul\":16037:16046   */\n      dup4\n        /* \"#utility.yul\":16033:16050   */\n      add\n        /* \"#utility.yul\":16026:16073   */\n      mstore\n        /* \"#utility.yul\":16090:16221   */\n      tag_623\n        /* \"#utility.yul\":16216:16220   */\n      dup2\n        /* \"#utility.yul\":16090:16221   */\n      tag_444\n      jump\t// in\n    tag_623:\n        /* \"#utility.yul\":16082:16221   */\n      swap1\n      pop\n        /* \"#utility.yul\":15809:16228   */\n      swap2\n      swap1\n      pop\n      jump\t// out\n        /* \"#utility.yul\":16234:16467   */\n    tag_216:\n        /* \"#utility.yul\":16273:16276   */\n      0x00\n        /* \"#utility.yul\":16296:16320   */\n      tag_625\n        /* \"#utility.yul\":16314:16319   */\n      dup3\n        /* \"#utility.yul\":16296:16320   */\n      tag_413\n      jump\t// in\n    tag_625:\n        /* \"#utility.yul\":16287:16320   */\n      swap2\n      pop\n        /* \"#utility.yul\":16342:16408   */\n      0xffffffffffffffffffffffffffffffffffffffffffffffffffffffffffffffff\n        /* \"#utility.yul\":16335:16340   */\n      dup3\n        /* \"#utility.yul\":16332:16409   */\n      sub\n        /* \"#utility.yul\":16329:16432   */\n      tag_626\n      jumpi\n        /* \"#utility.yul\":16412:16430   */\n      tag_627\n      tag_438\n      jump\t// in\n    tag_627:\n        /* \"#utility.yul\":16329:16432   */\n    tag_626:\n        /* \"#utility.yul\":16459:16460   */\n      0x01\n        /* \"#utility.yul\":16452:16457   */\n      dup3\n        /* \"#utility.yul\":16448:16461   */\n      add\n        /* \"#utility.yul\":16441:16461   */\n      swap1\n      pop\n        /* \"#utility.yul\":16234:16467   */\n      swap2\n      swap1\n      pop\n      jump\t// out\n        /* \"#utility.yul\":16473:16805   */\n    tag_222:\n        /* \"#utility.yul\":16594:16598   */\n      0x00\n        /* \"#utility.yul\":16632:16634   */\n      0x40\n        /* \"#utility.yul\":16621:16630   */\n      dup3\n        /* \"#utility.yul\":16617:16635   */\n      add\n        /* \"#utility.yul\":16609:16635   */\n      swap1\n      pop\n        /* \"#utility.yul\":16645:16716   */\n      tag_629\n        /* \"#utility.yul\":16713:16714   */\n      0x00\n        /* \"#utility.yul\":16702:16711   */\n      dup4\n        /* \"#utility.yul\":16698:16715   */\n      add\n        /* \"#utility.yul\":16689:16695   */\n      dup6\n        /* \"#utility.yul\":16645:16716   */\n      tag_418\n      jump\t// in\n    tag_629:\n        /* \"#utility.yul\":16726:16798   */\n      tag_630\n        /* \"#utility.yul\":16794:16796   */\n      0x20\n        /* \"#utility.yul\":16783:16792   */\n      dup4\n        /* \"#utility.yul\":16779:16797   */\n      add\n        /* \"#utility.yul\":16770:16776   */\n      dup5\n        /* \"#utility.yul\":16726:16798   */\n      tag_421\n      jump\t// in\n    tag_630:\n        /* \"#utility.yul\":16473:16805   */\n      swap4\n      swap3\n      pop\n      pop\n      pop\n      jump\t// out\n        /* \"#utility.yul\":16811:17253   */\n    tag_233:\n        /* \"#utility.yul\":16960:16964   */\n      0x00\n        /* \"#utility.yul\":16998:17000   */\n      0x60\n        /* \"#utility.yul\":16987:16996   */\n      dup3\n        /* \"#utility.yul\":16983:17001   */\n      add\n        /* \"#utility.yul\":16975:17001   */\n      swap1\n      pop\n        /* \"#utility.yul\":17011:17082   */\n      tag_632\n        /* \"#utility.yul\":17079:17080   */\n      0x00\n        /* \"#utility.yul\":17068:17077   */\n      dup4\n        /* \"#utility.yul\":17064:17081   */\n      add\n        /* \"#utility.yul\":17055:17061   */\n      dup7\n        /* \"#utility.yul\":17011:17082   */\n      tag_418\n      jump\t// in\n    tag_632:\n        /* \"#utility.yul\":17092:17164   */\n      tag_633\n        /* \"#utility.yul\":17160:17162   */\n      0x20\n        /* \"#utility.yul\":17149:17158   */\n      dup4\n        /* \"#utility.yul\":17145:17163   */\n      add\n        /* \"#utility.yul\":17136:17142   */\n      dup6\n        /* \"#utility.yul\":17092:17164   */\n      tag_421\n      jump\t// in\n    tag_633:\n        /* \"#utility.yul\":17174:17246   */\n      tag_634\n        /* \"#utility.yul\":17242:17244   */\n      0x40\n        /* \"#utility.yul\":17231:17240   */\n      dup4\n        /* \"#utility.yul\":17227:17245   */\n      add\n        /* \"#utility.yul\":17218:17224   */\n      dup5\n        /* \"#utility.yul\":17174:17246   */\n      tag_418\n      jump\t// in\n    tag_634:\n        /* \"#utility.yul\":16811:17253   */\n      swap5\n      swap4\n      pop\n      pop\n      pop\n      pop\n      jump\t// out\n        /* \"#utility.yul\":17259:17429   */\n    tag_445:\n        /* \"#utility.yul\":17399:17421   */\n      0x4e6f2066756e647320746f207769746864726177000000000000000000000000\n        /* \"#utility.yul\":17395:17396   */\n      0x00\n        /* \"#utility.yul\":17387:17393   */\n      dup3\n        /* \"#utility.yul\":17383:17397   */\n      add\n        /* \"#utility.yul\":17376:17422   */\n      mstore\n        /* \"#utility.yul\":17259:17429   */\n      pop\n      jump\t// out\n        /* \"#utility.yul\":17435:17801   */\n    tag_446:\n        /* \"#utility.yul\":17577:17580   */\n      0x00\n        /* \"#utility.yul\":17598:17665   */\n      tag_637\n        /* \"#utility.yul\":17662:17664   */\n      0x14\n        /* \"#utility.yul\":17657:17660   */\n      dup4\n        /* \"#utility.yul\":17598:17665   */\n      tag_409\n      jump\t// in\n    tag_637:\n        /* \"#utility.yul\":17591:17665   */\n      swap2\n      pop\n        /* \"#utility.yul\":17674:17767   */\n      tag_638\n        /* \"#utility.yul\":17763:17766   */\n      dup3\n        /* \"#utility.yul\":17674:17767   */\n      tag_445\n      jump\t// in\n    tag_638:\n        /* \"#utility.yul\":17792:17794   */\n      0x20\n        /* \"#utility.yul\":17787:17790   */\n      dup3\n        /* \"#utility.yul\":17783:17795   */\n      add\n        /* \"#utility.yul\":17776:17795   */\n      swap1\n      pop\n        /* \"#utility.yul\":17435:17801   */\n      swap2\n      swap1\n      pop\n      jump\t// out\n        /* \"#utility.yul\":17807:18226   */\n    tag_242:\n        /* \"#utility.yul\":17973:17977   */\n      0x00\n        /* \"#utility.yul\":18011:18013   */\n      0x20\n        /* \"#utility.yul\":18000:18009   */\n      dup3\n        /* \"#utility.yul\":17996:18014   */\n      add\n        /* \"#utility.yul\":17988:18014   */\n      swap1\n      pop\n        /* \"#utility.yul\":18060:18069   */\n      dup2\n        /* \"#utility.yul\":18054:18058   */\n      dup2\n        /* \"#utility.yul\":18050:18070   */\n      sub\n        /* \"#utility.yul\":18046:18047   */\n      0x00\n        /* \"#utility.yul\":18035:18044   */\n      dup4\n        /* \"#utility.yul\":18031:18048   */\n      add\n        /* \"#utility.yul\":18024:18071   */\n      mstore\n        /* \"#utility.yul\":18088:18219   */\n      tag_640\n        /* \"#utility.yul\":18214:18218   */\n      dup2\n        /* \"#utility.yul\":18088:18219   */\n      tag_446\n      jump\t// in\n    tag_640:\n        /* \"#utility.yul\":18080:18219   */\n      swap1\n      pop\n        /* \"#utility.yul\":17807:18226   */\n      swap2\n      swap1\n      pop\n      jump\t// out\n        /* \"#utility.yul\":18232:18379   */\n    tag_447:\n        /* \"#utility.yul\":18333:18344   */\n      0x00\n        /* \"#utility.yul\":18370:18373   */\n      dup2\n        /* \"#utility.yul\":18355:18373   */\n      swap1\n      pop\n        /* \"#utility.yul\":18232:18379   */\n      swap3\n      swap2\n      pop\n      pop\n      jump\t// out\n        /* \"#utility.yul\":18385:18499   */\n    tag_448:\n      pop\n      jump\t// out\n        /* \"#utility.yul\":18505:18903   */\n    tag_449:\n        /* \"#utility.yul\":18664:18667   */\n      0x00\n        /* \"#utility.yul\":18685:18768   */\n      tag_644\n        /* \"#utility.yul\":18766:18767   */\n      0x00\n        /* \"#utility.yul\":18761:18764   */\n      dup4\n        /* \"#utility.yul\":18685:18768   */\n      tag_447\n      jump\t// in\n    tag_644:\n        /* \"#utility.yul\":18678:18768   */\n      swap2\n      pop\n        /* \"#utility.yul\":18777:18870   */\n      tag_645\n        /* \"#utility.yul\":18866:18869   */\n      dup3\n        /* \"#utility.yul\":18777:18870   */\n      tag_448\n      jump\t// in\n    tag_645:\n        /* \"#utility.yul\":18895:18896   */\n      0x00\n        /* \"#utility.yul\":18890:18893   */\n      dup3\n        /* \"#utility.yul\":18886:18897   */\n      add\n        /* \"#utility.yul\":18879:18897   */\n      swap1\n      pop\n        /* \"#utility.yul\":18505:18903   */\n      swap2\n      swap1\n      pop\n      jump\t// out\n        /* \"#utility.yul\":18909:19288   */\n    tag_245:\n        /* \"#utility.yul\":19093:19096   */\n      0x00\n        /* \"#utility.yul\":19115:19262   */\n      tag_647\n        /* \"#utility.yul\":19258:19261   */\n      dup3\n        /* \"#utility.yul\":19115:19262   */\n      tag_449\n      jump\t// in\n    tag_647:\n        /* \"#utility.yul\":19108:19262   */\n      swap2\n      pop\n        /* \"#utility.yul\":19279:19282   */\n      dup2\n        /* \"#utility.yul\":19272:19282   */\n      swap1\n      pop\n        /* \"#utility.yul\":18909:19288   */\n      swap2\n      swap1\n      pop\n      jump\t// out\n        /* \"#utility.yul\":19294:19461   */\n    tag_450:\n        /* \"#utility.yul\":19434:19453   */\n      0x5769746864726177616c206661696c6564000000000000000000000000000000\n        /* \"#utility.yul\":19430:19431   */\n      0x00\n        /* \"#utility.yul\":19422:19428   */\n      dup3\n        /* \"#utility.yul\":19418:19432   */\n      add\n        /* \"#utility.yul\":19411:19454   */\n      mstore\n        /* \"#utility.yul\":19294:19461   */\n      pop\n      jump\t// out\n        /* \"#utility.yul\":19467:19833   */\n    tag_451:\n        /* \"#utility.yul\":19609:19612   */\n      0x00\n        /* \"#utility.yul\":19630:19697   */\n      tag_650\n        /* \"#utility.yul\":19694:19696   */\n      0x11\n        /* \"#utility.yul\":19689:19692   */\n      dup4\n        /* \"#utility.yul\":19630:19697   */\n      tag_409\n      jump\t// in\n    tag_650:\n        /* \"#utility.yul\":19623:19697   */\n      swap2\n      pop\n        /* \"#utility.yul\":19706:19799   */\n      tag_651\n        /* \"#utility.yul\":19795:19798   */\n      dup3\n        /* \"#utility.yul\":19706:19799   */\n      tag_450\n      jump\t// in\n    tag_651:\n        /* \"#utility.yul\":19824:19826   */\n      0x20\n        /* \"#utility.yul\":19819:19822   */\n      dup3\n        /* \"#utility.yul\":19815:19827   */\n      add\n        /* \"#utility.yul\":19808:19827   */\n      swap1\n      pop\n        /* \"#utility.yul\":19467:19833   */\n      swap2\n      swap1\n      pop\n      jump\t// out\n        /* \"#utility.yul\":19839:20258   */\n    tag_251:\n        /* \"#utility.yul\":20005:20009   */\n      0x00\n        /* \"#utility.yul\":20043:20045   */\n      0x20\n        /* \"#utility.yul\":20032:20041   */\n      dup3\n        /* \"#utility.yul\":20028:20046   */\n      add\n        /* \"#utility.yul\":20020:20046   */\n      swap1\n      pop\n        /* \"#utility.yul\":20092:20101   */\n      dup2\n        /* \"#utility.yul\":20086:20090   */\n      dup2\n        /* \"#utility.yul\":20082:20102   */\n      sub\n        /* \"#utility.yul\":20078:20079   */\n      0x00\n        /* \"#utility.yul\":20067:20076   */\n      dup4\n        /* \"#utility.yul\":20063:20080   */\n      add\n        /* \"#utility.yul\":20056:20103   */\n      mstore\n        /* \"#utility.yul\":20120:20251   */\n      tag_653\n        /* \"#utility.yul\":20246:20250   */\n      dup2\n        /* \"#utility.yul\":20120:20251   */\n      tag_451\n      jump\t// in\n    tag_653:\n        /* \"#utility.yul\":20112:20251   */\n      swap1\n      pop\n        /* \"#utility.yul\":19839:20258   */\n      swap2\n      swap1\n      pop\n      jump\t// out\n        /* \"#utility.yul\":20264:20443   */\n    tag_452:\n        /* \"#utility.yul\":20404:20435   */\n      0x4d696e742047656e6573697320426f6f6d6572204e4654206669727374000000\n        /* \"#utility.yul\":20400:20401   */\n      0x00\n        /* \"#utility.yul\":20392:20398   */\n      dup3\n        /* \"#utility.yul\":20388:20402   */\n      add\n        /* \"#utility.yul\":20381:20436   */\n      mstore\n        /* \"#utility.yul\":20264:20443   */\n      pop\n      jump\t// out\n        /* \"#utility.yul\":20449:20815   */\n    tag_453:\n        /* \"#utility.yul\":20591:20594   */\n      0x00\n        /* \"#utility.yul\":20612:20679   */\n      tag_656\n        /* \"#utility.yul\":20676:20678   */\n      0x1d\n        /* \"#utility.yul\":20671:20674   */\n      dup4\n        /* \"#utility.yul\":20612:20679   */\n      tag_409\n      jump\t// in\n    tag_656:\n        /* \"#utility.yul\":20605:20679   */\n      swap2\n      pop\n        /* \"#utility.yul\":20688:20781   */\n      tag_657\n        /* \"#utility.yul\":20777:20780   */\n      dup3\n        /* \"#utility.yul\":20688:20781   */\n      tag_452\n      jump\t// in\n    tag_657:\n        /* \"#utility.yul\":20806:20808   */\n      0x20\n        /* \"#utility.yul\":20801:20804   */\n      dup3\n        /* \"#utility.yul\":20797:20809   */\n      add\n        /* \"#utility.yul\":20790:20809   */\n      swap1\n      pop\n        /* \"#utility.yul\":20449:20815   */\n      swap2\n      swap1\n      pop\n      jump\t// out\n        /* \"#utility.yul\":20821:21240   */\n    tag_286:\n        /* \"#utility.yul\":20987:20991   */\n      0x00\n        /* \"#utility.yul\":21025:21027   */\n      0x20\n        /* \"#utility.yul\":21014:21023   */\n      dup3\n        /* \"#utility.yul\":21010:21028   */\n      add\n        /* \"#utility.yul\":21002:21028   */\n      swap1\n      pop\n        /* \"#utility.yul\":21074:21083   */\n      dup2\n        /* \"#utility.yul\":21068:21072   */\n      dup2\n        /* \"#utility.yul\":21064:21084   */\n      sub\n        /* \"#utility.yul\":21060:21061   */\n      0x00\n        /* \"#utility.yul\":21049:21058   */\n      dup4\n        /* \"#utility.yul\":21045:21062   */\n      add\n        /* \"#utility.yul\":21038:21085   */\n      mstore\n        /* \"#utility.yul\":21102:21233   */\n      tag_659\n        /* \"#utility.yul\":21228:21232   */\n      dup2\n        /* \"#utility.yul\":21102:21233   */\n      tag_453\n      jump\t// in\n    tag_659:\n        /* \"#utility.yul\":21094:21233   */\n      swap1\n      pop\n        /* \"#utility.yul\":20821:21240   */\n      swap2\n      swap1\n      pop\n      jump\t// out\n        /* \"#utility.yul\":21246:21412   */\n    tag_454:\n        /* \"#utility.yul\":21386:21404   */\n      0x4d6520427261766520426f6f6d65722100000000000000000000000000000000\n        /* \"#utility.yul\":21382:21383   */\n      0x00\n        /* \"#utility.yul\":21374:21380   */\n      dup3\n        /* \"#utility.yul\":21370:21384   */\n      add\n        /* \"#utility.yul\":21363:21405   */\n      mstore\n        /* \"#utility.yul\":21246:21412   */\n      pop\n      jump\t// out\n        /* \"#utility.yul\":21418:21784   */\n    tag_455:\n        /* \"#utility.yul\":21560:21563   */\n      0x00\n        /* \"#utility.yul\":21581:21648   */\n      tag_662\n        /* \"#utility.yul\":21645:21647   */\n      0x10\n        /* \"#utility.yul\":21640:21643   */\n      dup4\n        /* \"#utility.yul\":21581:21648   */\n      tag_409\n      jump\t// in\n    tag_662:\n        /* \"#utility.yul\":21574:21648   */\n      swap2\n      pop\n        /* \"#utility.yul\":21657:21750   */\n      tag_663\n        /* \"#utility.yul\":21746:21749   */\n      dup3\n        /* \"#utility.yul\":21657:21750   */\n      tag_454\n      jump\t// in\n    tag_663:\n        /* \"#utility.yul\":21775:21777   */\n      0x20\n        /* \"#utility.yul\":21770:21773   */\n      dup3\n        /* \"#utility.yul\":21766:21778   */\n      add\n        /* \"#utility.yul\":21759:21778   */\n      swap1\n      pop\n        /* \"#utility.yul\":21418:21784   */\n      swap2\n      swap1\n      pop\n      jump\t// out\n        /* \"#utility.yul\":21790:22209   */\n    tag_288:\n        /* \"#utility.yul\":21956:21960   */\n      0x00\n        /* \"#utility.yul\":21994:21996   */\n      0x20\n        /* \"#utility.yul\":21983:21992   */\n      dup3\n        /* \"#utility.yul\":21979:21997   */\n      add\n        /* \"#utility.yul\":21971:21997   */\n      swap1\n      pop\n        /* \"#utility.yul\":22043:22052   */\n      dup2\n        /* \"#utility.yul\":22037:22041   */\n      dup2\n        /* \"#utility.yul\":22033:22053   */\n      sub\n        /* \"#utility.yul\":22029:22030   */\n      0x00\n        /* \"#utility.yul\":22018:22027   */\n      dup4\n        /* \"#utility.yul\":22014:22031   */\n      add\n        /* \"#utility.yul\":22007:22054   */\n      mstore\n        /* \"#utility.yul\":22071:22202   */\n      tag_665\n        /* \"#utility.yul\":22197:22201   */\n      dup2\n        /* \"#utility.yul\":22071:22202   */\n      tag_455\n      jump\t// in\n    tag_665:\n        /* \"#utility.yul\":22063:22202   */\n      swap1\n      pop\n        /* \"#utility.yul\":21790:22209   */\n      swap2\n      swap1\n      pop\n      jump\t// out\n        /* \"#utility.yul\":22215:22313   */\n    tag_456:\n        /* \"#utility.yul\":22266:22272   */\n      0x00\n        /* \"#utility.yul\":22300:22305   */\n      dup2\n        /* \"#utility.yul\":22294:22306   */\n      mload\n        /* \"#utility.yul\":22284:22306   */\n      swap1\n      pop\n        /* \"#utility.yul\":22215:22313   */\n      swap2\n      swap1\n      pop\n      jump\t// out\n        /* \"#utility.yul\":22319:22487   */\n    tag_457:\n        /* \"#utility.yul\":22402:22413   */\n      0x00\n        /* \"#utility.yul\":22436:22442   */\n      dup3\n        /* \"#utility.yul\":22431:22434   */\n      dup3\n        /* \"#utility.yul\":22424:22443   */\n      mstore\n        /* \"#utility.yul\":22476:22480   */\n      0x20\n        /* \"#utility.yul\":22471:22474   */\n      dup3\n        /* \"#utility.yul\":22467:22481   */\n      add\n        /* \"#utility.yul\":22452:22481   */\n      swap1\n      pop\n        /* \"#utility.yul\":22319:22487   */\n      swap3\n      swap2\n      pop\n      pop\n      jump\t// out\n        /* \"#utility.yul\":22493:22866   */\n    tag_458:\n        /* \"#utility.yul\":22579:22582   */\n      0x00\n        /* \"#utility.yul\":22607:22645   */\n      tag_669\n        /* \"#utility.yul\":22639:22644   */\n      dup3\n        /* \"#utility.yul\":22607:22645   */\n      tag_456\n      jump\t// in\n    tag_669:\n        /* \"#utility.yul\":22661:22731   */\n      tag_670\n        /* \"#utility.yul\":22724:22730   */\n      dup2\n        /* \"#utility.yul\":22719:22722   */\n      dup6\n        /* \"#utility.yul\":22661:22731   */\n      tag_457\n      jump\t// in\n    tag_670:\n        /* \"#utility.yul\":22654:22731   */\n      swap4\n      pop\n        /* \"#utility.yul\":22740:22805   */\n      tag_671\n        /* \"#utility.yul\":22798:22804   */\n      dup2\n        /* \"#utility.yul\":22793:22796   */\n      dup6\n        /* \"#utility.yul\":22786:22790   */\n      0x20\n        /* \"#utility.yul\":22779:22784   */\n      dup7\n        /* \"#utility.yul\":22775:22791   */\n      add\n        /* \"#utility.yul\":22740:22805   */\n      tag_410\n      jump\t// in\n    tag_671:\n        /* \"#utility.yul\":22830:22859   */\n      tag_672\n        /* \"#utility.yul\":22852:22858   */\n      dup2\n        /* \"#utility.yul\":22830:22859   */\n      tag_411\n      jump\t// in\n    tag_672:\n        /* \"#utility.yul\":22825:22828   */\n      dup5\n        /* \"#utility.yul\":22821:22860   */\n      add\n        /* \"#utility.yul\":22814:22860   */\n      swap2\n      pop\n        /* \"#utility.yul\":22583:22866   */\n      pop\n        /* \"#utility.yul\":22493:22866   */\n      swap3\n      swap2\n      pop\n      pop\n      jump\t// out\n        /* \"#utility.yul\":22872:23512   */\n    tag_348:\n        /* \"#utility.yul\":23067:23071   */\n      0x00\n        /* \"#utility.yul\":23105:23108   */\n      0x80\n        /* \"#utility.yul\":23094:23103   */\n      dup3\n        /* \"#utility.yul\":23090:23109   */\n      add\n        /* \"#utility.yul\":23082:23109   */\n      swap1\n      pop\n        /* \"#utility.yul\":23119:23190   */\n      tag_674\n        /* \"#utility.yul\":23187:23188   */\n      0x00\n        /* \"#utility.yul\":23176:23185   */\n      dup4\n        /* \"#utility.yul\":23172:23189   */\n      add\n        /* \"#utility.yul\":23163:23169   */\n      dup8\n        /* \"#utility.yul\":23119:23190   */\n      tag_418\n      jump\t// in\n    tag_674:\n        /* \"#utility.yul\":23200:23272   */\n      tag_675\n        /* \"#utility.yul\":23268:23270   */\n      0x20\n        /* \"#utility.yul\":23257:23266   */\n      dup4\n        /* \"#utility.yul\":23253:23271   */\n      add\n        /* \"#utility.yul\":23244:23250   */\n      dup7\n        /* \"#utility.yul\":23200:23272   */\n      tag_418\n      jump\t// in\n    tag_675:\n        /* \"#utility.yul\":23282:23354   */\n      tag_676\n        /* \"#utility.yul\":23350:23352   */\n      0x40\n        /* \"#utility.yul\":23339:23348   */\n      dup4\n        /* \"#utility.yul\":23335:23353   */\n      add\n        /* \"#utility.yul\":23326:23332   */\n      dup6\n        /* \"#utility.yul\":23282:23354   */\n      tag_421\n      jump\t// in\n    tag_676:\n        /* \"#utility.yul\":23401:23410   */\n      dup2\n        /* \"#utility.yul\":23395:23399   */\n      dup2\n        /* \"#utility.yul\":23391:23411   */\n      sub\n        /* \"#utility.yul\":23386:23388   */\n      0x60\n        /* \"#utility.yul\":23375:23384   */\n      dup4\n        /* \"#utility.yul\":23371:23389   */\n      add\n        /* \"#utility.yul\":23364:23412   */\n      mstore\n        /* \"#utility.yul\":23429:23505   */\n      tag_677\n        /* \"#utility.yul\":23500:23504   */\n      dup2\n        /* \"#utility.yul\":23491:23497   */\n      dup5\n        /* \"#utility.yul\":23429:23505   */\n      tag_458\n      jump\t// in\n    tag_677:\n        /* \"#utility.yul\":23421:23505   */\n      swap1\n      pop\n        /* \"#utility.yul\":22872:23512   */\n      swap6\n      swap5\n      pop\n      pop\n      pop\n      pop\n      pop\n      jump\t// out\n        /* \"#utility.yul\":23518:23659   */\n    tag_459:\n        /* \"#utility.yul\":23574:23579   */\n      0x00\n        /* \"#utility.yul\":23605:23611   */\n      dup2\n        /* \"#utility.yul\":23599:23612   */\n      mload\n        /* \"#utility.yul\":23590:23612   */\n      swap1\n      pop\n        /* \"#utility.yul\":23621:23653   */\n      tag_679\n        /* \"#utility.yul\":23647:23652   */\n      dup2\n        /* \"#utility.yul\":23621:23653   */\n      tag_404\n      jump\t// in\n    tag_679:\n        /* \"#utility.yul\":23518:23659   */\n      swap3\n      swap2\n      pop\n      pop\n      jump\t// out\n        /* \"#utility.yul\":23665:24014   */\n    tag_351:\n        /* \"#utility.yul\":23734:23740   */\n      0x00\n        /* \"#utility.yul\":23783:23785   */\n      0x20\n        /* \"#utility.yul\":23771:23780   */\n      dup3\n        /* \"#utility.yul\":23762:23769   */\n      dup5\n        /* \"#utility.yul\":23758:23781   */\n      sub\n        /* \"#utility.yul\":23754:23786   */\n      slt\n        /* \"#utility.yul\":23751:23870   */\n      iszero\n      tag_681\n      jumpi\n        /* \"#utility.yul\":23789:23868   */\n      tag_682\n      tag_401\n      jump\t// in\n    tag_682:\n        /* \"#utility.yul\":23751:23870   */\n    tag_681:\n        /* \"#utility.yul\":23909:23910   */\n      0x00\n        /* \"#utility.yul\":23934:23997   */\n      tag_683\n        /* \"#utility.yul\":23989:23996   */\n      dup5\n        /* \"#utility.yul\":23980:23986   */\n      dup3\n        /* \"#utility.yul\":23969:23978   */\n      dup6\n        /* \"#utility.yul\":23965:23987   */\n      add\n        /* \"#utility.yul\":23934:23997   */\n      tag_459\n      jump\t// in\n    tag_683:\n        /* \"#utility.yul\":23924:23997   */\n      swap2\n      pop\n        /* \"#utility.yul\":23880:24007   */\n      pop\n        /* \"#utility.yul\":23665:24014   */\n      swap3\n      swap2\n      pop\n      pop\n      jump\t// out\n    stop\n    data_551ea6234a6fde87733602af99d017339fb8e5f47e1e7b73196d3204b49c32c2 697066733a2f2f516d6277756b3771794531585879636f617048566f5771466d673543376e427279366564564c6f38434562643864\n\n    auxdata: 0xa2646970667358221220922ad6e8746d81ba3a49202becb608f799ae5180b53cf637f569a9747498d16064736f6c63430008160033\n}\n",
				"bytecode": {
					"linkReferences": {},
					"object": "60806040525f600760146101000a81548160ff0219169083151502179055503480156200002a575f80fd5b5060405162003fc838038062003fc8833981810160405281019062000050919062000dc5565b336040518060400160405280601081526020017f47656e65736973426f6f6d65724e4654000000000000000000000000000000008152506040518060400160405280600381526020017f4742540000000000000000000000000000000000000000000000000000000000815250815f9081620000cd919062001050565b508060019081620000df919062001050565b50505060016006819055505f73ffffffffffffffffffffffffffffffffffffffff168173ffffffffffffffffffffffffffffffffffffffff16036200015d575f6040517f1e4fbdf700000000000000000000000000000000000000000000000000000000815260040162000154919062001177565b60405180910390fd5b6200016e816200024b60201b60201c565b50806008819055505f6064600f6152086200018a9190620011bf565b62000196919062001236565b90505f600190505b818111620001f657600b5f815480929190620001ba906200126d565b9190505550620001e0620001d36200030e60201b60201c565b826200033660201b60201c565b8080620001ed906200126d565b9150506200019e565b507f30385c845b448a36257a6a1716e6ad2e1bc2cbe333cde1e69fe849ad6511adfe620002286200030e60201b60201c565b600b546040516200023b929190620012ca565b60405180910390a1505062001480565b5f60075f9054906101000a900473ffffffffffffffffffffffffffffffffffffffff1690508160075f6101000a81548173ffffffffffffffffffffffffffffffffffffffff021916908373ffffffffffffffffffffffffffffffffffffffff1602179055508173ffffffffffffffffffffffffffffffffffffffff168173ffffffffffffffffffffffffffffffffffffffff167f8be0079c531659141344cd1fd0a4f28419497f9722a3daafe3b4186f6b6457e060405160405180910390a35050565b5f60075f9054906101000a900473ffffffffffffffffffffffffffffffffffffffff16905090565b62000357828260405180602001604052805f8152506200035b60201b60201c565b5050565b6200036d83836200038660201b60201c565b620003815f8484846200048760201b60201c565b505050565b5f73ffffffffffffffffffffffffffffffffffffffff168273ffffffffffffffffffffffffffffffffffffffff1603620003f9575f6040517f64a0ae92000000000000000000000000000000000000000000000000000000008152600401620003f0919062001177565b60405180910390fd5b5f6200040d83835f6200065060201b60201c565b90505f73ffffffffffffffffffffffffffffffffffffffff168173ffffffffffffffffffffffffffffffffffffffff161462000482575f6040517f73c6ac6e00000000000000000000000000000000000000000000000000000000815260040162000479919062001177565b60405180910390fd5b505050565b5f8373ffffffffffffffffffffffffffffffffffffffff163b11156200064a578273ffffffffffffffffffffffffffffffffffffffff1663150b7a02620004d36200087660201b60201c565b8685856040518563ffffffff1660e01b8152600401620004f7949392919062001389565b6020604051808303815f875af19250505080156200053557506040513d601f19601f8201168201806040525081019062000532919062001435565b60015b620005bc573d805f811462000566576040519150601f19603f3d011682016040523d82523d5f602084013e6200056b565b606091505b505f815103620005b457836040517f64a0ae92000000000000000000000000000000000000000000000000000000008152600401620005ab919062001177565b60405180910390fd5b805181602001fd5b63150b7a0260e01b7bffffffffffffffffffffffffffffffffffffffffffffffffffffffff1916817bffffffffffffffffffffffffffffffffffffffffffffffffffffffff1916146200064857836040517f64a0ae920000000000000000000000000000000000000000000000000000000081526004016200063f919062001177565b60405180910390fd5b505b50505050565b5f8062000663846200087d60201b60201c565b90505f73ffffffffffffffffffffffffffffffffffffffff168373ffffffffffffffffffffffffffffffffffffffff1614620006ad57620006ac818486620008b660201b60201c565b5b5f73ffffffffffffffffffffffffffffffffffffffff168173ffffffffffffffffffffffffffffffffffffffff16146200074157620006f55f855f806200098760201b60201c565b600160035f8373ffffffffffffffffffffffffffffffffffffffff1673ffffffffffffffffffffffffffffffffffffffff1681526020019081526020015f205f82825403925050819055505b5f73ffffffffffffffffffffffffffffffffffffffff168573ffffffffffffffffffffffffffffffffffffffff1614620007c157600160035f8773ffffffffffffffffffffffffffffffffffffffff1673ffffffffffffffffffffffffffffffffffffffff1681526020019081526020015f205f82825401925050819055505b8460025f8681526020019081526020015f205f6101000a81548173ffffffffffffffffffffffffffffffffffffffff021916908373ffffffffffffffffffffffffffffffffffffffff160217905550838573ffffffffffffffffffffffffffffffffffffffff168273ffffffffffffffffffffffffffffffffffffffff167fddf252ad1be2c89b69c2b068fc378daa952ba7f163c4a11628f55a4df523b3ef60405160405180910390a4809150509392505050565b5f33905090565b5f60025f8381526020019081526020015f205f9054906101000a900473ffffffffffffffffffffffffffffffffffffffff169050919050565b620008c983838362000b5e60201b60201c565b62000982575f73ffffffffffffffffffffffffffffffffffffffff168373ffffffffffffffffffffffffffffffffffffffff16036200094157806040517f7e27328900000000000000000000000000000000000000000000000000000000815260040162000938919062001465565b60405180910390fd5b81816040517f177e802f00000000000000000000000000000000000000000000000000000000815260040162000979929190620012ca565b60405180910390fd5b505050565b8080620009c057505f73ffffffffffffffffffffffffffffffffffffffff168273ffffffffffffffffffffffffffffffffffffffff1614155b1562000b09575f620009d88462000c3160201b60201c565b90505f73ffffffffffffffffffffffffffffffffffffffff168373ffffffffffffffffffffffffffffffffffffffff161415801562000a4357508273ffffffffffffffffffffffffffffffffffffffff168173ffffffffffffffffffffffffffffffffffffffff1614155b801562000a5f575062000a5d818462000cc260201b60201c565b155b1562000aa457826040517fa9fbf51f00000000000000000000000000000000000000000000000000000000815260040162000a9b919062001177565b60405180910390fd5b811562000b0757838573ffffffffffffffffffffffffffffffffffffffff168273ffffffffffffffffffffffffffffffffffffffff167f8c5be1e5ebec7d5bd14f71427d1e84f3dd0314c0f7b2291e5b200ac8c7c3b92560405160405180910390a45b505b8360045f8581526020019081526020015f205f6101000a81548173ffffffffffffffffffffffffffffffffffffffff021916908373ffffffffffffffffffffffffffffffffffffffff16021790555050505050565b5f8073ffffffffffffffffffffffffffffffffffffffff168373ffffffffffffffffffffffffffffffffffffffff161415801562000c2857508273ffffffffffffffffffffffffffffffffffffffff168473ffffffffffffffffffffffffffffffffffffffff16148062000be0575062000bdf848462000cc260201b60201c565b5b8062000c2757508273ffffffffffffffffffffffffffffffffffffffff1662000c0f8362000d5060201b60201c565b73ffffffffffffffffffffffffffffffffffffffff16145b5b90509392505050565b5f8062000c44836200087d60201b60201c565b90505f73ffffffffffffffffffffffffffffffffffffffff168173ffffffffffffffffffffffffffffffffffffffff160362000cb957826040517f7e27328900000000000000000000000000000000000000000000000000000000815260040162000cb0919062001465565b60405180910390fd5b80915050919050565b5f60055f8473ffffffffffffffffffffffffffffffffffffffff1673ffffffffffffffffffffffffffffffffffffffff1681526020019081526020015f205f8373ffffffffffffffffffffffffffffffffffffffff1673ffffffffffffffffffffffffffffffffffffffff1681526020019081526020015f205f9054906101000a900460ff16905092915050565b5f60045f8381526020019081526020015f205f9054906101000a900473ffffffffffffffffffffffffffffffffffffffff169050919050565b5f80fd5b5f819050919050565b62000da18162000d8d565b811462000dac575f80fd5b50565b5f8151905062000dbf8162000d96565b92915050565b5f6020828403121562000ddd5762000ddc62000d89565b5b5f62000dec8482850162000daf565b91505092915050565b5f81519050919050565b7f4e487b71000000000000000000000000000000000000000000000000000000005f52604160045260245ffd5b7f4e487b71000000000000000000000000000000000000000000000000000000005f52602260045260245ffd5b5f600282049050600182168062000e7157607f821691505b60208210810362000e875762000e8662000e2c565b5b50919050565b5f819050815f5260205f209050919050565b5f6020601f8301049050919050565b5f82821b905092915050565b5f6008830262000eeb7fffffffffffffffffffffffffffffffffffffffffffffffffffffffffffffffff8262000eae565b62000ef7868362000eae565b95508019841693508086168417925050509392505050565b5f819050919050565b5f62000f3862000f3262000f2c8462000d8d565b62000f0f565b62000d8d565b9050919050565b5f819050919050565b62000f538362000f18565b62000f6b62000f628262000f3f565b84845462000eba565b825550505050565b5f90565b62000f8162000f73565b62000f8e81848462000f48565b505050565b5b8181101562000fb55762000fa95f8262000f77565b60018101905062000f94565b5050565b601f821115620010045762000fce8162000e8d565b62000fd98462000e9f565b8101602085101562000fe9578190505b6200100162000ff88562000e9f565b83018262000f93565b50505b505050565b5f82821c905092915050565b5f620010265f198460080262001009565b1980831691505092915050565b5f62001040838362001015565b9150826002028217905092915050565b6200105b8262000df5565b67ffffffffffffffff81111562001077576200107662000dff565b5b62001083825462000e59565b6200109082828562000fb9565b5f60209050601f831160018114620010c6575f8415620010b1578287015190505b620010bd858262001033565b8655506200112c565b601f198416620010d68662000e8d565b5f5b82811015620010ff57848901518255600182019150602085019450602081019050620010d8565b868310156200111f57848901516200111b601f89168262001015565b8355505b6001600288020188555050505b505050505050565b5f73ffffffffffffffffffffffffffffffffffffffff82169050919050565b5f6200115f8262001134565b9050919050565b620011718162001153565b82525050565b5f6020820190506200118c5f83018462001166565b92915050565b7f4e487b71000000000000000000000000000000000000000000000000000000005f52601160045260245ffd5b5f620011cb8262000d8d565b9150620011d88362000d8d565b9250828202620011e88162000d8d565b9150828204841483151762001202576200120162001192565b5b5092915050565b7f4e487b71000000000000000000000000000000000000000000000000000000005f52601260045260245ffd5b5f620012428262000d8d565b91506200124f8362000d8d565b92508262001262576200126162001209565b5b828204905092915050565b5f620012798262000d8d565b91507fffffffffffffffffffffffffffffffffffffffffffffffffffffffffffffffff8203620012ae57620012ad62001192565b5b600182019050919050565b620012c48162000d8d565b82525050565b5f604082019050620012df5f83018562001166565b620012ee6020830184620012b9565b9392505050565b5f81519050919050565b5f82825260208201905092915050565b5f5b838110156200132e57808201518184015260208101905062001311565b5f8484015250505050565b5f601f19601f8301169050919050565b5f6200135582620012f5565b620013618185620012ff565b9350620013738185602086016200130f565b6200137e8162001339565b840191505092915050565b5f6080820190506200139e5f83018762001166565b620013ad602083018662001166565b620013bc6040830185620012b9565b8181036060830152620013d0818462001349565b905095945050505050565b5f7fffffffff0000000000000000000000000000000000000000000000000000000082169050919050565b6200141181620013db565b81146200141c575f80fd5b50565b5f815190506200142f8162001406565b92915050565b5f602082840312156200144d576200144c62000d89565b5b5f6200145c848285016200141f565b91505092915050565b5f6020820190506200147a5f830184620012b9565b92915050565b612b3a806200148e5f395ff3fe6080604052600436106101cc575f3560e01c806376c71ca1116100f6578063ab63285711610094578063e985e9c511610063578063e985e9c514610606578063f173f78e14610642578063f2fde38b1461066a578063f4a0a52814610692576101cc565b8063ab63285714610562578063b88d4fde1461058c578063b9a2092d146105b4578063c87b56dd146105ca576101cc565b80638da5cb5b116100d05780638da5cb5b146104bc57806395d89b41146104e65780639fd6db1214610510578063a22cb4651461053a576101cc565b806376c71ca11461045257806378ce90351461047c5780637e5cd5c1146104a6576101cc565b806332cb6b0c1161016e5780636352211e1161013d5780636352211e1461039a5780636817c76c146103d657806370a0823114610400578063715018a61461043c576101cc565b806332cb6b0c146102f657806338e21cce146103205780633ccfd60b1461035c57806342842e0e14610372576101cc565b8063095ea7b3116101aa578063095ea7b3146102725780631249c58b1461029a57806318160ddd146102a457806323b872dd146102ce576101cc565b806301ffc9a7146101d057806306fdde031461020c578063081812fc14610236575b5f80fd5b3480156101db575f80fd5b506101f660048036038101906101f19190611f90565b6106ba565b6040516102039190611fd5565b60405180910390f35b348015610217575f80fd5b5061022061079b565b60405161022d9190612078565b60405180910390f35b348015610241575f80fd5b5061025c600480360381019061025791906120cb565b61082a565b6040516102699190612135565b60405180910390f35b34801561027d575f80fd5b5061029860048036038101906102939190612178565b610845565b005b6102a261085b565b005b3480156102af575f80fd5b506102b8610afd565b6040516102c591906121c5565b60405180910390f35b3480156102d9575f80fd5b506102f460048036038101906102ef91906121de565b610b03565b005b348015610301575f80fd5b5061030a610c02565b60405161031791906121c5565b60405180910390f35b34801561032b575f80fd5b506103466004803603810190610341919061222e565b610c08565b6040516103539190611fd5565b60405180910390f35b348015610367575f80fd5b50610370610c25565b005b34801561037d575f80fd5b50610398600480360381019061039391906121de565b610d36565b005b3480156103a5575f80fd5b506103c060048036038101906103bb91906120cb565b610d55565b6040516103cd9190612135565b60405180910390f35b3480156103e1575f80fd5b506103ea610d66565b6040516103f791906121c5565b60405180910390f35b34801561040b575f80fd5b506104266004803603810190610421919061222e565b610d6c565b60405161043391906121c5565b60405180910390f35b348015610447575f80fd5b50610450610e22565b005b34801561045d575f80fd5b50610466610e35565b60405161047391906121c5565b60405180910390f35b348015610487575f80fd5b50610490610e3b565b60405161049d9190612078565b60405180910390f35b3480156104b1575f80fd5b506104ba610e57565b005b3480156104c7575f80fd5b506104d0610ea7565b6040516104dd9190612135565b60405180910390f35b3480156104f1575f80fd5b506104fa610ecf565b6040516105079190612078565b60405180910390f35b34801561051b575f80fd5b50610524610f5f565b6040516105319190611fd5565b60405180910390f35b348015610545575f80fd5b50610560600480360381019061055b9190612283565b610f72565b005b34801561056d575f80fd5b50610576610f88565b60405161058391906121c5565b60405180910390f35b348015610597575f80fd5b506105b260048036038101906105ad91906123ed565b610f8e565b005b3480156105bf575f80fd5b506105c8610fab565b005b3480156105d5575f80fd5b506105f060048036038101906105eb91906120cb565b611082565b6040516105fd9190612078565b60405180910390f35b348015610611575f80fd5b5061062c6004803603810190610627919061246d565b61109d565b6040516106399190611fd5565b60405180910390f35b34801561064d575f80fd5b50610668600480360381019061066391906120cb565b61112b565b005b348015610675575f80fd5b50610690600480360381019061068b919061222e565b611196565b005b34801561069d575f80fd5b506106b860048036038101906106b391906120cb565b61121a565b005b5f7f80ac58cd000000000000000000000000000000000000000000000000000000007bffffffffffffffffffffffffffffffffffffffffffffffffffffffff1916827bffffffffffffffffffffffffffffffffffffffffffffffffffffffff1916148061078457507f5b5e139f000000000000000000000000000000000000000000000000000000007bffffffffffffffffffffffffffffffffffffffffffffffffffffffff1916827bffffffffffffffffffffffffffffffffffffffffffffffffffffffff1916145b80610794575061079382611263565b5b9050919050565b60605f80546107a9906124d8565b80601f01602080910402602001604051908101604052809291908181526020018280546107d5906124d8565b80156108205780601f106107f757610100808354040283529160200191610820565b820191905f5260205f20905b81548152906001019060200180831161080357829003601f168201915b5050505050905090565b5f610834826112cc565b5061083e82611352565b9050919050565b610857828261085261138b565b611392565b5050565b6108636113a4565b600760149054906101000a900460ff166108b2576040517f08c379a00000000000000000000000000000000000000000000000000000000081526004016108a990612552565b60405180910390fd5b600954600a54106108f8576040517f08c379a00000000000000000000000000000000000000000000000000000000081526004016108ef906125ba565b60405180910390fd5b6152086001600b5461090a9190612605565b111561094b576040517f08c379a000000000000000000000000000000000000000000000000000000000815260040161094290612682565b60405180910390fd5b600854341015610990576040517f08c379a0000000000000000000000000000000000000000000000000000000008152600401610987906126ea565b60405180910390fd5b600c5f3373ffffffffffffffffffffffffffffffffffffffff1673ffffffffffffffffffffffffffffffffffffffff1681526020019081526020015f205f9054906101000a900460ff1615610a1a576040517f08c379a0000000000000000000000000000000000000000000000000000000008152600401610a1190612752565b60405180910390fd5b6001600c5f3373ffffffffffffffffffffffffffffffffffffffff1673ffffffffffffffffffffffffffffffffffffffff1681526020019081526020015f205f6101000a81548160ff021916908315150217905550600a5f815480929190610a8190612770565b9190505550600b5f815480929190610a9890612770565b91905055505f6001600b54610aad9190612605565b9050610ab933826113ea565b7f30385c845b448a36257a6a1716e6ad2e1bc2cbe333cde1e69fe849ad6511adfe3382604051610aea9291906127b7565b60405180910390a150610afb611407565b565b600b5481565b5f73ffffffffffffffffffffffffffffffffffffffff168273ffffffffffffffffffffffffffffffffffffffff1603610b73575f6040517f64a0ae92000000000000000000000000000000000000000000000000000000008152600401610b6a9190612135565b60405180910390fd5b5f610b868383610b8161138b565b611411565b90508373ffffffffffffffffffffffffffffffffffffffff168173ffffffffffffffffffffffffffffffffffffffff1614610bfc578382826040517f64283d7b000000000000000000000000000000000000000000000000000000008152600401610bf3939291906127de565b60405180910390fd5b50505050565b61520881565b600c602052805f5260405f205f915054906101000a900460ff1681565b610c2d61161c565b610c356113a4565b5f4790505f8111610c7b576040517f08c379a0000000000000000000000000000000000000000000000000000000008152600401610c729061285d565b60405180910390fd5b5f610c84610ea7565b73ffffffffffffffffffffffffffffffffffffffff1682604051610ca7906128a8565b5f6040518083038185875af1925050503d805f8114610ce1576040519150601f19603f3d011682016040523d82523d5f602084013e610ce6565b606091505b5050905080610d2a576040517f08c379a0000000000000000000000000000000000000000000000000000000008152600401610d2190612906565b60405180910390fd5b5050610d34611407565b565b610d5083838360405180602001604052805f815250610f8e565b505050565b5f610d5f826112cc565b9050919050565b60085481565b5f8073ffffffffffffffffffffffffffffffffffffffff168273ffffffffffffffffffffffffffffffffffffffff1603610ddd575f6040517f89c62b64000000000000000000000000000000000000000000000000000000008152600401610dd49190612135565b60405180910390fd5b60035f8373ffffffffffffffffffffffffffffffffffffffff1673ffffffffffffffffffffffffffffffffffffffff1681526020019081526020015f20549050919050565b610e2a61161c565b610e335f6116a3565b565b60095481565b604051806060016040528060358152602001612ad06035913981565b610e5f61161c565b5f600760146101000a81548160ff0219169083151502179055507faf79b4370f6af9d950564bbe6b81f7f0834c003c455db9248f4e55e6bf865eb760405160405180910390a1565b5f60075f9054906101000a900473ffffffffffffffffffffffffffffffffffffffff16905090565b606060018054610ede906124d8565b80601f0160208091040260200160405190810160405280929190818152602001828054610f0a906124d8565b8015610f555780601f10610f2c57610100808354040283529160200191610f55565b820191905f5260205f20905b815481529060010190602001808311610f3857829003601f168201915b5050505050905090565b600760149054906101000a900460ff1681565b610f84610f7d61138b565b8383611766565b5050565b600a5481565b610f99848484610b03565b610fa5848484846118cf565b50505050565b600c5f3373ffffffffffffffffffffffffffffffffffffffff1673ffffffffffffffffffffffffffffffffffffffff1681526020019081526020015f205f9054906101000a900460ff16611034576040517f08c379a000000000000000000000000000000000000000000000000000000000815260040161102b9061296e565b60405180910390fd5b3373ffffffffffffffffffffffffffffffffffffffff167f845f38efe8bd2a3a720f0571099a52e2258548daffe38bd3c857ebb1c9cf2fb1604051611078906129d6565b60405180910390a2565b606061108d826112cc565b50611096611a81565b9050919050565b5f60055f8473ffffffffffffffffffffffffffffffffffffffff1673ffffffffffffffffffffffffffffffffffffffff1681526020019081526020015f205f8373ffffffffffffffffffffffffffffffffffffffff1673ffffffffffffffffffffffffffffffffffffffff1681526020019081526020015f205f9054906101000a900460ff16905092915050565b61113361161c565b5f600a81905550806009819055506001600760146101000a81548160ff0219169083151502179055507f03efd3ebbc5ed12643b571b325fc9a3eb76c8789615f51b623d8e5bf5116b82f8160405161118b91906121c5565b60405180910390a150565b61119e61161c565b5f73ffffffffffffffffffffffffffffffffffffffff168173ffffffffffffffffffffffffffffffffffffffff160361120e575f6040517f1e4fbdf70000000000000000000000000000000000000000000000000000000081526004016112059190612135565b60405180910390fd5b611217816116a3565b50565b61122261161c565b806008819055507f25b1f9f6b6e61dfca5575239769e4450ed2e49176670837f5d1a82a9a2fc693f8160405161125891906121c5565b60405180910390a150565b5f7f01ffc9a7000000000000000000000000000000000000000000000000000000007bffffffffffffffffffffffffffffffffffffffffffffffffffffffff1916827bffffffffffffffffffffffffffffffffffffffffffffffffffffffff1916149050919050565b5f806112d783611aa1565b90505f73ffffffffffffffffffffffffffffffffffffffff168173ffffffffffffffffffffffffffffffffffffffff160361134957826040517f7e27328900000000000000000000000000000000000000000000000000000000815260040161134091906121c5565b60405180910390fd5b80915050919050565b5f60045f8381526020019081526020015f205f9054906101000a900473ffffffffffffffffffffffffffffffffffffffff169050919050565b5f33905090565b61139f8383836001611ada565b505050565b6002600654036113e0576040517f3ee5aeb500000000000000000000000000000000000000000000000000000000815260040160405180910390fd5b6002600681905550565b611403828260405180602001604052805f815250611c99565b5050565b6001600681905550565b5f8061141c84611aa1565b90505f73ffffffffffffffffffffffffffffffffffffffff168373ffffffffffffffffffffffffffffffffffffffff161461145d5761145c818486611cb4565b5b5f73ffffffffffffffffffffffffffffffffffffffff168173ffffffffffffffffffffffffffffffffffffffff16146114e85761149c5f855f80611ada565b600160035f8373ffffffffffffffffffffffffffffffffffffffff1673ffffffffffffffffffffffffffffffffffffffff1681526020019081526020015f205f82825403925050819055505b5f73ffffffffffffffffffffffffffffffffffffffff168573ffffffffffffffffffffffffffffffffffffffff161461156757600160035f8773ffffffffffffffffffffffffffffffffffffffff1673ffffffffffffffffffffffffffffffffffffffff1681526020019081526020015f205f82825401925050819055505b8460025f8681526020019081526020015f205f6101000a81548173ffffffffffffffffffffffffffffffffffffffff021916908373ffffffffffffffffffffffffffffffffffffffff160217905550838573ffffffffffffffffffffffffffffffffffffffff168273ffffffffffffffffffffffffffffffffffffffff167fddf252ad1be2c89b69c2b068fc378daa952ba7f163c4a11628f55a4df523b3ef60405160405180910390a4809150509392505050565b61162461138b565b73ffffffffffffffffffffffffffffffffffffffff16611642610ea7565b73ffffffffffffffffffffffffffffffffffffffff16146116a15761166561138b565b6040517f118cdaa70000000000000000000000000000000000000000000000000000000081526004016116989190612135565b60405180910390fd5b565b5f60075f9054906101000a900473ffffffffffffffffffffffffffffffffffffffff1690508160075f6101000a81548173ffffffffffffffffffffffffffffffffffffffff021916908373ffffffffffffffffffffffffffffffffffffffff1602179055508173ffffffffffffffffffffffffffffffffffffffff168173ffffffffffffffffffffffffffffffffffffffff167f8be0079c531659141344cd1fd0a4f28419497f9722a3daafe3b4186f6b6457e060405160405180910390a35050565b5f73ffffffffffffffffffffffffffffffffffffffff168273ffffffffffffffffffffffffffffffffffffffff16036117d657816040517f5b08ba180000000000000000000000000000000000000000000000000000000081526004016117cd9190612135565b60405180910390fd5b8060055f8573ffffffffffffffffffffffffffffffffffffffff1673ffffffffffffffffffffffffffffffffffffffff1681526020019081526020015f205f8473ffffffffffffffffffffffffffffffffffffffff1673ffffffffffffffffffffffffffffffffffffffff1681526020019081526020015f205f6101000a81548160ff0219169083151502179055508173ffffffffffffffffffffffffffffffffffffffff168373ffffffffffffffffffffffffffffffffffffffff167f17307eab39ab6107e8899845ad3d59bd9653f200f220920489ca2b5937696c31836040516118c29190611fd5565b60405180910390a3505050565b5f8373ffffffffffffffffffffffffffffffffffffffff163b1115611a7b578273ffffffffffffffffffffffffffffffffffffffff1663150b7a0261191261138b565b8685856040518563ffffffff1660e01b81526004016119349493929190612a46565b6020604051808303815f875af192505050801561196f57506040513d601f19601f8201168201806040525081019061196c9190612aa4565b60015b6119f0573d805f811461199d576040519150601f19603f3d011682016040523d82523d5f602084013e6119a2565b606091505b505f8151036119e857836040517f64a0ae920000000000000000000000000000000000000000000000000000000081526004016119df9190612135565b60405180910390fd5b805181602001fd5b63150b7a0260e01b7bffffffffffffffffffffffffffffffffffffffffffffffffffffffff1916817bffffffffffffffffffffffffffffffffffffffffffffffffffffffff191614611a7957836040517f64a0ae92000000000000000000000000000000000000000000000000000000008152600401611a709190612135565b60405180910390fd5b505b50505050565b6060604051806060016040528060358152602001612ad060359139905090565b5f60025f8381526020019081526020015f205f9054906101000a900473ffffffffffffffffffffffffffffffffffffffff169050919050565b8080611b1257505f73ffffffffffffffffffffffffffffffffffffffff168273ffffffffffffffffffffffffffffffffffffffff1614155b15611c44575f611b21846112cc565b90505f73ffffffffffffffffffffffffffffffffffffffff168373ffffffffffffffffffffffffffffffffffffffff1614158015611b8b57508273ffffffffffffffffffffffffffffffffffffffff168173ffffffffffffffffffffffffffffffffffffffff1614155b8015611b9e5750611b9c818461109d565b155b15611be057826040517fa9fbf51f000000000000000000000000000000000000000000000000000000008152600401611bd79190612135565b60405180910390fd5b8115611c4257838573ffffffffffffffffffffffffffffffffffffffff168273ffffffffffffffffffffffffffffffffffffffff167f8c5be1e5ebec7d5bd14f71427d1e84f3dd0314c0f7b2291e5b200ac8c7c3b92560405160405180910390a45b505b8360045f8581526020019081526020015f205f6101000a81548173ffffffffffffffffffffffffffffffffffffffff021916908373ffffffffffffffffffffffffffffffffffffffff16021790555050505050565b611ca38383611d77565b611caf5f8484846118cf565b505050565b611cbf838383611e6a565b611d72575f73ffffffffffffffffffffffffffffffffffffffff168373ffffffffffffffffffffffffffffffffffffffff1603611d3357806040517f7e273289000000000000000000000000000000000000000000000000000000008152600401611d2a91906121c5565b60405180910390fd5b81816040517f177e802f000000000000000000000000000000000000000000000000000000008152600401611d699291906127b7565b60405180910390fd5b505050565b5f73ffffffffffffffffffffffffffffffffffffffff168273ffffffffffffffffffffffffffffffffffffffff1603611de7575f6040517f64a0ae92000000000000000000000000000000000000000000000000000000008152600401611dde9190612135565b60405180910390fd5b5f611df383835f611411565b90505f73ffffffffffffffffffffffffffffffffffffffff168173ffffffffffffffffffffffffffffffffffffffff1614611e65575f6040517f73c6ac6e000000000000000000000000000000000000000000000000000000008152600401611e5c9190612135565b60405180910390fd5b505050565b5f8073ffffffffffffffffffffffffffffffffffffffff168373ffffffffffffffffffffffffffffffffffffffff1614158015611f2157508273ffffffffffffffffffffffffffffffffffffffff168473ffffffffffffffffffffffffffffffffffffffff161480611ee25750611ee1848461109d565b5b80611f2057508273ffffffffffffffffffffffffffffffffffffffff16611f0883611352565b73ffffffffffffffffffffffffffffffffffffffff16145b5b90509392505050565b5f604051905090565b5f80fd5b5f80fd5b5f7fffffffff0000000000000000000000000000000000000000000000000000000082169050919050565b611f6f81611f3b565b8114611f79575f80fd5b50565b5f81359050611f8a81611f66565b92915050565b5f60208284031215611fa557611fa4611f33565b5b5f611fb284828501611f7c565b91505092915050565b5f8115159050919050565b611fcf81611fbb565b82525050565b5f602082019050611fe85f830184611fc6565b92915050565b5f81519050919050565b5f82825260208201905092915050565b5f5b8381101561202557808201518184015260208101905061200a565b5f8484015250505050565b5f601f19601f8301169050919050565b5f61204a82611fee565b6120548185611ff8565b9350612064818560208601612008565b61206d81612030565b840191505092915050565b5f6020820190508181035f8301526120908184612040565b905092915050565b5f819050919050565b6120aa81612098565b81146120b4575f80fd5b50565b5f813590506120c5816120a1565b92915050565b5f602082840312156120e0576120df611f33565b5b5f6120ed848285016120b7565b91505092915050565b5f73ffffffffffffffffffffffffffffffffffffffff82169050919050565b5f61211f826120f6565b9050919050565b61212f81612115565b82525050565b5f6020820190506121485f830184612126565b92915050565b61215781612115565b8114612161575f80fd5b50565b5f813590506121728161214e565b92915050565b5f806040838503121561218e5761218d611f33565b5b5f61219b85828601612164565b92505060206121ac858286016120b7565b9150509250929050565b6121bf81612098565b82525050565b5f6020820190506121d85f8301846121b6565b92915050565b5f805f606084860312156121f5576121f4611f33565b5b5f61220286828701612164565b935050602061221386828701612164565b9250506040612224868287016120b7565b9150509250925092565b5f6020828403121561224357612242611f33565b5b5f61225084828501612164565b91505092915050565b61226281611fbb565b811461226c575f80fd5b50565b5f8135905061227d81612259565b92915050565b5f806040838503121561229957612298611f33565b5b5f6122a685828601612164565b92505060206122b78582860161226f565b9150509250929050565b5f80fd5b5f80fd5b7f4e487b71000000000000000000000000000000000000000000000000000000005f52604160045260245ffd5b6122ff82612030565b810181811067ffffffffffffffff8211171561231e5761231d6122c9565b5b80604052505050565b5f612330611f2a565b905061233c82826122f6565b919050565b5f67ffffffffffffffff82111561235b5761235a6122c9565b5b61236482612030565b9050602081019050919050565b828183375f83830152505050565b5f61239161238c84612341565b612327565b9050828152602081018484840111156123ad576123ac6122c5565b5b6123b8848285612371565b509392505050565b5f82601f8301126123d4576123d36122c1565b5b81356123e484826020860161237f565b91505092915050565b5f805f806080858703121561240557612404611f33565b5b5f61241287828801612164565b945050602061242387828801612164565b9350506040612434878288016120b7565b925050606085013567ffffffffffffffff81111561245557612454611f37565b5b612461878288016123c0565b91505092959194509250565b5f806040838503121561248357612482611f33565b5b5f61249085828601612164565b92505060206124a185828601612164565b9150509250929050565b7f4e487b71000000000000000000000000000000000000000000000000000000005f52602260045260245ffd5b5f60028204905060018216806124ef57607f821691505b602082108103612502576125016124ab565b5b50919050565b7f4d696e74696e67206973206e6f7420656e61626c6564000000000000000000005f82015250565b5f61253c601683611ff8565b915061254782612508565b602082019050919050565b5f6020820190508181035f83015261256981612530565b9050919050565b7f45786365656473206d696e7420636170000000000000000000000000000000005f82015250565b5f6125a4601083611ff8565b91506125af82612570565b602082019050919050565b5f6020820190508181035f8301526125d181612598565b9050919050565b7f4e487b71000000000000000000000000000000000000000000000000000000005f52601160045260245ffd5b5f61260f82612098565b915061261a83612098565b9250828201905080821115612632576126316125d8565b5b92915050565b7f45786365656473206d617820737570706c7900000000000000000000000000005f82015250565b5f61266c601283611ff8565b915061267782612638565b602082019050919050565b5f6020820190508181035f83015261269981612660565b9050919050565b7f496e636f72726563742045746865722076616c756500000000000000000000005f82015250565b5f6126d4601583611ff8565b91506126df826126a0565b602082019050919050565b5f6020820190508181035f830152612701816126c8565b9050919050565b7f416464726573732068617320616c7265616479206d696e7465640000000000005f82015250565b5f61273c601a83611ff8565b915061274782612708565b602082019050919050565b5f6020820190508181035f83015261276981612730565b9050919050565b5f61277a82612098565b91507fffffffffffffffffffffffffffffffffffffffffffffffffffffffffffffffff82036127ac576127ab6125d8565b5b600182019050919050565b5f6040820190506127ca5f830185612126565b6127d760208301846121b6565b9392505050565b5f6060820190506127f15f830186612126565b6127fe60208301856121b6565b61280b6040830184612126565b949350505050565b7f4e6f2066756e647320746f2077697468647261770000000000000000000000005f82015250565b5f612847601483611ff8565b915061285282612813565b602082019050919050565b5f6020820190508181035f8301526128748161283b565b9050919050565b5f81905092915050565b50565b5f6128935f8361287b565b915061289e82612885565b5f82019050919050565b5f6128b282612888565b9150819050919050565b7f5769746864726177616c206661696c65640000000000000000000000000000005f82015250565b5f6128f0601183611ff8565b91506128fb826128bc565b602082019050919050565b5f6020820190508181035f83015261291d816128e4565b9050919050565b7f4d696e742047656e6573697320426f6f6d6572204e46542066697273740000005f82015250565b5f612958601d83611ff8565b915061296382612924565b602082019050919050565b5f6020820190508181035f8301526129858161294c565b9050919050565b7f4d6520427261766520426f6f6d657221000000000000000000000000000000005f82015250565b5f6129c0601083611ff8565b91506129cb8261298c565b602082019050919050565b5f6020820190508181035f8301526129ed816129b4565b9050919050565b5f81519050919050565b5f82825260208201905092915050565b5f612a18826129f4565b612a2281856129fe565b9350612a32818560208601612008565b612a3b81612030565b840191505092915050565b5f608082019050612a595f830187612126565b612a666020830186612126565b612a7360408301856121b6565b8181036060830152612a858184612a0e565b905095945050505050565b5f81519050612a9e81611f66565b92915050565b5f60208284031215612ab957612ab8611f33565b5b5f612ac684828501612a90565b9150509291505056fe697066733a2f2f516d6277756b3771794531585879636f617048566f5771466d673543376e427279366564564c6f38434562643864a2646970667358221220922ad6e8746d81ba3a49202becb608f799ae5180b53cf637f569a9747498d16064736f6c63430008160033",
					"opcodes": "PUSH1 0x80 PUSH1 0x40 MSTORE PUSH0 PUSH1 0x7 PUSH1 0x14 PUSH2 0x100 EXP DUP2 SLOAD DUP2 PUSH1 0xFF MUL NOT AND SWAP1 DUP4 ISZERO ISZERO MUL OR SWAP1 SSTORE POP CALLVALUE DUP1 ISZERO PUSH3 0x2A JUMPI PUSH0 DUP1 REVERT JUMPDEST POP PUSH1 0x40 MLOAD PUSH3 0x3FC8 CODESIZE SUB DUP1 PUSH3 0x3FC8 DUP4 CODECOPY DUP2 DUP2 ADD PUSH1 0x40 MSTORE DUP2 ADD SWAP1 PUSH3 0x50 SWAP2 SWAP1 PUSH3 0xDC5 JUMP JUMPDEST CALLER PUSH1 0x40 MLOAD DUP1 PUSH1 0x40 ADD PUSH1 0x40 MSTORE DUP1 PUSH1 0x10 DUP2 MSTORE PUSH1 0x20 ADD PUSH32 0x47656E65736973426F6F6D65724E465400000000000000000000000000000000 DUP2 MSTORE POP PUSH1 0x40 MLOAD DUP1 PUSH1 0x40 ADD PUSH1 0x40 MSTORE DUP1 PUSH1 0x3 DUP2 MSTORE PUSH1 0x20 ADD PUSH32 0x4742540000000000000000000000000000000000000000000000000000000000 DUP2 MSTORE POP DUP2 PUSH0 SWAP1 DUP2 PUSH3 0xCD SWAP2 SWAP1 PUSH3 0x1050 JUMP JUMPDEST POP DUP1 PUSH1 0x1 SWAP1 DUP2 PUSH3 0xDF SWAP2 SWAP1 PUSH3 0x1050 JUMP JUMPDEST POP POP POP PUSH1 0x1 PUSH1 0x6 DUP2 SWAP1 SSTORE POP PUSH0 PUSH20 0xFFFFFFFFFFFFFFFFFFFFFFFFFFFFFFFFFFFFFFFF AND DUP2 PUSH20 0xFFFFFFFFFFFFFFFFFFFFFFFFFFFFFFFFFFFFFFFF AND SUB PUSH3 0x15D JUMPI PUSH0 PUSH1 0x40 MLOAD PUSH32 0x1E4FBDF700000000000000000000000000000000000000000000000000000000 DUP2 MSTORE PUSH1 0x4 ADD PUSH3 0x154 SWAP2 SWAP1 PUSH3 0x1177 JUMP JUMPDEST PUSH1 0x40 MLOAD DUP1 SWAP2 SUB SWAP1 REVERT JUMPDEST PUSH3 0x16E DUP2 PUSH3 0x24B PUSH1 0x20 SHL PUSH1 0x20 SHR JUMP JUMPDEST POP DUP1 PUSH1 0x8 DUP2 SWAP1 SSTORE POP PUSH0 PUSH1 0x64 PUSH1 0xF PUSH2 0x5208 PUSH3 0x18A SWAP2 SWAP1 PUSH3 0x11BF JUMP JUMPDEST PUSH3 0x196 SWAP2 SWAP1 PUSH3 0x1236 JUMP JUMPDEST SWAP1 POP PUSH0 PUSH1 0x1 SWAP1 POP JUMPDEST DUP2 DUP2 GT PUSH3 0x1F6 JUMPI PUSH1 0xB PUSH0 DUP2 SLOAD DUP1 SWAP3 SWAP2 SWAP1 PUSH3 0x1BA SWAP1 PUSH3 0x126D JUMP JUMPDEST SWAP2 SWAP1 POP SSTORE POP PUSH3 0x1E0 PUSH3 0x1D3 PUSH3 0x30E PUSH1 0x20 SHL PUSH1 0x20 SHR JUMP JUMPDEST DUP3 PUSH3 0x336 PUSH1 0x20 SHL PUSH1 0x20 SHR JUMP JUMPDEST DUP1 DUP1 PUSH3 0x1ED SWAP1 PUSH3 0x126D JUMP JUMPDEST SWAP2 POP POP PUSH3 0x19E JUMP JUMPDEST POP PUSH32 0x30385C845B448A36257A6A1716E6AD2E1BC2CBE333CDE1E69FE849AD6511ADFE PUSH3 0x228 PUSH3 0x30E PUSH1 0x20 SHL PUSH1 0x20 SHR JUMP JUMPDEST PUSH1 0xB SLOAD PUSH1 0x40 MLOAD PUSH3 0x23B SWAP3 SWAP2 SWAP1 PUSH3 0x12CA JUMP JUMPDEST PUSH1 0x40 MLOAD DUP1 SWAP2 SUB SWAP1 LOG1 POP POP PUSH3 0x1480 JUMP JUMPDEST PUSH0 PUSH1 0x7 PUSH0 SWAP1 SLOAD SWAP1 PUSH2 0x100 EXP SWAP1 DIV PUSH20 0xFFFFFFFFFFFFFFFFFFFFFFFFFFFFFFFFFFFFFFFF AND SWAP1 POP DUP2 PUSH1 0x7 PUSH0 PUSH2 0x100 EXP DUP2 SLOAD DUP2 PUSH20 0xFFFFFFFFFFFFFFFFFFFFFFFFFFFFFFFFFFFFFFFF MUL NOT AND SWAP1 DUP4 PUSH20 0xFFFFFFFFFFFFFFFFFFFFFFFFFFFFFFFFFFFFFFFF AND MUL OR SWAP1 SSTORE POP DUP2 PUSH20 0xFFFFFFFFFFFFFFFFFFFFFFFFFFFFFFFFFFFFFFFF AND DUP2 PUSH20 0xFFFFFFFFFFFFFFFFFFFFFFFFFFFFFFFFFFFFFFFF AND PUSH32 0x8BE0079C531659141344CD1FD0A4F28419497F9722A3DAAFE3B4186F6B6457E0 PUSH1 0x40 MLOAD PUSH1 0x40 MLOAD DUP1 SWAP2 SUB SWAP1 LOG3 POP POP JUMP JUMPDEST PUSH0 PUSH1 0x7 PUSH0 SWAP1 SLOAD SWAP1 PUSH2 0x100 EXP SWAP1 DIV PUSH20 0xFFFFFFFFFFFFFFFFFFFFFFFFFFFFFFFFFFFFFFFF AND SWAP1 POP SWAP1 JUMP JUMPDEST PUSH3 0x357 DUP3 DUP3 PUSH1 0x40 MLOAD DUP1 PUSH1 0x20 ADD PUSH1 0x40 MSTORE DUP1 PUSH0 DUP2 MSTORE POP PUSH3 0x35B PUSH1 0x20 SHL PUSH1 0x20 SHR JUMP JUMPDEST POP POP JUMP JUMPDEST PUSH3 0x36D DUP4 DUP4 PUSH3 0x386 PUSH1 0x20 SHL PUSH1 0x20 SHR JUMP JUMPDEST PUSH3 0x381 PUSH0 DUP5 DUP5 DUP5 PUSH3 0x487 PUSH1 0x20 SHL PUSH1 0x20 SHR JUMP JUMPDEST POP POP POP JUMP JUMPDEST PUSH0 PUSH20 0xFFFFFFFFFFFFFFFFFFFFFFFFFFFFFFFFFFFFFFFF AND DUP3 PUSH20 0xFFFFFFFFFFFFFFFFFFFFFFFFFFFFFFFFFFFFFFFF AND SUB PUSH3 0x3F9 JUMPI PUSH0 PUSH1 0x40 MLOAD PUSH32 0x64A0AE9200000000000000000000000000000000000000000000000000000000 DUP2 MSTORE PUSH1 0x4 ADD PUSH3 0x3F0 SWAP2 SWAP1 PUSH3 0x1177 JUMP JUMPDEST PUSH1 0x40 MLOAD DUP1 SWAP2 SUB SWAP1 REVERT JUMPDEST PUSH0 PUSH3 0x40D DUP4 DUP4 PUSH0 PUSH3 0x650 PUSH1 0x20 SHL PUSH1 0x20 SHR JUMP JUMPDEST SWAP1 POP PUSH0 PUSH20 0xFFFFFFFFFFFFFFFFFFFFFFFFFFFFFFFFFFFFFFFF AND DUP2 PUSH20 0xFFFFFFFFFFFFFFFFFFFFFFFFFFFFFFFFFFFFFFFF AND EQ PUSH3 0x482 JUMPI PUSH0 PUSH1 0x40 MLOAD PUSH32 0x73C6AC6E00000000000000000000000000000000000000000000000000000000 DUP2 MSTORE PUSH1 0x4 ADD PUSH3 0x479 SWAP2 SWAP1 PUSH3 0x1177 JUMP JUMPDEST PUSH1 0x40 MLOAD DUP1 SWAP2 SUB SWAP1 REVERT JUMPDEST POP POP POP JUMP JUMPDEST PUSH0 DUP4 PUSH20 0xFFFFFFFFFFFFFFFFFFFFFFFFFFFFFFFFFFFFFFFF AND EXTCODESIZE GT ISZERO PUSH3 0x64A JUMPI DUP3 PUSH20 0xFFFFFFFFFFFFFFFFFFFFFFFFFFFFFFFFFFFFFFFF AND PUSH4 0x150B7A02 PUSH3 0x4D3 PUSH3 0x876 PUSH1 0x20 SHL PUSH1 0x20 SHR JUMP JUMPDEST DUP7 DUP6 DUP6 PUSH1 0x40 MLOAD DUP6 PUSH4 0xFFFFFFFF AND PUSH1 0xE0 SHL DUP2 MSTORE PUSH1 0x4 ADD PUSH3 0x4F7 SWAP5 SWAP4 SWAP3 SWAP2 SWAP1 PUSH3 0x1389 JUMP JUMPDEST PUSH1 0x20 PUSH1 0x40 MLOAD DUP1 DUP4 SUB DUP2 PUSH0 DUP8 GAS CALL SWAP3 POP POP POP DUP1 ISZERO PUSH3 0x535 JUMPI POP PUSH1 0x40 MLOAD RETURNDATASIZE PUSH1 0x1F NOT PUSH1 0x1F DUP3 ADD AND DUP3 ADD DUP1 PUSH1 0x40 MSTORE POP DUP2 ADD SWAP1 PUSH3 0x532 SWAP2 SWAP1 PUSH3 0x1435 JUMP JUMPDEST PUSH1 0x1 JUMPDEST PUSH3 0x5BC JUMPI RETURNDATASIZE DUP1 PUSH0 DUP2 EQ PUSH3 0x566 JUMPI PUSH1 0x40 MLOAD SWAP2 POP PUSH1 0x1F NOT PUSH1 0x3F RETURNDATASIZE ADD AND DUP3 ADD PUSH1 0x40 MSTORE RETURNDATASIZE DUP3 MSTORE RETURNDATASIZE PUSH0 PUSH1 0x20 DUP5 ADD RETURNDATACOPY PUSH3 0x56B JUMP JUMPDEST PUSH1 0x60 SWAP2 POP JUMPDEST POP PUSH0 DUP2 MLOAD SUB PUSH3 0x5B4 JUMPI DUP4 PUSH1 0x40 MLOAD PUSH32 0x64A0AE9200000000000000000000000000000000000000000000000000000000 DUP2 MSTORE PUSH1 0x4 ADD PUSH3 0x5AB SWAP2 SWAP1 PUSH3 0x1177 JUMP JUMPDEST PUSH1 0x40 MLOAD DUP1 SWAP2 SUB SWAP1 REVERT JUMPDEST DUP1 MLOAD DUP2 PUSH1 0x20 ADD REVERT JUMPDEST PUSH4 0x150B7A02 PUSH1 0xE0 SHL PUSH28 0xFFFFFFFFFFFFFFFFFFFFFFFFFFFFFFFFFFFFFFFFFFFFFFFFFFFFFFFF NOT AND DUP2 PUSH28 0xFFFFFFFFFFFFFFFFFFFFFFFFFFFFFFFFFFFFFFFFFFFFFFFFFFFFFFFF NOT AND EQ PUSH3 0x648 JUMPI DUP4 PUSH1 0x40 MLOAD PUSH32 0x64A0AE9200000000000000000000000000000000000000000000000000000000 DUP2 MSTORE PUSH1 0x4 ADD PUSH3 0x63F SWAP2 SWAP1 PUSH3 0x1177 JUMP JUMPDEST PUSH1 0x40 MLOAD DUP1 SWAP2 SUB SWAP1 REVERT JUMPDEST POP JUMPDEST POP POP POP POP JUMP JUMPDEST PUSH0 DUP1 PUSH3 0x663 DUP5 PUSH3 0x87D PUSH1 0x20 SHL PUSH1 0x20 SHR JUMP JUMPDEST SWAP1 POP PUSH0 PUSH20 0xFFFFFFFFFFFFFFFFFFFFFFFFFFFFFFFFFFFFFFFF AND DUP4 PUSH20 0xFFFFFFFFFFFFFFFFFFFFFFFFFFFFFFFFFFFFFFFF AND EQ PUSH3 0x6AD JUMPI PUSH3 0x6AC DUP2 DUP5 DUP7 PUSH3 0x8B6 PUSH1 0x20 SHL PUSH1 0x20 SHR JUMP JUMPDEST JUMPDEST PUSH0 PUSH20 0xFFFFFFFFFFFFFFFFFFFFFFFFFFFFFFFFFFFFFFFF AND DUP2 PUSH20 0xFFFFFFFFFFFFFFFFFFFFFFFFFFFFFFFFFFFFFFFF AND EQ PUSH3 0x741 JUMPI PUSH3 0x6F5 PUSH0 DUP6 PUSH0 DUP1 PUSH3 0x987 PUSH1 0x20 SHL PUSH1 0x20 SHR JUMP JUMPDEST PUSH1 0x1 PUSH1 0x3 PUSH0 DUP4 PUSH20 0xFFFFFFFFFFFFFFFFFFFFFFFFFFFFFFFFFFFFFFFF AND PUSH20 0xFFFFFFFFFFFFFFFFFFFFFFFFFFFFFFFFFFFFFFFF AND DUP2 MSTORE PUSH1 0x20 ADD SWAP1 DUP2 MSTORE PUSH1 0x20 ADD PUSH0 KECCAK256 PUSH0 DUP3 DUP3 SLOAD SUB SWAP3 POP POP DUP2 SWAP1 SSTORE POP JUMPDEST PUSH0 PUSH20 0xFFFFFFFFFFFFFFFFFFFFFFFFFFFFFFFFFFFFFFFF AND DUP6 PUSH20 0xFFFFFFFFFFFFFFFFFFFFFFFFFFFFFFFFFFFFFFFF AND EQ PUSH3 0x7C1 JUMPI PUSH1 0x1 PUSH1 0x3 PUSH0 DUP8 PUSH20 0xFFFFFFFFFFFFFFFFFFFFFFFFFFFFFFFFFFFFFFFF AND PUSH20 0xFFFFFFFFFFFFFFFFFFFFFFFFFFFFFFFFFFFFFFFF AND DUP2 MSTORE PUSH1 0x20 ADD SWAP1 DUP2 MSTORE PUSH1 0x20 ADD PUSH0 KECCAK256 PUSH0 DUP3 DUP3 SLOAD ADD SWAP3 POP POP DUP2 SWAP1 SSTORE POP JUMPDEST DUP5 PUSH1 0x2 PUSH0 DUP7 DUP2 MSTORE PUSH1 0x20 ADD SWAP1 DUP2 MSTORE PUSH1 0x20 ADD PUSH0 KECCAK256 PUSH0 PUSH2 0x100 EXP DUP2 SLOAD DUP2 PUSH20 0xFFFFFFFFFFFFFFFFFFFFFFFFFFFFFFFFFFFFFFFF MUL NOT AND SWAP1 DUP4 PUSH20 0xFFFFFFFFFFFFFFFFFFFFFFFFFFFFFFFFFFFFFFFF AND MUL OR SWAP1 SSTORE POP DUP4 DUP6 PUSH20 0xFFFFFFFFFFFFFFFFFFFFFFFFFFFFFFFFFFFFFFFF AND DUP3 PUSH20 0xFFFFFFFFFFFFFFFFFFFFFFFFFFFFFFFFFFFFFFFF AND PUSH32 0xDDF252AD1BE2C89B69C2B068FC378DAA952BA7F163C4A11628F55A4DF523B3EF PUSH1 0x40 MLOAD PUSH1 0x40 MLOAD DUP1 SWAP2 SUB SWAP1 LOG4 DUP1 SWAP2 POP POP SWAP4 SWAP3 POP POP POP JUMP JUMPDEST PUSH0 CALLER SWAP1 POP SWAP1 JUMP JUMPDEST PUSH0 PUSH1 0x2 PUSH0 DUP4 DUP2 MSTORE PUSH1 0x20 ADD SWAP1 DUP2 MSTORE PUSH1 0x20 ADD PUSH0 KECCAK256 PUSH0 SWAP1 SLOAD SWAP1 PUSH2 0x100 EXP SWAP1 DIV PUSH20 0xFFFFFFFFFFFFFFFFFFFFFFFFFFFFFFFFFFFFFFFF AND SWAP1 POP SWAP2 SWAP1 POP JUMP JUMPDEST PUSH3 0x8C9 DUP4 DUP4 DUP4 PUSH3 0xB5E PUSH1 0x20 SHL PUSH1 0x20 SHR JUMP JUMPDEST PUSH3 0x982 JUMPI PUSH0 PUSH20 0xFFFFFFFFFFFFFFFFFFFFFFFFFFFFFFFFFFFFFFFF AND DUP4 PUSH20 0xFFFFFFFFFFFFFFFFFFFFFFFFFFFFFFFFFFFFFFFF AND SUB PUSH3 0x941 JUMPI DUP1 PUSH1 0x40 MLOAD PUSH32 0x7E27328900000000000000000000000000000000000000000000000000000000 DUP2 MSTORE PUSH1 0x4 ADD PUSH3 0x938 SWAP2 SWAP1 PUSH3 0x1465 JUMP JUMPDEST PUSH1 0x40 MLOAD DUP1 SWAP2 SUB SWAP1 REVERT JUMPDEST DUP2 DUP2 PUSH1 0x40 MLOAD PUSH32 0x177E802F00000000000000000000000000000000000000000000000000000000 DUP2 MSTORE PUSH1 0x4 ADD PUSH3 0x979 SWAP3 SWAP2 SWAP1 PUSH3 0x12CA JUMP JUMPDEST PUSH1 0x40 MLOAD DUP1 SWAP2 SUB SWAP1 REVERT JUMPDEST POP POP POP JUMP JUMPDEST DUP1 DUP1 PUSH3 0x9C0 JUMPI POP PUSH0 PUSH20 0xFFFFFFFFFFFFFFFFFFFFFFFFFFFFFFFFFFFFFFFF AND DUP3 PUSH20 0xFFFFFFFFFFFFFFFFFFFFFFFFFFFFFFFFFFFFFFFF AND EQ ISZERO JUMPDEST ISZERO PUSH3 0xB09 JUMPI PUSH0 PUSH3 0x9D8 DUP5 PUSH3 0xC31 PUSH1 0x20 SHL PUSH1 0x20 SHR JUMP JUMPDEST SWAP1 POP PUSH0 PUSH20 0xFFFFFFFFFFFFFFFFFFFFFFFFFFFFFFFFFFFFFFFF AND DUP4 PUSH20 0xFFFFFFFFFFFFFFFFFFFFFFFFFFFFFFFFFFFFFFFF AND EQ ISZERO DUP1 ISZERO PUSH3 0xA43 JUMPI POP DUP3 PUSH20 0xFFFFFFFFFFFFFFFFFFFFFFFFFFFFFFFFFFFFFFFF AND DUP2 PUSH20 0xFFFFFFFFFFFFFFFFFFFFFFFFFFFFFFFFFFFFFFFF AND EQ ISZERO JUMPDEST DUP1 ISZERO PUSH3 0xA5F JUMPI POP PUSH3 0xA5D DUP2 DUP5 PUSH3 0xCC2 PUSH1 0x20 SHL PUSH1 0x20 SHR JUMP JUMPDEST ISZERO JUMPDEST ISZERO PUSH3 0xAA4 JUMPI DUP3 PUSH1 0x40 MLOAD PUSH32 0xA9FBF51F00000000000000000000000000000000000000000000000000000000 DUP2 MSTORE PUSH1 0x4 ADD PUSH3 0xA9B SWAP2 SWAP1 PUSH3 0x1177 JUMP JUMPDEST PUSH1 0x40 MLOAD DUP1 SWAP2 SUB SWAP1 REVERT JUMPDEST DUP2 ISZERO PUSH3 0xB07 JUMPI DUP4 DUP6 PUSH20 0xFFFFFFFFFFFFFFFFFFFFFFFFFFFFFFFFFFFFFFFF AND DUP3 PUSH20 0xFFFFFFFFFFFFFFFFFFFFFFFFFFFFFFFFFFFFFFFF AND PUSH32 0x8C5BE1E5EBEC7D5BD14F71427D1E84F3DD0314C0F7B2291E5B200AC8C7C3B925 PUSH1 0x40 MLOAD PUSH1 0x40 MLOAD DUP1 SWAP2 SUB SWAP1 LOG4 JUMPDEST POP JUMPDEST DUP4 PUSH1 0x4 PUSH0 DUP6 DUP2 MSTORE PUSH1 0x20 ADD SWAP1 DUP2 MSTORE PUSH1 0x20 ADD PUSH0 KECCAK256 PUSH0 PUSH2 0x100 EXP DUP2 SLOAD DUP2 PUSH20 0xFFFFFFFFFFFFFFFFFFFFFFFFFFFFFFFFFFFFFFFF MUL NOT AND SWAP1 DUP4 PUSH20 0xFFFFFFFFFFFFFFFFFFFFFFFFFFFFFFFFFFFFFFFF AND MUL OR SWAP1 SSTORE POP POP POP POP POP JUMP JUMPDEST PUSH0 DUP1 PUSH20 0xFFFFFFFFFFFFFFFFFFFFFFFFFFFFFFFFFFFFFFFF AND DUP4 PUSH20 0xFFFFFFFFFFFFFFFFFFFFFFFFFFFFFFFFFFFFFFFF AND EQ ISZERO DUP1 ISZERO PUSH3 0xC28 JUMPI POP DUP3 PUSH20 0xFFFFFFFFFFFFFFFFFFFFFFFFFFFFFFFFFFFFFFFF AND DUP5 PUSH20 0xFFFFFFFFFFFFFFFFFFFFFFFFFFFFFFFFFFFFFFFF AND EQ DUP1 PUSH3 0xBE0 JUMPI POP PUSH3 0xBDF DUP5 DUP5 PUSH3 0xCC2 PUSH1 0x20 SHL PUSH1 0x20 SHR JUMP JUMPDEST JUMPDEST DUP1 PUSH3 0xC27 JUMPI POP DUP3 PUSH20 0xFFFFFFFFFFFFFFFFFFFFFFFFFFFFFFFFFFFFFFFF AND PUSH3 0xC0F DUP4 PUSH3 0xD50 PUSH1 0x20 SHL PUSH1 0x20 SHR JUMP JUMPDEST PUSH20 0xFFFFFFFFFFFFFFFFFFFFFFFFFFFFFFFFFFFFFFFF AND EQ JUMPDEST JUMPDEST SWAP1 POP SWAP4 SWAP3 POP POP POP JUMP JUMPDEST PUSH0 DUP1 PUSH3 0xC44 DUP4 PUSH3 0x87D PUSH1 0x20 SHL PUSH1 0x20 SHR JUMP JUMPDEST SWAP1 POP PUSH0 PUSH20 0xFFFFFFFFFFFFFFFFFFFFFFFFFFFFFFFFFFFFFFFF AND DUP2 PUSH20 0xFFFFFFFFFFFFFFFFFFFFFFFFFFFFFFFFFFFFFFFF AND SUB PUSH3 0xCB9 JUMPI DUP3 PUSH1 0x40 MLOAD PUSH32 0x7E27328900000000000000000000000000000000000000000000000000000000 DUP2 MSTORE PUSH1 0x4 ADD PUSH3 0xCB0 SWAP2 SWAP1 PUSH3 0x1465 JUMP JUMPDEST PUSH1 0x40 MLOAD DUP1 SWAP2 SUB SWAP1 REVERT JUMPDEST DUP1 SWAP2 POP POP SWAP2 SWAP1 POP JUMP JUMPDEST PUSH0 PUSH1 0x5 PUSH0 DUP5 PUSH20 0xFFFFFFFFFFFFFFFFFFFFFFFFFFFFFFFFFFFFFFFF AND PUSH20 0xFFFFFFFFFFFFFFFFFFFFFFFFFFFFFFFFFFFFFFFF AND DUP2 MSTORE PUSH1 0x20 ADD SWAP1 DUP2 MSTORE PUSH1 0x20 ADD PUSH0 KECCAK256 PUSH0 DUP4 PUSH20 0xFFFFFFFFFFFFFFFFFFFFFFFFFFFFFFFFFFFFFFFF AND PUSH20 0xFFFFFFFFFFFFFFFFFFFFFFFFFFFFFFFFFFFFFFFF AND DUP2 MSTORE PUSH1 0x20 ADD SWAP1 DUP2 MSTORE PUSH1 0x20 ADD PUSH0 KECCAK256 PUSH0 SWAP1 SLOAD SWAP1 PUSH2 0x100 EXP SWAP1 DIV PUSH1 0xFF AND SWAP1 POP SWAP3 SWAP2 POP POP JUMP JUMPDEST PUSH0 PUSH1 0x4 PUSH0 DUP4 DUP2 MSTORE PUSH1 0x20 ADD SWAP1 DUP2 MSTORE PUSH1 0x20 ADD PUSH0 KECCAK256 PUSH0 SWAP1 SLOAD SWAP1 PUSH2 0x100 EXP SWAP1 DIV PUSH20 0xFFFFFFFFFFFFFFFFFFFFFFFFFFFFFFFFFFFFFFFF AND SWAP1 POP SWAP2 SWAP1 POP JUMP JUMPDEST PUSH0 DUP1 REVERT JUMPDEST PUSH0 DUP2 SWAP1 POP SWAP2 SWAP1 POP JUMP JUMPDEST PUSH3 0xDA1 DUP2 PUSH3 0xD8D JUMP JUMPDEST DUP2 EQ PUSH3 0xDAC JUMPI PUSH0 DUP1 REVERT JUMPDEST POP JUMP JUMPDEST PUSH0 DUP2 MLOAD SWAP1 POP PUSH3 0xDBF DUP2 PUSH3 0xD96 JUMP JUMPDEST SWAP3 SWAP2 POP POP JUMP JUMPDEST PUSH0 PUSH1 0x20 DUP3 DUP5 SUB SLT ISZERO PUSH3 0xDDD JUMPI PUSH3 0xDDC PUSH3 0xD89 JUMP JUMPDEST JUMPDEST PUSH0 PUSH3 0xDEC DUP5 DUP3 DUP6 ADD PUSH3 0xDAF JUMP JUMPDEST SWAP2 POP POP SWAP3 SWAP2 POP POP JUMP JUMPDEST PUSH0 DUP2 MLOAD SWAP1 POP SWAP2 SWAP1 POP JUMP JUMPDEST PUSH32 0x4E487B7100000000000000000000000000000000000000000000000000000000 PUSH0 MSTORE PUSH1 0x41 PUSH1 0x4 MSTORE PUSH1 0x24 PUSH0 REVERT JUMPDEST PUSH32 0x4E487B7100000000000000000000000000000000000000000000000000000000 PUSH0 MSTORE PUSH1 0x22 PUSH1 0x4 MSTORE PUSH1 0x24 PUSH0 REVERT JUMPDEST PUSH0 PUSH1 0x2 DUP3 DIV SWAP1 POP PUSH1 0x1 DUP3 AND DUP1 PUSH3 0xE71 JUMPI PUSH1 0x7F DUP3 AND SWAP2 POP JUMPDEST PUSH1 0x20 DUP3 LT DUP2 SUB PUSH3 0xE87 JUMPI PUSH3 0xE86 PUSH3 0xE2C JUMP JUMPDEST JUMPDEST POP SWAP2 SWAP1 POP JUMP JUMPDEST PUSH0 DUP2 SWAP1 POP DUP2 PUSH0 MSTORE PUSH1 0x20 PUSH0 KECCAK256 SWAP1 POP SWAP2 SWAP1 POP JUMP JUMPDEST PUSH0 PUSH1 0x20 PUSH1 0x1F DUP4 ADD DIV SWAP1 POP SWAP2 SWAP1 POP JUMP JUMPDEST PUSH0 DUP3 DUP3 SHL SWAP1 POP SWAP3 SWAP2 POP POP JUMP JUMPDEST PUSH0 PUSH1 0x8 DUP4 MUL PUSH3 0xEEB PUSH32 0xFFFFFFFFFFFFFFFFFFFFFFFFFFFFFFFFFFFFFFFFFFFFFFFFFFFFFFFFFFFFFFFF DUP3 PUSH3 0xEAE JUMP JUMPDEST PUSH3 0xEF7 DUP7 DUP4 PUSH3 0xEAE JUMP JUMPDEST SWAP6 POP DUP1 NOT DUP5 AND SWAP4 POP DUP1 DUP7 AND DUP5 OR SWAP3 POP POP POP SWAP4 SWAP3 POP POP POP JUMP JUMPDEST PUSH0 DUP2 SWAP1 POP SWAP2 SWAP1 POP JUMP JUMPDEST PUSH0 PUSH3 0xF38 PUSH3 0xF32 PUSH3 0xF2C DUP5 PUSH3 0xD8D JUMP JUMPDEST PUSH3 0xF0F JUMP JUMPDEST PUSH3 0xD8D JUMP JUMPDEST SWAP1 POP SWAP2 SWAP1 POP JUMP JUMPDEST PUSH0 DUP2 SWAP1 POP SWAP2 SWAP1 POP JUMP JUMPDEST PUSH3 0xF53 DUP4 PUSH3 0xF18 JUMP JUMPDEST PUSH3 0xF6B PUSH3 0xF62 DUP3 PUSH3 0xF3F JUMP JUMPDEST DUP5 DUP5 SLOAD PUSH3 0xEBA JUMP JUMPDEST DUP3 SSTORE POP POP POP POP JUMP JUMPDEST PUSH0 SWAP1 JUMP JUMPDEST PUSH3 0xF81 PUSH3 0xF73 JUMP JUMPDEST PUSH3 0xF8E DUP2 DUP5 DUP5 PUSH3 0xF48 JUMP JUMPDEST POP POP POP JUMP JUMPDEST JUMPDEST DUP2 DUP2 LT ISZERO PUSH3 0xFB5 JUMPI PUSH3 0xFA9 PUSH0 DUP3 PUSH3 0xF77 JUMP JUMPDEST PUSH1 0x1 DUP2 ADD SWAP1 POP PUSH3 0xF94 JUMP JUMPDEST POP POP JUMP JUMPDEST PUSH1 0x1F DUP3 GT ISZERO PUSH3 0x1004 JUMPI PUSH3 0xFCE DUP2 PUSH3 0xE8D JUMP JUMPDEST PUSH3 0xFD9 DUP5 PUSH3 0xE9F JUMP JUMPDEST DUP2 ADD PUSH1 0x20 DUP6 LT ISZERO PUSH3 0xFE9 JUMPI DUP2 SWAP1 POP JUMPDEST PUSH3 0x1001 PUSH3 0xFF8 DUP6 PUSH3 0xE9F JUMP JUMPDEST DUP4 ADD DUP3 PUSH3 0xF93 JUMP JUMPDEST POP POP JUMPDEST POP POP POP JUMP JUMPDEST PUSH0 DUP3 DUP3 SHR SWAP1 POP SWAP3 SWAP2 POP POP JUMP JUMPDEST PUSH0 PUSH3 0x1026 PUSH0 NOT DUP5 PUSH1 0x8 MUL PUSH3 0x1009 JUMP JUMPDEST NOT DUP1 DUP4 AND SWAP2 POP POP SWAP3 SWAP2 POP POP JUMP JUMPDEST PUSH0 PUSH3 0x1040 DUP4 DUP4 PUSH3 0x1015 JUMP JUMPDEST SWAP2 POP DUP3 PUSH1 0x2 MUL DUP3 OR SWAP1 POP SWAP3 SWAP2 POP POP JUMP JUMPDEST PUSH3 0x105B DUP3 PUSH3 0xDF5 JUMP JUMPDEST PUSH8 0xFFFFFFFFFFFFFFFF DUP2 GT ISZERO PUSH3 0x1077 JUMPI PUSH3 0x1076 PUSH3 0xDFF JUMP JUMPDEST JUMPDEST PUSH3 0x1083 DUP3 SLOAD PUSH3 0xE59 JUMP JUMPDEST PUSH3 0x1090 DUP3 DUP3 DUP6 PUSH3 0xFB9 JUMP JUMPDEST PUSH0 PUSH1 0x20 SWAP1 POP PUSH1 0x1F DUP4 GT PUSH1 0x1 DUP2 EQ PUSH3 0x10C6 JUMPI PUSH0 DUP5 ISZERO PUSH3 0x10B1 JUMPI DUP3 DUP8 ADD MLOAD SWAP1 POP JUMPDEST PUSH3 0x10BD DUP6 DUP3 PUSH3 0x1033 JUMP JUMPDEST DUP7 SSTORE POP PUSH3 0x112C JUMP JUMPDEST PUSH1 0x1F NOT DUP5 AND PUSH3 0x10D6 DUP7 PUSH3 0xE8D JUMP JUMPDEST PUSH0 JUMPDEST DUP3 DUP2 LT ISZERO PUSH3 0x10FF JUMPI DUP5 DUP10 ADD MLOAD DUP3 SSTORE PUSH1 0x1 DUP3 ADD SWAP2 POP PUSH1 0x20 DUP6 ADD SWAP5 POP PUSH1 0x20 DUP2 ADD SWAP1 POP PUSH3 0x10D8 JUMP JUMPDEST DUP7 DUP4 LT ISZERO PUSH3 0x111F JUMPI DUP5 DUP10 ADD MLOAD PUSH3 0x111B PUSH1 0x1F DUP10 AND DUP3 PUSH3 0x1015 JUMP JUMPDEST DUP4 SSTORE POP JUMPDEST PUSH1 0x1 PUSH1 0x2 DUP9 MUL ADD DUP9 SSTORE POP POP POP JUMPDEST POP POP POP POP POP POP JUMP JUMPDEST PUSH0 PUSH20 0xFFFFFFFFFFFFFFFFFFFFFFFFFFFFFFFFFFFFFFFF DUP3 AND SWAP1 POP SWAP2 SWAP1 POP JUMP JUMPDEST PUSH0 PUSH3 0x115F DUP3 PUSH3 0x1134 JUMP JUMPDEST SWAP1 POP SWAP2 SWAP1 POP JUMP JUMPDEST PUSH3 0x1171 DUP2 PUSH3 0x1153 JUMP JUMPDEST DUP3 MSTORE POP POP JUMP JUMPDEST PUSH0 PUSH1 0x20 DUP3 ADD SWAP1 POP PUSH3 0x118C PUSH0 DUP4 ADD DUP5 PUSH3 0x1166 JUMP JUMPDEST SWAP3 SWAP2 POP POP JUMP JUMPDEST PUSH32 0x4E487B7100000000000000000000000000000000000000000000000000000000 PUSH0 MSTORE PUSH1 0x11 PUSH1 0x4 MSTORE PUSH1 0x24 PUSH0 REVERT JUMPDEST PUSH0 PUSH3 0x11CB DUP3 PUSH3 0xD8D JUMP JUMPDEST SWAP2 POP PUSH3 0x11D8 DUP4 PUSH3 0xD8D JUMP JUMPDEST SWAP3 POP DUP3 DUP3 MUL PUSH3 0x11E8 DUP2 PUSH3 0xD8D JUMP JUMPDEST SWAP2 POP DUP3 DUP3 DIV DUP5 EQ DUP4 ISZERO OR PUSH3 0x1202 JUMPI PUSH3 0x1201 PUSH3 0x1192 JUMP JUMPDEST JUMPDEST POP SWAP3 SWAP2 POP POP JUMP JUMPDEST PUSH32 0x4E487B7100000000000000000000000000000000000000000000000000000000 PUSH0 MSTORE PUSH1 0x12 PUSH1 0x4 MSTORE PUSH1 0x24 PUSH0 REVERT JUMPDEST PUSH0 PUSH3 0x1242 DUP3 PUSH3 0xD8D JUMP JUMPDEST SWAP2 POP PUSH3 0x124F DUP4 PUSH3 0xD8D JUMP JUMPDEST SWAP3 POP DUP3 PUSH3 0x1262 JUMPI PUSH3 0x1261 PUSH3 0x1209 JUMP JUMPDEST JUMPDEST DUP3 DUP3 DIV SWAP1 POP SWAP3 SWAP2 POP POP JUMP JUMPDEST PUSH0 PUSH3 0x1279 DUP3 PUSH3 0xD8D JUMP JUMPDEST SWAP2 POP PUSH32 0xFFFFFFFFFFFFFFFFFFFFFFFFFFFFFFFFFFFFFFFFFFFFFFFFFFFFFFFFFFFFFFFF DUP3 SUB PUSH3 0x12AE JUMPI PUSH3 0x12AD PUSH3 0x1192 JUMP JUMPDEST JUMPDEST PUSH1 0x1 DUP3 ADD SWAP1 POP SWAP2 SWAP1 POP JUMP JUMPDEST PUSH3 0x12C4 DUP2 PUSH3 0xD8D JUMP JUMPDEST DUP3 MSTORE POP POP JUMP JUMPDEST PUSH0 PUSH1 0x40 DUP3 ADD SWAP1 POP PUSH3 0x12DF PUSH0 DUP4 ADD DUP6 PUSH3 0x1166 JUMP JUMPDEST PUSH3 0x12EE PUSH1 0x20 DUP4 ADD DUP5 PUSH3 0x12B9 JUMP JUMPDEST SWAP4 SWAP3 POP POP POP JUMP JUMPDEST PUSH0 DUP2 MLOAD SWAP1 POP SWAP2 SWAP1 POP JUMP JUMPDEST PUSH0 DUP3 DUP3 MSTORE PUSH1 0x20 DUP3 ADD SWAP1 POP SWAP3 SWAP2 POP POP JUMP JUMPDEST PUSH0 JUMPDEST DUP4 DUP2 LT ISZERO PUSH3 0x132E JUMPI DUP1 DUP3 ADD MLOAD DUP2 DUP5 ADD MSTORE PUSH1 0x20 DUP2 ADD SWAP1 POP PUSH3 0x1311 JUMP JUMPDEST PUSH0 DUP5 DUP5 ADD MSTORE POP POP POP POP JUMP JUMPDEST PUSH0 PUSH1 0x1F NOT PUSH1 0x1F DUP4 ADD AND SWAP1 POP SWAP2 SWAP1 POP JUMP JUMPDEST PUSH0 PUSH3 0x1355 DUP3 PUSH3 0x12F5 JUMP JUMPDEST PUSH3 0x1361 DUP2 DUP6 PUSH3 0x12FF JUMP JUMPDEST SWAP4 POP PUSH3 0x1373 DUP2 DUP6 PUSH1 0x20 DUP7 ADD PUSH3 0x130F JUMP JUMPDEST PUSH3 0x137E DUP2 PUSH3 0x1339 JUMP JUMPDEST DUP5 ADD SWAP2 POP POP SWAP3 SWAP2 POP POP JUMP JUMPDEST PUSH0 PUSH1 0x80 DUP3 ADD SWAP1 POP PUSH3 0x139E PUSH0 DUP4 ADD DUP8 PUSH3 0x1166 JUMP JUMPDEST PUSH3 0x13AD PUSH1 0x20 DUP4 ADD DUP7 PUSH3 0x1166 JUMP JUMPDEST PUSH3 0x13BC PUSH1 0x40 DUP4 ADD DUP6 PUSH3 0x12B9 JUMP JUMPDEST DUP2 DUP2 SUB PUSH1 0x60 DUP4 ADD MSTORE PUSH3 0x13D0 DUP2 DUP5 PUSH3 0x1349 JUMP JUMPDEST SWAP1 POP SWAP6 SWAP5 POP POP POP POP POP JUMP JUMPDEST PUSH0 PUSH32 0xFFFFFFFF00000000000000000000000000000000000000000000000000000000 DUP3 AND SWAP1 POP SWAP2 SWAP1 POP JUMP JUMPDEST PUSH3 0x1411 DUP2 PUSH3 0x13DB JUMP JUMPDEST DUP2 EQ PUSH3 0x141C JUMPI PUSH0 DUP1 REVERT JUMPDEST POP JUMP JUMPDEST PUSH0 DUP2 MLOAD SWAP1 POP PUSH3 0x142F DUP2 PUSH3 0x1406 JUMP JUMPDEST SWAP3 SWAP2 POP POP JUMP JUMPDEST PUSH0 PUSH1 0x20 DUP3 DUP5 SUB SLT ISZERO PUSH3 0x144D JUMPI PUSH3 0x144C PUSH3 0xD89 JUMP JUMPDEST JUMPDEST PUSH0 PUSH3 0x145C DUP5 DUP3 DUP6 ADD PUSH3 0x141F JUMP JUMPDEST SWAP2 POP POP SWAP3 SWAP2 POP POP JUMP JUMPDEST PUSH0 PUSH1 0x20 DUP3 ADD SWAP1 POP PUSH3 0x147A PUSH0 DUP4 ADD DUP5 PUSH3 0x12B9 JUMP JUMPDEST SWAP3 SWAP2 POP POP JUMP JUMPDEST PUSH2 0x2B3A DUP1 PUSH3 0x148E PUSH0 CODECOPY PUSH0 RETURN INVALID PUSH1 0x80 PUSH1 0x40 MSTORE PUSH1 0x4 CALLDATASIZE LT PUSH2 0x1CC JUMPI PUSH0 CALLDATALOAD PUSH1 0xE0 SHR DUP1 PUSH4 0x76C71CA1 GT PUSH2 0xF6 JUMPI DUP1 PUSH4 0xAB632857 GT PUSH2 0x94 JUMPI DUP1 PUSH4 0xE985E9C5 GT PUSH2 0x63 JUMPI DUP1 PUSH4 0xE985E9C5 EQ PUSH2 0x606 JUMPI DUP1 PUSH4 0xF173F78E EQ PUSH2 0x642 JUMPI DUP1 PUSH4 0xF2FDE38B EQ PUSH2 0x66A JUMPI DUP1 PUSH4 0xF4A0A528 EQ PUSH2 0x692 JUMPI PUSH2 0x1CC JUMP JUMPDEST DUP1 PUSH4 0xAB632857 EQ PUSH2 0x562 JUMPI DUP1 PUSH4 0xB88D4FDE EQ PUSH2 0x58C JUMPI DUP1 PUSH4 0xB9A2092D EQ PUSH2 0x5B4 JUMPI DUP1 PUSH4 0xC87B56DD EQ PUSH2 0x5CA JUMPI PUSH2 0x1CC JUMP JUMPDEST DUP1 PUSH4 0x8DA5CB5B GT PUSH2 0xD0 JUMPI DUP1 PUSH4 0x8DA5CB5B EQ PUSH2 0x4BC JUMPI DUP1 PUSH4 0x95D89B41 EQ PUSH2 0x4E6 JUMPI DUP1 PUSH4 0x9FD6DB12 EQ PUSH2 0x510 JUMPI DUP1 PUSH4 0xA22CB465 EQ PUSH2 0x53A JUMPI PUSH2 0x1CC JUMP JUMPDEST DUP1 PUSH4 0x76C71CA1 EQ PUSH2 0x452 JUMPI DUP1 PUSH4 0x78CE9035 EQ PUSH2 0x47C JUMPI DUP1 PUSH4 0x7E5CD5C1 EQ PUSH2 0x4A6 JUMPI PUSH2 0x1CC JUMP JUMPDEST DUP1 PUSH4 0x32CB6B0C GT PUSH2 0x16E JUMPI DUP1 PUSH4 0x6352211E GT PUSH2 0x13D JUMPI DUP1 PUSH4 0x6352211E EQ PUSH2 0x39A JUMPI DUP1 PUSH4 0x6817C76C EQ PUSH2 0x3D6 JUMPI DUP1 PUSH4 0x70A08231 EQ PUSH2 0x400 JUMPI DUP1 PUSH4 0x715018A6 EQ PUSH2 0x43C JUMPI PUSH2 0x1CC JUMP JUMPDEST DUP1 PUSH4 0x32CB6B0C EQ PUSH2 0x2F6 JUMPI DUP1 PUSH4 0x38E21CCE EQ PUSH2 0x320 JUMPI DUP1 PUSH4 0x3CCFD60B EQ PUSH2 0x35C JUMPI DUP1 PUSH4 0x42842E0E EQ PUSH2 0x372 JUMPI PUSH2 0x1CC JUMP JUMPDEST DUP1 PUSH4 0x95EA7B3 GT PUSH2 0x1AA JUMPI DUP1 PUSH4 0x95EA7B3 EQ PUSH2 0x272 JUMPI DUP1 PUSH4 0x1249C58B EQ PUSH2 0x29A JUMPI DUP1 PUSH4 0x18160DDD EQ PUSH2 0x2A4 JUMPI DUP1 PUSH4 0x23B872DD EQ PUSH2 0x2CE JUMPI PUSH2 0x1CC JUMP JUMPDEST DUP1 PUSH4 0x1FFC9A7 EQ PUSH2 0x1D0 JUMPI DUP1 PUSH4 0x6FDDE03 EQ PUSH2 0x20C JUMPI DUP1 PUSH4 0x81812FC EQ PUSH2 0x236 JUMPI JUMPDEST PUSH0 DUP1 REVERT JUMPDEST CALLVALUE DUP1 ISZERO PUSH2 0x1DB JUMPI PUSH0 DUP1 REVERT JUMPDEST POP PUSH2 0x1F6 PUSH1 0x4 DUP1 CALLDATASIZE SUB DUP2 ADD SWAP1 PUSH2 0x1F1 SWAP2 SWAP1 PUSH2 0x1F90 JUMP JUMPDEST PUSH2 0x6BA JUMP JUMPDEST PUSH1 0x40 MLOAD PUSH2 0x203 SWAP2 SWAP1 PUSH2 0x1FD5 JUMP JUMPDEST PUSH1 0x40 MLOAD DUP1 SWAP2 SUB SWAP1 RETURN JUMPDEST CALLVALUE DUP1 ISZERO PUSH2 0x217 JUMPI PUSH0 DUP1 REVERT JUMPDEST POP PUSH2 0x220 PUSH2 0x79B JUMP JUMPDEST PUSH1 0x40 MLOAD PUSH2 0x22D SWAP2 SWAP1 PUSH2 0x2078 JUMP JUMPDEST PUSH1 0x40 MLOAD DUP1 SWAP2 SUB SWAP1 RETURN JUMPDEST CALLVALUE DUP1 ISZERO PUSH2 0x241 JUMPI PUSH0 DUP1 REVERT JUMPDEST POP PUSH2 0x25C PUSH1 0x4 DUP1 CALLDATASIZE SUB DUP2 ADD SWAP1 PUSH2 0x257 SWAP2 SWAP1 PUSH2 0x20CB JUMP JUMPDEST PUSH2 0x82A JUMP JUMPDEST PUSH1 0x40 MLOAD PUSH2 0x269 SWAP2 SWAP1 PUSH2 0x2135 JUMP JUMPDEST PUSH1 0x40 MLOAD DUP1 SWAP2 SUB SWAP1 RETURN JUMPDEST CALLVALUE DUP1 ISZERO PUSH2 0x27D JUMPI PUSH0 DUP1 REVERT JUMPDEST POP PUSH2 0x298 PUSH1 0x4 DUP1 CALLDATASIZE SUB DUP2 ADD SWAP1 PUSH2 0x293 SWAP2 SWAP1 PUSH2 0x2178 JUMP JUMPDEST PUSH2 0x845 JUMP JUMPDEST STOP JUMPDEST PUSH2 0x2A2 PUSH2 0x85B JUMP JUMPDEST STOP JUMPDEST CALLVALUE DUP1 ISZERO PUSH2 0x2AF JUMPI PUSH0 DUP1 REVERT JUMPDEST POP PUSH2 0x2B8 PUSH2 0xAFD JUMP JUMPDEST PUSH1 0x40 MLOAD PUSH2 0x2C5 SWAP2 SWAP1 PUSH2 0x21C5 JUMP JUMPDEST PUSH1 0x40 MLOAD DUP1 SWAP2 SUB SWAP1 RETURN JUMPDEST CALLVALUE DUP1 ISZERO PUSH2 0x2D9 JUMPI PUSH0 DUP1 REVERT JUMPDEST POP PUSH2 0x2F4 PUSH1 0x4 DUP1 CALLDATASIZE SUB DUP2 ADD SWAP1 PUSH2 0x2EF SWAP2 SWAP1 PUSH2 0x21DE JUMP JUMPDEST PUSH2 0xB03 JUMP JUMPDEST STOP JUMPDEST CALLVALUE DUP1 ISZERO PUSH2 0x301 JUMPI PUSH0 DUP1 REVERT JUMPDEST POP PUSH2 0x30A PUSH2 0xC02 JUMP JUMPDEST PUSH1 0x40 MLOAD PUSH2 0x317 SWAP2 SWAP1 PUSH2 0x21C5 JUMP JUMPDEST PUSH1 0x40 MLOAD DUP1 SWAP2 SUB SWAP1 RETURN JUMPDEST CALLVALUE DUP1 ISZERO PUSH2 0x32B JUMPI PUSH0 DUP1 REVERT JUMPDEST POP PUSH2 0x346 PUSH1 0x4 DUP1 CALLDATASIZE SUB DUP2 ADD SWAP1 PUSH2 0x341 SWAP2 SWAP1 PUSH2 0x222E JUMP JUMPDEST PUSH2 0xC08 JUMP JUMPDEST PUSH1 0x40 MLOAD PUSH2 0x353 SWAP2 SWAP1 PUSH2 0x1FD5 JUMP JUMPDEST PUSH1 0x40 MLOAD DUP1 SWAP2 SUB SWAP1 RETURN JUMPDEST CALLVALUE DUP1 ISZERO PUSH2 0x367 JUMPI PUSH0 DUP1 REVERT JUMPDEST POP PUSH2 0x370 PUSH2 0xC25 JUMP JUMPDEST STOP JUMPDEST CALLVALUE DUP1 ISZERO PUSH2 0x37D JUMPI PUSH0 DUP1 REVERT JUMPDEST POP PUSH2 0x398 PUSH1 0x4 DUP1 CALLDATASIZE SUB DUP2 ADD SWAP1 PUSH2 0x393 SWAP2 SWAP1 PUSH2 0x21DE JUMP JUMPDEST PUSH2 0xD36 JUMP JUMPDEST STOP JUMPDEST CALLVALUE DUP1 ISZERO PUSH2 0x3A5 JUMPI PUSH0 DUP1 REVERT JUMPDEST POP PUSH2 0x3C0 PUSH1 0x4 DUP1 CALLDATASIZE SUB DUP2 ADD SWAP1 PUSH2 0x3BB SWAP2 SWAP1 PUSH2 0x20CB JUMP JUMPDEST PUSH2 0xD55 JUMP JUMPDEST PUSH1 0x40 MLOAD PUSH2 0x3CD SWAP2 SWAP1 PUSH2 0x2135 JUMP JUMPDEST PUSH1 0x40 MLOAD DUP1 SWAP2 SUB SWAP1 RETURN JUMPDEST CALLVALUE DUP1 ISZERO PUSH2 0x3E1 JUMPI PUSH0 DUP1 REVERT JUMPDEST POP PUSH2 0x3EA PUSH2 0xD66 JUMP JUMPDEST PUSH1 0x40 MLOAD PUSH2 0x3F7 SWAP2 SWAP1 PUSH2 0x21C5 JUMP JUMPDEST PUSH1 0x40 MLOAD DUP1 SWAP2 SUB SWAP1 RETURN JUMPDEST CALLVALUE DUP1 ISZERO PUSH2 0x40B JUMPI PUSH0 DUP1 REVERT JUMPDEST POP PUSH2 0x426 PUSH1 0x4 DUP1 CALLDATASIZE SUB DUP2 ADD SWAP1 PUSH2 0x421 SWAP2 SWAP1 PUSH2 0x222E JUMP JUMPDEST PUSH2 0xD6C JUMP JUMPDEST PUSH1 0x40 MLOAD PUSH2 0x433 SWAP2 SWAP1 PUSH2 0x21C5 JUMP JUMPDEST PUSH1 0x40 MLOAD DUP1 SWAP2 SUB SWAP1 RETURN JUMPDEST CALLVALUE DUP1 ISZERO PUSH2 0x447 JUMPI PUSH0 DUP1 REVERT JUMPDEST POP PUSH2 0x450 PUSH2 0xE22 JUMP JUMPDEST STOP JUMPDEST CALLVALUE DUP1 ISZERO PUSH2 0x45D JUMPI PUSH0 DUP1 REVERT JUMPDEST POP PUSH2 0x466 PUSH2 0xE35 JUMP JUMPDEST PUSH1 0x40 MLOAD PUSH2 0x473 SWAP2 SWAP1 PUSH2 0x21C5 JUMP JUMPDEST PUSH1 0x40 MLOAD DUP1 SWAP2 SUB SWAP1 RETURN JUMPDEST CALLVALUE DUP1 ISZERO PUSH2 0x487 JUMPI PUSH0 DUP1 REVERT JUMPDEST POP PUSH2 0x490 PUSH2 0xE3B JUMP JUMPDEST PUSH1 0x40 MLOAD PUSH2 0x49D SWAP2 SWAP1 PUSH2 0x2078 JUMP JUMPDEST PUSH1 0x40 MLOAD DUP1 SWAP2 SUB SWAP1 RETURN JUMPDEST CALLVALUE DUP1 ISZERO PUSH2 0x4B1 JUMPI PUSH0 DUP1 REVERT JUMPDEST POP PUSH2 0x4BA PUSH2 0xE57 JUMP JUMPDEST STOP JUMPDEST CALLVALUE DUP1 ISZERO PUSH2 0x4C7 JUMPI PUSH0 DUP1 REVERT JUMPDEST POP PUSH2 0x4D0 PUSH2 0xEA7 JUMP JUMPDEST PUSH1 0x40 MLOAD PUSH2 0x4DD SWAP2 SWAP1 PUSH2 0x2135 JUMP JUMPDEST PUSH1 0x40 MLOAD DUP1 SWAP2 SUB SWAP1 RETURN JUMPDEST CALLVALUE DUP1 ISZERO PUSH2 0x4F1 JUMPI PUSH0 DUP1 REVERT JUMPDEST POP PUSH2 0x4FA PUSH2 0xECF JUMP JUMPDEST PUSH1 0x40 MLOAD PUSH2 0x507 SWAP2 SWAP1 PUSH2 0x2078 JUMP JUMPDEST PUSH1 0x40 MLOAD DUP1 SWAP2 SUB SWAP1 RETURN JUMPDEST CALLVALUE DUP1 ISZERO PUSH2 0x51B JUMPI PUSH0 DUP1 REVERT JUMPDEST POP PUSH2 0x524 PUSH2 0xF5F JUMP JUMPDEST PUSH1 0x40 MLOAD PUSH2 0x531 SWAP2 SWAP1 PUSH2 0x1FD5 JUMP JUMPDEST PUSH1 0x40 MLOAD DUP1 SWAP2 SUB SWAP1 RETURN JUMPDEST CALLVALUE DUP1 ISZERO PUSH2 0x545 JUMPI PUSH0 DUP1 REVERT JUMPDEST POP PUSH2 0x560 PUSH1 0x4 DUP1 CALLDATASIZE SUB DUP2 ADD SWAP1 PUSH2 0x55B SWAP2 SWAP1 PUSH2 0x2283 JUMP JUMPDEST PUSH2 0xF72 JUMP JUMPDEST STOP JUMPDEST CALLVALUE DUP1 ISZERO PUSH2 0x56D JUMPI PUSH0 DUP1 REVERT JUMPDEST POP PUSH2 0x576 PUSH2 0xF88 JUMP JUMPDEST PUSH1 0x40 MLOAD PUSH2 0x583 SWAP2 SWAP1 PUSH2 0x21C5 JUMP JUMPDEST PUSH1 0x40 MLOAD DUP1 SWAP2 SUB SWAP1 RETURN JUMPDEST CALLVALUE DUP1 ISZERO PUSH2 0x597 JUMPI PUSH0 DUP1 REVERT JUMPDEST POP PUSH2 0x5B2 PUSH1 0x4 DUP1 CALLDATASIZE SUB DUP2 ADD SWAP1 PUSH2 0x5AD SWAP2 SWAP1 PUSH2 0x23ED JUMP JUMPDEST PUSH2 0xF8E JUMP JUMPDEST STOP JUMPDEST CALLVALUE DUP1 ISZERO PUSH2 0x5BF JUMPI PUSH0 DUP1 REVERT JUMPDEST POP PUSH2 0x5C8 PUSH2 0xFAB JUMP JUMPDEST STOP JUMPDEST CALLVALUE DUP1 ISZERO PUSH2 0x5D5 JUMPI PUSH0 DUP1 REVERT JUMPDEST POP PUSH2 0x5F0 PUSH1 0x4 DUP1 CALLDATASIZE SUB DUP2 ADD SWAP1 PUSH2 0x5EB SWAP2 SWAP1 PUSH2 0x20CB JUMP JUMPDEST PUSH2 0x1082 JUMP JUMPDEST PUSH1 0x40 MLOAD PUSH2 0x5FD SWAP2 SWAP1 PUSH2 0x2078 JUMP JUMPDEST PUSH1 0x40 MLOAD DUP1 SWAP2 SUB SWAP1 RETURN JUMPDEST CALLVALUE DUP1 ISZERO PUSH2 0x611 JUMPI PUSH0 DUP1 REVERT JUMPDEST POP PUSH2 0x62C PUSH1 0x4 DUP1 CALLDATASIZE SUB DUP2 ADD SWAP1 PUSH2 0x627 SWAP2 SWAP1 PUSH2 0x246D JUMP JUMPDEST PUSH2 0x109D JUMP JUMPDEST PUSH1 0x40 MLOAD PUSH2 0x639 SWAP2 SWAP1 PUSH2 0x1FD5 JUMP JUMPDEST PUSH1 0x40 MLOAD DUP1 SWAP2 SUB SWAP1 RETURN JUMPDEST CALLVALUE DUP1 ISZERO PUSH2 0x64D JUMPI PUSH0 DUP1 REVERT JUMPDEST POP PUSH2 0x668 PUSH1 0x4 DUP1 CALLDATASIZE SUB DUP2 ADD SWAP1 PUSH2 0x663 SWAP2 SWAP1 PUSH2 0x20CB JUMP JUMPDEST PUSH2 0x112B JUMP JUMPDEST STOP JUMPDEST CALLVALUE DUP1 ISZERO PUSH2 0x675 JUMPI PUSH0 DUP1 REVERT JUMPDEST POP PUSH2 0x690 PUSH1 0x4 DUP1 CALLDATASIZE SUB DUP2 ADD SWAP1 PUSH2 0x68B SWAP2 SWAP1 PUSH2 0x222E JUMP JUMPDEST PUSH2 0x1196 JUMP JUMPDEST STOP JUMPDEST CALLVALUE DUP1 ISZERO PUSH2 0x69D JUMPI PUSH0 DUP1 REVERT JUMPDEST POP PUSH2 0x6B8 PUSH1 0x4 DUP1 CALLDATASIZE SUB DUP2 ADD SWAP1 PUSH2 0x6B3 SWAP2 SWAP1 PUSH2 0x20CB JUMP JUMPDEST PUSH2 0x121A JUMP JUMPDEST STOP JUMPDEST PUSH0 PUSH32 0x80AC58CD00000000000000000000000000000000000000000000000000000000 PUSH28 0xFFFFFFFFFFFFFFFFFFFFFFFFFFFFFFFFFFFFFFFFFFFFFFFFFFFFFFFF NOT AND DUP3 PUSH28 0xFFFFFFFFFFFFFFFFFFFFFFFFFFFFFFFFFFFFFFFFFFFFFFFFFFFFFFFF NOT AND EQ DUP1 PUSH2 0x784 JUMPI POP PUSH32 0x5B5E139F00000000000000000000000000000000000000000000000000000000 PUSH28 0xFFFFFFFFFFFFFFFFFFFFFFFFFFFFFFFFFFFFFFFFFFFFFFFFFFFFFFFF NOT AND DUP3 PUSH28 0xFFFFFFFFFFFFFFFFFFFFFFFFFFFFFFFFFFFFFFFFFFFFFFFFFFFFFFFF NOT AND EQ JUMPDEST DUP1 PUSH2 0x794 JUMPI POP PUSH2 0x793 DUP3 PUSH2 0x1263 JUMP JUMPDEST JUMPDEST SWAP1 POP SWAP2 SWAP1 POP JUMP JUMPDEST PUSH1 0x60 PUSH0 DUP1 SLOAD PUSH2 0x7A9 SWAP1 PUSH2 0x24D8 JUMP JUMPDEST DUP1 PUSH1 0x1F ADD PUSH1 0x20 DUP1 SWAP2 DIV MUL PUSH1 0x20 ADD PUSH1 0x40 MLOAD SWAP1 DUP2 ADD PUSH1 0x40 MSTORE DUP1 SWAP3 SWAP2 SWAP1 DUP2 DUP2 MSTORE PUSH1 0x20 ADD DUP3 DUP1 SLOAD PUSH2 0x7D5 SWAP1 PUSH2 0x24D8 JUMP JUMPDEST DUP1 ISZERO PUSH2 0x820 JUMPI DUP1 PUSH1 0x1F LT PUSH2 0x7F7 JUMPI PUSH2 0x100 DUP1 DUP4 SLOAD DIV MUL DUP4 MSTORE SWAP2 PUSH1 0x20 ADD SWAP2 PUSH2 0x820 JUMP JUMPDEST DUP3 ADD SWAP2 SWAP1 PUSH0 MSTORE PUSH1 0x20 PUSH0 KECCAK256 SWAP1 JUMPDEST DUP2 SLOAD DUP2 MSTORE SWAP1 PUSH1 0x1 ADD SWAP1 PUSH1 0x20 ADD DUP1 DUP4 GT PUSH2 0x803 JUMPI DUP3 SWAP1 SUB PUSH1 0x1F AND DUP3 ADD SWAP2 JUMPDEST POP POP POP POP POP SWAP1 POP SWAP1 JUMP JUMPDEST PUSH0 PUSH2 0x834 DUP3 PUSH2 0x12CC JUMP JUMPDEST POP PUSH2 0x83E DUP3 PUSH2 0x1352 JUMP JUMPDEST SWAP1 POP SWAP2 SWAP1 POP JUMP JUMPDEST PUSH2 0x857 DUP3 DUP3 PUSH2 0x852 PUSH2 0x138B JUMP JUMPDEST PUSH2 0x1392 JUMP JUMPDEST POP POP JUMP JUMPDEST PUSH2 0x863 PUSH2 0x13A4 JUMP JUMPDEST PUSH1 0x7 PUSH1 0x14 SWAP1 SLOAD SWAP1 PUSH2 0x100 EXP SWAP1 DIV PUSH1 0xFF AND PUSH2 0x8B2 JUMPI PUSH1 0x40 MLOAD PUSH32 0x8C379A000000000000000000000000000000000000000000000000000000000 DUP2 MSTORE PUSH1 0x4 ADD PUSH2 0x8A9 SWAP1 PUSH2 0x2552 JUMP JUMPDEST PUSH1 0x40 MLOAD DUP1 SWAP2 SUB SWAP1 REVERT JUMPDEST PUSH1 0x9 SLOAD PUSH1 0xA SLOAD LT PUSH2 0x8F8 JUMPI PUSH1 0x40 MLOAD PUSH32 0x8C379A000000000000000000000000000000000000000000000000000000000 DUP2 MSTORE PUSH1 0x4 ADD PUSH2 0x8EF SWAP1 PUSH2 0x25BA JUMP JUMPDEST PUSH1 0x40 MLOAD DUP1 SWAP2 SUB SWAP1 REVERT JUMPDEST PUSH2 0x5208 PUSH1 0x1 PUSH1 0xB SLOAD PUSH2 0x90A SWAP2 SWAP1 PUSH2 0x2605 JUMP JUMPDEST GT ISZERO PUSH2 0x94B JUMPI PUSH1 0x40 MLOAD PUSH32 0x8C379A000000000000000000000000000000000000000000000000000000000 DUP2 MSTORE PUSH1 0x4 ADD PUSH2 0x942 SWAP1 PUSH2 0x2682 JUMP JUMPDEST PUSH1 0x40 MLOAD DUP1 SWAP2 SUB SWAP1 REVERT JUMPDEST PUSH1 0x8 SLOAD CALLVALUE LT ISZERO PUSH2 0x990 JUMPI PUSH1 0x40 MLOAD PUSH32 0x8C379A000000000000000000000000000000000000000000000000000000000 DUP2 MSTORE PUSH1 0x4 ADD PUSH2 0x987 SWAP1 PUSH2 0x26EA JUMP JUMPDEST PUSH1 0x40 MLOAD DUP1 SWAP2 SUB SWAP1 REVERT JUMPDEST PUSH1 0xC PUSH0 CALLER PUSH20 0xFFFFFFFFFFFFFFFFFFFFFFFFFFFFFFFFFFFFFFFF AND PUSH20 0xFFFFFFFFFFFFFFFFFFFFFFFFFFFFFFFFFFFFFFFF AND DUP2 MSTORE PUSH1 0x20 ADD SWAP1 DUP2 MSTORE PUSH1 0x20 ADD PUSH0 KECCAK256 PUSH0 SWAP1 SLOAD SWAP1 PUSH2 0x100 EXP SWAP1 DIV PUSH1 0xFF AND ISZERO PUSH2 0xA1A JUMPI PUSH1 0x40 MLOAD PUSH32 0x8C379A000000000000000000000000000000000000000000000000000000000 DUP2 MSTORE PUSH1 0x4 ADD PUSH2 0xA11 SWAP1 PUSH2 0x2752 JUMP JUMPDEST PUSH1 0x40 MLOAD DUP1 SWAP2 SUB SWAP1 REVERT JUMPDEST PUSH1 0x1 PUSH1 0xC PUSH0 CALLER PUSH20 0xFFFFFFFFFFFFFFFFFFFFFFFFFFFFFFFFFFFFFFFF AND PUSH20 0xFFFFFFFFFFFFFFFFFFFFFFFFFFFFFFFFFFFFFFFF AND DUP2 MSTORE PUSH1 0x20 ADD SWAP1 DUP2 MSTORE PUSH1 0x20 ADD PUSH0 KECCAK256 PUSH0 PUSH2 0x100 EXP DUP2 SLOAD DUP2 PUSH1 0xFF MUL NOT AND SWAP1 DUP4 ISZERO ISZERO MUL OR SWAP1 SSTORE POP PUSH1 0xA PUSH0 DUP2 SLOAD DUP1 SWAP3 SWAP2 SWAP1 PUSH2 0xA81 SWAP1 PUSH2 0x2770 JUMP JUMPDEST SWAP2 SWAP1 POP SSTORE POP PUSH1 0xB PUSH0 DUP2 SLOAD DUP1 SWAP3 SWAP2 SWAP1 PUSH2 0xA98 SWAP1 PUSH2 0x2770 JUMP JUMPDEST SWAP2 SWAP1 POP SSTORE POP PUSH0 PUSH1 0x1 PUSH1 0xB SLOAD PUSH2 0xAAD SWAP2 SWAP1 PUSH2 0x2605 JUMP JUMPDEST SWAP1 POP PUSH2 0xAB9 CALLER DUP3 PUSH2 0x13EA JUMP JUMPDEST PUSH32 0x30385C845B448A36257A6A1716E6AD2E1BC2CBE333CDE1E69FE849AD6511ADFE CALLER DUP3 PUSH1 0x40 MLOAD PUSH2 0xAEA SWAP3 SWAP2 SWAP1 PUSH2 0x27B7 JUMP JUMPDEST PUSH1 0x40 MLOAD DUP1 SWAP2 SUB SWAP1 LOG1 POP PUSH2 0xAFB PUSH2 0x1407 JUMP JUMPDEST JUMP JUMPDEST PUSH1 0xB SLOAD DUP2 JUMP JUMPDEST PUSH0 PUSH20 0xFFFFFFFFFFFFFFFFFFFFFFFFFFFFFFFFFFFFFFFF AND DUP3 PUSH20 0xFFFFFFFFFFFFFFFFFFFFFFFFFFFFFFFFFFFFFFFF AND SUB PUSH2 0xB73 JUMPI PUSH0 PUSH1 0x40 MLOAD PUSH32 0x64A0AE9200000000000000000000000000000000000000000000000000000000 DUP2 MSTORE PUSH1 0x4 ADD PUSH2 0xB6A SWAP2 SWAP1 PUSH2 0x2135 JUMP JUMPDEST PUSH1 0x40 MLOAD DUP1 SWAP2 SUB SWAP1 REVERT JUMPDEST PUSH0 PUSH2 0xB86 DUP4 DUP4 PUSH2 0xB81 PUSH2 0x138B JUMP JUMPDEST PUSH2 0x1411 JUMP JUMPDEST SWAP1 POP DUP4 PUSH20 0xFFFFFFFFFFFFFFFFFFFFFFFFFFFFFFFFFFFFFFFF AND DUP2 PUSH20 0xFFFFFFFFFFFFFFFFFFFFFFFFFFFFFFFFFFFFFFFF AND EQ PUSH2 0xBFC JUMPI DUP4 DUP3 DUP3 PUSH1 0x40 MLOAD PUSH32 0x64283D7B00000000000000000000000000000000000000000000000000000000 DUP2 MSTORE PUSH1 0x4 ADD PUSH2 0xBF3 SWAP4 SWAP3 SWAP2 SWAP1 PUSH2 0x27DE JUMP JUMPDEST PUSH1 0x40 MLOAD DUP1 SWAP2 SUB SWAP1 REVERT JUMPDEST POP POP POP POP JUMP JUMPDEST PUSH2 0x5208 DUP2 JUMP JUMPDEST PUSH1 0xC PUSH1 0x20 MSTORE DUP1 PUSH0 MSTORE PUSH1 0x40 PUSH0 KECCAK256 PUSH0 SWAP2 POP SLOAD SWAP1 PUSH2 0x100 EXP SWAP1 DIV PUSH1 0xFF AND DUP2 JUMP JUMPDEST PUSH2 0xC2D PUSH2 0x161C JUMP JUMPDEST PUSH2 0xC35 PUSH2 0x13A4 JUMP JUMPDEST PUSH0 SELFBALANCE SWAP1 POP PUSH0 DUP2 GT PUSH2 0xC7B JUMPI PUSH1 0x40 MLOAD PUSH32 0x8C379A000000000000000000000000000000000000000000000000000000000 DUP2 MSTORE PUSH1 0x4 ADD PUSH2 0xC72 SWAP1 PUSH2 0x285D JUMP JUMPDEST PUSH1 0x40 MLOAD DUP1 SWAP2 SUB SWAP1 REVERT JUMPDEST PUSH0 PUSH2 0xC84 PUSH2 0xEA7 JUMP JUMPDEST PUSH20 0xFFFFFFFFFFFFFFFFFFFFFFFFFFFFFFFFFFFFFFFF AND DUP3 PUSH1 0x40 MLOAD PUSH2 0xCA7 SWAP1 PUSH2 0x28A8 JUMP JUMPDEST PUSH0 PUSH1 0x40 MLOAD DUP1 DUP4 SUB DUP2 DUP6 DUP8 GAS CALL SWAP3 POP POP POP RETURNDATASIZE DUP1 PUSH0 DUP2 EQ PUSH2 0xCE1 JUMPI PUSH1 0x40 MLOAD SWAP2 POP PUSH1 0x1F NOT PUSH1 0x3F RETURNDATASIZE ADD AND DUP3 ADD PUSH1 0x40 MSTORE RETURNDATASIZE DUP3 MSTORE RETURNDATASIZE PUSH0 PUSH1 0x20 DUP5 ADD RETURNDATACOPY PUSH2 0xCE6 JUMP JUMPDEST PUSH1 0x60 SWAP2 POP JUMPDEST POP POP SWAP1 POP DUP1 PUSH2 0xD2A JUMPI PUSH1 0x40 MLOAD PUSH32 0x8C379A000000000000000000000000000000000000000000000000000000000 DUP2 MSTORE PUSH1 0x4 ADD PUSH2 0xD21 SWAP1 PUSH2 0x2906 JUMP JUMPDEST PUSH1 0x40 MLOAD DUP1 SWAP2 SUB SWAP1 REVERT JUMPDEST POP POP PUSH2 0xD34 PUSH2 0x1407 JUMP JUMPDEST JUMP JUMPDEST PUSH2 0xD50 DUP4 DUP4 DUP4 PUSH1 0x40 MLOAD DUP1 PUSH1 0x20 ADD PUSH1 0x40 MSTORE DUP1 PUSH0 DUP2 MSTORE POP PUSH2 0xF8E JUMP JUMPDEST POP POP POP JUMP JUMPDEST PUSH0 PUSH2 0xD5F DUP3 PUSH2 0x12CC JUMP JUMPDEST SWAP1 POP SWAP2 SWAP1 POP JUMP JUMPDEST PUSH1 0x8 SLOAD DUP2 JUMP JUMPDEST PUSH0 DUP1 PUSH20 0xFFFFFFFFFFFFFFFFFFFFFFFFFFFFFFFFFFFFFFFF AND DUP3 PUSH20 0xFFFFFFFFFFFFFFFFFFFFFFFFFFFFFFFFFFFFFFFF AND SUB PUSH2 0xDDD JUMPI PUSH0 PUSH1 0x40 MLOAD PUSH32 0x89C62B6400000000000000000000000000000000000000000000000000000000 DUP2 MSTORE PUSH1 0x4 ADD PUSH2 0xDD4 SWAP2 SWAP1 PUSH2 0x2135 JUMP JUMPDEST PUSH1 0x40 MLOAD DUP1 SWAP2 SUB SWAP1 REVERT JUMPDEST PUSH1 0x3 PUSH0 DUP4 PUSH20 0xFFFFFFFFFFFFFFFFFFFFFFFFFFFFFFFFFFFFFFFF AND PUSH20 0xFFFFFFFFFFFFFFFFFFFFFFFFFFFFFFFFFFFFFFFF AND DUP2 MSTORE PUSH1 0x20 ADD SWAP1 DUP2 MSTORE PUSH1 0x20 ADD PUSH0 KECCAK256 SLOAD SWAP1 POP SWAP2 SWAP1 POP JUMP JUMPDEST PUSH2 0xE2A PUSH2 0x161C JUMP JUMPDEST PUSH2 0xE33 PUSH0 PUSH2 0x16A3 JUMP JUMPDEST JUMP JUMPDEST PUSH1 0x9 SLOAD DUP2 JUMP JUMPDEST PUSH1 0x40 MLOAD DUP1 PUSH1 0x60 ADD PUSH1 0x40 MSTORE DUP1 PUSH1 0x35 DUP2 MSTORE PUSH1 0x20 ADD PUSH2 0x2AD0 PUSH1 0x35 SWAP2 CODECOPY DUP2 JUMP JUMPDEST PUSH2 0xE5F PUSH2 0x161C JUMP JUMPDEST PUSH0 PUSH1 0x7 PUSH1 0x14 PUSH2 0x100 EXP DUP2 SLOAD DUP2 PUSH1 0xFF MUL NOT AND SWAP1 DUP4 ISZERO ISZERO MUL OR SWAP1 SSTORE POP PUSH32 0xAF79B4370F6AF9D950564BBE6B81F7F0834C003C455DB9248F4E55E6BF865EB7 PUSH1 0x40 MLOAD PUSH1 0x40 MLOAD DUP1 SWAP2 SUB SWAP1 LOG1 JUMP JUMPDEST PUSH0 PUSH1 0x7 PUSH0 SWAP1 SLOAD SWAP1 PUSH2 0x100 EXP SWAP1 DIV PUSH20 0xFFFFFFFFFFFFFFFFFFFFFFFFFFFFFFFFFFFFFFFF AND SWAP1 POP SWAP1 JUMP JUMPDEST PUSH1 0x60 PUSH1 0x1 DUP1 SLOAD PUSH2 0xEDE SWAP1 PUSH2 0x24D8 JUMP JUMPDEST DUP1 PUSH1 0x1F ADD PUSH1 0x20 DUP1 SWAP2 DIV MUL PUSH1 0x20 ADD PUSH1 0x40 MLOAD SWAP1 DUP2 ADD PUSH1 0x40 MSTORE DUP1 SWAP3 SWAP2 SWAP1 DUP2 DUP2 MSTORE PUSH1 0x20 ADD DUP3 DUP1 SLOAD PUSH2 0xF0A SWAP1 PUSH2 0x24D8 JUMP JUMPDEST DUP1 ISZERO PUSH2 0xF55 JUMPI DUP1 PUSH1 0x1F LT PUSH2 0xF2C JUMPI PUSH2 0x100 DUP1 DUP4 SLOAD DIV MUL DUP4 MSTORE SWAP2 PUSH1 0x20 ADD SWAP2 PUSH2 0xF55 JUMP JUMPDEST DUP3 ADD SWAP2 SWAP1 PUSH0 MSTORE PUSH1 0x20 PUSH0 KECCAK256 SWAP1 JUMPDEST DUP2 SLOAD DUP2 MSTORE SWAP1 PUSH1 0x1 ADD SWAP1 PUSH1 0x20 ADD DUP1 DUP4 GT PUSH2 0xF38 JUMPI DUP3 SWAP1 SUB PUSH1 0x1F AND DUP3 ADD SWAP2 JUMPDEST POP POP POP POP POP SWAP1 POP SWAP1 JUMP JUMPDEST PUSH1 0x7 PUSH1 0x14 SWAP1 SLOAD SWAP1 PUSH2 0x100 EXP SWAP1 DIV PUSH1 0xFF AND DUP2 JUMP JUMPDEST PUSH2 0xF84 PUSH2 0xF7D PUSH2 0x138B JUMP JUMPDEST DUP4 DUP4 PUSH2 0x1766 JUMP JUMPDEST POP POP JUMP JUMPDEST PUSH1 0xA SLOAD DUP2 JUMP JUMPDEST PUSH2 0xF99 DUP5 DUP5 DUP5 PUSH2 0xB03 JUMP JUMPDEST PUSH2 0xFA5 DUP5 DUP5 DUP5 DUP5 PUSH2 0x18CF JUMP JUMPDEST POP POP POP POP JUMP JUMPDEST PUSH1 0xC PUSH0 CALLER PUSH20 0xFFFFFFFFFFFFFFFFFFFFFFFFFFFFFFFFFFFFFFFF AND PUSH20 0xFFFFFFFFFFFFFFFFFFFFFFFFFFFFFFFFFFFFFFFF AND DUP2 MSTORE PUSH1 0x20 ADD SWAP1 DUP2 MSTORE PUSH1 0x20 ADD PUSH0 KECCAK256 PUSH0 SWAP1 SLOAD SWAP1 PUSH2 0x100 EXP SWAP1 DIV PUSH1 0xFF AND PUSH2 0x1034 JUMPI PUSH1 0x40 MLOAD PUSH32 0x8C379A000000000000000000000000000000000000000000000000000000000 DUP2 MSTORE PUSH1 0x4 ADD PUSH2 0x102B SWAP1 PUSH2 0x296E JUMP JUMPDEST PUSH1 0x40 MLOAD DUP1 SWAP2 SUB SWAP1 REVERT JUMPDEST CALLER PUSH20 0xFFFFFFFFFFFFFFFFFFFFFFFFFFFFFFFFFFFFFFFF AND PUSH32 0x845F38EFE8BD2A3A720F0571099A52E2258548DAFFE38BD3C857EBB1C9CF2FB1 PUSH1 0x40 MLOAD PUSH2 0x1078 SWAP1 PUSH2 0x29D6 JUMP JUMPDEST PUSH1 0x40 MLOAD DUP1 SWAP2 SUB SWAP1 LOG2 JUMP JUMPDEST PUSH1 0x60 PUSH2 0x108D DUP3 PUSH2 0x12CC JUMP JUMPDEST POP PUSH2 0x1096 PUSH2 0x1A81 JUMP JUMPDEST SWAP1 POP SWAP2 SWAP1 POP JUMP JUMPDEST PUSH0 PUSH1 0x5 PUSH0 DUP5 PUSH20 0xFFFFFFFFFFFFFFFFFFFFFFFFFFFFFFFFFFFFFFFF AND PUSH20 0xFFFFFFFFFFFFFFFFFFFFFFFFFFFFFFFFFFFFFFFF AND DUP2 MSTORE PUSH1 0x20 ADD SWAP1 DUP2 MSTORE PUSH1 0x20 ADD PUSH0 KECCAK256 PUSH0 DUP4 PUSH20 0xFFFFFFFFFFFFFFFFFFFFFFFFFFFFFFFFFFFFFFFF AND PUSH20 0xFFFFFFFFFFFFFFFFFFFFFFFFFFFFFFFFFFFFFFFF AND DUP2 MSTORE PUSH1 0x20 ADD SWAP1 DUP2 MSTORE PUSH1 0x20 ADD PUSH0 KECCAK256 PUSH0 SWAP1 SLOAD SWAP1 PUSH2 0x100 EXP SWAP1 DIV PUSH1 0xFF AND SWAP1 POP SWAP3 SWAP2 POP POP JUMP JUMPDEST PUSH2 0x1133 PUSH2 0x161C JUMP JUMPDEST PUSH0 PUSH1 0xA DUP2 SWAP1 SSTORE POP DUP1 PUSH1 0x9 DUP2 SWAP1 SSTORE POP PUSH1 0x1 PUSH1 0x7 PUSH1 0x14 PUSH2 0x100 EXP DUP2 SLOAD DUP2 PUSH1 0xFF MUL NOT AND SWAP1 DUP4 ISZERO ISZERO MUL OR SWAP1 SSTORE POP PUSH32 0x3EFD3EBBC5ED12643B571B325FC9A3EB76C8789615F51B623D8E5BF5116B82F DUP2 PUSH1 0x40 MLOAD PUSH2 0x118B SWAP2 SWAP1 PUSH2 0x21C5 JUMP JUMPDEST PUSH1 0x40 MLOAD DUP1 SWAP2 SUB SWAP1 LOG1 POP JUMP JUMPDEST PUSH2 0x119E PUSH2 0x161C JUMP JUMPDEST PUSH0 PUSH20 0xFFFFFFFFFFFFFFFFFFFFFFFFFFFFFFFFFFFFFFFF AND DUP2 PUSH20 0xFFFFFFFFFFFFFFFFFFFFFFFFFFFFFFFFFFFFFFFF AND SUB PUSH2 0x120E JUMPI PUSH0 PUSH1 0x40 MLOAD PUSH32 0x1E4FBDF700000000000000000000000000000000000000000000000000000000 DUP2 MSTORE PUSH1 0x4 ADD PUSH2 0x1205 SWAP2 SWAP1 PUSH2 0x2135 JUMP JUMPDEST PUSH1 0x40 MLOAD DUP1 SWAP2 SUB SWAP1 REVERT JUMPDEST PUSH2 0x1217 DUP2 PUSH2 0x16A3 JUMP JUMPDEST POP JUMP JUMPDEST PUSH2 0x1222 PUSH2 0x161C JUMP JUMPDEST DUP1 PUSH1 0x8 DUP2 SWAP1 SSTORE POP PUSH32 0x25B1F9F6B6E61DFCA5575239769E4450ED2E49176670837F5D1A82A9A2FC693F DUP2 PUSH1 0x40 MLOAD PUSH2 0x1258 SWAP2 SWAP1 PUSH2 0x21C5 JUMP JUMPDEST PUSH1 0x40 MLOAD DUP1 SWAP2 SUB SWAP1 LOG1 POP JUMP JUMPDEST PUSH0 PUSH32 0x1FFC9A700000000000000000000000000000000000000000000000000000000 PUSH28 0xFFFFFFFFFFFFFFFFFFFFFFFFFFFFFFFFFFFFFFFFFFFFFFFFFFFFFFFF NOT AND DUP3 PUSH28 0xFFFFFFFFFFFFFFFFFFFFFFFFFFFFFFFFFFFFFFFFFFFFFFFFFFFFFFFF NOT AND EQ SWAP1 POP SWAP2 SWAP1 POP JUMP JUMPDEST PUSH0 DUP1 PUSH2 0x12D7 DUP4 PUSH2 0x1AA1 JUMP JUMPDEST SWAP1 POP PUSH0 PUSH20 0xFFFFFFFFFFFFFFFFFFFFFFFFFFFFFFFFFFFFFFFF AND DUP2 PUSH20 0xFFFFFFFFFFFFFFFFFFFFFFFFFFFFFFFFFFFFFFFF AND SUB PUSH2 0x1349 JUMPI DUP3 PUSH1 0x40 MLOAD PUSH32 0x7E27328900000000000000000000000000000000000000000000000000000000 DUP2 MSTORE PUSH1 0x4 ADD PUSH2 0x1340 SWAP2 SWAP1 PUSH2 0x21C5 JUMP JUMPDEST PUSH1 0x40 MLOAD DUP1 SWAP2 SUB SWAP1 REVERT JUMPDEST DUP1 SWAP2 POP POP SWAP2 SWAP1 POP JUMP JUMPDEST PUSH0 PUSH1 0x4 PUSH0 DUP4 DUP2 MSTORE PUSH1 0x20 ADD SWAP1 DUP2 MSTORE PUSH1 0x20 ADD PUSH0 KECCAK256 PUSH0 SWAP1 SLOAD SWAP1 PUSH2 0x100 EXP SWAP1 DIV PUSH20 0xFFFFFFFFFFFFFFFFFFFFFFFFFFFFFFFFFFFFFFFF AND SWAP1 POP SWAP2 SWAP1 POP JUMP JUMPDEST PUSH0 CALLER SWAP1 POP SWAP1 JUMP JUMPDEST PUSH2 0x139F DUP4 DUP4 DUP4 PUSH1 0x1 PUSH2 0x1ADA JUMP JUMPDEST POP POP POP JUMP JUMPDEST PUSH1 0x2 PUSH1 0x6 SLOAD SUB PUSH2 0x13E0 JUMPI PUSH1 0x40 MLOAD PUSH32 0x3EE5AEB500000000000000000000000000000000000000000000000000000000 DUP2 MSTORE PUSH1 0x4 ADD PUSH1 0x40 MLOAD DUP1 SWAP2 SUB SWAP1 REVERT JUMPDEST PUSH1 0x2 PUSH1 0x6 DUP2 SWAP1 SSTORE POP JUMP JUMPDEST PUSH2 0x1403 DUP3 DUP3 PUSH1 0x40 MLOAD DUP1 PUSH1 0x20 ADD PUSH1 0x40 MSTORE DUP1 PUSH0 DUP2 MSTORE POP PUSH2 0x1C99 JUMP JUMPDEST POP POP JUMP JUMPDEST PUSH1 0x1 PUSH1 0x6 DUP2 SWAP1 SSTORE POP JUMP JUMPDEST PUSH0 DUP1 PUSH2 0x141C DUP5 PUSH2 0x1AA1 JUMP JUMPDEST SWAP1 POP PUSH0 PUSH20 0xFFFFFFFFFFFFFFFFFFFFFFFFFFFFFFFFFFFFFFFF AND DUP4 PUSH20 0xFFFFFFFFFFFFFFFFFFFFFFFFFFFFFFFFFFFFFFFF AND EQ PUSH2 0x145D JUMPI PUSH2 0x145C DUP2 DUP5 DUP7 PUSH2 0x1CB4 JUMP JUMPDEST JUMPDEST PUSH0 PUSH20 0xFFFFFFFFFFFFFFFFFFFFFFFFFFFFFFFFFFFFFFFF AND DUP2 PUSH20 0xFFFFFFFFFFFFFFFFFFFFFFFFFFFFFFFFFFFFFFFF AND EQ PUSH2 0x14E8 JUMPI PUSH2 0x149C PUSH0 DUP6 PUSH0 DUP1 PUSH2 0x1ADA JUMP JUMPDEST PUSH1 0x1 PUSH1 0x3 PUSH0 DUP4 PUSH20 0xFFFFFFFFFFFFFFFFFFFFFFFFFFFFFFFFFFFFFFFF AND PUSH20 0xFFFFFFFFFFFFFFFFFFFFFFFFFFFFFFFFFFFFFFFF AND DUP2 MSTORE PUSH1 0x20 ADD SWAP1 DUP2 MSTORE PUSH1 0x20 ADD PUSH0 KECCAK256 PUSH0 DUP3 DUP3 SLOAD SUB SWAP3 POP POP DUP2 SWAP1 SSTORE POP JUMPDEST PUSH0 PUSH20 0xFFFFFFFFFFFFFFFFFFFFFFFFFFFFFFFFFFFFFFFF AND DUP6 PUSH20 0xFFFFFFFFFFFFFFFFFFFFFFFFFFFFFFFFFFFFFFFF AND EQ PUSH2 0x1567 JUMPI PUSH1 0x1 PUSH1 0x3 PUSH0 DUP8 PUSH20 0xFFFFFFFFFFFFFFFFFFFFFFFFFFFFFFFFFFFFFFFF AND PUSH20 0xFFFFFFFFFFFFFFFFFFFFFFFFFFFFFFFFFFFFFFFF AND DUP2 MSTORE PUSH1 0x20 ADD SWAP1 DUP2 MSTORE PUSH1 0x20 ADD PUSH0 KECCAK256 PUSH0 DUP3 DUP3 SLOAD ADD SWAP3 POP POP DUP2 SWAP1 SSTORE POP JUMPDEST DUP5 PUSH1 0x2 PUSH0 DUP7 DUP2 MSTORE PUSH1 0x20 ADD SWAP1 DUP2 MSTORE PUSH1 0x20 ADD PUSH0 KECCAK256 PUSH0 PUSH2 0x100 EXP DUP2 SLOAD DUP2 PUSH20 0xFFFFFFFFFFFFFFFFFFFFFFFFFFFFFFFFFFFFFFFF MUL NOT AND SWAP1 DUP4 PUSH20 0xFFFFFFFFFFFFFFFFFFFFFFFFFFFFFFFFFFFFFFFF AND MUL OR SWAP1 SSTORE POP DUP4 DUP6 PUSH20 0xFFFFFFFFFFFFFFFFFFFFFFFFFFFFFFFFFFFFFFFF AND DUP3 PUSH20 0xFFFFFFFFFFFFFFFFFFFFFFFFFFFFFFFFFFFFFFFF AND PUSH32 0xDDF252AD1BE2C89B69C2B068FC378DAA952BA7F163C4A11628F55A4DF523B3EF PUSH1 0x40 MLOAD PUSH1 0x40 MLOAD DUP1 SWAP2 SUB SWAP1 LOG4 DUP1 SWAP2 POP POP SWAP4 SWAP3 POP POP POP JUMP JUMPDEST PUSH2 0x1624 PUSH2 0x138B JUMP JUMPDEST PUSH20 0xFFFFFFFFFFFFFFFFFFFFFFFFFFFFFFFFFFFFFFFF AND PUSH2 0x1642 PUSH2 0xEA7 JUMP JUMPDEST PUSH20 0xFFFFFFFFFFFFFFFFFFFFFFFFFFFFFFFFFFFFFFFF AND EQ PUSH2 0x16A1 JUMPI PUSH2 0x1665 PUSH2 0x138B JUMP JUMPDEST PUSH1 0x40 MLOAD PUSH32 0x118CDAA700000000000000000000000000000000000000000000000000000000 DUP2 MSTORE PUSH1 0x4 ADD PUSH2 0x1698 SWAP2 SWAP1 PUSH2 0x2135 JUMP JUMPDEST PUSH1 0x40 MLOAD DUP1 SWAP2 SUB SWAP1 REVERT JUMPDEST JUMP JUMPDEST PUSH0 PUSH1 0x7 PUSH0 SWAP1 SLOAD SWAP1 PUSH2 0x100 EXP SWAP1 DIV PUSH20 0xFFFFFFFFFFFFFFFFFFFFFFFFFFFFFFFFFFFFFFFF AND SWAP1 POP DUP2 PUSH1 0x7 PUSH0 PUSH2 0x100 EXP DUP2 SLOAD DUP2 PUSH20 0xFFFFFFFFFFFFFFFFFFFFFFFFFFFFFFFFFFFFFFFF MUL NOT AND SWAP1 DUP4 PUSH20 0xFFFFFFFFFFFFFFFFFFFFFFFFFFFFFFFFFFFFFFFF AND MUL OR SWAP1 SSTORE POP DUP2 PUSH20 0xFFFFFFFFFFFFFFFFFFFFFFFFFFFFFFFFFFFFFFFF AND DUP2 PUSH20 0xFFFFFFFFFFFFFFFFFFFFFFFFFFFFFFFFFFFFFFFF AND PUSH32 0x8BE0079C531659141344CD1FD0A4F28419497F9722A3DAAFE3B4186F6B6457E0 PUSH1 0x40 MLOAD PUSH1 0x40 MLOAD DUP1 SWAP2 SUB SWAP1 LOG3 POP POP JUMP JUMPDEST PUSH0 PUSH20 0xFFFFFFFFFFFFFFFFFFFFFFFFFFFFFFFFFFFFFFFF AND DUP3 PUSH20 0xFFFFFFFFFFFFFFFFFFFFFFFFFFFFFFFFFFFFFFFF AND SUB PUSH2 0x17D6 JUMPI DUP2 PUSH1 0x40 MLOAD PUSH32 0x5B08BA1800000000000000000000000000000000000000000000000000000000 DUP2 MSTORE PUSH1 0x4 ADD PUSH2 0x17CD SWAP2 SWAP1 PUSH2 0x2135 JUMP JUMPDEST PUSH1 0x40 MLOAD DUP1 SWAP2 SUB SWAP1 REVERT JUMPDEST DUP1 PUSH1 0x5 PUSH0 DUP6 PUSH20 0xFFFFFFFFFFFFFFFFFFFFFFFFFFFFFFFFFFFFFFFF AND PUSH20 0xFFFFFFFFFFFFFFFFFFFFFFFFFFFFFFFFFFFFFFFF AND DUP2 MSTORE PUSH1 0x20 ADD SWAP1 DUP2 MSTORE PUSH1 0x20 ADD PUSH0 KECCAK256 PUSH0 DUP5 PUSH20 0xFFFFFFFFFFFFFFFFFFFFFFFFFFFFFFFFFFFFFFFF AND PUSH20 0xFFFFFFFFFFFFFFFFFFFFFFFFFFFFFFFFFFFFFFFF AND DUP2 MSTORE PUSH1 0x20 ADD SWAP1 DUP2 MSTORE PUSH1 0x20 ADD PUSH0 KECCAK256 PUSH0 PUSH2 0x100 EXP DUP2 SLOAD DUP2 PUSH1 0xFF MUL NOT AND SWAP1 DUP4 ISZERO ISZERO MUL OR SWAP1 SSTORE POP DUP2 PUSH20 0xFFFFFFFFFFFFFFFFFFFFFFFFFFFFFFFFFFFFFFFF AND DUP4 PUSH20 0xFFFFFFFFFFFFFFFFFFFFFFFFFFFFFFFFFFFFFFFF AND PUSH32 0x17307EAB39AB6107E8899845AD3D59BD9653F200F220920489CA2B5937696C31 DUP4 PUSH1 0x40 MLOAD PUSH2 0x18C2 SWAP2 SWAP1 PUSH2 0x1FD5 JUMP JUMPDEST PUSH1 0x40 MLOAD DUP1 SWAP2 SUB SWAP1 LOG3 POP POP POP JUMP JUMPDEST PUSH0 DUP4 PUSH20 0xFFFFFFFFFFFFFFFFFFFFFFFFFFFFFFFFFFFFFFFF AND EXTCODESIZE GT ISZERO PUSH2 0x1A7B JUMPI DUP3 PUSH20 0xFFFFFFFFFFFFFFFFFFFFFFFFFFFFFFFFFFFFFFFF AND PUSH4 0x150B7A02 PUSH2 0x1912 PUSH2 0x138B JUMP JUMPDEST DUP7 DUP6 DUP6 PUSH1 0x40 MLOAD DUP6 PUSH4 0xFFFFFFFF AND PUSH1 0xE0 SHL DUP2 MSTORE PUSH1 0x4 ADD PUSH2 0x1934 SWAP5 SWAP4 SWAP3 SWAP2 SWAP1 PUSH2 0x2A46 JUMP JUMPDEST PUSH1 0x20 PUSH1 0x40 MLOAD DUP1 DUP4 SUB DUP2 PUSH0 DUP8 GAS CALL SWAP3 POP POP POP DUP1 ISZERO PUSH2 0x196F JUMPI POP PUSH1 0x40 MLOAD RETURNDATASIZE PUSH1 0x1F NOT PUSH1 0x1F DUP3 ADD AND DUP3 ADD DUP1 PUSH1 0x40 MSTORE POP DUP2 ADD SWAP1 PUSH2 0x196C SWAP2 SWAP1 PUSH2 0x2AA4 JUMP JUMPDEST PUSH1 0x1 JUMPDEST PUSH2 0x19F0 JUMPI RETURNDATASIZE DUP1 PUSH0 DUP2 EQ PUSH2 0x199D JUMPI PUSH1 0x40 MLOAD SWAP2 POP PUSH1 0x1F NOT PUSH1 0x3F RETURNDATASIZE ADD AND DUP3 ADD PUSH1 0x40 MSTORE RETURNDATASIZE DUP3 MSTORE RETURNDATASIZE PUSH0 PUSH1 0x20 DUP5 ADD RETURNDATACOPY PUSH2 0x19A2 JUMP JUMPDEST PUSH1 0x60 SWAP2 POP JUMPDEST POP PUSH0 DUP2 MLOAD SUB PUSH2 0x19E8 JUMPI DUP4 PUSH1 0x40 MLOAD PUSH32 0x64A0AE9200000000000000000000000000000000000000000000000000000000 DUP2 MSTORE PUSH1 0x4 ADD PUSH2 0x19DF SWAP2 SWAP1 PUSH2 0x2135 JUMP JUMPDEST PUSH1 0x40 MLOAD DUP1 SWAP2 SUB SWAP1 REVERT JUMPDEST DUP1 MLOAD DUP2 PUSH1 0x20 ADD REVERT JUMPDEST PUSH4 0x150B7A02 PUSH1 0xE0 SHL PUSH28 0xFFFFFFFFFFFFFFFFFFFFFFFFFFFFFFFFFFFFFFFFFFFFFFFFFFFFFFFF NOT AND DUP2 PUSH28 0xFFFFFFFFFFFFFFFFFFFFFFFFFFFFFFFFFFFFFFFFFFFFFFFFFFFFFFFF NOT AND EQ PUSH2 0x1A79 JUMPI DUP4 PUSH1 0x40 MLOAD PUSH32 0x64A0AE9200000000000000000000000000000000000000000000000000000000 DUP2 MSTORE PUSH1 0x4 ADD PUSH2 0x1A70 SWAP2 SWAP1 PUSH2 0x2135 JUMP JUMPDEST PUSH1 0x40 MLOAD DUP1 SWAP2 SUB SWAP1 REVERT JUMPDEST POP JUMPDEST POP POP POP POP JUMP JUMPDEST PUSH1 0x60 PUSH1 0x40 MLOAD DUP1 PUSH1 0x60 ADD PUSH1 0x40 MSTORE DUP1 PUSH1 0x35 DUP2 MSTORE PUSH1 0x20 ADD PUSH2 0x2AD0 PUSH1 0x35 SWAP2 CODECOPY SWAP1 POP SWAP1 JUMP JUMPDEST PUSH0 PUSH1 0x2 PUSH0 DUP4 DUP2 MSTORE PUSH1 0x20 ADD SWAP1 DUP2 MSTORE PUSH1 0x20 ADD PUSH0 KECCAK256 PUSH0 SWAP1 SLOAD SWAP1 PUSH2 0x100 EXP SWAP1 DIV PUSH20 0xFFFFFFFFFFFFFFFFFFFFFFFFFFFFFFFFFFFFFFFF AND SWAP1 POP SWAP2 SWAP1 POP JUMP JUMPDEST DUP1 DUP1 PUSH2 0x1B12 JUMPI POP PUSH0 PUSH20 0xFFFFFFFFFFFFFFFFFFFFFFFFFFFFFFFFFFFFFFFF AND DUP3 PUSH20 0xFFFFFFFFFFFFFFFFFFFFFFFFFFFFFFFFFFFFFFFF AND EQ ISZERO JUMPDEST ISZERO PUSH2 0x1C44 JUMPI PUSH0 PUSH2 0x1B21 DUP5 PUSH2 0x12CC JUMP JUMPDEST SWAP1 POP PUSH0 PUSH20 0xFFFFFFFFFFFFFFFFFFFFFFFFFFFFFFFFFFFFFFFF AND DUP4 PUSH20 0xFFFFFFFFFFFFFFFFFFFFFFFFFFFFFFFFFFFFFFFF AND EQ ISZERO DUP1 ISZERO PUSH2 0x1B8B JUMPI POP DUP3 PUSH20 0xFFFFFFFFFFFFFFFFFFFFFFFFFFFFFFFFFFFFFFFF AND DUP2 PUSH20 0xFFFFFFFFFFFFFFFFFFFFFFFFFFFFFFFFFFFFFFFF AND EQ ISZERO JUMPDEST DUP1 ISZERO PUSH2 0x1B9E JUMPI POP PUSH2 0x1B9C DUP2 DUP5 PUSH2 0x109D JUMP JUMPDEST ISZERO JUMPDEST ISZERO PUSH2 0x1BE0 JUMPI DUP3 PUSH1 0x40 MLOAD PUSH32 0xA9FBF51F00000000000000000000000000000000000000000000000000000000 DUP2 MSTORE PUSH1 0x4 ADD PUSH2 0x1BD7 SWAP2 SWAP1 PUSH2 0x2135 JUMP JUMPDEST PUSH1 0x40 MLOAD DUP1 SWAP2 SUB SWAP1 REVERT JUMPDEST DUP2 ISZERO PUSH2 0x1C42 JUMPI DUP4 DUP6 PUSH20 0xFFFFFFFFFFFFFFFFFFFFFFFFFFFFFFFFFFFFFFFF AND DUP3 PUSH20 0xFFFFFFFFFFFFFFFFFFFFFFFFFFFFFFFFFFFFFFFF AND PUSH32 0x8C5BE1E5EBEC7D5BD14F71427D1E84F3DD0314C0F7B2291E5B200AC8C7C3B925 PUSH1 0x40 MLOAD PUSH1 0x40 MLOAD DUP1 SWAP2 SUB SWAP1 LOG4 JUMPDEST POP JUMPDEST DUP4 PUSH1 0x4 PUSH0 DUP6 DUP2 MSTORE PUSH1 0x20 ADD SWAP1 DUP2 MSTORE PUSH1 0x20 ADD PUSH0 KECCAK256 PUSH0 PUSH2 0x100 EXP DUP2 SLOAD DUP2 PUSH20 0xFFFFFFFFFFFFFFFFFFFFFFFFFFFFFFFFFFFFFFFF MUL NOT AND SWAP1 DUP4 PUSH20 0xFFFFFFFFFFFFFFFFFFFFFFFFFFFFFFFFFFFFFFFF AND MUL OR SWAP1 SSTORE POP POP POP POP POP JUMP JUMPDEST PUSH2 0x1CA3 DUP4 DUP4 PUSH2 0x1D77 JUMP JUMPDEST PUSH2 0x1CAF PUSH0 DUP5 DUP5 DUP5 PUSH2 0x18CF JUMP JUMPDEST POP POP POP JUMP JUMPDEST PUSH2 0x1CBF DUP4 DUP4 DUP4 PUSH2 0x1E6A JUMP JUMPDEST PUSH2 0x1D72 JUMPI PUSH0 PUSH20 0xFFFFFFFFFFFFFFFFFFFFFFFFFFFFFFFFFFFFFFFF AND DUP4 PUSH20 0xFFFFFFFFFFFFFFFFFFFFFFFFFFFFFFFFFFFFFFFF AND SUB PUSH2 0x1D33 JUMPI DUP1 PUSH1 0x40 MLOAD PUSH32 0x7E27328900000000000000000000000000000000000000000000000000000000 DUP2 MSTORE PUSH1 0x4 ADD PUSH2 0x1D2A SWAP2 SWAP1 PUSH2 0x21C5 JUMP JUMPDEST PUSH1 0x40 MLOAD DUP1 SWAP2 SUB SWAP1 REVERT JUMPDEST DUP2 DUP2 PUSH1 0x40 MLOAD PUSH32 0x177E802F00000000000000000000000000000000000000000000000000000000 DUP2 MSTORE PUSH1 0x4 ADD PUSH2 0x1D69 SWAP3 SWAP2 SWAP1 PUSH2 0x27B7 JUMP JUMPDEST PUSH1 0x40 MLOAD DUP1 SWAP2 SUB SWAP1 REVERT JUMPDEST POP POP POP JUMP JUMPDEST PUSH0 PUSH20 0xFFFFFFFFFFFFFFFFFFFFFFFFFFFFFFFFFFFFFFFF AND DUP3 PUSH20 0xFFFFFFFFFFFFFFFFFFFFFFFFFFFFFFFFFFFFFFFF AND SUB PUSH2 0x1DE7 JUMPI PUSH0 PUSH1 0x40 MLOAD PUSH32 0x64A0AE9200000000000000000000000000000000000000000000000000000000 DUP2 MSTORE PUSH1 0x4 ADD PUSH2 0x1DDE SWAP2 SWAP1 PUSH2 0x2135 JUMP JUMPDEST PUSH1 0x40 MLOAD DUP1 SWAP2 SUB SWAP1 REVERT JUMPDEST PUSH0 PUSH2 0x1DF3 DUP4 DUP4 PUSH0 PUSH2 0x1411 JUMP JUMPDEST SWAP1 POP PUSH0 PUSH20 0xFFFFFFFFFFFFFFFFFFFFFFFFFFFFFFFFFFFFFFFF AND DUP2 PUSH20 0xFFFFFFFFFFFFFFFFFFFFFFFFFFFFFFFFFFFFFFFF AND EQ PUSH2 0x1E65 JUMPI PUSH0 PUSH1 0x40 MLOAD PUSH32 0x73C6AC6E00000000000000000000000000000000000000000000000000000000 DUP2 MSTORE PUSH1 0x4 ADD PUSH2 0x1E5C SWAP2 SWAP1 PUSH2 0x2135 JUMP JUMPDEST PUSH1 0x40 MLOAD DUP1 SWAP2 SUB SWAP1 REVERT JUMPDEST POP POP POP JUMP JUMPDEST PUSH0 DUP1 PUSH20 0xFFFFFFFFFFFFFFFFFFFFFFFFFFFFFFFFFFFFFFFF AND DUP4 PUSH20 0xFFFFFFFFFFFFFFFFFFFFFFFFFFFFFFFFFFFFFFFF AND EQ ISZERO DUP1 ISZERO PUSH2 0x1F21 JUMPI POP DUP3 PUSH20 0xFFFFFFFFFFFFFFFFFFFFFFFFFFFFFFFFFFFFFFFF AND DUP5 PUSH20 0xFFFFFFFFFFFFFFFFFFFFFFFFFFFFFFFFFFFFFFFF AND EQ DUP1 PUSH2 0x1EE2 JUMPI POP PUSH2 0x1EE1 DUP5 DUP5 PUSH2 0x109D JUMP JUMPDEST JUMPDEST DUP1 PUSH2 0x1F20 JUMPI POP DUP3 PUSH20 0xFFFFFFFFFFFFFFFFFFFFFFFFFFFFFFFFFFFFFFFF AND PUSH2 0x1F08 DUP4 PUSH2 0x1352 JUMP JUMPDEST PUSH20 0xFFFFFFFFFFFFFFFFFFFFFFFFFFFFFFFFFFFFFFFF AND EQ JUMPDEST JUMPDEST SWAP1 POP SWAP4 SWAP3 POP POP POP JUMP JUMPDEST PUSH0 PUSH1 0x40 MLOAD SWAP1 POP SWAP1 JUMP JUMPDEST PUSH0 DUP1 REVERT JUMPDEST PUSH0 DUP1 REVERT JUMPDEST PUSH0 PUSH32 0xFFFFFFFF00000000000000000000000000000000000000000000000000000000 DUP3 AND SWAP1 POP SWAP2 SWAP1 POP JUMP JUMPDEST PUSH2 0x1F6F DUP2 PUSH2 0x1F3B JUMP JUMPDEST DUP2 EQ PUSH2 0x1F79 JUMPI PUSH0 DUP1 REVERT JUMPDEST POP JUMP JUMPDEST PUSH0 DUP2 CALLDATALOAD SWAP1 POP PUSH2 0x1F8A DUP2 PUSH2 0x1F66 JUMP JUMPDEST SWAP3 SWAP2 POP POP JUMP JUMPDEST PUSH0 PUSH1 0x20 DUP3 DUP5 SUB SLT ISZERO PUSH2 0x1FA5 JUMPI PUSH2 0x1FA4 PUSH2 0x1F33 JUMP JUMPDEST JUMPDEST PUSH0 PUSH2 0x1FB2 DUP5 DUP3 DUP6 ADD PUSH2 0x1F7C JUMP JUMPDEST SWAP2 POP POP SWAP3 SWAP2 POP POP JUMP JUMPDEST PUSH0 DUP2 ISZERO ISZERO SWAP1 POP SWAP2 SWAP1 POP JUMP JUMPDEST PUSH2 0x1FCF DUP2 PUSH2 0x1FBB JUMP JUMPDEST DUP3 MSTORE POP POP JUMP JUMPDEST PUSH0 PUSH1 0x20 DUP3 ADD SWAP1 POP PUSH2 0x1FE8 PUSH0 DUP4 ADD DUP5 PUSH2 0x1FC6 JUMP JUMPDEST SWAP3 SWAP2 POP POP JUMP JUMPDEST PUSH0 DUP2 MLOAD SWAP1 POP SWAP2 SWAP1 POP JUMP JUMPDEST PUSH0 DUP3 DUP3 MSTORE PUSH1 0x20 DUP3 ADD SWAP1 POP SWAP3 SWAP2 POP POP JUMP JUMPDEST PUSH0 JUMPDEST DUP4 DUP2 LT ISZERO PUSH2 0x2025 JUMPI DUP1 DUP3 ADD MLOAD DUP2 DUP5 ADD MSTORE PUSH1 0x20 DUP2 ADD SWAP1 POP PUSH2 0x200A JUMP JUMPDEST PUSH0 DUP5 DUP5 ADD MSTORE POP POP POP POP JUMP JUMPDEST PUSH0 PUSH1 0x1F NOT PUSH1 0x1F DUP4 ADD AND SWAP1 POP SWAP2 SWAP1 POP JUMP JUMPDEST PUSH0 PUSH2 0x204A DUP3 PUSH2 0x1FEE JUMP JUMPDEST PUSH2 0x2054 DUP2 DUP6 PUSH2 0x1FF8 JUMP JUMPDEST SWAP4 POP PUSH2 0x2064 DUP2 DUP6 PUSH1 0x20 DUP7 ADD PUSH2 0x2008 JUMP JUMPDEST PUSH2 0x206D DUP2 PUSH2 0x2030 JUMP JUMPDEST DUP5 ADD SWAP2 POP POP SWAP3 SWAP2 POP POP JUMP JUMPDEST PUSH0 PUSH1 0x20 DUP3 ADD SWAP1 POP DUP2 DUP2 SUB PUSH0 DUP4 ADD MSTORE PUSH2 0x2090 DUP2 DUP5 PUSH2 0x2040 JUMP JUMPDEST SWAP1 POP SWAP3 SWAP2 POP POP JUMP JUMPDEST PUSH0 DUP2 SWAP1 POP SWAP2 SWAP1 POP JUMP JUMPDEST PUSH2 0x20AA DUP2 PUSH2 0x2098 JUMP JUMPDEST DUP2 EQ PUSH2 0x20B4 JUMPI PUSH0 DUP1 REVERT JUMPDEST POP JUMP JUMPDEST PUSH0 DUP2 CALLDATALOAD SWAP1 POP PUSH2 0x20C5 DUP2 PUSH2 0x20A1 JUMP JUMPDEST SWAP3 SWAP2 POP POP JUMP JUMPDEST PUSH0 PUSH1 0x20 DUP3 DUP5 SUB SLT ISZERO PUSH2 0x20E0 JUMPI PUSH2 0x20DF PUSH2 0x1F33 JUMP JUMPDEST JUMPDEST PUSH0 PUSH2 0x20ED DUP5 DUP3 DUP6 ADD PUSH2 0x20B7 JUMP JUMPDEST SWAP2 POP POP SWAP3 SWAP2 POP POP JUMP JUMPDEST PUSH0 PUSH20 0xFFFFFFFFFFFFFFFFFFFFFFFFFFFFFFFFFFFFFFFF DUP3 AND SWAP1 POP SWAP2 SWAP1 POP JUMP JUMPDEST PUSH0 PUSH2 0x211F DUP3 PUSH2 0x20F6 JUMP JUMPDEST SWAP1 POP SWAP2 SWAP1 POP JUMP JUMPDEST PUSH2 0x212F DUP2 PUSH2 0x2115 JUMP JUMPDEST DUP3 MSTORE POP POP JUMP JUMPDEST PUSH0 PUSH1 0x20 DUP3 ADD SWAP1 POP PUSH2 0x2148 PUSH0 DUP4 ADD DUP5 PUSH2 0x2126 JUMP JUMPDEST SWAP3 SWAP2 POP POP JUMP JUMPDEST PUSH2 0x2157 DUP2 PUSH2 0x2115 JUMP JUMPDEST DUP2 EQ PUSH2 0x2161 JUMPI PUSH0 DUP1 REVERT JUMPDEST POP JUMP JUMPDEST PUSH0 DUP2 CALLDATALOAD SWAP1 POP PUSH2 0x2172 DUP2 PUSH2 0x214E JUMP JUMPDEST SWAP3 SWAP2 POP POP JUMP JUMPDEST PUSH0 DUP1 PUSH1 0x40 DUP4 DUP6 SUB SLT ISZERO PUSH2 0x218E JUMPI PUSH2 0x218D PUSH2 0x1F33 JUMP JUMPDEST JUMPDEST PUSH0 PUSH2 0x219B DUP6 DUP3 DUP7 ADD PUSH2 0x2164 JUMP JUMPDEST SWAP3 POP POP PUSH1 0x20 PUSH2 0x21AC DUP6 DUP3 DUP7 ADD PUSH2 0x20B7 JUMP JUMPDEST SWAP2 POP POP SWAP3 POP SWAP3 SWAP1 POP JUMP JUMPDEST PUSH2 0x21BF DUP2 PUSH2 0x2098 JUMP JUMPDEST DUP3 MSTORE POP POP JUMP JUMPDEST PUSH0 PUSH1 0x20 DUP3 ADD SWAP1 POP PUSH2 0x21D8 PUSH0 DUP4 ADD DUP5 PUSH2 0x21B6 JUMP JUMPDEST SWAP3 SWAP2 POP POP JUMP JUMPDEST PUSH0 DUP1 PUSH0 PUSH1 0x60 DUP5 DUP7 SUB SLT ISZERO PUSH2 0x21F5 JUMPI PUSH2 0x21F4 PUSH2 0x1F33 JUMP JUMPDEST JUMPDEST PUSH0 PUSH2 0x2202 DUP7 DUP3 DUP8 ADD PUSH2 0x2164 JUMP JUMPDEST SWAP4 POP POP PUSH1 0x20 PUSH2 0x2213 DUP7 DUP3 DUP8 ADD PUSH2 0x2164 JUMP JUMPDEST SWAP3 POP POP PUSH1 0x40 PUSH2 0x2224 DUP7 DUP3 DUP8 ADD PUSH2 0x20B7 JUMP JUMPDEST SWAP2 POP POP SWAP3 POP SWAP3 POP SWAP3 JUMP JUMPDEST PUSH0 PUSH1 0x20 DUP3 DUP5 SUB SLT ISZERO PUSH2 0x2243 JUMPI PUSH2 0x2242 PUSH2 0x1F33 JUMP JUMPDEST JUMPDEST PUSH0 PUSH2 0x2250 DUP5 DUP3 DUP6 ADD PUSH2 0x2164 JUMP JUMPDEST SWAP2 POP POP SWAP3 SWAP2 POP POP JUMP JUMPDEST PUSH2 0x2262 DUP2 PUSH2 0x1FBB JUMP JUMPDEST DUP2 EQ PUSH2 0x226C JUMPI PUSH0 DUP1 REVERT JUMPDEST POP JUMP JUMPDEST PUSH0 DUP2 CALLDATALOAD SWAP1 POP PUSH2 0x227D DUP2 PUSH2 0x2259 JUMP JUMPDEST SWAP3 SWAP2 POP POP JUMP JUMPDEST PUSH0 DUP1 PUSH1 0x40 DUP4 DUP6 SUB SLT ISZERO PUSH2 0x2299 JUMPI PUSH2 0x2298 PUSH2 0x1F33 JUMP JUMPDEST JUMPDEST PUSH0 PUSH2 0x22A6 DUP6 DUP3 DUP7 ADD PUSH2 0x2164 JUMP JUMPDEST SWAP3 POP POP PUSH1 0x20 PUSH2 0x22B7 DUP6 DUP3 DUP7 ADD PUSH2 0x226F JUMP JUMPDEST SWAP2 POP POP SWAP3 POP SWAP3 SWAP1 POP JUMP JUMPDEST PUSH0 DUP1 REVERT JUMPDEST PUSH0 DUP1 REVERT JUMPDEST PUSH32 0x4E487B7100000000000000000000000000000000000000000000000000000000 PUSH0 MSTORE PUSH1 0x41 PUSH1 0x4 MSTORE PUSH1 0x24 PUSH0 REVERT JUMPDEST PUSH2 0x22FF DUP3 PUSH2 0x2030 JUMP JUMPDEST DUP2 ADD DUP2 DUP2 LT PUSH8 0xFFFFFFFFFFFFFFFF DUP3 GT OR ISZERO PUSH2 0x231E JUMPI PUSH2 0x231D PUSH2 0x22C9 JUMP JUMPDEST JUMPDEST DUP1 PUSH1 0x40 MSTORE POP POP POP JUMP JUMPDEST PUSH0 PUSH2 0x2330 PUSH2 0x1F2A JUMP JUMPDEST SWAP1 POP PUSH2 0x233C DUP3 DUP3 PUSH2 0x22F6 JUMP JUMPDEST SWAP2 SWAP1 POP JUMP JUMPDEST PUSH0 PUSH8 0xFFFFFFFFFFFFFFFF DUP3 GT ISZERO PUSH2 0x235B JUMPI PUSH2 0x235A PUSH2 0x22C9 JUMP JUMPDEST JUMPDEST PUSH2 0x2364 DUP3 PUSH2 0x2030 JUMP JUMPDEST SWAP1 POP PUSH1 0x20 DUP2 ADD SWAP1 POP SWAP2 SWAP1 POP JUMP JUMPDEST DUP3 DUP2 DUP4 CALLDATACOPY PUSH0 DUP4 DUP4 ADD MSTORE POP POP POP JUMP JUMPDEST PUSH0 PUSH2 0x2391 PUSH2 0x238C DUP5 PUSH2 0x2341 JUMP JUMPDEST PUSH2 0x2327 JUMP JUMPDEST SWAP1 POP DUP3 DUP2 MSTORE PUSH1 0x20 DUP2 ADD DUP5 DUP5 DUP5 ADD GT ISZERO PUSH2 0x23AD JUMPI PUSH2 0x23AC PUSH2 0x22C5 JUMP JUMPDEST JUMPDEST PUSH2 0x23B8 DUP5 DUP3 DUP6 PUSH2 0x2371 JUMP JUMPDEST POP SWAP4 SWAP3 POP POP POP JUMP JUMPDEST PUSH0 DUP3 PUSH1 0x1F DUP4 ADD SLT PUSH2 0x23D4 JUMPI PUSH2 0x23D3 PUSH2 0x22C1 JUMP JUMPDEST JUMPDEST DUP2 CALLDATALOAD PUSH2 0x23E4 DUP5 DUP3 PUSH1 0x20 DUP7 ADD PUSH2 0x237F JUMP JUMPDEST SWAP2 POP POP SWAP3 SWAP2 POP POP JUMP JUMPDEST PUSH0 DUP1 PUSH0 DUP1 PUSH1 0x80 DUP6 DUP8 SUB SLT ISZERO PUSH2 0x2405 JUMPI PUSH2 0x2404 PUSH2 0x1F33 JUMP JUMPDEST JUMPDEST PUSH0 PUSH2 0x2412 DUP8 DUP3 DUP9 ADD PUSH2 0x2164 JUMP JUMPDEST SWAP5 POP POP PUSH1 0x20 PUSH2 0x2423 DUP8 DUP3 DUP9 ADD PUSH2 0x2164 JUMP JUMPDEST SWAP4 POP POP PUSH1 0x40 PUSH2 0x2434 DUP8 DUP3 DUP9 ADD PUSH2 0x20B7 JUMP JUMPDEST SWAP3 POP POP PUSH1 0x60 DUP6 ADD CALLDATALOAD PUSH8 0xFFFFFFFFFFFFFFFF DUP2 GT ISZERO PUSH2 0x2455 JUMPI PUSH2 0x2454 PUSH2 0x1F37 JUMP JUMPDEST JUMPDEST PUSH2 0x2461 DUP8 DUP3 DUP9 ADD PUSH2 0x23C0 JUMP JUMPDEST SWAP2 POP POP SWAP3 SWAP6 SWAP2 SWAP5 POP SWAP3 POP JUMP JUMPDEST PUSH0 DUP1 PUSH1 0x40 DUP4 DUP6 SUB SLT ISZERO PUSH2 0x2483 JUMPI PUSH2 0x2482 PUSH2 0x1F33 JUMP JUMPDEST JUMPDEST PUSH0 PUSH2 0x2490 DUP6 DUP3 DUP7 ADD PUSH2 0x2164 JUMP JUMPDEST SWAP3 POP POP PUSH1 0x20 PUSH2 0x24A1 DUP6 DUP3 DUP7 ADD PUSH2 0x2164 JUMP JUMPDEST SWAP2 POP POP SWAP3 POP SWAP3 SWAP1 POP JUMP JUMPDEST PUSH32 0x4E487B7100000000000000000000000000000000000000000000000000000000 PUSH0 MSTORE PUSH1 0x22 PUSH1 0x4 MSTORE PUSH1 0x24 PUSH0 REVERT JUMPDEST PUSH0 PUSH1 0x2 DUP3 DIV SWAP1 POP PUSH1 0x1 DUP3 AND DUP1 PUSH2 0x24EF JUMPI PUSH1 0x7F DUP3 AND SWAP2 POP JUMPDEST PUSH1 0x20 DUP3 LT DUP2 SUB PUSH2 0x2502 JUMPI PUSH2 0x2501 PUSH2 0x24AB JUMP JUMPDEST JUMPDEST POP SWAP2 SWAP1 POP JUMP JUMPDEST PUSH32 0x4D696E74696E67206973206E6F7420656E61626C656400000000000000000000 PUSH0 DUP3 ADD MSTORE POP JUMP JUMPDEST PUSH0 PUSH2 0x253C PUSH1 0x16 DUP4 PUSH2 0x1FF8 JUMP JUMPDEST SWAP2 POP PUSH2 0x2547 DUP3 PUSH2 0x2508 JUMP JUMPDEST PUSH1 0x20 DUP3 ADD SWAP1 POP SWAP2 SWAP1 POP JUMP JUMPDEST PUSH0 PUSH1 0x20 DUP3 ADD SWAP1 POP DUP2 DUP2 SUB PUSH0 DUP4 ADD MSTORE PUSH2 0x2569 DUP2 PUSH2 0x2530 JUMP JUMPDEST SWAP1 POP SWAP2 SWAP1 POP JUMP JUMPDEST PUSH32 0x45786365656473206D696E742063617000000000000000000000000000000000 PUSH0 DUP3 ADD MSTORE POP JUMP JUMPDEST PUSH0 PUSH2 0x25A4 PUSH1 0x10 DUP4 PUSH2 0x1FF8 JUMP JUMPDEST SWAP2 POP PUSH2 0x25AF DUP3 PUSH2 0x2570 JUMP JUMPDEST PUSH1 0x20 DUP3 ADD SWAP1 POP SWAP2 SWAP1 POP JUMP JUMPDEST PUSH0 PUSH1 0x20 DUP3 ADD SWAP1 POP DUP2 DUP2 SUB PUSH0 DUP4 ADD MSTORE PUSH2 0x25D1 DUP2 PUSH2 0x2598 JUMP JUMPDEST SWAP1 POP SWAP2 SWAP1 POP JUMP JUMPDEST PUSH32 0x4E487B7100000000000000000000000000000000000000000000000000000000 PUSH0 MSTORE PUSH1 0x11 PUSH1 0x4 MSTORE PUSH1 0x24 PUSH0 REVERT JUMPDEST PUSH0 PUSH2 0x260F DUP3 PUSH2 0x2098 JUMP JUMPDEST SWAP2 POP PUSH2 0x261A DUP4 PUSH2 0x2098 JUMP JUMPDEST SWAP3 POP DUP3 DUP3 ADD SWAP1 POP DUP1 DUP3 GT ISZERO PUSH2 0x2632 JUMPI PUSH2 0x2631 PUSH2 0x25D8 JUMP JUMPDEST JUMPDEST SWAP3 SWAP2 POP POP JUMP JUMPDEST PUSH32 0x45786365656473206D617820737570706C790000000000000000000000000000 PUSH0 DUP3 ADD MSTORE POP JUMP JUMPDEST PUSH0 PUSH2 0x266C PUSH1 0x12 DUP4 PUSH2 0x1FF8 JUMP JUMPDEST SWAP2 POP PUSH2 0x2677 DUP3 PUSH2 0x2638 JUMP JUMPDEST PUSH1 0x20 DUP3 ADD SWAP1 POP SWAP2 SWAP1 POP JUMP JUMPDEST PUSH0 PUSH1 0x20 DUP3 ADD SWAP1 POP DUP2 DUP2 SUB PUSH0 DUP4 ADD MSTORE PUSH2 0x2699 DUP2 PUSH2 0x2660 JUMP JUMPDEST SWAP1 POP SWAP2 SWAP1 POP JUMP JUMPDEST PUSH32 0x496E636F72726563742045746865722076616C75650000000000000000000000 PUSH0 DUP3 ADD MSTORE POP JUMP JUMPDEST PUSH0 PUSH2 0x26D4 PUSH1 0x15 DUP4 PUSH2 0x1FF8 JUMP JUMPDEST SWAP2 POP PUSH2 0x26DF DUP3 PUSH2 0x26A0 JUMP JUMPDEST PUSH1 0x20 DUP3 ADD SWAP1 POP SWAP2 SWAP1 POP JUMP JUMPDEST PUSH0 PUSH1 0x20 DUP3 ADD SWAP1 POP DUP2 DUP2 SUB PUSH0 DUP4 ADD MSTORE PUSH2 0x2701 DUP2 PUSH2 0x26C8 JUMP JUMPDEST SWAP1 POP SWAP2 SWAP1 POP JUMP JUMPDEST PUSH32 0x416464726573732068617320616C7265616479206D696E746564000000000000 PUSH0 DUP3 ADD MSTORE POP JUMP JUMPDEST PUSH0 PUSH2 0x273C PUSH1 0x1A DUP4 PUSH2 0x1FF8 JUMP JUMPDEST SWAP2 POP PUSH2 0x2747 DUP3 PUSH2 0x2708 JUMP JUMPDEST PUSH1 0x20 DUP3 ADD SWAP1 POP SWAP2 SWAP1 POP JUMP JUMPDEST PUSH0 PUSH1 0x20 DUP3 ADD SWAP1 POP DUP2 DUP2 SUB PUSH0 DUP4 ADD MSTORE PUSH2 0x2769 DUP2 PUSH2 0x2730 JUMP JUMPDEST SWAP1 POP SWAP2 SWAP1 POP JUMP JUMPDEST PUSH0 PUSH2 0x277A DUP3 PUSH2 0x2098 JUMP JUMPDEST SWAP2 POP PUSH32 0xFFFFFFFFFFFFFFFFFFFFFFFFFFFFFFFFFFFFFFFFFFFFFFFFFFFFFFFFFFFFFFFF DUP3 SUB PUSH2 0x27AC JUMPI PUSH2 0x27AB PUSH2 0x25D8 JUMP JUMPDEST JUMPDEST PUSH1 0x1 DUP3 ADD SWAP1 POP SWAP2 SWAP1 POP JUMP JUMPDEST PUSH0 PUSH1 0x40 DUP3 ADD SWAP1 POP PUSH2 0x27CA PUSH0 DUP4 ADD DUP6 PUSH2 0x2126 JUMP JUMPDEST PUSH2 0x27D7 PUSH1 0x20 DUP4 ADD DUP5 PUSH2 0x21B6 JUMP JUMPDEST SWAP4 SWAP3 POP POP POP JUMP JUMPDEST PUSH0 PUSH1 0x60 DUP3 ADD SWAP1 POP PUSH2 0x27F1 PUSH0 DUP4 ADD DUP7 PUSH2 0x2126 JUMP JUMPDEST PUSH2 0x27FE PUSH1 0x20 DUP4 ADD DUP6 PUSH2 0x21B6 JUMP JUMPDEST PUSH2 0x280B PUSH1 0x40 DUP4 ADD DUP5 PUSH2 0x2126 JUMP JUMPDEST SWAP5 SWAP4 POP POP POP POP JUMP JUMPDEST PUSH32 0x4E6F2066756E647320746F207769746864726177000000000000000000000000 PUSH0 DUP3 ADD MSTORE POP JUMP JUMPDEST PUSH0 PUSH2 0x2847 PUSH1 0x14 DUP4 PUSH2 0x1FF8 JUMP JUMPDEST SWAP2 POP PUSH2 0x2852 DUP3 PUSH2 0x2813 JUMP JUMPDEST PUSH1 0x20 DUP3 ADD SWAP1 POP SWAP2 SWAP1 POP JUMP JUMPDEST PUSH0 PUSH1 0x20 DUP3 ADD SWAP1 POP DUP2 DUP2 SUB PUSH0 DUP4 ADD MSTORE PUSH2 0x2874 DUP2 PUSH2 0x283B JUMP JUMPDEST SWAP1 POP SWAP2 SWAP1 POP JUMP JUMPDEST PUSH0 DUP2 SWAP1 POP SWAP3 SWAP2 POP POP JUMP JUMPDEST POP JUMP JUMPDEST PUSH0 PUSH2 0x2893 PUSH0 DUP4 PUSH2 0x287B JUMP JUMPDEST SWAP2 POP PUSH2 0x289E DUP3 PUSH2 0x2885 JUMP JUMPDEST PUSH0 DUP3 ADD SWAP1 POP SWAP2 SWAP1 POP JUMP JUMPDEST PUSH0 PUSH2 0x28B2 DUP3 PUSH2 0x2888 JUMP JUMPDEST SWAP2 POP DUP2 SWAP1 POP SWAP2 SWAP1 POP JUMP JUMPDEST PUSH32 0x5769746864726177616C206661696C6564000000000000000000000000000000 PUSH0 DUP3 ADD MSTORE POP JUMP JUMPDEST PUSH0 PUSH2 0x28F0 PUSH1 0x11 DUP4 PUSH2 0x1FF8 JUMP JUMPDEST SWAP2 POP PUSH2 0x28FB DUP3 PUSH2 0x28BC JUMP JUMPDEST PUSH1 0x20 DUP3 ADD SWAP1 POP SWAP2 SWAP1 POP JUMP JUMPDEST PUSH0 PUSH1 0x20 DUP3 ADD SWAP1 POP DUP2 DUP2 SUB PUSH0 DUP4 ADD MSTORE PUSH2 0x291D DUP2 PUSH2 0x28E4 JUMP JUMPDEST SWAP1 POP SWAP2 SWAP1 POP JUMP JUMPDEST PUSH32 0x4D696E742047656E6573697320426F6F6D6572204E4654206669727374000000 PUSH0 DUP3 ADD MSTORE POP JUMP JUMPDEST PUSH0 PUSH2 0x2958 PUSH1 0x1D DUP4 PUSH2 0x1FF8 JUMP JUMPDEST SWAP2 POP PUSH2 0x2963 DUP3 PUSH2 0x2924 JUMP JUMPDEST PUSH1 0x20 DUP3 ADD SWAP1 POP SWAP2 SWAP1 POP JUMP JUMPDEST PUSH0 PUSH1 0x20 DUP3 ADD SWAP1 POP DUP2 DUP2 SUB PUSH0 DUP4 ADD MSTORE PUSH2 0x2985 DUP2 PUSH2 0x294C JUMP JUMPDEST SWAP1 POP SWAP2 SWAP1 POP JUMP JUMPDEST PUSH32 0x4D6520427261766520426F6F6D65722100000000000000000000000000000000 PUSH0 DUP3 ADD MSTORE POP JUMP JUMPDEST PUSH0 PUSH2 0x29C0 PUSH1 0x10 DUP4 PUSH2 0x1FF8 JUMP JUMPDEST SWAP2 POP PUSH2 0x29CB DUP3 PUSH2 0x298C JUMP JUMPDEST PUSH1 0x20 DUP3 ADD SWAP1 POP SWAP2 SWAP1 POP JUMP JUMPDEST PUSH0 PUSH1 0x20 DUP3 ADD SWAP1 POP DUP2 DUP2 SUB PUSH0 DUP4 ADD MSTORE PUSH2 0x29ED DUP2 PUSH2 0x29B4 JUMP JUMPDEST SWAP1 POP SWAP2 SWAP1 POP JUMP JUMPDEST PUSH0 DUP2 MLOAD SWAP1 POP SWAP2 SWAP1 POP JUMP JUMPDEST PUSH0 DUP3 DUP3 MSTORE PUSH1 0x20 DUP3 ADD SWAP1 POP SWAP3 SWAP2 POP POP JUMP JUMPDEST PUSH0 PUSH2 0x2A18 DUP3 PUSH2 0x29F4 JUMP JUMPDEST PUSH2 0x2A22 DUP2 DUP6 PUSH2 0x29FE JUMP JUMPDEST SWAP4 POP PUSH2 0x2A32 DUP2 DUP6 PUSH1 0x20 DUP7 ADD PUSH2 0x2008 JUMP JUMPDEST PUSH2 0x2A3B DUP2 PUSH2 0x2030 JUMP JUMPDEST DUP5 ADD SWAP2 POP POP SWAP3 SWAP2 POP POP JUMP JUMPDEST PUSH0 PUSH1 0x80 DUP3 ADD SWAP1 POP PUSH2 0x2A59 PUSH0 DUP4 ADD DUP8 PUSH2 0x2126 JUMP JUMPDEST PUSH2 0x2A66 PUSH1 0x20 DUP4 ADD DUP7 PUSH2 0x2126 JUMP JUMPDEST PUSH2 0x2A73 PUSH1 0x40 DUP4 ADD DUP6 PUSH2 0x21B6 JUMP JUMPDEST DUP2 DUP2 SUB PUSH1 0x60 DUP4 ADD MSTORE PUSH2 0x2A85 DUP2 DUP5 PUSH2 0x2A0E JUMP JUMPDEST SWAP1 POP SWAP6 SWAP5 POP POP POP POP POP JUMP JUMPDEST PUSH0 DUP2 MLOAD SWAP1 POP PUSH2 0x2A9E DUP2 PUSH2 0x1F66 JUMP JUMPDEST SWAP3 SWAP2 POP POP JUMP JUMPDEST PUSH0 PUSH1 0x20 DUP3 DUP5 SUB SLT ISZERO PUSH2 0x2AB9 JUMPI PUSH2 0x2AB8 PUSH2 0x1F33 JUMP JUMPDEST JUMPDEST PUSH0 PUSH2 0x2AC6 DUP5 DUP3 DUP6 ADD PUSH2 0x2A90 JUMP JUMPDEST SWAP2 POP POP SWAP3 SWAP2 POP POP JUMP INVALID PUSH10 0x7066733A2F2F516D6277 PUSH22 0x6B3771794531585879636F617048566F5771466D6735 NUMBER CALLDATACOPY PUSH15 0x427279366564564C6F384345626438 PUSH5 0xA264697066 PUSH20 0x58221220922AD6E8746D81BA3A49202BECB608F7 SWAP10 0xAE MLOAD DUP1 0xB5 EXTCODECOPY 0xF6 CALLDATACOPY CREATE2 PUSH10 0xA9747498D16064736F6C PUSH4 0x43000816 STOP CALLER "
				},
				"gasEstimates": {
					"creation": {
						"codeDepositCost": "2213200",
						"executionCost": "infinite",
						"totalCost": "infinite"
					},
					"external": {
						"MAX_SUPPLY()": "371",
						"TOKEN_URI()": "infinite",
						"approve(address,uint256)": "infinite",
						"balanceOf(address)": "infinite",
						"disableMinting()": "infinite",
						"enableMinting(uint256)": "infinite",
						"getApproved(uint256)": "infinite",
						"hasMinted(address)": "2901",
						"isApprovedForAll(address,address)": "infinite",
						"mint()": "infinite",
						"mintCap()": "2471",
						"mintPrice()": "2492",
						"mintedSum()": "2470",
						"mintingEnabled()": "2606",
						"name()": "infinite",
						"owner()": "2560",
						"ownerOf(uint256)": "infinite",
						"renounceOwnership()": "infinite",
						"safeTransferFrom(address,address,uint256)": "infinite",
						"safeTransferFrom(address,address,uint256,bytes)": "infinite",
						"setApprovalForAll(address,bool)": "infinite",
						"setMintPrice(uint256)": "infinite",
						"signGenesisProof()": "2755",
						"supportsInterface(bytes4)": "810",
						"symbol()": "infinite",
						"tokenURI(uint256)": "infinite",
						"totalSupply()": "2515",
						"transferFrom(address,address,uint256)": "infinite",
						"transferOwnership(address)": "infinite",
						"withdraw()": "infinite"
					},
					"internal": {
						"_baseURI()": "infinite"
					}
				},
				"methodIdentifiers": {
					"MAX_SUPPLY()": "32cb6b0c",
					"TOKEN_URI()": "78ce9035",
					"approve(address,uint256)": "095ea7b3",
					"balanceOf(address)": "70a08231",
					"disableMinting()": "7e5cd5c1",
					"enableMinting(uint256)": "f173f78e",
					"getApproved(uint256)": "081812fc",
					"hasMinted(address)": "38e21cce",
					"isApprovedForAll(address,address)": "e985e9c5",
					"mint()": "1249c58b",
					"mintCap()": "76c71ca1",
					"mintPrice()": "6817c76c",
					"mintedSum()": "ab632857",
					"mintingEnabled()": "9fd6db12",
					"name()": "06fdde03",
					"owner()": "8da5cb5b",
					"ownerOf(uint256)": "6352211e",
					"renounceOwnership()": "715018a6",
					"safeTransferFrom(address,address,uint256)": "42842e0e",
					"safeTransferFrom(address,address,uint256,bytes)": "b88d4fde",
					"setApprovalForAll(address,bool)": "a22cb465",
					"setMintPrice(uint256)": "f4a0a528",
					"signGenesisProof()": "b9a2092d",
					"supportsInterface(bytes4)": "01ffc9a7",
					"symbol()": "95d89b41",
					"tokenURI(uint256)": "c87b56dd",
					"totalSupply()": "18160ddd",
					"transferFrom(address,address,uint256)": "23b872dd",
					"transferOwnership(address)": "f2fde38b",
					"withdraw()": "3ccfd60b"
				}
			},
			"storageLayout": {
				"storage": [
					{
						"astId": 317,
						"contract": "src/GenesisBoomerNFT.sol:GenesisBoomerNFT",
						"label": "_name",
						"offset": 0,
						"slot": "0",
						"type": "t_string_storage"
					},
					{
						"astId": 319,
						"contract": "src/GenesisBoomerNFT.sol:GenesisBoomerNFT",
						"label": "_symbol",
						"offset": 0,
						"slot": "1",
						"type": "t_string_storage"
					},
					{
						"astId": 323,
						"contract": "src/GenesisBoomerNFT.sol:GenesisBoomerNFT",
						"label": "_owners",
						"offset": 0,
						"slot": "2",
						"type": "t_mapping(t_uint256,t_address)"
					},
					{
						"astId": 327,
						"contract": "src/GenesisBoomerNFT.sol:GenesisBoomerNFT",
						"label": "_balances",
						"offset": 0,
						"slot": "3",
						"type": "t_mapping(t_address,t_uint256)"
					},
					{
						"astId": 331,
						"contract": "src/GenesisBoomerNFT.sol:GenesisBoomerNFT",
						"label": "_tokenApprovals",
						"offset": 0,
						"slot": "4",
						"type": "t_mapping(t_uint256,t_address)"
					},
					{
						"astId": 337,
						"contract": "src/GenesisBoomerNFT.sol:GenesisBoomerNFT",
						"label": "_operatorApprovals",
						"offset": 0,
						"slot": "5",
						"type": "t_mapping(t_address,t_mapping(t_address,t_bool))"
					},
					{
						"astId": 1497,
						"contract": "src/GenesisBoomerNFT.sol:GenesisBoomerNFT",
						"label": "_status",
						"offset": 0,
						"slot": "6",
						"type": "t_uint256"
					},
					{
						"astId": 8,
						"contract": "src/GenesisBoomerNFT.sol:GenesisBoomerNFT",
						"label": "_owner",
						"offset": 0,
						"slot": "7",
						"type": "t_address"
					},
					{
						"astId": 3025,
						"contract": "src/GenesisBoomerNFT.sol:GenesisBoomerNFT",
						"label": "mintingEnabled",
						"offset": 20,
						"slot": "7",
						"type": "t_bool"
					},
					{
						"astId": 3027,
						"contract": "src/GenesisBoomerNFT.sol:GenesisBoomerNFT",
						"label": "mintPrice",
						"offset": 0,
						"slot": "8",
						"type": "t_uint256"
					},
					{
						"astId": 3029,
						"contract": "src/GenesisBoomerNFT.sol:GenesisBoomerNFT",
						"label": "mintCap",
						"offset": 0,
						"slot": "9",
						"type": "t_uint256"
					},
					{
						"astId": 3031,
						"contract": "src/GenesisBoomerNFT.sol:GenesisBoomerNFT",
						"label": "mintedSum",
						"offset": 0,
						"slot": "10",
						"type": "t_uint256"
					},
					{
						"astId": 3033,
						"contract": "src/GenesisBoomerNFT.sol:GenesisBoomerNFT",
						"label": "totalSupply",
						"offset": 0,
						"slot": "11",
						"type": "t_uint256"
					},
					{
						"astId": 3037,
						"contract": "src/GenesisBoomerNFT.sol:GenesisBoomerNFT",
						"label": "hasMinted",
						"offset": 0,
						"slot": "12",
						"type": "t_mapping(t_address,t_bool)"
					}
				],
				"types": {
					"t_address": {
						"encoding": "inplace",
						"label": "address",
						"numberOfBytes": "20"
					},
					"t_bool": {
						"encoding": "inplace",
						"label": "bool",
						"numberOfBytes": "1"
					},
					"t_mapping(t_address,t_bool)": {
						"encoding": "mapping",
						"key": "t_address",
						"label": "mapping(address => bool)",
						"numberOfBytes": "32",
						"value": "t_bool"
					},
					"t_mapping(t_address,t_mapping(t_address,t_bool))": {
						"encoding": "mapping",
						"key": "t_address",
						"label": "mapping(address => mapping(address => bool))",
						"numberOfBytes": "32",
						"value": "t_mapping(t_address,t_bool)"
					},
					"t_mapping(t_address,t_uint256)": {
						"encoding": "mapping",
						"key": "t_address",
						"label": "mapping(address => uint256)",
						"numberOfBytes": "32",
						"value": "t_uint256"
					},
					"t_mapping(t_uint256,t_address)": {
						"encoding": "mapping",
						"key": "t_uint256",
						"label": "mapping(uint256 => address)",
						"numberOfBytes": "32",
						"value": "t_address"
					},
					"t_string_storage": {
						"encoding": "bytes",
						"label": "string",
						"numberOfBytes": "32"
					},
					"t_uint256": {
						"encoding": "inplace",
						"label": "uint256",
						"numberOfBytes": "32"
					}
				}
			},
			"userdoc": {
				"kind": "user",
				"methods": {},
				"version": 1
			}
		}
	}
}